{
	"data": {
		"bytecode": {
			"linkReferences": {},
			"object": "6080604052600160055534801562000015575f80fd5b506040516200314a3803806200314a83398181016040528101906200003b91906200019b565b5f6200004c6200012f60201b60201c565b9050805f806101000a81548173ffffffffffffffffffffffffffffffffffffffff021916908373ffffffffffffffffffffffffffffffffffffffff1602179055508073ffffffffffffffffffffffffffffffffffffffff165f73ffffffffffffffffffffffffffffffffffffffff167f8be0079c531659141344cd1fd0a4f28419497f9722a3daafe3b4186f6b6457e060405160405180910390a3508060015f6101000a81548173ffffffffffffffffffffffffffffffffffffffff021916908373ffffffffffffffffffffffffffffffffffffffff16021790555050620001cb565b5f33905090565b5f80fd5b5f73ffffffffffffffffffffffffffffffffffffffff82169050919050565b5f62000165826200013a565b9050919050565b620001778162000159565b811462000182575f80fd5b50565b5f8151905062000195816200016c565b92915050565b5f60208284031215620001b357620001b262000136565b5b5f620001c28482850162000185565b91505092915050565b612f7180620001d95f395ff3fe608060405234801561000f575f80fd5b5060043610610114575f3560e01c8063897c86c8116100a0578063c7ac21381161006f578063c7ac2138146102f0578063cac17f3314610325578063d0ffd2b714610355578063dba8020d14610371578063f2fde38b146103a157610114565b8063897c86c8146102685780638da5cb5b14610284578063abe95d02146102a2578063c1a2bbcd146102d257610114565b8063715018a6116100e7578063715018a6146101c457806375cfe90b146101ce578063779dbaa9146101fe5780637d7da0db1461021a57806384c120891461023857610114565b8063081841501461011857806343d089a714610148578063546409ee146101645780635850e48714610194575b5f80fd5b610132600480360381019061012d9190611c87565b6103bd565b60405161013f9190611d85565b60405180910390f35b610162600480360381019061015d9190611da5565b6105a4565b005b61017e60048036038101906101799190611da5565b61067b565b60405161018b9190611fd5565b60405180910390f35b6101ae60048036038101906101a9919061201f565b6109c2565b6040516101bb9190612059565b60405180910390f35b6101cc6109f2565b005b6101e860048036038101906101e391906120d3565b610b40565b6040516101f59190611d85565b60405180910390f35b610218600480360381019061021391906121af565b610c79565b005b610222610e46565b60405161022f919061227b565b60405180910390f35b610252600480360381019061024d9190612294565b610e4c565b60405161025f919061227b565b60405180910390f35b610282600480360381019061027d91906122d2565b610e77565b005b61028c610f6f565b6040516102999190612059565b60405180910390f35b6102bc60048036038101906102b79190612310565b610f96565b6040516102c99190611d85565b60405180910390f35b6102da6110fa565b6040516102e79190612059565b60405180910390f35b61030a6004803603810190610305919061201f565b61111f565b60405161031c969594939291906123b7565b60405180910390f35b61033f600480360381019061033a919061241d565b6111fc565b60405161034c9190611fd5565b60405180910390f35b61036f600480360381019061036a919061245b565b611424565b005b61038b60048036038101906103869190612554565b61151d565b6040516103989190612059565b60405180910390f35b6103bb60048036038101906103b69190611da5565b6116d2565b005b60605f60035f8473ffffffffffffffffffffffffffffffffffffffff1673ffffffffffffffffffffffffffffffffffffffff1681526020019081526020015f2080548060200260200160405190810160405280929190818152602001828054801561044557602002820191905f5260205f20905b815481526020019060010190808311610431575b505050505090505f815167ffffffffffffffff81111561046857610467612639565b5b6040519080825280602002602001820160405280156104965781602001602082028036833780820191505090505b5090505f5b82518110156105985760045f8483815181106104ba576104b9612666565b5b602002602001015181526020019081526020015f205f015f9054906101000a900473ffffffffffffffffffffffffffffffffffffffff1673ffffffffffffffffffffffffffffffffffffffff166370a08231876040518263ffffffff1660e01b81526004016105299190612059565b602060405180830381865afa158015610544573d5f803e3d5ffd5b505050506040513d601f19601f8201168201806040525081019061056891906126a7565b82828151811061057b5761057a612666565b5b60200260200101818152505080610591906126ff565b905061049b565b50809250505092915050565b6105ac61188f565b73ffffffffffffffffffffffffffffffffffffffff165f8054906101000a900473ffffffffffffffffffffffffffffffffffffffff1673ffffffffffffffffffffffffffffffffffffffff1614610638576040517f08c379a000000000000000000000000000000000000000000000000000000000815260040161062f90612790565b60405180910390fd5b8060015f6101000a81548173ffffffffffffffffffffffffffffffffffffffff021916908373ffffffffffffffffffffffffffffffffffffffff16021790555050565b60605f60035f8473ffffffffffffffffffffffffffffffffffffffff1673ffffffffffffffffffffffffffffffffffffffff1681526020019081526020015f2080548060200260200160405190810160405280929190818152602001828054801561070357602002820191905f5260205f20905b8154815260200190600101908083116106ef575b505050505090505f815167ffffffffffffffff81111561072657610725612639565b5b60405190808252806020026020018201604052801561075f57816020015b61074c611bd8565b8152602001906001900390816107445790505b5090505f5b82518110156109b7576040518060e0016040528084838151811061078b5761078a612666565b5b6020026020010151815260200160045f8685815181106107ae576107ad612666565b5b602002602001015181526020019081526020015f205f015f9054906101000a900473ffffffffffffffffffffffffffffffffffffffff1673ffffffffffffffffffffffffffffffffffffffff16815260200160045f86858151811061081657610815612666565b5b602002602001015181526020019081526020015f2060010154815260200160045f86858151811061084a57610849612666565b5b602002602001015181526020019081526020015f2060020154815260200160045f86858151811061087e5761087d612666565b5b602002602001015181526020019081526020015f2060030154815260200160045f8685815181106108b2576108b1612666565b5b602002602001015181526020019081526020015f2060040154815260200160045f8685815181106108e6576108e5612666565b5b602002602001015181526020019081526020015f206005018054610909906127db565b80601f0160208091040260200160405190810160405280929190818152602001828054610935906127db565b80156109805780601f1061095757610100808354040283529160200191610980565b820191905f5260205f20905b81548152906001019060200180831161096357829003601f168201915b505050505081525082828151811061099b5761099a612666565b5b6020026020010181905250806109b0906126ff565b9050610764565b508092505050919050565b6002602052805f5260405f205f915054906101000a900473ffffffffffffffffffffffffffffffffffffffff1681565b6109fa61188f565b73ffffffffffffffffffffffffffffffffffffffff165f8054906101000a900473ffffffffffffffffffffffffffffffffffffffff1673ffffffffffffffffffffffffffffffffffffffff1614610a86576040517f08c379a0000000000000000000000000000000000000000000000000000000008152600401610a7d90612790565b60405180910390fd5b5f73ffffffffffffffffffffffffffffffffffffffff165f8054906101000a900473ffffffffffffffffffffffffffffffffffffffff1673ffffffffffffffffffffffffffffffffffffffff167f8be0079c531659141344cd1fd0a4f28419497f9722a3daafe3b4186f6b6457e060405160405180910390a35f805f6101000a81548173ffffffffffffffffffffffffffffffffffffffff021916908373ffffffffffffffffffffffffffffffffffffffff160217905550565b60605f8383905067ffffffffffffffff811115610b6057610b5f612639565b5b604051908082528060200260200182016040528015610b8e5781602001602082028036833780820191505090505b5090505f5b84849050811015610c6d57848482818110610bb157610bb0612666565b5b9050602002016020810190610bc69190611da5565b73ffffffffffffffffffffffffffffffffffffffff166370a08231876040518263ffffffff1660e01b8152600401610bfe9190612059565b602060405180830381865afa158015610c19573d5f803e3d5ffd5b505050506040513d601f19601f82011682018060405250810190610c3d91906126a7565b828281518110610c5057610c4f612666565b5b60200260200101818152505080610c66906126ff565b9050610b93565b50809150509392505050565b610c8161188f565b73ffffffffffffffffffffffffffffffffffffffff1660025f8a81526020019081526020015f205f9054906101000a900473ffffffffffffffffffffffffffffffffffffffff1673ffffffffffffffffffffffffffffffffffffffff1614610d1e576040517f08c379a0000000000000000000000000000000000000000000000000000000008152600401610d1590612855565b60405180910390fd5b6040518060c001604052808273ffffffffffffffffffffffffffffffffffffffff16815260200188815260200187815260200186815260200185815260200184848080601f0160208091040260200160405190810160405280939291908181526020018383808284375f81840152601f19601f8201169050808301925050505050505081525060045f60055481526020019081526020015f205f820151815f015f6101000a81548173ffffffffffffffffffffffffffffffffffffffff021916908373ffffffffffffffffffffffffffffffffffffffff1602179055506020820151816001015560408201518160020155606082015181600301556080820151816004015560a0820151816005019081610e389190612a10565b509050505050505050505050565b60055481565b6003602052815f5260405f208181548110610e65575f80fd5b905f5260205f20015f91509150505481565b610e7f61188f565b73ffffffffffffffffffffffffffffffffffffffff1660025f8481526020019081526020015f205f9054906101000a900473ffffffffffffffffffffffffffffffffffffffff1673ffffffffffffffffffffffffffffffffffffffff1614610f1c576040517f08c379a0000000000000000000000000000000000000000000000000000000008152600401610f1390612855565b60405180910390fd5b8060025f8481526020019081526020015f205f6101000a81548173ffffffffffffffffffffffffffffffffffffffff021916908373ffffffffffffffffffffffffffffffffffffffff1602179055505050565b5f805f9054906101000a900473ffffffffffffffffffffffffffffffffffffffff16905090565b60605f8383610fa59190612adf565b67ffffffffffffffff811115610fbe57610fbd612639565b5b604051908082528060200260200182016040528015610fec5781602001602082028036833780820191505090505b5090505f8490505b8381108015611004575060055481105b156110ee5760045f8281526020019081526020015f205f015f9054906101000a900473ffffffffffffffffffffffffffffffffffffffff1673ffffffffffffffffffffffffffffffffffffffff166370a08231876040518263ffffffff1660e01b81526004016110749190612059565b602060405180830381865afa15801561108f573d5f803e3d5ffd5b505050506040513d601f19601f820116820180604052508101906110b391906126a7565b8286836110c09190612adf565b815181106110d1576110d0612666565b5b602002602001018181525050806110e7906126ff565b9050610ff4565b50809150509392505050565b60015f9054906101000a900473ffffffffffffffffffffffffffffffffffffffff1681565b6004602052805f5260405f205f91509050805f015f9054906101000a900473ffffffffffffffffffffffffffffffffffffffff169080600101549080600201549080600301549080600401549080600501805461117b906127db565b80601f01602080910402602001604051908101604052809291908181526020018280546111a7906127db565b80156111f25780601f106111c9576101008083540402835291602001916111f2565b820191905f5260205f20905b8154815290600101906020018083116111d557829003601f168201915b5050505050905086565b60605f838361120b9190612adf565b67ffffffffffffffff81111561122457611223612639565b5b60405190808252806020026020018201604052801561125d57816020015b61124a611bd8565b8152602001906001900390816112425790505b5090505f8490505b8381108015611275575060055481105b15611419576040518060e0016040528082815260200160045f8481526020019081526020015f205f015f9054906101000a900473ffffffffffffffffffffffffffffffffffffffff1673ffffffffffffffffffffffffffffffffffffffff16815260200160045f8481526020019081526020015f2060010154815260200160045f8481526020019081526020015f2060020154815260200160045f8481526020019081526020015f2060030154815260200160045f8481526020019081526020015f2060040154815260200160045f8481526020019081526020015f206005018054611360906127db565b80601f016020809104026020016040519081016040528092919081815260200182805461138c906127db565b80156113d75780601f106113ae576101008083540402835291602001916113d7565b820191905f5260205f20905b8154815290600101906020018083116113ba57829003601f168201915b50505050508152508286836113ec9190612adf565b815181106113fd576113fc612666565b5b602002602001018190525080611412906126ff565b9050611265565b508091505092915050565b6114758b8b8b8b8b8b8080601f0160208091040260200160405190810160405280939291908181526020018383808284375f81840152601f19601f820116905080830192505050505050508a611896565b5060015f9054906101000a900473ffffffffffffffffffffffffffffffffffffffff1673ffffffffffffffffffffffffffffffffffffffff1663a102d7da6114bb61188f565b87878787875f6040518863ffffffff1660e01b81526004016114e39796959493929190612b2c565b5f604051808303815f87803b1580156114fa575f80fd5b505af115801561150c573d5f803e3d5ffd5b505050505050505050505050505050565b5f8061152a600554611a5a565b60405160200161153a9190612c1d565b60405160208183030381529060405290505f8673ffffffffffffffffffffffffffffffffffffffff1663e9b15eee838461157261188f565b6040518463ffffffff1660e01b815260040161159093929190612c61565b6020604051808303815f875af11580156115ac573d5f803e3d5ffd5b505050506040513d601f19601f820116820180604052508101906115d09190612ccb565b90506116238d8d8d8d8d8d8080601f0160208091040260200160405190810160405280939291908181526020018383808284375f81840152601f19601f8201169050808301925050505050505086611896565b5060015f9054906101000a900473ffffffffffffffffffffffffffffffffffffffff1673ffffffffffffffffffffffffffffffffffffffff1663a102d7da61166961188f565b8389895f8a60016040518863ffffffff1660e01b81526004016116929796959493929190612d2f565b5f604051808303815f87803b1580156116a9575f80fd5b505af11580156116bb573d5f803e3d5ffd5b5050505080925050509a9950505050505050505050565b6116da61188f565b73ffffffffffffffffffffffffffffffffffffffff165f8054906101000a900473ffffffffffffffffffffffffffffffffffffffff1673ffffffffffffffffffffffffffffffffffffffff1614611766576040517f08c379a000000000000000000000000000000000000000000000000000000000815260040161175d90612790565b60405180910390fd5b5f73ffffffffffffffffffffffffffffffffffffffff168173ffffffffffffffffffffffffffffffffffffffff16036117d4576040517f08c379a00000000000000000000000000000000000000000000000000000000081526004016117cb90612e0c565b60405180910390fd5b8073ffffffffffffffffffffffffffffffffffffffff165f8054906101000a900473ffffffffffffffffffffffffffffffffffffffff1673ffffffffffffffffffffffffffffffffffffffff167f8be0079c531659141344cd1fd0a4f28419497f9722a3daafe3b4186f6b6457e060405160405180910390a3805f806101000a81548173ffffffffffffffffffffffffffffffffffffffff021916908373ffffffffffffffffffffffffffffffffffffffff16021790555050565b5f33905090565b5f6040518060c001604052808373ffffffffffffffffffffffffffffffffffffffff1681526020018881526020018781526020018681526020018581526020018481525060045f60055481526020019081526020015f205f820151815f015f6101000a81548173ffffffffffffffffffffffffffffffffffffffff021916908373ffffffffffffffffffffffffffffffffffffffff1602179055506020820151816001015560408201518160020155606082015181600301556080820151816004015560a082015181600501908161196e9190612a10565b5090505061197a61188f565b60025f60055481526020019081526020015f205f6101000a81548173ffffffffffffffffffffffffffffffffffffffff021916908373ffffffffffffffffffffffffffffffffffffffff16021790555060035f6119d561188f565b73ffffffffffffffffffffffffffffffffffffffff1673ffffffffffffffffffffffffffffffffffffffff1681526020019081526020015f20600554908060018154018082558091505060019003905f5260205f20015f9091909190915055600160055f828254611a469190612e2a565b925050819055508190509695505050505050565b60605f8203611aa0576040518060400160405280600181526020017f30000000000000000000000000000000000000000000000000000000000000008152509050611bd3565b5f8290505f5b5f8214611acf578080611ab8906126ff565b915050600a82611ac89190612e8a565b9150611aa6565b5f8167ffffffffffffffff811115611aea57611ae9612639565b5b6040519080825280601f01601f191660200182016040528015611b1c5781602001600182028036833780820191505090505b5090505f8290505b5f8614611bcb57600181611b389190612adf565b90505f600a8088611b499190612e8a565b611b539190612eba565b87611b5e9190612adf565b6030611b6a9190612f07565b90505f8160f81b905080848481518110611b8757611b86612666565b5b60200101907effffffffffffffffffffffffffffffffffffffffffffffffffffffffffffff191690815f1a905350600a88611bc29190612e8a565b97505050611b24565b819450505050505b919050565b6040518060e001604052805f81526020015f73ffffffffffffffffffffffffffffffffffffffff1681526020015f81526020015f81526020015f81526020015f8152602001606081525090565b5f80fd5b5f80fd5b5f73ffffffffffffffffffffffffffffffffffffffff82169050919050565b5f611c5682611c2d565b9050919050565b611c6681611c4c565b8114611c70575f80fd5b50565b5f81359050611c8181611c5d565b92915050565b5f8060408385031215611c9d57611c9c611c25565b5b5f611caa85828601611c73565b9250506020611cbb85828601611c73565b9150509250929050565b5f81519050919050565b5f82825260208201905092915050565b5f819050602082019050919050565b5f819050919050565b611d0081611cee565b82525050565b5f611d118383611cf7565b60208301905092915050565b5f602082019050919050565b5f611d3382611cc5565b611d3d8185611ccf565b9350611d4883611cdf565b805f5b83811015611d78578151611d5f8882611d06565b9750611d6a83611d1d565b925050600181019050611d4b565b5085935050505092915050565b5f6020820190508181035f830152611d9d8184611d29565b905092915050565b5f60208284031215611dba57611db9611c25565b5b5f611dc784828501611c73565b91505092915050565b5f81519050919050565b5f82825260208201905092915050565b5f819050602082019050919050565b611e0281611c4c565b82525050565b5f819050919050565b611e1a81611e08565b82525050565b5f81519050919050565b5f82825260208201905092915050565b5f5b83811015611e57578082015181840152602081019050611e3c565b5f8484015250505050565b5f601f19601f8301169050919050565b5f611e7c82611e20565b611e868185611e2a565b9350611e96818560208601611e3a565b611e9f81611e62565b840191505092915050565b5f60e083015f830151611ebf5f860182611cf7565b506020830151611ed26020860182611df9565b506040830151611ee56040860182611cf7565b506060830151611ef86060860182611cf7565b506080830151611f0b6080860182611e11565b5060a0830151611f1e60a0860182611e11565b5060c083015184820360c0860152611f368282611e72565b9150508091505092915050565b5f611f4e8383611eaa565b905092915050565b5f602082019050919050565b5f611f6c82611dd0565b611f768185611dda565b935083602082028501611f8885611dea565b805f5b85811015611fc35784840389528151611fa48582611f43565b9450611faf83611f56565b925060208a01995050600181019050611f8b565b50829750879550505050505092915050565b5f6020820190508181035f830152611fed8184611f62565b905092915050565b611ffe81611cee565b8114612008575f80fd5b50565b5f8135905061201981611ff5565b92915050565b5f6020828403121561203457612033611c25565b5b5f6120418482850161200b565b91505092915050565b61205381611c4c565b82525050565b5f60208201905061206c5f83018461204a565b92915050565b5f80fd5b5f80fd5b5f80fd5b5f8083601f84011261209357612092612072565b5b8235905067ffffffffffffffff8111156120b0576120af612076565b5b6020830191508360208202830111156120cc576120cb61207a565b5b9250929050565b5f805f604084860312156120ea576120e9611c25565b5b5f6120f786828701611c73565b935050602084013567ffffffffffffffff81111561211857612117611c29565b5b6121248682870161207e565b92509250509250925092565b61213981611e08565b8114612143575f80fd5b50565b5f8135905061215481612130565b92915050565b5f8083601f84011261216f5761216e612072565b5b8235905067ffffffffffffffff81111561218c5761218b612076565b5b6020830191508360018202830111156121a8576121a761207a565b5b9250929050565b5f805f805f805f8060e0898b0312156121cb576121ca611c25565b5b5f6121d88b828c0161200b565b98505060206121e98b828c0161200b565b97505060406121fa8b828c0161200b565b965050606061220b8b828c01612146565b955050608061221c8b828c01612146565b94505060a089013567ffffffffffffffff81111561223d5761223c611c29565b5b6122498b828c0161215a565b935093505060c061225c8b828c01611c73565b9150509295985092959890939650565b61227581611cee565b82525050565b5f60208201905061228e5f83018461226c565b92915050565b5f80604083850312156122aa576122a9611c25565b5b5f6122b785828601611c73565b92505060206122c88582860161200b565b9150509250929050565b5f80604083850312156122e8576122e7611c25565b5b5f6122f58582860161200b565b925050602061230685828601611c73565b9150509250929050565b5f805f6060848603121561232757612326611c25565b5b5f61233486828701611c73565b93505060206123458682870161200b565b92505060406123568682870161200b565b9150509250925092565b61236981611e08565b82525050565b5f82825260208201905092915050565b5f61238982611e20565b612393818561236f565b93506123a3818560208601611e3a565b6123ac81611e62565b840191505092915050565b5f60c0820190506123ca5f83018961204a565b6123d7602083018861226c565b6123e4604083018761226c565b6123f16060830186612360565b6123fe6080830185612360565b81810360a0830152612410818461237f565b9050979650505050505050565b5f806040838503121561243357612432611c25565b5b5f6124408582860161200b565b92505060206124518582860161200b565b9150509250929050565b5f805f805f805f805f805f6101408c8e03121561247b5761247a611c25565b5b5f6124888e828f0161200b565b9b505060206124998e828f0161200b565b9a505060406124aa8e828f01612146565b99505060606124bb8e828f01612146565b98505060808c013567ffffffffffffffff8111156124dc576124db611c29565b5b6124e88e828f0161215a565b975097505060a06124fb8e828f01611c73565b95505060c061250c8e828f01611c73565b94505060e061251d8e828f0161200b565b93505061010061252f8e828f0161200b565b9250506101206125418e828f0161200b565b9150509295989b509295989b9093969950565b5f805f805f805f805f806101208b8d03121561257357612572611c25565b5b5f6125808d828e0161200b565b9a505060206125918d828e0161200b565b99505060406125a28d828e01612146565b98505060606125b38d828e01612146565b97505060808b013567ffffffffffffffff8111156125d4576125d3611c29565b5b6125e08d828e0161215a565b965096505060a06125f38d828e01611c73565b94505060c06126048d828e01611c73565b93505060e06126158d828e0161200b565b9250506101006126278d828e0161200b565b9150509295989b9194979a5092959850565b7f4e487b71000000000000000000000000000000000000000000000000000000005f52604160045260245ffd5b7f4e487b71000000000000000000000000000000000000000000000000000000005f52603260045260245ffd5b5f815190506126a181611ff5565b92915050565b5f602082840312156126bc576126bb611c25565b5b5f6126c984828501612693565b91505092915050565b7f4e487b71000000000000000000000000000000000000000000000000000000005f52601160045260245ffd5b5f61270982611cee565b91507fffffffffffffffffffffffffffffffffffffffffffffffffffffffffffffffff820361273b5761273a6126d2565b5b600182019050919050565b7f4f776e61626c653a2063616c6c6572206973206e6f7420746865206f776e65725f82015250565b5f61277a60208361236f565b915061278582612746565b602082019050919050565b5f6020820190508181035f8301526127a78161276e565b9050919050565b7f4e487b71000000000000000000000000000000000000000000000000000000005f52602260045260245ffd5b5f60028204905060018216806127f257607f821691505b602082108103612805576128046127ae565b5b50919050565b7f556e617574686f72697a6564206576656e7420696e666f206368616e676500005f82015250565b5f61283f601e8361236f565b915061284a8261280b565b602082019050919050565b5f6020820190508181035f83015261286c81612833565b9050919050565b5f819050815f5260205f209050919050565b5f6020601f8301049050919050565b5f82821b905092915050565b5f600883026128cf7fffffffffffffffffffffffffffffffffffffffffffffffffffffffffffffffff82612894565b6128d98683612894565b95508019841693508086168417925050509392505050565b5f819050919050565b5f61291461290f61290a84611cee565b6128f1565b611cee565b9050919050565b5f819050919050565b61292d836128fa565b6129416129398261291b565b8484546128a0565b825550505050565b5f90565b612955612949565b612960818484612924565b505050565b5b81811015612983576129785f8261294d565b600181019050612966565b5050565b601f8211156129c85761299981612873565b6129a284612885565b810160208510156129b1578190505b6129c56129bd85612885565b830182612965565b50505b505050565b5f82821c905092915050565b5f6129e85f19846008026129cd565b1980831691505092915050565b5f612a0083836129d9565b9150826002028217905092915050565b612a1982611e20565b67ffffffffffffffff811115612a3257612a31612639565b5b612a3c82546127db565b612a47828285612987565b5f60209050601f831160018114612a78575f8415612a66578287015190505b612a7085826129f5565b865550612ad7565b601f198416612a8686612873565b5f5b82811015612aad57848901518255600182019150602085019450602081019050612a88565b86831015612aca5784890151612ac6601f8916826129d9565b8355505b6001600288020188555050505b505050505050565b5f612ae982611cee565b9150612af483611cee565b9250828203905081811115612b0c57612b0b6126d2565b5b92915050565b5f8115159050919050565b612b2681612b12565b82525050565b5f60e082019050612b3f5f83018a61204a565b612b4c602083018961204a565b612b59604083018861204a565b612b66606083018761226c565b612b73608083018661226c565b612b8060a083018561226c565b612b8d60c0830184612b1d565b98975050505050505050565b5f81905092915050565b7f576562334576656e745f000000000000000000000000000000000000000000005f82015250565b5f612bd7600a83612b99565b9150612be282612ba3565b600a82019050919050565b5f612bf782611e20565b612c018185612b99565b9350612c11818560208601611e3a565b80840191505092915050565b5f612c2782612bcb565b9150612c338284612bed565b915081905092915050565b50565b5f612c4c5f8361236f565b9150612c5782612c3e565b5f82019050919050565b5f6080820190508181035f830152612c79818661237f565b90508181036020830152612c8d818561237f565b90508181036040830152612ca081612c41565b9050612caf606083018461204a565b949350505050565b5f81519050612cc581611c5d565b92915050565b5f60208284031215612ce057612cdf611c25565b5b5f612ced84828501612cb7565b91505092915050565b5f819050919050565b5f612d19612d14612d0f84612cf6565b6128f1565b611cee565b9050919050565b612d2981612cff565b82525050565b5f60e082019050612d425f83018a61204a565b612d4f602083018961204a565b612d5c604083018861204a565b612d69606083018761226c565b612d766080830186612d20565b612d8360a083018561226c565b612d9060c0830184612b1d565b98975050505050505050565b7f4f776e61626c653a206e6577206f776e657220697320746865207a65726f20615f8201527f6464726573730000000000000000000000000000000000000000000000000000602082015250565b5f612df660268361236f565b9150612e0182612d9c565b604082019050919050565b5f6020820190508181035f830152612e2381612dea565b9050919050565b5f612e3482611cee565b9150612e3f83611cee565b9250828201905080821115612e5757612e566126d2565b5b92915050565b7f4e487b71000000000000000000000000000000000000000000000000000000005f52601260045260245ffd5b5f612e9482611cee565b9150612e9f83611cee565b925082612eaf57612eae612e5d565b5b828204905092915050565b5f612ec482611cee565b9150612ecf83611cee565b9250828202612edd81611cee565b91508282048414831517612ef457612ef36126d2565b5b5092915050565b5f60ff82169050919050565b5f612f1182612efb565b9150612f1c83612efb565b9250828201905060ff811115612f3557612f346126d2565b5b9291505056fea26469706673582212205271ee32b64f0bb1b06be78fa1eea7d2dcd31c8377ae46d5864b33ef5b619bb264736f6c63430008150033",
			"opcodes": "PUSH1 0x80 PUSH1 0x40 MSTORE PUSH1 0x1 PUSH1 0x5 SSTORE CALLVALUE DUP1 ISZERO PUSH3 0x15 JUMPI PUSH0 DUP1 REVERT JUMPDEST POP PUSH1 0x40 MLOAD PUSH3 0x314A CODESIZE SUB DUP1 PUSH3 0x314A DUP4 CODECOPY DUP2 DUP2 ADD PUSH1 0x40 MSTORE DUP2 ADD SWAP1 PUSH3 0x3B SWAP2 SWAP1 PUSH3 0x19B JUMP JUMPDEST PUSH0 PUSH3 0x4C PUSH3 0x12F PUSH1 0x20 SHL PUSH1 0x20 SHR JUMP JUMPDEST SWAP1 POP DUP1 PUSH0 DUP1 PUSH2 0x100 EXP DUP2 SLOAD DUP2 PUSH20 0xFFFFFFFFFFFFFFFFFFFFFFFFFFFFFFFFFFFFFFFF MUL NOT AND SWAP1 DUP4 PUSH20 0xFFFFFFFFFFFFFFFFFFFFFFFFFFFFFFFFFFFFFFFF AND MUL OR SWAP1 SSTORE POP DUP1 PUSH20 0xFFFFFFFFFFFFFFFFFFFFFFFFFFFFFFFFFFFFFFFF AND PUSH0 PUSH20 0xFFFFFFFFFFFFFFFFFFFFFFFFFFFFFFFFFFFFFFFF AND PUSH32 0x8BE0079C531659141344CD1FD0A4F28419497F9722A3DAAFE3B4186F6B6457E0 PUSH1 0x40 MLOAD PUSH1 0x40 MLOAD DUP1 SWAP2 SUB SWAP1 LOG3 POP DUP1 PUSH1 0x1 PUSH0 PUSH2 0x100 EXP DUP2 SLOAD DUP2 PUSH20 0xFFFFFFFFFFFFFFFFFFFFFFFFFFFFFFFFFFFFFFFF MUL NOT AND SWAP1 DUP4 PUSH20 0xFFFFFFFFFFFFFFFFFFFFFFFFFFFFFFFFFFFFFFFF AND MUL OR SWAP1 SSTORE POP POP PUSH3 0x1CB JUMP JUMPDEST PUSH0 CALLER SWAP1 POP SWAP1 JUMP JUMPDEST PUSH0 DUP1 REVERT JUMPDEST PUSH0 PUSH20 0xFFFFFFFFFFFFFFFFFFFFFFFFFFFFFFFFFFFFFFFF DUP3 AND SWAP1 POP SWAP2 SWAP1 POP JUMP JUMPDEST PUSH0 PUSH3 0x165 DUP3 PUSH3 0x13A JUMP JUMPDEST SWAP1 POP SWAP2 SWAP1 POP JUMP JUMPDEST PUSH3 0x177 DUP2 PUSH3 0x159 JUMP JUMPDEST DUP2 EQ PUSH3 0x182 JUMPI PUSH0 DUP1 REVERT JUMPDEST POP JUMP JUMPDEST PUSH0 DUP2 MLOAD SWAP1 POP PUSH3 0x195 DUP2 PUSH3 0x16C JUMP JUMPDEST SWAP3 SWAP2 POP POP JUMP JUMPDEST PUSH0 PUSH1 0x20 DUP3 DUP5 SUB SLT ISZERO PUSH3 0x1B3 JUMPI PUSH3 0x1B2 PUSH3 0x136 JUMP JUMPDEST JUMPDEST PUSH0 PUSH3 0x1C2 DUP5 DUP3 DUP6 ADD PUSH3 0x185 JUMP JUMPDEST SWAP2 POP POP SWAP3 SWAP2 POP POP JUMP JUMPDEST PUSH2 0x2F71 DUP1 PUSH3 0x1D9 PUSH0 CODECOPY PUSH0 RETURN INVALID PUSH1 0x80 PUSH1 0x40 MSTORE CALLVALUE DUP1 ISZERO PUSH2 0xF JUMPI PUSH0 DUP1 REVERT JUMPDEST POP PUSH1 0x4 CALLDATASIZE LT PUSH2 0x114 JUMPI PUSH0 CALLDATALOAD PUSH1 0xE0 SHR DUP1 PUSH4 0x897C86C8 GT PUSH2 0xA0 JUMPI DUP1 PUSH4 0xC7AC2138 GT PUSH2 0x6F JUMPI DUP1 PUSH4 0xC7AC2138 EQ PUSH2 0x2F0 JUMPI DUP1 PUSH4 0xCAC17F33 EQ PUSH2 0x325 JUMPI DUP1 PUSH4 0xD0FFD2B7 EQ PUSH2 0x355 JUMPI DUP1 PUSH4 0xDBA8020D EQ PUSH2 0x371 JUMPI DUP1 PUSH4 0xF2FDE38B EQ PUSH2 0x3A1 JUMPI PUSH2 0x114 JUMP JUMPDEST DUP1 PUSH4 0x897C86C8 EQ PUSH2 0x268 JUMPI DUP1 PUSH4 0x8DA5CB5B EQ PUSH2 0x284 JUMPI DUP1 PUSH4 0xABE95D02 EQ PUSH2 0x2A2 JUMPI DUP1 PUSH4 0xC1A2BBCD EQ PUSH2 0x2D2 JUMPI PUSH2 0x114 JUMP JUMPDEST DUP1 PUSH4 0x715018A6 GT PUSH2 0xE7 JUMPI DUP1 PUSH4 0x715018A6 EQ PUSH2 0x1C4 JUMPI DUP1 PUSH4 0x75CFE90B EQ PUSH2 0x1CE JUMPI DUP1 PUSH4 0x779DBAA9 EQ PUSH2 0x1FE JUMPI DUP1 PUSH4 0x7D7DA0DB EQ PUSH2 0x21A JUMPI DUP1 PUSH4 0x84C12089 EQ PUSH2 0x238 JUMPI PUSH2 0x114 JUMP JUMPDEST DUP1 PUSH4 0x8184150 EQ PUSH2 0x118 JUMPI DUP1 PUSH4 0x43D089A7 EQ PUSH2 0x148 JUMPI DUP1 PUSH4 0x546409EE EQ PUSH2 0x164 JUMPI DUP1 PUSH4 0x5850E487 EQ PUSH2 0x194 JUMPI JUMPDEST PUSH0 DUP1 REVERT JUMPDEST PUSH2 0x132 PUSH1 0x4 DUP1 CALLDATASIZE SUB DUP2 ADD SWAP1 PUSH2 0x12D SWAP2 SWAP1 PUSH2 0x1C87 JUMP JUMPDEST PUSH2 0x3BD JUMP JUMPDEST PUSH1 0x40 MLOAD PUSH2 0x13F SWAP2 SWAP1 PUSH2 0x1D85 JUMP JUMPDEST PUSH1 0x40 MLOAD DUP1 SWAP2 SUB SWAP1 RETURN JUMPDEST PUSH2 0x162 PUSH1 0x4 DUP1 CALLDATASIZE SUB DUP2 ADD SWAP1 PUSH2 0x15D SWAP2 SWAP1 PUSH2 0x1DA5 JUMP JUMPDEST PUSH2 0x5A4 JUMP JUMPDEST STOP JUMPDEST PUSH2 0x17E PUSH1 0x4 DUP1 CALLDATASIZE SUB DUP2 ADD SWAP1 PUSH2 0x179 SWAP2 SWAP1 PUSH2 0x1DA5 JUMP JUMPDEST PUSH2 0x67B JUMP JUMPDEST PUSH1 0x40 MLOAD PUSH2 0x18B SWAP2 SWAP1 PUSH2 0x1FD5 JUMP JUMPDEST PUSH1 0x40 MLOAD DUP1 SWAP2 SUB SWAP1 RETURN JUMPDEST PUSH2 0x1AE PUSH1 0x4 DUP1 CALLDATASIZE SUB DUP2 ADD SWAP1 PUSH2 0x1A9 SWAP2 SWAP1 PUSH2 0x201F JUMP JUMPDEST PUSH2 0x9C2 JUMP JUMPDEST PUSH1 0x40 MLOAD PUSH2 0x1BB SWAP2 SWAP1 PUSH2 0x2059 JUMP JUMPDEST PUSH1 0x40 MLOAD DUP1 SWAP2 SUB SWAP1 RETURN JUMPDEST PUSH2 0x1CC PUSH2 0x9F2 JUMP JUMPDEST STOP JUMPDEST PUSH2 0x1E8 PUSH1 0x4 DUP1 CALLDATASIZE SUB DUP2 ADD SWAP1 PUSH2 0x1E3 SWAP2 SWAP1 PUSH2 0x20D3 JUMP JUMPDEST PUSH2 0xB40 JUMP JUMPDEST PUSH1 0x40 MLOAD PUSH2 0x1F5 SWAP2 SWAP1 PUSH2 0x1D85 JUMP JUMPDEST PUSH1 0x40 MLOAD DUP1 SWAP2 SUB SWAP1 RETURN JUMPDEST PUSH2 0x218 PUSH1 0x4 DUP1 CALLDATASIZE SUB DUP2 ADD SWAP1 PUSH2 0x213 SWAP2 SWAP1 PUSH2 0x21AF JUMP JUMPDEST PUSH2 0xC79 JUMP JUMPDEST STOP JUMPDEST PUSH2 0x222 PUSH2 0xE46 JUMP JUMPDEST PUSH1 0x40 MLOAD PUSH2 0x22F SWAP2 SWAP1 PUSH2 0x227B JUMP JUMPDEST PUSH1 0x40 MLOAD DUP1 SWAP2 SUB SWAP1 RETURN JUMPDEST PUSH2 0x252 PUSH1 0x4 DUP1 CALLDATASIZE SUB DUP2 ADD SWAP1 PUSH2 0x24D SWAP2 SWAP1 PUSH2 0x2294 JUMP JUMPDEST PUSH2 0xE4C JUMP JUMPDEST PUSH1 0x40 MLOAD PUSH2 0x25F SWAP2 SWAP1 PUSH2 0x227B JUMP JUMPDEST PUSH1 0x40 MLOAD DUP1 SWAP2 SUB SWAP1 RETURN JUMPDEST PUSH2 0x282 PUSH1 0x4 DUP1 CALLDATASIZE SUB DUP2 ADD SWAP1 PUSH2 0x27D SWAP2 SWAP1 PUSH2 0x22D2 JUMP JUMPDEST PUSH2 0xE77 JUMP JUMPDEST STOP JUMPDEST PUSH2 0x28C PUSH2 0xF6F JUMP JUMPDEST PUSH1 0x40 MLOAD PUSH2 0x299 SWAP2 SWAP1 PUSH2 0x2059 JUMP JUMPDEST PUSH1 0x40 MLOAD DUP1 SWAP2 SUB SWAP1 RETURN JUMPDEST PUSH2 0x2BC PUSH1 0x4 DUP1 CALLDATASIZE SUB DUP2 ADD SWAP1 PUSH2 0x2B7 SWAP2 SWAP1 PUSH2 0x2310 JUMP JUMPDEST PUSH2 0xF96 JUMP JUMPDEST PUSH1 0x40 MLOAD PUSH2 0x2C9 SWAP2 SWAP1 PUSH2 0x1D85 JUMP JUMPDEST PUSH1 0x40 MLOAD DUP1 SWAP2 SUB SWAP1 RETURN JUMPDEST PUSH2 0x2DA PUSH2 0x10FA JUMP JUMPDEST PUSH1 0x40 MLOAD PUSH2 0x2E7 SWAP2 SWAP1 PUSH2 0x2059 JUMP JUMPDEST PUSH1 0x40 MLOAD DUP1 SWAP2 SUB SWAP1 RETURN JUMPDEST PUSH2 0x30A PUSH1 0x4 DUP1 CALLDATASIZE SUB DUP2 ADD SWAP1 PUSH2 0x305 SWAP2 SWAP1 PUSH2 0x201F JUMP JUMPDEST PUSH2 0x111F JUMP JUMPDEST PUSH1 0x40 MLOAD PUSH2 0x31C SWAP7 SWAP6 SWAP5 SWAP4 SWAP3 SWAP2 SWAP1 PUSH2 0x23B7 JUMP JUMPDEST PUSH1 0x40 MLOAD DUP1 SWAP2 SUB SWAP1 RETURN JUMPDEST PUSH2 0x33F PUSH1 0x4 DUP1 CALLDATASIZE SUB DUP2 ADD SWAP1 PUSH2 0x33A SWAP2 SWAP1 PUSH2 0x241D JUMP JUMPDEST PUSH2 0x11FC JUMP JUMPDEST PUSH1 0x40 MLOAD PUSH2 0x34C SWAP2 SWAP1 PUSH2 0x1FD5 JUMP JUMPDEST PUSH1 0x40 MLOAD DUP1 SWAP2 SUB SWAP1 RETURN JUMPDEST PUSH2 0x36F PUSH1 0x4 DUP1 CALLDATASIZE SUB DUP2 ADD SWAP1 PUSH2 0x36A SWAP2 SWAP1 PUSH2 0x245B JUMP JUMPDEST PUSH2 0x1424 JUMP JUMPDEST STOP JUMPDEST PUSH2 0x38B PUSH1 0x4 DUP1 CALLDATASIZE SUB DUP2 ADD SWAP1 PUSH2 0x386 SWAP2 SWAP1 PUSH2 0x2554 JUMP JUMPDEST PUSH2 0x151D JUMP JUMPDEST PUSH1 0x40 MLOAD PUSH2 0x398 SWAP2 SWAP1 PUSH2 0x2059 JUMP JUMPDEST PUSH1 0x40 MLOAD DUP1 SWAP2 SUB SWAP1 RETURN JUMPDEST PUSH2 0x3BB PUSH1 0x4 DUP1 CALLDATASIZE SUB DUP2 ADD SWAP1 PUSH2 0x3B6 SWAP2 SWAP1 PUSH2 0x1DA5 JUMP JUMPDEST PUSH2 0x16D2 JUMP JUMPDEST STOP JUMPDEST PUSH1 0x60 PUSH0 PUSH1 0x3 PUSH0 DUP5 PUSH20 0xFFFFFFFFFFFFFFFFFFFFFFFFFFFFFFFFFFFFFFFF AND PUSH20 0xFFFFFFFFFFFFFFFFFFFFFFFFFFFFFFFFFFFFFFFF AND DUP2 MSTORE PUSH1 0x20 ADD SWAP1 DUP2 MSTORE PUSH1 0x20 ADD PUSH0 KECCAK256 DUP1 SLOAD DUP1 PUSH1 0x20 MUL PUSH1 0x20 ADD PUSH1 0x40 MLOAD SWAP1 DUP2 ADD PUSH1 0x40 MSTORE DUP1 SWAP3 SWAP2 SWAP1 DUP2 DUP2 MSTORE PUSH1 0x20 ADD DUP3 DUP1 SLOAD DUP1 ISZERO PUSH2 0x445 JUMPI PUSH1 0x20 MUL DUP3 ADD SWAP2 SWAP1 PUSH0 MSTORE PUSH1 0x20 PUSH0 KECCAK256 SWAP1 JUMPDEST DUP2 SLOAD DUP2 MSTORE PUSH1 0x20 ADD SWAP1 PUSH1 0x1 ADD SWAP1 DUP1 DUP4 GT PUSH2 0x431 JUMPI JUMPDEST POP POP POP POP POP SWAP1 POP PUSH0 DUP2 MLOAD PUSH8 0xFFFFFFFFFFFFFFFF DUP2 GT ISZERO PUSH2 0x468 JUMPI PUSH2 0x467 PUSH2 0x2639 JUMP JUMPDEST JUMPDEST PUSH1 0x40 MLOAD SWAP1 DUP1 DUP3 MSTORE DUP1 PUSH1 0x20 MUL PUSH1 0x20 ADD DUP3 ADD PUSH1 0x40 MSTORE DUP1 ISZERO PUSH2 0x496 JUMPI DUP2 PUSH1 0x20 ADD PUSH1 0x20 DUP3 MUL DUP1 CALLDATASIZE DUP4 CALLDATACOPY DUP1 DUP3 ADD SWAP2 POP POP SWAP1 POP JUMPDEST POP SWAP1 POP PUSH0 JUMPDEST DUP3 MLOAD DUP2 LT ISZERO PUSH2 0x598 JUMPI PUSH1 0x4 PUSH0 DUP5 DUP4 DUP2 MLOAD DUP2 LT PUSH2 0x4BA JUMPI PUSH2 0x4B9 PUSH2 0x2666 JUMP JUMPDEST JUMPDEST PUSH1 0x20 MUL PUSH1 0x20 ADD ADD MLOAD DUP2 MSTORE PUSH1 0x20 ADD SWAP1 DUP2 MSTORE PUSH1 0x20 ADD PUSH0 KECCAK256 PUSH0 ADD PUSH0 SWAP1 SLOAD SWAP1 PUSH2 0x100 EXP SWAP1 DIV PUSH20 0xFFFFFFFFFFFFFFFFFFFFFFFFFFFFFFFFFFFFFFFF AND PUSH20 0xFFFFFFFFFFFFFFFFFFFFFFFFFFFFFFFFFFFFFFFF AND PUSH4 0x70A08231 DUP8 PUSH1 0x40 MLOAD DUP3 PUSH4 0xFFFFFFFF AND PUSH1 0xE0 SHL DUP2 MSTORE PUSH1 0x4 ADD PUSH2 0x529 SWAP2 SWAP1 PUSH2 0x2059 JUMP JUMPDEST PUSH1 0x20 PUSH1 0x40 MLOAD DUP1 DUP4 SUB DUP2 DUP7 GAS STATICCALL ISZERO DUP1 ISZERO PUSH2 0x544 JUMPI RETURNDATASIZE PUSH0 DUP1 RETURNDATACOPY RETURNDATASIZE PUSH0 REVERT JUMPDEST POP POP POP POP PUSH1 0x40 MLOAD RETURNDATASIZE PUSH1 0x1F NOT PUSH1 0x1F DUP3 ADD AND DUP3 ADD DUP1 PUSH1 0x40 MSTORE POP DUP2 ADD SWAP1 PUSH2 0x568 SWAP2 SWAP1 PUSH2 0x26A7 JUMP JUMPDEST DUP3 DUP3 DUP2 MLOAD DUP2 LT PUSH2 0x57B JUMPI PUSH2 0x57A PUSH2 0x2666 JUMP JUMPDEST JUMPDEST PUSH1 0x20 MUL PUSH1 0x20 ADD ADD DUP2 DUP2 MSTORE POP POP DUP1 PUSH2 0x591 SWAP1 PUSH2 0x26FF JUMP JUMPDEST SWAP1 POP PUSH2 0x49B JUMP JUMPDEST POP DUP1 SWAP3 POP POP POP SWAP3 SWAP2 POP POP JUMP JUMPDEST PUSH2 0x5AC PUSH2 0x188F JUMP JUMPDEST PUSH20 0xFFFFFFFFFFFFFFFFFFFFFFFFFFFFFFFFFFFFFFFF AND PUSH0 DUP1 SLOAD SWAP1 PUSH2 0x100 EXP SWAP1 DIV PUSH20 0xFFFFFFFFFFFFFFFFFFFFFFFFFFFFFFFFFFFFFFFF AND PUSH20 0xFFFFFFFFFFFFFFFFFFFFFFFFFFFFFFFFFFFFFFFF AND EQ PUSH2 0x638 JUMPI PUSH1 0x40 MLOAD PUSH32 0x8C379A000000000000000000000000000000000000000000000000000000000 DUP2 MSTORE PUSH1 0x4 ADD PUSH2 0x62F SWAP1 PUSH2 0x2790 JUMP JUMPDEST PUSH1 0x40 MLOAD DUP1 SWAP2 SUB SWAP1 REVERT JUMPDEST DUP1 PUSH1 0x1 PUSH0 PUSH2 0x100 EXP DUP2 SLOAD DUP2 PUSH20 0xFFFFFFFFFFFFFFFFFFFFFFFFFFFFFFFFFFFFFFFF MUL NOT AND SWAP1 DUP4 PUSH20 0xFFFFFFFFFFFFFFFFFFFFFFFFFFFFFFFFFFFFFFFF AND MUL OR SWAP1 SSTORE POP POP JUMP JUMPDEST PUSH1 0x60 PUSH0 PUSH1 0x3 PUSH0 DUP5 PUSH20 0xFFFFFFFFFFFFFFFFFFFFFFFFFFFFFFFFFFFFFFFF AND PUSH20 0xFFFFFFFFFFFFFFFFFFFFFFFFFFFFFFFFFFFFFFFF AND DUP2 MSTORE PUSH1 0x20 ADD SWAP1 DUP2 MSTORE PUSH1 0x20 ADD PUSH0 KECCAK256 DUP1 SLOAD DUP1 PUSH1 0x20 MUL PUSH1 0x20 ADD PUSH1 0x40 MLOAD SWAP1 DUP2 ADD PUSH1 0x40 MSTORE DUP1 SWAP3 SWAP2 SWAP1 DUP2 DUP2 MSTORE PUSH1 0x20 ADD DUP3 DUP1 SLOAD DUP1 ISZERO PUSH2 0x703 JUMPI PUSH1 0x20 MUL DUP3 ADD SWAP2 SWAP1 PUSH0 MSTORE PUSH1 0x20 PUSH0 KECCAK256 SWAP1 JUMPDEST DUP2 SLOAD DUP2 MSTORE PUSH1 0x20 ADD SWAP1 PUSH1 0x1 ADD SWAP1 DUP1 DUP4 GT PUSH2 0x6EF JUMPI JUMPDEST POP POP POP POP POP SWAP1 POP PUSH0 DUP2 MLOAD PUSH8 0xFFFFFFFFFFFFFFFF DUP2 GT ISZERO PUSH2 0x726 JUMPI PUSH2 0x725 PUSH2 0x2639 JUMP JUMPDEST JUMPDEST PUSH1 0x40 MLOAD SWAP1 DUP1 DUP3 MSTORE DUP1 PUSH1 0x20 MUL PUSH1 0x20 ADD DUP3 ADD PUSH1 0x40 MSTORE DUP1 ISZERO PUSH2 0x75F JUMPI DUP2 PUSH1 0x20 ADD JUMPDEST PUSH2 0x74C PUSH2 0x1BD8 JUMP JUMPDEST DUP2 MSTORE PUSH1 0x20 ADD SWAP1 PUSH1 0x1 SWAP1 SUB SWAP1 DUP2 PUSH2 0x744 JUMPI SWAP1 POP JUMPDEST POP SWAP1 POP PUSH0 JUMPDEST DUP3 MLOAD DUP2 LT ISZERO PUSH2 0x9B7 JUMPI PUSH1 0x40 MLOAD DUP1 PUSH1 0xE0 ADD PUSH1 0x40 MSTORE DUP1 DUP5 DUP4 DUP2 MLOAD DUP2 LT PUSH2 0x78B JUMPI PUSH2 0x78A PUSH2 0x2666 JUMP JUMPDEST JUMPDEST PUSH1 0x20 MUL PUSH1 0x20 ADD ADD MLOAD DUP2 MSTORE PUSH1 0x20 ADD PUSH1 0x4 PUSH0 DUP7 DUP6 DUP2 MLOAD DUP2 LT PUSH2 0x7AE JUMPI PUSH2 0x7AD PUSH2 0x2666 JUMP JUMPDEST JUMPDEST PUSH1 0x20 MUL PUSH1 0x20 ADD ADD MLOAD DUP2 MSTORE PUSH1 0x20 ADD SWAP1 DUP2 MSTORE PUSH1 0x20 ADD PUSH0 KECCAK256 PUSH0 ADD PUSH0 SWAP1 SLOAD SWAP1 PUSH2 0x100 EXP SWAP1 DIV PUSH20 0xFFFFFFFFFFFFFFFFFFFFFFFFFFFFFFFFFFFFFFFF AND PUSH20 0xFFFFFFFFFFFFFFFFFFFFFFFFFFFFFFFFFFFFFFFF AND DUP2 MSTORE PUSH1 0x20 ADD PUSH1 0x4 PUSH0 DUP7 DUP6 DUP2 MLOAD DUP2 LT PUSH2 0x816 JUMPI PUSH2 0x815 PUSH2 0x2666 JUMP JUMPDEST JUMPDEST PUSH1 0x20 MUL PUSH1 0x20 ADD ADD MLOAD DUP2 MSTORE PUSH1 0x20 ADD SWAP1 DUP2 MSTORE PUSH1 0x20 ADD PUSH0 KECCAK256 PUSH1 0x1 ADD SLOAD DUP2 MSTORE PUSH1 0x20 ADD PUSH1 0x4 PUSH0 DUP7 DUP6 DUP2 MLOAD DUP2 LT PUSH2 0x84A JUMPI PUSH2 0x849 PUSH2 0x2666 JUMP JUMPDEST JUMPDEST PUSH1 0x20 MUL PUSH1 0x20 ADD ADD MLOAD DUP2 MSTORE PUSH1 0x20 ADD SWAP1 DUP2 MSTORE PUSH1 0x20 ADD PUSH0 KECCAK256 PUSH1 0x2 ADD SLOAD DUP2 MSTORE PUSH1 0x20 ADD PUSH1 0x4 PUSH0 DUP7 DUP6 DUP2 MLOAD DUP2 LT PUSH2 0x87E JUMPI PUSH2 0x87D PUSH2 0x2666 JUMP JUMPDEST JUMPDEST PUSH1 0x20 MUL PUSH1 0x20 ADD ADD MLOAD DUP2 MSTORE PUSH1 0x20 ADD SWAP1 DUP2 MSTORE PUSH1 0x20 ADD PUSH0 KECCAK256 PUSH1 0x3 ADD SLOAD DUP2 MSTORE PUSH1 0x20 ADD PUSH1 0x4 PUSH0 DUP7 DUP6 DUP2 MLOAD DUP2 LT PUSH2 0x8B2 JUMPI PUSH2 0x8B1 PUSH2 0x2666 JUMP JUMPDEST JUMPDEST PUSH1 0x20 MUL PUSH1 0x20 ADD ADD MLOAD DUP2 MSTORE PUSH1 0x20 ADD SWAP1 DUP2 MSTORE PUSH1 0x20 ADD PUSH0 KECCAK256 PUSH1 0x4 ADD SLOAD DUP2 MSTORE PUSH1 0x20 ADD PUSH1 0x4 PUSH0 DUP7 DUP6 DUP2 MLOAD DUP2 LT PUSH2 0x8E6 JUMPI PUSH2 0x8E5 PUSH2 0x2666 JUMP JUMPDEST JUMPDEST PUSH1 0x20 MUL PUSH1 0x20 ADD ADD MLOAD DUP2 MSTORE PUSH1 0x20 ADD SWAP1 DUP2 MSTORE PUSH1 0x20 ADD PUSH0 KECCAK256 PUSH1 0x5 ADD DUP1 SLOAD PUSH2 0x909 SWAP1 PUSH2 0x27DB JUMP JUMPDEST DUP1 PUSH1 0x1F ADD PUSH1 0x20 DUP1 SWAP2 DIV MUL PUSH1 0x20 ADD PUSH1 0x40 MLOAD SWAP1 DUP2 ADD PUSH1 0x40 MSTORE DUP1 SWAP3 SWAP2 SWAP1 DUP2 DUP2 MSTORE PUSH1 0x20 ADD DUP3 DUP1 SLOAD PUSH2 0x935 SWAP1 PUSH2 0x27DB JUMP JUMPDEST DUP1 ISZERO PUSH2 0x980 JUMPI DUP1 PUSH1 0x1F LT PUSH2 0x957 JUMPI PUSH2 0x100 DUP1 DUP4 SLOAD DIV MUL DUP4 MSTORE SWAP2 PUSH1 0x20 ADD SWAP2 PUSH2 0x980 JUMP JUMPDEST DUP3 ADD SWAP2 SWAP1 PUSH0 MSTORE PUSH1 0x20 PUSH0 KECCAK256 SWAP1 JUMPDEST DUP2 SLOAD DUP2 MSTORE SWAP1 PUSH1 0x1 ADD SWAP1 PUSH1 0x20 ADD DUP1 DUP4 GT PUSH2 0x963 JUMPI DUP3 SWAP1 SUB PUSH1 0x1F AND DUP3 ADD SWAP2 JUMPDEST POP POP POP POP POP DUP2 MSTORE POP DUP3 DUP3 DUP2 MLOAD DUP2 LT PUSH2 0x99B JUMPI PUSH2 0x99A PUSH2 0x2666 JUMP JUMPDEST JUMPDEST PUSH1 0x20 MUL PUSH1 0x20 ADD ADD DUP2 SWAP1 MSTORE POP DUP1 PUSH2 0x9B0 SWAP1 PUSH2 0x26FF JUMP JUMPDEST SWAP1 POP PUSH2 0x764 JUMP JUMPDEST POP DUP1 SWAP3 POP POP POP SWAP2 SWAP1 POP JUMP JUMPDEST PUSH1 0x2 PUSH1 0x20 MSTORE DUP1 PUSH0 MSTORE PUSH1 0x40 PUSH0 KECCAK256 PUSH0 SWAP2 POP SLOAD SWAP1 PUSH2 0x100 EXP SWAP1 DIV PUSH20 0xFFFFFFFFFFFFFFFFFFFFFFFFFFFFFFFFFFFFFFFF AND DUP2 JUMP JUMPDEST PUSH2 0x9FA PUSH2 0x188F JUMP JUMPDEST PUSH20 0xFFFFFFFFFFFFFFFFFFFFFFFFFFFFFFFFFFFFFFFF AND PUSH0 DUP1 SLOAD SWAP1 PUSH2 0x100 EXP SWAP1 DIV PUSH20 0xFFFFFFFFFFFFFFFFFFFFFFFFFFFFFFFFFFFFFFFF AND PUSH20 0xFFFFFFFFFFFFFFFFFFFFFFFFFFFFFFFFFFFFFFFF AND EQ PUSH2 0xA86 JUMPI PUSH1 0x40 MLOAD PUSH32 0x8C379A000000000000000000000000000000000000000000000000000000000 DUP2 MSTORE PUSH1 0x4 ADD PUSH2 0xA7D SWAP1 PUSH2 0x2790 JUMP JUMPDEST PUSH1 0x40 MLOAD DUP1 SWAP2 SUB SWAP1 REVERT JUMPDEST PUSH0 PUSH20 0xFFFFFFFFFFFFFFFFFFFFFFFFFFFFFFFFFFFFFFFF AND PUSH0 DUP1 SLOAD SWAP1 PUSH2 0x100 EXP SWAP1 DIV PUSH20 0xFFFFFFFFFFFFFFFFFFFFFFFFFFFFFFFFFFFFFFFF AND PUSH20 0xFFFFFFFFFFFFFFFFFFFFFFFFFFFFFFFFFFFFFFFF AND PUSH32 0x8BE0079C531659141344CD1FD0A4F28419497F9722A3DAAFE3B4186F6B6457E0 PUSH1 0x40 MLOAD PUSH1 0x40 MLOAD DUP1 SWAP2 SUB SWAP1 LOG3 PUSH0 DUP1 PUSH0 PUSH2 0x100 EXP DUP2 SLOAD DUP2 PUSH20 0xFFFFFFFFFFFFFFFFFFFFFFFFFFFFFFFFFFFFFFFF MUL NOT AND SWAP1 DUP4 PUSH20 0xFFFFFFFFFFFFFFFFFFFFFFFFFFFFFFFFFFFFFFFF AND MUL OR SWAP1 SSTORE POP JUMP JUMPDEST PUSH1 0x60 PUSH0 DUP4 DUP4 SWAP1 POP PUSH8 0xFFFFFFFFFFFFFFFF DUP2 GT ISZERO PUSH2 0xB60 JUMPI PUSH2 0xB5F PUSH2 0x2639 JUMP JUMPDEST JUMPDEST PUSH1 0x40 MLOAD SWAP1 DUP1 DUP3 MSTORE DUP1 PUSH1 0x20 MUL PUSH1 0x20 ADD DUP3 ADD PUSH1 0x40 MSTORE DUP1 ISZERO PUSH2 0xB8E JUMPI DUP2 PUSH1 0x20 ADD PUSH1 0x20 DUP3 MUL DUP1 CALLDATASIZE DUP4 CALLDATACOPY DUP1 DUP3 ADD SWAP2 POP POP SWAP1 POP JUMPDEST POP SWAP1 POP PUSH0 JUMPDEST DUP5 DUP5 SWAP1 POP DUP2 LT ISZERO PUSH2 0xC6D JUMPI DUP5 DUP5 DUP3 DUP2 DUP2 LT PUSH2 0xBB1 JUMPI PUSH2 0xBB0 PUSH2 0x2666 JUMP JUMPDEST JUMPDEST SWAP1 POP PUSH1 0x20 MUL ADD PUSH1 0x20 DUP2 ADD SWAP1 PUSH2 0xBC6 SWAP2 SWAP1 PUSH2 0x1DA5 JUMP JUMPDEST PUSH20 0xFFFFFFFFFFFFFFFFFFFFFFFFFFFFFFFFFFFFFFFF AND PUSH4 0x70A08231 DUP8 PUSH1 0x40 MLOAD DUP3 PUSH4 0xFFFFFFFF AND PUSH1 0xE0 SHL DUP2 MSTORE PUSH1 0x4 ADD PUSH2 0xBFE SWAP2 SWAP1 PUSH2 0x2059 JUMP JUMPDEST PUSH1 0x20 PUSH1 0x40 MLOAD DUP1 DUP4 SUB DUP2 DUP7 GAS STATICCALL ISZERO DUP1 ISZERO PUSH2 0xC19 JUMPI RETURNDATASIZE PUSH0 DUP1 RETURNDATACOPY RETURNDATASIZE PUSH0 REVERT JUMPDEST POP POP POP POP PUSH1 0x40 MLOAD RETURNDATASIZE PUSH1 0x1F NOT PUSH1 0x1F DUP3 ADD AND DUP3 ADD DUP1 PUSH1 0x40 MSTORE POP DUP2 ADD SWAP1 PUSH2 0xC3D SWAP2 SWAP1 PUSH2 0x26A7 JUMP JUMPDEST DUP3 DUP3 DUP2 MLOAD DUP2 LT PUSH2 0xC50 JUMPI PUSH2 0xC4F PUSH2 0x2666 JUMP JUMPDEST JUMPDEST PUSH1 0x20 MUL PUSH1 0x20 ADD ADD DUP2 DUP2 MSTORE POP POP DUP1 PUSH2 0xC66 SWAP1 PUSH2 0x26FF JUMP JUMPDEST SWAP1 POP PUSH2 0xB93 JUMP JUMPDEST POP DUP1 SWAP2 POP POP SWAP4 SWAP3 POP POP POP JUMP JUMPDEST PUSH2 0xC81 PUSH2 0x188F JUMP JUMPDEST PUSH20 0xFFFFFFFFFFFFFFFFFFFFFFFFFFFFFFFFFFFFFFFF AND PUSH1 0x2 PUSH0 DUP11 DUP2 MSTORE PUSH1 0x20 ADD SWAP1 DUP2 MSTORE PUSH1 0x20 ADD PUSH0 KECCAK256 PUSH0 SWAP1 SLOAD SWAP1 PUSH2 0x100 EXP SWAP1 DIV PUSH20 0xFFFFFFFFFFFFFFFFFFFFFFFFFFFFFFFFFFFFFFFF AND PUSH20 0xFFFFFFFFFFFFFFFFFFFFFFFFFFFFFFFFFFFFFFFF AND EQ PUSH2 0xD1E JUMPI PUSH1 0x40 MLOAD PUSH32 0x8C379A000000000000000000000000000000000000000000000000000000000 DUP2 MSTORE PUSH1 0x4 ADD PUSH2 0xD15 SWAP1 PUSH2 0x2855 JUMP JUMPDEST PUSH1 0x40 MLOAD DUP1 SWAP2 SUB SWAP1 REVERT JUMPDEST PUSH1 0x40 MLOAD DUP1 PUSH1 0xC0 ADD PUSH1 0x40 MSTORE DUP1 DUP3 PUSH20 0xFFFFFFFFFFFFFFFFFFFFFFFFFFFFFFFFFFFFFFFF AND DUP2 MSTORE PUSH1 0x20 ADD DUP9 DUP2 MSTORE PUSH1 0x20 ADD DUP8 DUP2 MSTORE PUSH1 0x20 ADD DUP7 DUP2 MSTORE PUSH1 0x20 ADD DUP6 DUP2 MSTORE PUSH1 0x20 ADD DUP5 DUP5 DUP1 DUP1 PUSH1 0x1F ADD PUSH1 0x20 DUP1 SWAP2 DIV MUL PUSH1 0x20 ADD PUSH1 0x40 MLOAD SWAP1 DUP2 ADD PUSH1 0x40 MSTORE DUP1 SWAP4 SWAP3 SWAP2 SWAP1 DUP2 DUP2 MSTORE PUSH1 0x20 ADD DUP4 DUP4 DUP1 DUP3 DUP5 CALLDATACOPY PUSH0 DUP2 DUP5 ADD MSTORE PUSH1 0x1F NOT PUSH1 0x1F DUP3 ADD AND SWAP1 POP DUP1 DUP4 ADD SWAP3 POP POP POP POP POP POP POP DUP2 MSTORE POP PUSH1 0x4 PUSH0 PUSH1 0x5 SLOAD DUP2 MSTORE PUSH1 0x20 ADD SWAP1 DUP2 MSTORE PUSH1 0x20 ADD PUSH0 KECCAK256 PUSH0 DUP3 ADD MLOAD DUP2 PUSH0 ADD PUSH0 PUSH2 0x100 EXP DUP2 SLOAD DUP2 PUSH20 0xFFFFFFFFFFFFFFFFFFFFFFFFFFFFFFFFFFFFFFFF MUL NOT AND SWAP1 DUP4 PUSH20 0xFFFFFFFFFFFFFFFFFFFFFFFFFFFFFFFFFFFFFFFF AND MUL OR SWAP1 SSTORE POP PUSH1 0x20 DUP3 ADD MLOAD DUP2 PUSH1 0x1 ADD SSTORE PUSH1 0x40 DUP3 ADD MLOAD DUP2 PUSH1 0x2 ADD SSTORE PUSH1 0x60 DUP3 ADD MLOAD DUP2 PUSH1 0x3 ADD SSTORE PUSH1 0x80 DUP3 ADD MLOAD DUP2 PUSH1 0x4 ADD SSTORE PUSH1 0xA0 DUP3 ADD MLOAD DUP2 PUSH1 0x5 ADD SWAP1 DUP2 PUSH2 0xE38 SWAP2 SWAP1 PUSH2 0x2A10 JUMP JUMPDEST POP SWAP1 POP POP POP POP POP POP POP POP POP POP JUMP JUMPDEST PUSH1 0x5 SLOAD DUP2 JUMP JUMPDEST PUSH1 0x3 PUSH1 0x20 MSTORE DUP2 PUSH0 MSTORE PUSH1 0x40 PUSH0 KECCAK256 DUP2 DUP2 SLOAD DUP2 LT PUSH2 0xE65 JUMPI PUSH0 DUP1 REVERT JUMPDEST SWAP1 PUSH0 MSTORE PUSH1 0x20 PUSH0 KECCAK256 ADD PUSH0 SWAP2 POP SWAP2 POP POP SLOAD DUP2 JUMP JUMPDEST PUSH2 0xE7F PUSH2 0x188F JUMP JUMPDEST PUSH20 0xFFFFFFFFFFFFFFFFFFFFFFFFFFFFFFFFFFFFFFFF AND PUSH1 0x2 PUSH0 DUP5 DUP2 MSTORE PUSH1 0x20 ADD SWAP1 DUP2 MSTORE PUSH1 0x20 ADD PUSH0 KECCAK256 PUSH0 SWAP1 SLOAD SWAP1 PUSH2 0x100 EXP SWAP1 DIV PUSH20 0xFFFFFFFFFFFFFFFFFFFFFFFFFFFFFFFFFFFFFFFF AND PUSH20 0xFFFFFFFFFFFFFFFFFFFFFFFFFFFFFFFFFFFFFFFF AND EQ PUSH2 0xF1C JUMPI PUSH1 0x40 MLOAD PUSH32 0x8C379A000000000000000000000000000000000000000000000000000000000 DUP2 MSTORE PUSH1 0x4 ADD PUSH2 0xF13 SWAP1 PUSH2 0x2855 JUMP JUMPDEST PUSH1 0x40 MLOAD DUP1 SWAP2 SUB SWAP1 REVERT JUMPDEST DUP1 PUSH1 0x2 PUSH0 DUP5 DUP2 MSTORE PUSH1 0x20 ADD SWAP1 DUP2 MSTORE PUSH1 0x20 ADD PUSH0 KECCAK256 PUSH0 PUSH2 0x100 EXP DUP2 SLOAD DUP2 PUSH20 0xFFFFFFFFFFFFFFFFFFFFFFFFFFFFFFFFFFFFFFFF MUL NOT AND SWAP1 DUP4 PUSH20 0xFFFFFFFFFFFFFFFFFFFFFFFFFFFFFFFFFFFFFFFF AND MUL OR SWAP1 SSTORE POP POP POP JUMP JUMPDEST PUSH0 DUP1 PUSH0 SWAP1 SLOAD SWAP1 PUSH2 0x100 EXP SWAP1 DIV PUSH20 0xFFFFFFFFFFFFFFFFFFFFFFFFFFFFFFFFFFFFFFFF AND SWAP1 POP SWAP1 JUMP JUMPDEST PUSH1 0x60 PUSH0 DUP4 DUP4 PUSH2 0xFA5 SWAP2 SWAP1 PUSH2 0x2ADF JUMP JUMPDEST PUSH8 0xFFFFFFFFFFFFFFFF DUP2 GT ISZERO PUSH2 0xFBE JUMPI PUSH2 0xFBD PUSH2 0x2639 JUMP JUMPDEST JUMPDEST PUSH1 0x40 MLOAD SWAP1 DUP1 DUP3 MSTORE DUP1 PUSH1 0x20 MUL PUSH1 0x20 ADD DUP3 ADD PUSH1 0x40 MSTORE DUP1 ISZERO PUSH2 0xFEC JUMPI DUP2 PUSH1 0x20 ADD PUSH1 0x20 DUP3 MUL DUP1 CALLDATASIZE DUP4 CALLDATACOPY DUP1 DUP3 ADD SWAP2 POP POP SWAP1 POP JUMPDEST POP SWAP1 POP PUSH0 DUP5 SWAP1 POP JUMPDEST DUP4 DUP2 LT DUP1 ISZERO PUSH2 0x1004 JUMPI POP PUSH1 0x5 SLOAD DUP2 LT JUMPDEST ISZERO PUSH2 0x10EE JUMPI PUSH1 0x4 PUSH0 DUP3 DUP2 MSTORE PUSH1 0x20 ADD SWAP1 DUP2 MSTORE PUSH1 0x20 ADD PUSH0 KECCAK256 PUSH0 ADD PUSH0 SWAP1 SLOAD SWAP1 PUSH2 0x100 EXP SWAP1 DIV PUSH20 0xFFFFFFFFFFFFFFFFFFFFFFFFFFFFFFFFFFFFFFFF AND PUSH20 0xFFFFFFFFFFFFFFFFFFFFFFFFFFFFFFFFFFFFFFFF AND PUSH4 0x70A08231 DUP8 PUSH1 0x40 MLOAD DUP3 PUSH4 0xFFFFFFFF AND PUSH1 0xE0 SHL DUP2 MSTORE PUSH1 0x4 ADD PUSH2 0x1074 SWAP2 SWAP1 PUSH2 0x2059 JUMP JUMPDEST PUSH1 0x20 PUSH1 0x40 MLOAD DUP1 DUP4 SUB DUP2 DUP7 GAS STATICCALL ISZERO DUP1 ISZERO PUSH2 0x108F JUMPI RETURNDATASIZE PUSH0 DUP1 RETURNDATACOPY RETURNDATASIZE PUSH0 REVERT JUMPDEST POP POP POP POP PUSH1 0x40 MLOAD RETURNDATASIZE PUSH1 0x1F NOT PUSH1 0x1F DUP3 ADD AND DUP3 ADD DUP1 PUSH1 0x40 MSTORE POP DUP2 ADD SWAP1 PUSH2 0x10B3 SWAP2 SWAP1 PUSH2 0x26A7 JUMP JUMPDEST DUP3 DUP7 DUP4 PUSH2 0x10C0 SWAP2 SWAP1 PUSH2 0x2ADF JUMP JUMPDEST DUP2 MLOAD DUP2 LT PUSH2 0x10D1 JUMPI PUSH2 0x10D0 PUSH2 0x2666 JUMP JUMPDEST JUMPDEST PUSH1 0x20 MUL PUSH1 0x20 ADD ADD DUP2 DUP2 MSTORE POP POP DUP1 PUSH2 0x10E7 SWAP1 PUSH2 0x26FF JUMP JUMPDEST SWAP1 POP PUSH2 0xFF4 JUMP JUMPDEST POP DUP1 SWAP2 POP POP SWAP4 SWAP3 POP POP POP JUMP JUMPDEST PUSH1 0x1 PUSH0 SWAP1 SLOAD SWAP1 PUSH2 0x100 EXP SWAP1 DIV PUSH20 0xFFFFFFFFFFFFFFFFFFFFFFFFFFFFFFFFFFFFFFFF AND DUP2 JUMP JUMPDEST PUSH1 0x4 PUSH1 0x20 MSTORE DUP1 PUSH0 MSTORE PUSH1 0x40 PUSH0 KECCAK256 PUSH0 SWAP2 POP SWAP1 POP DUP1 PUSH0 ADD PUSH0 SWAP1 SLOAD SWAP1 PUSH2 0x100 EXP SWAP1 DIV PUSH20 0xFFFFFFFFFFFFFFFFFFFFFFFFFFFFFFFFFFFFFFFF AND SWAP1 DUP1 PUSH1 0x1 ADD SLOAD SWAP1 DUP1 PUSH1 0x2 ADD SLOAD SWAP1 DUP1 PUSH1 0x3 ADD SLOAD SWAP1 DUP1 PUSH1 0x4 ADD SLOAD SWAP1 DUP1 PUSH1 0x5 ADD DUP1 SLOAD PUSH2 0x117B SWAP1 PUSH2 0x27DB JUMP JUMPDEST DUP1 PUSH1 0x1F ADD PUSH1 0x20 DUP1 SWAP2 DIV MUL PUSH1 0x20 ADD PUSH1 0x40 MLOAD SWAP1 DUP2 ADD PUSH1 0x40 MSTORE DUP1 SWAP3 SWAP2 SWAP1 DUP2 DUP2 MSTORE PUSH1 0x20 ADD DUP3 DUP1 SLOAD PUSH2 0x11A7 SWAP1 PUSH2 0x27DB JUMP JUMPDEST DUP1 ISZERO PUSH2 0x11F2 JUMPI DUP1 PUSH1 0x1F LT PUSH2 0x11C9 JUMPI PUSH2 0x100 DUP1 DUP4 SLOAD DIV MUL DUP4 MSTORE SWAP2 PUSH1 0x20 ADD SWAP2 PUSH2 0x11F2 JUMP JUMPDEST DUP3 ADD SWAP2 SWAP1 PUSH0 MSTORE PUSH1 0x20 PUSH0 KECCAK256 SWAP1 JUMPDEST DUP2 SLOAD DUP2 MSTORE SWAP1 PUSH1 0x1 ADD SWAP1 PUSH1 0x20 ADD DUP1 DUP4 GT PUSH2 0x11D5 JUMPI DUP3 SWAP1 SUB PUSH1 0x1F AND DUP3 ADD SWAP2 JUMPDEST POP POP POP POP POP SWAP1 POP DUP7 JUMP JUMPDEST PUSH1 0x60 PUSH0 DUP4 DUP4 PUSH2 0x120B SWAP2 SWAP1 PUSH2 0x2ADF JUMP JUMPDEST PUSH8 0xFFFFFFFFFFFFFFFF DUP2 GT ISZERO PUSH2 0x1224 JUMPI PUSH2 0x1223 PUSH2 0x2639 JUMP JUMPDEST JUMPDEST PUSH1 0x40 MLOAD SWAP1 DUP1 DUP3 MSTORE DUP1 PUSH1 0x20 MUL PUSH1 0x20 ADD DUP3 ADD PUSH1 0x40 MSTORE DUP1 ISZERO PUSH2 0x125D JUMPI DUP2 PUSH1 0x20 ADD JUMPDEST PUSH2 0x124A PUSH2 0x1BD8 JUMP JUMPDEST DUP2 MSTORE PUSH1 0x20 ADD SWAP1 PUSH1 0x1 SWAP1 SUB SWAP1 DUP2 PUSH2 0x1242 JUMPI SWAP1 POP JUMPDEST POP SWAP1 POP PUSH0 DUP5 SWAP1 POP JUMPDEST DUP4 DUP2 LT DUP1 ISZERO PUSH2 0x1275 JUMPI POP PUSH1 0x5 SLOAD DUP2 LT JUMPDEST ISZERO PUSH2 0x1419 JUMPI PUSH1 0x40 MLOAD DUP1 PUSH1 0xE0 ADD PUSH1 0x40 MSTORE DUP1 DUP3 DUP2 MSTORE PUSH1 0x20 ADD PUSH1 0x4 PUSH0 DUP5 DUP2 MSTORE PUSH1 0x20 ADD SWAP1 DUP2 MSTORE PUSH1 0x20 ADD PUSH0 KECCAK256 PUSH0 ADD PUSH0 SWAP1 SLOAD SWAP1 PUSH2 0x100 EXP SWAP1 DIV PUSH20 0xFFFFFFFFFFFFFFFFFFFFFFFFFFFFFFFFFFFFFFFF AND PUSH20 0xFFFFFFFFFFFFFFFFFFFFFFFFFFFFFFFFFFFFFFFF AND DUP2 MSTORE PUSH1 0x20 ADD PUSH1 0x4 PUSH0 DUP5 DUP2 MSTORE PUSH1 0x20 ADD SWAP1 DUP2 MSTORE PUSH1 0x20 ADD PUSH0 KECCAK256 PUSH1 0x1 ADD SLOAD DUP2 MSTORE PUSH1 0x20 ADD PUSH1 0x4 PUSH0 DUP5 DUP2 MSTORE PUSH1 0x20 ADD SWAP1 DUP2 MSTORE PUSH1 0x20 ADD PUSH0 KECCAK256 PUSH1 0x2 ADD SLOAD DUP2 MSTORE PUSH1 0x20 ADD PUSH1 0x4 PUSH0 DUP5 DUP2 MSTORE PUSH1 0x20 ADD SWAP1 DUP2 MSTORE PUSH1 0x20 ADD PUSH0 KECCAK256 PUSH1 0x3 ADD SLOAD DUP2 MSTORE PUSH1 0x20 ADD PUSH1 0x4 PUSH0 DUP5 DUP2 MSTORE PUSH1 0x20 ADD SWAP1 DUP2 MSTORE PUSH1 0x20 ADD PUSH0 KECCAK256 PUSH1 0x4 ADD SLOAD DUP2 MSTORE PUSH1 0x20 ADD PUSH1 0x4 PUSH0 DUP5 DUP2 MSTORE PUSH1 0x20 ADD SWAP1 DUP2 MSTORE PUSH1 0x20 ADD PUSH0 KECCAK256 PUSH1 0x5 ADD DUP1 SLOAD PUSH2 0x1360 SWAP1 PUSH2 0x27DB JUMP JUMPDEST DUP1 PUSH1 0x1F ADD PUSH1 0x20 DUP1 SWAP2 DIV MUL PUSH1 0x20 ADD PUSH1 0x40 MLOAD SWAP1 DUP2 ADD PUSH1 0x40 MSTORE DUP1 SWAP3 SWAP2 SWAP1 DUP2 DUP2 MSTORE PUSH1 0x20 ADD DUP3 DUP1 SLOAD PUSH2 0x138C SWAP1 PUSH2 0x27DB JUMP JUMPDEST DUP1 ISZERO PUSH2 0x13D7 JUMPI DUP1 PUSH1 0x1F LT PUSH2 0x13AE JUMPI PUSH2 0x100 DUP1 DUP4 SLOAD DIV MUL DUP4 MSTORE SWAP2 PUSH1 0x20 ADD SWAP2 PUSH2 0x13D7 JUMP JUMPDEST DUP3 ADD SWAP2 SWAP1 PUSH0 MSTORE PUSH1 0x20 PUSH0 KECCAK256 SWAP1 JUMPDEST DUP2 SLOAD DUP2 MSTORE SWAP1 PUSH1 0x1 ADD SWAP1 PUSH1 0x20 ADD DUP1 DUP4 GT PUSH2 0x13BA JUMPI DUP3 SWAP1 SUB PUSH1 0x1F AND DUP3 ADD SWAP2 JUMPDEST POP POP POP POP POP DUP2 MSTORE POP DUP3 DUP7 DUP4 PUSH2 0x13EC SWAP2 SWAP1 PUSH2 0x2ADF JUMP JUMPDEST DUP2 MLOAD DUP2 LT PUSH2 0x13FD JUMPI PUSH2 0x13FC PUSH2 0x2666 JUMP JUMPDEST JUMPDEST PUSH1 0x20 MUL PUSH1 0x20 ADD ADD DUP2 SWAP1 MSTORE POP DUP1 PUSH2 0x1412 SWAP1 PUSH2 0x26FF JUMP JUMPDEST SWAP1 POP PUSH2 0x1265 JUMP JUMPDEST POP DUP1 SWAP2 POP POP SWAP3 SWAP2 POP POP JUMP JUMPDEST PUSH2 0x1475 DUP12 DUP12 DUP12 DUP12 DUP12 DUP12 DUP1 DUP1 PUSH1 0x1F ADD PUSH1 0x20 DUP1 SWAP2 DIV MUL PUSH1 0x20 ADD PUSH1 0x40 MLOAD SWAP1 DUP2 ADD PUSH1 0x40 MSTORE DUP1 SWAP4 SWAP3 SWAP2 SWAP1 DUP2 DUP2 MSTORE PUSH1 0x20 ADD DUP4 DUP4 DUP1 DUP3 DUP5 CALLDATACOPY PUSH0 DUP2 DUP5 ADD MSTORE PUSH1 0x1F NOT PUSH1 0x1F DUP3 ADD AND SWAP1 POP DUP1 DUP4 ADD SWAP3 POP POP POP POP POP POP POP DUP11 PUSH2 0x1896 JUMP JUMPDEST POP PUSH1 0x1 PUSH0 SWAP1 SLOAD SWAP1 PUSH2 0x100 EXP SWAP1 DIV PUSH20 0xFFFFFFFFFFFFFFFFFFFFFFFFFFFFFFFFFFFFFFFF AND PUSH20 0xFFFFFFFFFFFFFFFFFFFFFFFFFFFFFFFFFFFFFFFF AND PUSH4 0xA102D7DA PUSH2 0x14BB PUSH2 0x188F JUMP JUMPDEST DUP8 DUP8 DUP8 DUP8 DUP8 PUSH0 PUSH1 0x40 MLOAD DUP9 PUSH4 0xFFFFFFFF AND PUSH1 0xE0 SHL DUP2 MSTORE PUSH1 0x4 ADD PUSH2 0x14E3 SWAP8 SWAP7 SWAP6 SWAP5 SWAP4 SWAP3 SWAP2 SWAP1 PUSH2 0x2B2C JUMP JUMPDEST PUSH0 PUSH1 0x40 MLOAD DUP1 DUP4 SUB DUP2 PUSH0 DUP8 DUP1 EXTCODESIZE ISZERO DUP1 ISZERO PUSH2 0x14FA JUMPI PUSH0 DUP1 REVERT JUMPDEST POP GAS CALL ISZERO DUP1 ISZERO PUSH2 0x150C JUMPI RETURNDATASIZE PUSH0 DUP1 RETURNDATACOPY RETURNDATASIZE PUSH0 REVERT JUMPDEST POP POP POP POP POP POP POP POP POP POP POP POP POP POP POP JUMP JUMPDEST PUSH0 DUP1 PUSH2 0x152A PUSH1 0x5 SLOAD PUSH2 0x1A5A JUMP JUMPDEST PUSH1 0x40 MLOAD PUSH1 0x20 ADD PUSH2 0x153A SWAP2 SWAP1 PUSH2 0x2C1D JUMP JUMPDEST PUSH1 0x40 MLOAD PUSH1 0x20 DUP2 DUP4 SUB SUB DUP2 MSTORE SWAP1 PUSH1 0x40 MSTORE SWAP1 POP PUSH0 DUP7 PUSH20 0xFFFFFFFFFFFFFFFFFFFFFFFFFFFFFFFFFFFFFFFF AND PUSH4 0xE9B15EEE DUP4 DUP5 PUSH2 0x1572 PUSH2 0x188F JUMP JUMPDEST PUSH1 0x40 MLOAD DUP5 PUSH4 0xFFFFFFFF AND PUSH1 0xE0 SHL DUP2 MSTORE PUSH1 0x4 ADD PUSH2 0x1590 SWAP4 SWAP3 SWAP2 SWAP1 PUSH2 0x2C61 JUMP JUMPDEST PUSH1 0x20 PUSH1 0x40 MLOAD DUP1 DUP4 SUB DUP2 PUSH0 DUP8 GAS CALL ISZERO DUP1 ISZERO PUSH2 0x15AC JUMPI RETURNDATASIZE PUSH0 DUP1 RETURNDATACOPY RETURNDATASIZE PUSH0 REVERT JUMPDEST POP POP POP POP PUSH1 0x40 MLOAD RETURNDATASIZE PUSH1 0x1F NOT PUSH1 0x1F DUP3 ADD AND DUP3 ADD DUP1 PUSH1 0x40 MSTORE POP DUP2 ADD SWAP1 PUSH2 0x15D0 SWAP2 SWAP1 PUSH2 0x2CCB JUMP JUMPDEST SWAP1 POP PUSH2 0x1623 DUP14 DUP14 DUP14 DUP14 DUP14 DUP14 DUP1 DUP1 PUSH1 0x1F ADD PUSH1 0x20 DUP1 SWAP2 DIV MUL PUSH1 0x20 ADD PUSH1 0x40 MLOAD SWAP1 DUP2 ADD PUSH1 0x40 MSTORE DUP1 SWAP4 SWAP3 SWAP2 SWAP1 DUP2 DUP2 MSTORE PUSH1 0x20 ADD DUP4 DUP4 DUP1 DUP3 DUP5 CALLDATACOPY PUSH0 DUP2 DUP5 ADD MSTORE PUSH1 0x1F NOT PUSH1 0x1F DUP3 ADD AND SWAP1 POP DUP1 DUP4 ADD SWAP3 POP POP POP POP POP POP POP DUP7 PUSH2 0x1896 JUMP JUMPDEST POP PUSH1 0x1 PUSH0 SWAP1 SLOAD SWAP1 PUSH2 0x100 EXP SWAP1 DIV PUSH20 0xFFFFFFFFFFFFFFFFFFFFFFFFFFFFFFFFFFFFFFFF AND PUSH20 0xFFFFFFFFFFFFFFFFFFFFFFFFFFFFFFFFFFFFFFFF AND PUSH4 0xA102D7DA PUSH2 0x1669 PUSH2 0x188F JUMP JUMPDEST DUP4 DUP10 DUP10 PUSH0 DUP11 PUSH1 0x1 PUSH1 0x40 MLOAD DUP9 PUSH4 0xFFFFFFFF AND PUSH1 0xE0 SHL DUP2 MSTORE PUSH1 0x4 ADD PUSH2 0x1692 SWAP8 SWAP7 SWAP6 SWAP5 SWAP4 SWAP3 SWAP2 SWAP1 PUSH2 0x2D2F JUMP JUMPDEST PUSH0 PUSH1 0x40 MLOAD DUP1 DUP4 SUB DUP2 PUSH0 DUP8 DUP1 EXTCODESIZE ISZERO DUP1 ISZERO PUSH2 0x16A9 JUMPI PUSH0 DUP1 REVERT JUMPDEST POP GAS CALL ISZERO DUP1 ISZERO PUSH2 0x16BB JUMPI RETURNDATASIZE PUSH0 DUP1 RETURNDATACOPY RETURNDATASIZE PUSH0 REVERT JUMPDEST POP POP POP POP DUP1 SWAP3 POP POP POP SWAP11 SWAP10 POP POP POP POP POP POP POP POP POP POP JUMP JUMPDEST PUSH2 0x16DA PUSH2 0x188F JUMP JUMPDEST PUSH20 0xFFFFFFFFFFFFFFFFFFFFFFFFFFFFFFFFFFFFFFFF AND PUSH0 DUP1 SLOAD SWAP1 PUSH2 0x100 EXP SWAP1 DIV PUSH20 0xFFFFFFFFFFFFFFFFFFFFFFFFFFFFFFFFFFFFFFFF AND PUSH20 0xFFFFFFFFFFFFFFFFFFFFFFFFFFFFFFFFFFFFFFFF AND EQ PUSH2 0x1766 JUMPI PUSH1 0x40 MLOAD PUSH32 0x8C379A000000000000000000000000000000000000000000000000000000000 DUP2 MSTORE PUSH1 0x4 ADD PUSH2 0x175D SWAP1 PUSH2 0x2790 JUMP JUMPDEST PUSH1 0x40 MLOAD DUP1 SWAP2 SUB SWAP1 REVERT JUMPDEST PUSH0 PUSH20 0xFFFFFFFFFFFFFFFFFFFFFFFFFFFFFFFFFFFFFFFF AND DUP2 PUSH20 0xFFFFFFFFFFFFFFFFFFFFFFFFFFFFFFFFFFFFFFFF AND SUB PUSH2 0x17D4 JUMPI PUSH1 0x40 MLOAD PUSH32 0x8C379A000000000000000000000000000000000000000000000000000000000 DUP2 MSTORE PUSH1 0x4 ADD PUSH2 0x17CB SWAP1 PUSH2 0x2E0C JUMP JUMPDEST PUSH1 0x40 MLOAD DUP1 SWAP2 SUB SWAP1 REVERT JUMPDEST DUP1 PUSH20 0xFFFFFFFFFFFFFFFFFFFFFFFFFFFFFFFFFFFFFFFF AND PUSH0 DUP1 SLOAD SWAP1 PUSH2 0x100 EXP SWAP1 DIV PUSH20 0xFFFFFFFFFFFFFFFFFFFFFFFFFFFFFFFFFFFFFFFF AND PUSH20 0xFFFFFFFFFFFFFFFFFFFFFFFFFFFFFFFFFFFFFFFF AND PUSH32 0x8BE0079C531659141344CD1FD0A4F28419497F9722A3DAAFE3B4186F6B6457E0 PUSH1 0x40 MLOAD PUSH1 0x40 MLOAD DUP1 SWAP2 SUB SWAP1 LOG3 DUP1 PUSH0 DUP1 PUSH2 0x100 EXP DUP2 SLOAD DUP2 PUSH20 0xFFFFFFFFFFFFFFFFFFFFFFFFFFFFFFFFFFFFFFFF MUL NOT AND SWAP1 DUP4 PUSH20 0xFFFFFFFFFFFFFFFFFFFFFFFFFFFFFFFFFFFFFFFF AND MUL OR SWAP1 SSTORE POP POP JUMP JUMPDEST PUSH0 CALLER SWAP1 POP SWAP1 JUMP JUMPDEST PUSH0 PUSH1 0x40 MLOAD DUP1 PUSH1 0xC0 ADD PUSH1 0x40 MSTORE DUP1 DUP4 PUSH20 0xFFFFFFFFFFFFFFFFFFFFFFFFFFFFFFFFFFFFFFFF AND DUP2 MSTORE PUSH1 0x20 ADD DUP9 DUP2 MSTORE PUSH1 0x20 ADD DUP8 DUP2 MSTORE PUSH1 0x20 ADD DUP7 DUP2 MSTORE PUSH1 0x20 ADD DUP6 DUP2 MSTORE PUSH1 0x20 ADD DUP5 DUP2 MSTORE POP PUSH1 0x4 PUSH0 PUSH1 0x5 SLOAD DUP2 MSTORE PUSH1 0x20 ADD SWAP1 DUP2 MSTORE PUSH1 0x20 ADD PUSH0 KECCAK256 PUSH0 DUP3 ADD MLOAD DUP2 PUSH0 ADD PUSH0 PUSH2 0x100 EXP DUP2 SLOAD DUP2 PUSH20 0xFFFFFFFFFFFFFFFFFFFFFFFFFFFFFFFFFFFFFFFF MUL NOT AND SWAP1 DUP4 PUSH20 0xFFFFFFFFFFFFFFFFFFFFFFFFFFFFFFFFFFFFFFFF AND MUL OR SWAP1 SSTORE POP PUSH1 0x20 DUP3 ADD MLOAD DUP2 PUSH1 0x1 ADD SSTORE PUSH1 0x40 DUP3 ADD MLOAD DUP2 PUSH1 0x2 ADD SSTORE PUSH1 0x60 DUP3 ADD MLOAD DUP2 PUSH1 0x3 ADD SSTORE PUSH1 0x80 DUP3 ADD MLOAD DUP2 PUSH1 0x4 ADD SSTORE PUSH1 0xA0 DUP3 ADD MLOAD DUP2 PUSH1 0x5 ADD SWAP1 DUP2 PUSH2 0x196E SWAP2 SWAP1 PUSH2 0x2A10 JUMP JUMPDEST POP SWAP1 POP POP PUSH2 0x197A PUSH2 0x188F JUMP JUMPDEST PUSH1 0x2 PUSH0 PUSH1 0x5 SLOAD DUP2 MSTORE PUSH1 0x20 ADD SWAP1 DUP2 MSTORE PUSH1 0x20 ADD PUSH0 KECCAK256 PUSH0 PUSH2 0x100 EXP DUP2 SLOAD DUP2 PUSH20 0xFFFFFFFFFFFFFFFFFFFFFFFFFFFFFFFFFFFFFFFF MUL NOT AND SWAP1 DUP4 PUSH20 0xFFFFFFFFFFFFFFFFFFFFFFFFFFFFFFFFFFFFFFFF AND MUL OR SWAP1 SSTORE POP PUSH1 0x3 PUSH0 PUSH2 0x19D5 PUSH2 0x188F JUMP JUMPDEST PUSH20 0xFFFFFFFFFFFFFFFFFFFFFFFFFFFFFFFFFFFFFFFF AND PUSH20 0xFFFFFFFFFFFFFFFFFFFFFFFFFFFFFFFFFFFFFFFF AND DUP2 MSTORE PUSH1 0x20 ADD SWAP1 DUP2 MSTORE PUSH1 0x20 ADD PUSH0 KECCAK256 PUSH1 0x5 SLOAD SWAP1 DUP1 PUSH1 0x1 DUP2 SLOAD ADD DUP1 DUP3 SSTORE DUP1 SWAP2 POP POP PUSH1 0x1 SWAP1 SUB SWAP1 PUSH0 MSTORE PUSH1 0x20 PUSH0 KECCAK256 ADD PUSH0 SWAP1 SWAP2 SWAP1 SWAP2 SWAP1 SWAP2 POP SSTORE PUSH1 0x1 PUSH1 0x5 PUSH0 DUP3 DUP3 SLOAD PUSH2 0x1A46 SWAP2 SWAP1 PUSH2 0x2E2A JUMP JUMPDEST SWAP3 POP POP DUP2 SWAP1 SSTORE POP DUP2 SWAP1 POP SWAP7 SWAP6 POP POP POP POP POP POP JUMP JUMPDEST PUSH1 0x60 PUSH0 DUP3 SUB PUSH2 0x1AA0 JUMPI PUSH1 0x40 MLOAD DUP1 PUSH1 0x40 ADD PUSH1 0x40 MSTORE DUP1 PUSH1 0x1 DUP2 MSTORE PUSH1 0x20 ADD PUSH32 0x3000000000000000000000000000000000000000000000000000000000000000 DUP2 MSTORE POP SWAP1 POP PUSH2 0x1BD3 JUMP JUMPDEST PUSH0 DUP3 SWAP1 POP PUSH0 JUMPDEST PUSH0 DUP3 EQ PUSH2 0x1ACF JUMPI DUP1 DUP1 PUSH2 0x1AB8 SWAP1 PUSH2 0x26FF JUMP JUMPDEST SWAP2 POP POP PUSH1 0xA DUP3 PUSH2 0x1AC8 SWAP2 SWAP1 PUSH2 0x2E8A JUMP JUMPDEST SWAP2 POP PUSH2 0x1AA6 JUMP JUMPDEST PUSH0 DUP2 PUSH8 0xFFFFFFFFFFFFFFFF DUP2 GT ISZERO PUSH2 0x1AEA JUMPI PUSH2 0x1AE9 PUSH2 0x2639 JUMP JUMPDEST JUMPDEST PUSH1 0x40 MLOAD SWAP1 DUP1 DUP3 MSTORE DUP1 PUSH1 0x1F ADD PUSH1 0x1F NOT AND PUSH1 0x20 ADD DUP3 ADD PUSH1 0x40 MSTORE DUP1 ISZERO PUSH2 0x1B1C JUMPI DUP2 PUSH1 0x20 ADD PUSH1 0x1 DUP3 MUL DUP1 CALLDATASIZE DUP4 CALLDATACOPY DUP1 DUP3 ADD SWAP2 POP POP SWAP1 POP JUMPDEST POP SWAP1 POP PUSH0 DUP3 SWAP1 POP JUMPDEST PUSH0 DUP7 EQ PUSH2 0x1BCB JUMPI PUSH1 0x1 DUP2 PUSH2 0x1B38 SWAP2 SWAP1 PUSH2 0x2ADF JUMP JUMPDEST SWAP1 POP PUSH0 PUSH1 0xA DUP1 DUP9 PUSH2 0x1B49 SWAP2 SWAP1 PUSH2 0x2E8A JUMP JUMPDEST PUSH2 0x1B53 SWAP2 SWAP1 PUSH2 0x2EBA JUMP JUMPDEST DUP8 PUSH2 0x1B5E SWAP2 SWAP1 PUSH2 0x2ADF JUMP JUMPDEST PUSH1 0x30 PUSH2 0x1B6A SWAP2 SWAP1 PUSH2 0x2F07 JUMP JUMPDEST SWAP1 POP PUSH0 DUP2 PUSH1 0xF8 SHL SWAP1 POP DUP1 DUP5 DUP5 DUP2 MLOAD DUP2 LT PUSH2 0x1B87 JUMPI PUSH2 0x1B86 PUSH2 0x2666 JUMP JUMPDEST JUMPDEST PUSH1 0x20 ADD ADD SWAP1 PUSH31 0xFFFFFFFFFFFFFFFFFFFFFFFFFFFFFFFFFFFFFFFFFFFFFFFFFFFFFFFFFFFFFF NOT AND SWAP1 DUP2 PUSH0 BYTE SWAP1 MSTORE8 POP PUSH1 0xA DUP9 PUSH2 0x1BC2 SWAP2 SWAP1 PUSH2 0x2E8A JUMP JUMPDEST SWAP8 POP POP POP PUSH2 0x1B24 JUMP JUMPDEST DUP2 SWAP5 POP POP POP POP POP JUMPDEST SWAP2 SWAP1 POP JUMP JUMPDEST PUSH1 0x40 MLOAD DUP1 PUSH1 0xE0 ADD PUSH1 0x40 MSTORE DUP1 PUSH0 DUP2 MSTORE PUSH1 0x20 ADD PUSH0 PUSH20 0xFFFFFFFFFFFFFFFFFFFFFFFFFFFFFFFFFFFFFFFF AND DUP2 MSTORE PUSH1 0x20 ADD PUSH0 DUP2 MSTORE PUSH1 0x20 ADD PUSH0 DUP2 MSTORE PUSH1 0x20 ADD PUSH0 DUP2 MSTORE PUSH1 0x20 ADD PUSH0 DUP2 MSTORE PUSH1 0x20 ADD PUSH1 0x60 DUP2 MSTORE POP SWAP1 JUMP JUMPDEST PUSH0 DUP1 REVERT JUMPDEST PUSH0 DUP1 REVERT JUMPDEST PUSH0 PUSH20 0xFFFFFFFFFFFFFFFFFFFFFFFFFFFFFFFFFFFFFFFF DUP3 AND SWAP1 POP SWAP2 SWAP1 POP JUMP JUMPDEST PUSH0 PUSH2 0x1C56 DUP3 PUSH2 0x1C2D JUMP JUMPDEST SWAP1 POP SWAP2 SWAP1 POP JUMP JUMPDEST PUSH2 0x1C66 DUP2 PUSH2 0x1C4C JUMP JUMPDEST DUP2 EQ PUSH2 0x1C70 JUMPI PUSH0 DUP1 REVERT JUMPDEST POP JUMP JUMPDEST PUSH0 DUP2 CALLDATALOAD SWAP1 POP PUSH2 0x1C81 DUP2 PUSH2 0x1C5D JUMP JUMPDEST SWAP3 SWAP2 POP POP JUMP JUMPDEST PUSH0 DUP1 PUSH1 0x40 DUP4 DUP6 SUB SLT ISZERO PUSH2 0x1C9D JUMPI PUSH2 0x1C9C PUSH2 0x1C25 JUMP JUMPDEST JUMPDEST PUSH0 PUSH2 0x1CAA DUP6 DUP3 DUP7 ADD PUSH2 0x1C73 JUMP JUMPDEST SWAP3 POP POP PUSH1 0x20 PUSH2 0x1CBB DUP6 DUP3 DUP7 ADD PUSH2 0x1C73 JUMP JUMPDEST SWAP2 POP POP SWAP3 POP SWAP3 SWAP1 POP JUMP JUMPDEST PUSH0 DUP2 MLOAD SWAP1 POP SWAP2 SWAP1 POP JUMP JUMPDEST PUSH0 DUP3 DUP3 MSTORE PUSH1 0x20 DUP3 ADD SWAP1 POP SWAP3 SWAP2 POP POP JUMP JUMPDEST PUSH0 DUP2 SWAP1 POP PUSH1 0x20 DUP3 ADD SWAP1 POP SWAP2 SWAP1 POP JUMP JUMPDEST PUSH0 DUP2 SWAP1 POP SWAP2 SWAP1 POP JUMP JUMPDEST PUSH2 0x1D00 DUP2 PUSH2 0x1CEE JUMP JUMPDEST DUP3 MSTORE POP POP JUMP JUMPDEST PUSH0 PUSH2 0x1D11 DUP4 DUP4 PUSH2 0x1CF7 JUMP JUMPDEST PUSH1 0x20 DUP4 ADD SWAP1 POP SWAP3 SWAP2 POP POP JUMP JUMPDEST PUSH0 PUSH1 0x20 DUP3 ADD SWAP1 POP SWAP2 SWAP1 POP JUMP JUMPDEST PUSH0 PUSH2 0x1D33 DUP3 PUSH2 0x1CC5 JUMP JUMPDEST PUSH2 0x1D3D DUP2 DUP6 PUSH2 0x1CCF JUMP JUMPDEST SWAP4 POP PUSH2 0x1D48 DUP4 PUSH2 0x1CDF JUMP JUMPDEST DUP1 PUSH0 JUMPDEST DUP4 DUP2 LT ISZERO PUSH2 0x1D78 JUMPI DUP2 MLOAD PUSH2 0x1D5F DUP9 DUP3 PUSH2 0x1D06 JUMP JUMPDEST SWAP8 POP PUSH2 0x1D6A DUP4 PUSH2 0x1D1D JUMP JUMPDEST SWAP3 POP POP PUSH1 0x1 DUP2 ADD SWAP1 POP PUSH2 0x1D4B JUMP JUMPDEST POP DUP6 SWAP4 POP POP POP POP SWAP3 SWAP2 POP POP JUMP JUMPDEST PUSH0 PUSH1 0x20 DUP3 ADD SWAP1 POP DUP2 DUP2 SUB PUSH0 DUP4 ADD MSTORE PUSH2 0x1D9D DUP2 DUP5 PUSH2 0x1D29 JUMP JUMPDEST SWAP1 POP SWAP3 SWAP2 POP POP JUMP JUMPDEST PUSH0 PUSH1 0x20 DUP3 DUP5 SUB SLT ISZERO PUSH2 0x1DBA JUMPI PUSH2 0x1DB9 PUSH2 0x1C25 JUMP JUMPDEST JUMPDEST PUSH0 PUSH2 0x1DC7 DUP5 DUP3 DUP6 ADD PUSH2 0x1C73 JUMP JUMPDEST SWAP2 POP POP SWAP3 SWAP2 POP POP JUMP JUMPDEST PUSH0 DUP2 MLOAD SWAP1 POP SWAP2 SWAP1 POP JUMP JUMPDEST PUSH0 DUP3 DUP3 MSTORE PUSH1 0x20 DUP3 ADD SWAP1 POP SWAP3 SWAP2 POP POP JUMP JUMPDEST PUSH0 DUP2 SWAP1 POP PUSH1 0x20 DUP3 ADD SWAP1 POP SWAP2 SWAP1 POP JUMP JUMPDEST PUSH2 0x1E02 DUP2 PUSH2 0x1C4C JUMP JUMPDEST DUP3 MSTORE POP POP JUMP JUMPDEST PUSH0 DUP2 SWAP1 POP SWAP2 SWAP1 POP JUMP JUMPDEST PUSH2 0x1E1A DUP2 PUSH2 0x1E08 JUMP JUMPDEST DUP3 MSTORE POP POP JUMP JUMPDEST PUSH0 DUP2 MLOAD SWAP1 POP SWAP2 SWAP1 POP JUMP JUMPDEST PUSH0 DUP3 DUP3 MSTORE PUSH1 0x20 DUP3 ADD SWAP1 POP SWAP3 SWAP2 POP POP JUMP JUMPDEST PUSH0 JUMPDEST DUP4 DUP2 LT ISZERO PUSH2 0x1E57 JUMPI DUP1 DUP3 ADD MLOAD DUP2 DUP5 ADD MSTORE PUSH1 0x20 DUP2 ADD SWAP1 POP PUSH2 0x1E3C JUMP JUMPDEST PUSH0 DUP5 DUP5 ADD MSTORE POP POP POP POP JUMP JUMPDEST PUSH0 PUSH1 0x1F NOT PUSH1 0x1F DUP4 ADD AND SWAP1 POP SWAP2 SWAP1 POP JUMP JUMPDEST PUSH0 PUSH2 0x1E7C DUP3 PUSH2 0x1E20 JUMP JUMPDEST PUSH2 0x1E86 DUP2 DUP6 PUSH2 0x1E2A JUMP JUMPDEST SWAP4 POP PUSH2 0x1E96 DUP2 DUP6 PUSH1 0x20 DUP7 ADD PUSH2 0x1E3A JUMP JUMPDEST PUSH2 0x1E9F DUP2 PUSH2 0x1E62 JUMP JUMPDEST DUP5 ADD SWAP2 POP POP SWAP3 SWAP2 POP POP JUMP JUMPDEST PUSH0 PUSH1 0xE0 DUP4 ADD PUSH0 DUP4 ADD MLOAD PUSH2 0x1EBF PUSH0 DUP7 ADD DUP3 PUSH2 0x1CF7 JUMP JUMPDEST POP PUSH1 0x20 DUP4 ADD MLOAD PUSH2 0x1ED2 PUSH1 0x20 DUP7 ADD DUP3 PUSH2 0x1DF9 JUMP JUMPDEST POP PUSH1 0x40 DUP4 ADD MLOAD PUSH2 0x1EE5 PUSH1 0x40 DUP7 ADD DUP3 PUSH2 0x1CF7 JUMP JUMPDEST POP PUSH1 0x60 DUP4 ADD MLOAD PUSH2 0x1EF8 PUSH1 0x60 DUP7 ADD DUP3 PUSH2 0x1CF7 JUMP JUMPDEST POP PUSH1 0x80 DUP4 ADD MLOAD PUSH2 0x1F0B PUSH1 0x80 DUP7 ADD DUP3 PUSH2 0x1E11 JUMP JUMPDEST POP PUSH1 0xA0 DUP4 ADD MLOAD PUSH2 0x1F1E PUSH1 0xA0 DUP7 ADD DUP3 PUSH2 0x1E11 JUMP JUMPDEST POP PUSH1 0xC0 DUP4 ADD MLOAD DUP5 DUP3 SUB PUSH1 0xC0 DUP7 ADD MSTORE PUSH2 0x1F36 DUP3 DUP3 PUSH2 0x1E72 JUMP JUMPDEST SWAP2 POP POP DUP1 SWAP2 POP POP SWAP3 SWAP2 POP POP JUMP JUMPDEST PUSH0 PUSH2 0x1F4E DUP4 DUP4 PUSH2 0x1EAA JUMP JUMPDEST SWAP1 POP SWAP3 SWAP2 POP POP JUMP JUMPDEST PUSH0 PUSH1 0x20 DUP3 ADD SWAP1 POP SWAP2 SWAP1 POP JUMP JUMPDEST PUSH0 PUSH2 0x1F6C DUP3 PUSH2 0x1DD0 JUMP JUMPDEST PUSH2 0x1F76 DUP2 DUP6 PUSH2 0x1DDA JUMP JUMPDEST SWAP4 POP DUP4 PUSH1 0x20 DUP3 MUL DUP6 ADD PUSH2 0x1F88 DUP6 PUSH2 0x1DEA JUMP JUMPDEST DUP1 PUSH0 JUMPDEST DUP6 DUP2 LT ISZERO PUSH2 0x1FC3 JUMPI DUP5 DUP5 SUB DUP10 MSTORE DUP2 MLOAD PUSH2 0x1FA4 DUP6 DUP3 PUSH2 0x1F43 JUMP JUMPDEST SWAP5 POP PUSH2 0x1FAF DUP4 PUSH2 0x1F56 JUMP JUMPDEST SWAP3 POP PUSH1 0x20 DUP11 ADD SWAP10 POP POP PUSH1 0x1 DUP2 ADD SWAP1 POP PUSH2 0x1F8B JUMP JUMPDEST POP DUP3 SWAP8 POP DUP8 SWAP6 POP POP POP POP POP POP SWAP3 SWAP2 POP POP JUMP JUMPDEST PUSH0 PUSH1 0x20 DUP3 ADD SWAP1 POP DUP2 DUP2 SUB PUSH0 DUP4 ADD MSTORE PUSH2 0x1FED DUP2 DUP5 PUSH2 0x1F62 JUMP JUMPDEST SWAP1 POP SWAP3 SWAP2 POP POP JUMP JUMPDEST PUSH2 0x1FFE DUP2 PUSH2 0x1CEE JUMP JUMPDEST DUP2 EQ PUSH2 0x2008 JUMPI PUSH0 DUP1 REVERT JUMPDEST POP JUMP JUMPDEST PUSH0 DUP2 CALLDATALOAD SWAP1 POP PUSH2 0x2019 DUP2 PUSH2 0x1FF5 JUMP JUMPDEST SWAP3 SWAP2 POP POP JUMP JUMPDEST PUSH0 PUSH1 0x20 DUP3 DUP5 SUB SLT ISZERO PUSH2 0x2034 JUMPI PUSH2 0x2033 PUSH2 0x1C25 JUMP JUMPDEST JUMPDEST PUSH0 PUSH2 0x2041 DUP5 DUP3 DUP6 ADD PUSH2 0x200B JUMP JUMPDEST SWAP2 POP POP SWAP3 SWAP2 POP POP JUMP JUMPDEST PUSH2 0x2053 DUP2 PUSH2 0x1C4C JUMP JUMPDEST DUP3 MSTORE POP POP JUMP JUMPDEST PUSH0 PUSH1 0x20 DUP3 ADD SWAP1 POP PUSH2 0x206C PUSH0 DUP4 ADD DUP5 PUSH2 0x204A JUMP JUMPDEST SWAP3 SWAP2 POP POP JUMP JUMPDEST PUSH0 DUP1 REVERT JUMPDEST PUSH0 DUP1 REVERT JUMPDEST PUSH0 DUP1 REVERT JUMPDEST PUSH0 DUP1 DUP4 PUSH1 0x1F DUP5 ADD SLT PUSH2 0x2093 JUMPI PUSH2 0x2092 PUSH2 0x2072 JUMP JUMPDEST JUMPDEST DUP3 CALLDATALOAD SWAP1 POP PUSH8 0xFFFFFFFFFFFFFFFF DUP2 GT ISZERO PUSH2 0x20B0 JUMPI PUSH2 0x20AF PUSH2 0x2076 JUMP JUMPDEST JUMPDEST PUSH1 0x20 DUP4 ADD SWAP2 POP DUP4 PUSH1 0x20 DUP3 MUL DUP4 ADD GT ISZERO PUSH2 0x20CC JUMPI PUSH2 0x20CB PUSH2 0x207A JUMP JUMPDEST JUMPDEST SWAP3 POP SWAP3 SWAP1 POP JUMP JUMPDEST PUSH0 DUP1 PUSH0 PUSH1 0x40 DUP5 DUP7 SUB SLT ISZERO PUSH2 0x20EA JUMPI PUSH2 0x20E9 PUSH2 0x1C25 JUMP JUMPDEST JUMPDEST PUSH0 PUSH2 0x20F7 DUP7 DUP3 DUP8 ADD PUSH2 0x1C73 JUMP JUMPDEST SWAP4 POP POP PUSH1 0x20 DUP5 ADD CALLDATALOAD PUSH8 0xFFFFFFFFFFFFFFFF DUP2 GT ISZERO PUSH2 0x2118 JUMPI PUSH2 0x2117 PUSH2 0x1C29 JUMP JUMPDEST JUMPDEST PUSH2 0x2124 DUP7 DUP3 DUP8 ADD PUSH2 0x207E JUMP JUMPDEST SWAP3 POP SWAP3 POP POP SWAP3 POP SWAP3 POP SWAP3 JUMP JUMPDEST PUSH2 0x2139 DUP2 PUSH2 0x1E08 JUMP JUMPDEST DUP2 EQ PUSH2 0x2143 JUMPI PUSH0 DUP1 REVERT JUMPDEST POP JUMP JUMPDEST PUSH0 DUP2 CALLDATALOAD SWAP1 POP PUSH2 0x2154 DUP2 PUSH2 0x2130 JUMP JUMPDEST SWAP3 SWAP2 POP POP JUMP JUMPDEST PUSH0 DUP1 DUP4 PUSH1 0x1F DUP5 ADD SLT PUSH2 0x216F JUMPI PUSH2 0x216E PUSH2 0x2072 JUMP JUMPDEST JUMPDEST DUP3 CALLDATALOAD SWAP1 POP PUSH8 0xFFFFFFFFFFFFFFFF DUP2 GT ISZERO PUSH2 0x218C JUMPI PUSH2 0x218B PUSH2 0x2076 JUMP JUMPDEST JUMPDEST PUSH1 0x20 DUP4 ADD SWAP2 POP DUP4 PUSH1 0x1 DUP3 MUL DUP4 ADD GT ISZERO PUSH2 0x21A8 JUMPI PUSH2 0x21A7 PUSH2 0x207A JUMP JUMPDEST JUMPDEST SWAP3 POP SWAP3 SWAP1 POP JUMP JUMPDEST PUSH0 DUP1 PUSH0 DUP1 PUSH0 DUP1 PUSH0 DUP1 PUSH1 0xE0 DUP10 DUP12 SUB SLT ISZERO PUSH2 0x21CB JUMPI PUSH2 0x21CA PUSH2 0x1C25 JUMP JUMPDEST JUMPDEST PUSH0 PUSH2 0x21D8 DUP12 DUP3 DUP13 ADD PUSH2 0x200B JUMP JUMPDEST SWAP9 POP POP PUSH1 0x20 PUSH2 0x21E9 DUP12 DUP3 DUP13 ADD PUSH2 0x200B JUMP JUMPDEST SWAP8 POP POP PUSH1 0x40 PUSH2 0x21FA DUP12 DUP3 DUP13 ADD PUSH2 0x200B JUMP JUMPDEST SWAP7 POP POP PUSH1 0x60 PUSH2 0x220B DUP12 DUP3 DUP13 ADD PUSH2 0x2146 JUMP JUMPDEST SWAP6 POP POP PUSH1 0x80 PUSH2 0x221C DUP12 DUP3 DUP13 ADD PUSH2 0x2146 JUMP JUMPDEST SWAP5 POP POP PUSH1 0xA0 DUP10 ADD CALLDATALOAD PUSH8 0xFFFFFFFFFFFFFFFF DUP2 GT ISZERO PUSH2 0x223D JUMPI PUSH2 0x223C PUSH2 0x1C29 JUMP JUMPDEST JUMPDEST PUSH2 0x2249 DUP12 DUP3 DUP13 ADD PUSH2 0x215A JUMP JUMPDEST SWAP4 POP SWAP4 POP POP PUSH1 0xC0 PUSH2 0x225C DUP12 DUP3 DUP13 ADD PUSH2 0x1C73 JUMP JUMPDEST SWAP2 POP POP SWAP3 SWAP6 SWAP9 POP SWAP3 SWAP6 SWAP9 SWAP1 SWAP4 SWAP7 POP JUMP JUMPDEST PUSH2 0x2275 DUP2 PUSH2 0x1CEE JUMP JUMPDEST DUP3 MSTORE POP POP JUMP JUMPDEST PUSH0 PUSH1 0x20 DUP3 ADD SWAP1 POP PUSH2 0x228E PUSH0 DUP4 ADD DUP5 PUSH2 0x226C JUMP JUMPDEST SWAP3 SWAP2 POP POP JUMP JUMPDEST PUSH0 DUP1 PUSH1 0x40 DUP4 DUP6 SUB SLT ISZERO PUSH2 0x22AA JUMPI PUSH2 0x22A9 PUSH2 0x1C25 JUMP JUMPDEST JUMPDEST PUSH0 PUSH2 0x22B7 DUP6 DUP3 DUP7 ADD PUSH2 0x1C73 JUMP JUMPDEST SWAP3 POP POP PUSH1 0x20 PUSH2 0x22C8 DUP6 DUP3 DUP7 ADD PUSH2 0x200B JUMP JUMPDEST SWAP2 POP POP SWAP3 POP SWAP3 SWAP1 POP JUMP JUMPDEST PUSH0 DUP1 PUSH1 0x40 DUP4 DUP6 SUB SLT ISZERO PUSH2 0x22E8 JUMPI PUSH2 0x22E7 PUSH2 0x1C25 JUMP JUMPDEST JUMPDEST PUSH0 PUSH2 0x22F5 DUP6 DUP3 DUP7 ADD PUSH2 0x200B JUMP JUMPDEST SWAP3 POP POP PUSH1 0x20 PUSH2 0x2306 DUP6 DUP3 DUP7 ADD PUSH2 0x1C73 JUMP JUMPDEST SWAP2 POP POP SWAP3 POP SWAP3 SWAP1 POP JUMP JUMPDEST PUSH0 DUP1 PUSH0 PUSH1 0x60 DUP5 DUP7 SUB SLT ISZERO PUSH2 0x2327 JUMPI PUSH2 0x2326 PUSH2 0x1C25 JUMP JUMPDEST JUMPDEST PUSH0 PUSH2 0x2334 DUP7 DUP3 DUP8 ADD PUSH2 0x1C73 JUMP JUMPDEST SWAP4 POP POP PUSH1 0x20 PUSH2 0x2345 DUP7 DUP3 DUP8 ADD PUSH2 0x200B JUMP JUMPDEST SWAP3 POP POP PUSH1 0x40 PUSH2 0x2356 DUP7 DUP3 DUP8 ADD PUSH2 0x200B JUMP JUMPDEST SWAP2 POP POP SWAP3 POP SWAP3 POP SWAP3 JUMP JUMPDEST PUSH2 0x2369 DUP2 PUSH2 0x1E08 JUMP JUMPDEST DUP3 MSTORE POP POP JUMP JUMPDEST PUSH0 DUP3 DUP3 MSTORE PUSH1 0x20 DUP3 ADD SWAP1 POP SWAP3 SWAP2 POP POP JUMP JUMPDEST PUSH0 PUSH2 0x2389 DUP3 PUSH2 0x1E20 JUMP JUMPDEST PUSH2 0x2393 DUP2 DUP6 PUSH2 0x236F JUMP JUMPDEST SWAP4 POP PUSH2 0x23A3 DUP2 DUP6 PUSH1 0x20 DUP7 ADD PUSH2 0x1E3A JUMP JUMPDEST PUSH2 0x23AC DUP2 PUSH2 0x1E62 JUMP JUMPDEST DUP5 ADD SWAP2 POP POP SWAP3 SWAP2 POP POP JUMP JUMPDEST PUSH0 PUSH1 0xC0 DUP3 ADD SWAP1 POP PUSH2 0x23CA PUSH0 DUP4 ADD DUP10 PUSH2 0x204A JUMP JUMPDEST PUSH2 0x23D7 PUSH1 0x20 DUP4 ADD DUP9 PUSH2 0x226C JUMP JUMPDEST PUSH2 0x23E4 PUSH1 0x40 DUP4 ADD DUP8 PUSH2 0x226C JUMP JUMPDEST PUSH2 0x23F1 PUSH1 0x60 DUP4 ADD DUP7 PUSH2 0x2360 JUMP JUMPDEST PUSH2 0x23FE PUSH1 0x80 DUP4 ADD DUP6 PUSH2 0x2360 JUMP JUMPDEST DUP2 DUP2 SUB PUSH1 0xA0 DUP4 ADD MSTORE PUSH2 0x2410 DUP2 DUP5 PUSH2 0x237F JUMP JUMPDEST SWAP1 POP SWAP8 SWAP7 POP POP POP POP POP POP POP JUMP JUMPDEST PUSH0 DUP1 PUSH1 0x40 DUP4 DUP6 SUB SLT ISZERO PUSH2 0x2433 JUMPI PUSH2 0x2432 PUSH2 0x1C25 JUMP JUMPDEST JUMPDEST PUSH0 PUSH2 0x2440 DUP6 DUP3 DUP7 ADD PUSH2 0x200B JUMP JUMPDEST SWAP3 POP POP PUSH1 0x20 PUSH2 0x2451 DUP6 DUP3 DUP7 ADD PUSH2 0x200B JUMP JUMPDEST SWAP2 POP POP SWAP3 POP SWAP3 SWAP1 POP JUMP JUMPDEST PUSH0 DUP1 PUSH0 DUP1 PUSH0 DUP1 PUSH0 DUP1 PUSH0 DUP1 PUSH0 PUSH2 0x140 DUP13 DUP15 SUB SLT ISZERO PUSH2 0x247B JUMPI PUSH2 0x247A PUSH2 0x1C25 JUMP JUMPDEST JUMPDEST PUSH0 PUSH2 0x2488 DUP15 DUP3 DUP16 ADD PUSH2 0x200B JUMP JUMPDEST SWAP12 POP POP PUSH1 0x20 PUSH2 0x2499 DUP15 DUP3 DUP16 ADD PUSH2 0x200B JUMP JUMPDEST SWAP11 POP POP PUSH1 0x40 PUSH2 0x24AA DUP15 DUP3 DUP16 ADD PUSH2 0x2146 JUMP JUMPDEST SWAP10 POP POP PUSH1 0x60 PUSH2 0x24BB DUP15 DUP3 DUP16 ADD PUSH2 0x2146 JUMP JUMPDEST SWAP9 POP POP PUSH1 0x80 DUP13 ADD CALLDATALOAD PUSH8 0xFFFFFFFFFFFFFFFF DUP2 GT ISZERO PUSH2 0x24DC JUMPI PUSH2 0x24DB PUSH2 0x1C29 JUMP JUMPDEST JUMPDEST PUSH2 0x24E8 DUP15 DUP3 DUP16 ADD PUSH2 0x215A JUMP JUMPDEST SWAP8 POP SWAP8 POP POP PUSH1 0xA0 PUSH2 0x24FB DUP15 DUP3 DUP16 ADD PUSH2 0x1C73 JUMP JUMPDEST SWAP6 POP POP PUSH1 0xC0 PUSH2 0x250C DUP15 DUP3 DUP16 ADD PUSH2 0x1C73 JUMP JUMPDEST SWAP5 POP POP PUSH1 0xE0 PUSH2 0x251D DUP15 DUP3 DUP16 ADD PUSH2 0x200B JUMP JUMPDEST SWAP4 POP POP PUSH2 0x100 PUSH2 0x252F DUP15 DUP3 DUP16 ADD PUSH2 0x200B JUMP JUMPDEST SWAP3 POP POP PUSH2 0x120 PUSH2 0x2541 DUP15 DUP3 DUP16 ADD PUSH2 0x200B JUMP JUMPDEST SWAP2 POP POP SWAP3 SWAP6 SWAP9 SWAP12 POP SWAP3 SWAP6 SWAP9 SWAP12 SWAP1 SWAP4 SWAP7 SWAP10 POP JUMP JUMPDEST PUSH0 DUP1 PUSH0 DUP1 PUSH0 DUP1 PUSH0 DUP1 PUSH0 DUP1 PUSH2 0x120 DUP12 DUP14 SUB SLT ISZERO PUSH2 0x2573 JUMPI PUSH2 0x2572 PUSH2 0x1C25 JUMP JUMPDEST JUMPDEST PUSH0 PUSH2 0x2580 DUP14 DUP3 DUP15 ADD PUSH2 0x200B JUMP JUMPDEST SWAP11 POP POP PUSH1 0x20 PUSH2 0x2591 DUP14 DUP3 DUP15 ADD PUSH2 0x200B JUMP JUMPDEST SWAP10 POP POP PUSH1 0x40 PUSH2 0x25A2 DUP14 DUP3 DUP15 ADD PUSH2 0x2146 JUMP JUMPDEST SWAP9 POP POP PUSH1 0x60 PUSH2 0x25B3 DUP14 DUP3 DUP15 ADD PUSH2 0x2146 JUMP JUMPDEST SWAP8 POP POP PUSH1 0x80 DUP12 ADD CALLDATALOAD PUSH8 0xFFFFFFFFFFFFFFFF DUP2 GT ISZERO PUSH2 0x25D4 JUMPI PUSH2 0x25D3 PUSH2 0x1C29 JUMP JUMPDEST JUMPDEST PUSH2 0x25E0 DUP14 DUP3 DUP15 ADD PUSH2 0x215A JUMP JUMPDEST SWAP7 POP SWAP7 POP POP PUSH1 0xA0 PUSH2 0x25F3 DUP14 DUP3 DUP15 ADD PUSH2 0x1C73 JUMP JUMPDEST SWAP5 POP POP PUSH1 0xC0 PUSH2 0x2604 DUP14 DUP3 DUP15 ADD PUSH2 0x1C73 JUMP JUMPDEST SWAP4 POP POP PUSH1 0xE0 PUSH2 0x2615 DUP14 DUP3 DUP15 ADD PUSH2 0x200B JUMP JUMPDEST SWAP3 POP POP PUSH2 0x100 PUSH2 0x2627 DUP14 DUP3 DUP15 ADD PUSH2 0x200B JUMP JUMPDEST SWAP2 POP POP SWAP3 SWAP6 SWAP9 SWAP12 SWAP2 SWAP5 SWAP8 SWAP11 POP SWAP3 SWAP6 SWAP9 POP JUMP JUMPDEST PUSH32 0x4E487B7100000000000000000000000000000000000000000000000000000000 PUSH0 MSTORE PUSH1 0x41 PUSH1 0x4 MSTORE PUSH1 0x24 PUSH0 REVERT JUMPDEST PUSH32 0x4E487B7100000000000000000000000000000000000000000000000000000000 PUSH0 MSTORE PUSH1 0x32 PUSH1 0x4 MSTORE PUSH1 0x24 PUSH0 REVERT JUMPDEST PUSH0 DUP2 MLOAD SWAP1 POP PUSH2 0x26A1 DUP2 PUSH2 0x1FF5 JUMP JUMPDEST SWAP3 SWAP2 POP POP JUMP JUMPDEST PUSH0 PUSH1 0x20 DUP3 DUP5 SUB SLT ISZERO PUSH2 0x26BC JUMPI PUSH2 0x26BB PUSH2 0x1C25 JUMP JUMPDEST JUMPDEST PUSH0 PUSH2 0x26C9 DUP5 DUP3 DUP6 ADD PUSH2 0x2693 JUMP JUMPDEST SWAP2 POP POP SWAP3 SWAP2 POP POP JUMP JUMPDEST PUSH32 0x4E487B7100000000000000000000000000000000000000000000000000000000 PUSH0 MSTORE PUSH1 0x11 PUSH1 0x4 MSTORE PUSH1 0x24 PUSH0 REVERT JUMPDEST PUSH0 PUSH2 0x2709 DUP3 PUSH2 0x1CEE JUMP JUMPDEST SWAP2 POP PUSH32 0xFFFFFFFFFFFFFFFFFFFFFFFFFFFFFFFFFFFFFFFFFFFFFFFFFFFFFFFFFFFFFFFF DUP3 SUB PUSH2 0x273B JUMPI PUSH2 0x273A PUSH2 0x26D2 JUMP JUMPDEST JUMPDEST PUSH1 0x1 DUP3 ADD SWAP1 POP SWAP2 SWAP1 POP JUMP JUMPDEST PUSH32 0x4F776E61626C653A2063616C6C6572206973206E6F7420746865206F776E6572 PUSH0 DUP3 ADD MSTORE POP JUMP JUMPDEST PUSH0 PUSH2 0x277A PUSH1 0x20 DUP4 PUSH2 0x236F JUMP JUMPDEST SWAP2 POP PUSH2 0x2785 DUP3 PUSH2 0x2746 JUMP JUMPDEST PUSH1 0x20 DUP3 ADD SWAP1 POP SWAP2 SWAP1 POP JUMP JUMPDEST PUSH0 PUSH1 0x20 DUP3 ADD SWAP1 POP DUP2 DUP2 SUB PUSH0 DUP4 ADD MSTORE PUSH2 0x27A7 DUP2 PUSH2 0x276E JUMP JUMPDEST SWAP1 POP SWAP2 SWAP1 POP JUMP JUMPDEST PUSH32 0x4E487B7100000000000000000000000000000000000000000000000000000000 PUSH0 MSTORE PUSH1 0x22 PUSH1 0x4 MSTORE PUSH1 0x24 PUSH0 REVERT JUMPDEST PUSH0 PUSH1 0x2 DUP3 DIV SWAP1 POP PUSH1 0x1 DUP3 AND DUP1 PUSH2 0x27F2 JUMPI PUSH1 0x7F DUP3 AND SWAP2 POP JUMPDEST PUSH1 0x20 DUP3 LT DUP2 SUB PUSH2 0x2805 JUMPI PUSH2 0x2804 PUSH2 0x27AE JUMP JUMPDEST JUMPDEST POP SWAP2 SWAP1 POP JUMP JUMPDEST PUSH32 0x556E617574686F72697A6564206576656E7420696E666F206368616E67650000 PUSH0 DUP3 ADD MSTORE POP JUMP JUMPDEST PUSH0 PUSH2 0x283F PUSH1 0x1E DUP4 PUSH2 0x236F JUMP JUMPDEST SWAP2 POP PUSH2 0x284A DUP3 PUSH2 0x280B JUMP JUMPDEST PUSH1 0x20 DUP3 ADD SWAP1 POP SWAP2 SWAP1 POP JUMP JUMPDEST PUSH0 PUSH1 0x20 DUP3 ADD SWAP1 POP DUP2 DUP2 SUB PUSH0 DUP4 ADD MSTORE PUSH2 0x286C DUP2 PUSH2 0x2833 JUMP JUMPDEST SWAP1 POP SWAP2 SWAP1 POP JUMP JUMPDEST PUSH0 DUP2 SWAP1 POP DUP2 PUSH0 MSTORE PUSH1 0x20 PUSH0 KECCAK256 SWAP1 POP SWAP2 SWAP1 POP JUMP JUMPDEST PUSH0 PUSH1 0x20 PUSH1 0x1F DUP4 ADD DIV SWAP1 POP SWAP2 SWAP1 POP JUMP JUMPDEST PUSH0 DUP3 DUP3 SHL SWAP1 POP SWAP3 SWAP2 POP POP JUMP JUMPDEST PUSH0 PUSH1 0x8 DUP4 MUL PUSH2 0x28CF PUSH32 0xFFFFFFFFFFFFFFFFFFFFFFFFFFFFFFFFFFFFFFFFFFFFFFFFFFFFFFFFFFFFFFFF DUP3 PUSH2 0x2894 JUMP JUMPDEST PUSH2 0x28D9 DUP7 DUP4 PUSH2 0x2894 JUMP JUMPDEST SWAP6 POP DUP1 NOT DUP5 AND SWAP4 POP DUP1 DUP7 AND DUP5 OR SWAP3 POP POP POP SWAP4 SWAP3 POP POP POP JUMP JUMPDEST PUSH0 DUP2 SWAP1 POP SWAP2 SWAP1 POP JUMP JUMPDEST PUSH0 PUSH2 0x2914 PUSH2 0x290F PUSH2 0x290A DUP5 PUSH2 0x1CEE JUMP JUMPDEST PUSH2 0x28F1 JUMP JUMPDEST PUSH2 0x1CEE JUMP JUMPDEST SWAP1 POP SWAP2 SWAP1 POP JUMP JUMPDEST PUSH0 DUP2 SWAP1 POP SWAP2 SWAP1 POP JUMP JUMPDEST PUSH2 0x292D DUP4 PUSH2 0x28FA JUMP JUMPDEST PUSH2 0x2941 PUSH2 0x2939 DUP3 PUSH2 0x291B JUMP JUMPDEST DUP5 DUP5 SLOAD PUSH2 0x28A0 JUMP JUMPDEST DUP3 SSTORE POP POP POP POP JUMP JUMPDEST PUSH0 SWAP1 JUMP JUMPDEST PUSH2 0x2955 PUSH2 0x2949 JUMP JUMPDEST PUSH2 0x2960 DUP2 DUP5 DUP5 PUSH2 0x2924 JUMP JUMPDEST POP POP POP JUMP JUMPDEST JUMPDEST DUP2 DUP2 LT ISZERO PUSH2 0x2983 JUMPI PUSH2 0x2978 PUSH0 DUP3 PUSH2 0x294D JUMP JUMPDEST PUSH1 0x1 DUP2 ADD SWAP1 POP PUSH2 0x2966 JUMP JUMPDEST POP POP JUMP JUMPDEST PUSH1 0x1F DUP3 GT ISZERO PUSH2 0x29C8 JUMPI PUSH2 0x2999 DUP2 PUSH2 0x2873 JUMP JUMPDEST PUSH2 0x29A2 DUP5 PUSH2 0x2885 JUMP JUMPDEST DUP2 ADD PUSH1 0x20 DUP6 LT ISZERO PUSH2 0x29B1 JUMPI DUP2 SWAP1 POP JUMPDEST PUSH2 0x29C5 PUSH2 0x29BD DUP6 PUSH2 0x2885 JUMP JUMPDEST DUP4 ADD DUP3 PUSH2 0x2965 JUMP JUMPDEST POP POP JUMPDEST POP POP POP JUMP JUMPDEST PUSH0 DUP3 DUP3 SHR SWAP1 POP SWAP3 SWAP2 POP POP JUMP JUMPDEST PUSH0 PUSH2 0x29E8 PUSH0 NOT DUP5 PUSH1 0x8 MUL PUSH2 0x29CD JUMP JUMPDEST NOT DUP1 DUP4 AND SWAP2 POP POP SWAP3 SWAP2 POP POP JUMP JUMPDEST PUSH0 PUSH2 0x2A00 DUP4 DUP4 PUSH2 0x29D9 JUMP JUMPDEST SWAP2 POP DUP3 PUSH1 0x2 MUL DUP3 OR SWAP1 POP SWAP3 SWAP2 POP POP JUMP JUMPDEST PUSH2 0x2A19 DUP3 PUSH2 0x1E20 JUMP JUMPDEST PUSH8 0xFFFFFFFFFFFFFFFF DUP2 GT ISZERO PUSH2 0x2A32 JUMPI PUSH2 0x2A31 PUSH2 0x2639 JUMP JUMPDEST JUMPDEST PUSH2 0x2A3C DUP3 SLOAD PUSH2 0x27DB JUMP JUMPDEST PUSH2 0x2A47 DUP3 DUP3 DUP6 PUSH2 0x2987 JUMP JUMPDEST PUSH0 PUSH1 0x20 SWAP1 POP PUSH1 0x1F DUP4 GT PUSH1 0x1 DUP2 EQ PUSH2 0x2A78 JUMPI PUSH0 DUP5 ISZERO PUSH2 0x2A66 JUMPI DUP3 DUP8 ADD MLOAD SWAP1 POP JUMPDEST PUSH2 0x2A70 DUP6 DUP3 PUSH2 0x29F5 JUMP JUMPDEST DUP7 SSTORE POP PUSH2 0x2AD7 JUMP JUMPDEST PUSH1 0x1F NOT DUP5 AND PUSH2 0x2A86 DUP7 PUSH2 0x2873 JUMP JUMPDEST PUSH0 JUMPDEST DUP3 DUP2 LT ISZERO PUSH2 0x2AAD JUMPI DUP5 DUP10 ADD MLOAD DUP3 SSTORE PUSH1 0x1 DUP3 ADD SWAP2 POP PUSH1 0x20 DUP6 ADD SWAP5 POP PUSH1 0x20 DUP2 ADD SWAP1 POP PUSH2 0x2A88 JUMP JUMPDEST DUP7 DUP4 LT ISZERO PUSH2 0x2ACA JUMPI DUP5 DUP10 ADD MLOAD PUSH2 0x2AC6 PUSH1 0x1F DUP10 AND DUP3 PUSH2 0x29D9 JUMP JUMPDEST DUP4 SSTORE POP JUMPDEST PUSH1 0x1 PUSH1 0x2 DUP9 MUL ADD DUP9 SSTORE POP POP POP JUMPDEST POP POP POP POP POP POP JUMP JUMPDEST PUSH0 PUSH2 0x2AE9 DUP3 PUSH2 0x1CEE JUMP JUMPDEST SWAP2 POP PUSH2 0x2AF4 DUP4 PUSH2 0x1CEE JUMP JUMPDEST SWAP3 POP DUP3 DUP3 SUB SWAP1 POP DUP2 DUP2 GT ISZERO PUSH2 0x2B0C JUMPI PUSH2 0x2B0B PUSH2 0x26D2 JUMP JUMPDEST JUMPDEST SWAP3 SWAP2 POP POP JUMP JUMPDEST PUSH0 DUP2 ISZERO ISZERO SWAP1 POP SWAP2 SWAP1 POP JUMP JUMPDEST PUSH2 0x2B26 DUP2 PUSH2 0x2B12 JUMP JUMPDEST DUP3 MSTORE POP POP JUMP JUMPDEST PUSH0 PUSH1 0xE0 DUP3 ADD SWAP1 POP PUSH2 0x2B3F PUSH0 DUP4 ADD DUP11 PUSH2 0x204A JUMP JUMPDEST PUSH2 0x2B4C PUSH1 0x20 DUP4 ADD DUP10 PUSH2 0x204A JUMP JUMPDEST PUSH2 0x2B59 PUSH1 0x40 DUP4 ADD DUP9 PUSH2 0x204A JUMP JUMPDEST PUSH2 0x2B66 PUSH1 0x60 DUP4 ADD DUP8 PUSH2 0x226C JUMP JUMPDEST PUSH2 0x2B73 PUSH1 0x80 DUP4 ADD DUP7 PUSH2 0x226C JUMP JUMPDEST PUSH2 0x2B80 PUSH1 0xA0 DUP4 ADD DUP6 PUSH2 0x226C JUMP JUMPDEST PUSH2 0x2B8D PUSH1 0xC0 DUP4 ADD DUP5 PUSH2 0x2B1D JUMP JUMPDEST SWAP9 SWAP8 POP POP POP POP POP POP POP POP JUMP JUMPDEST PUSH0 DUP2 SWAP1 POP SWAP3 SWAP2 POP POP JUMP JUMPDEST PUSH32 0x576562334576656E745F00000000000000000000000000000000000000000000 PUSH0 DUP3 ADD MSTORE POP JUMP JUMPDEST PUSH0 PUSH2 0x2BD7 PUSH1 0xA DUP4 PUSH2 0x2B99 JUMP JUMPDEST SWAP2 POP PUSH2 0x2BE2 DUP3 PUSH2 0x2BA3 JUMP JUMPDEST PUSH1 0xA DUP3 ADD SWAP1 POP SWAP2 SWAP1 POP JUMP JUMPDEST PUSH0 PUSH2 0x2BF7 DUP3 PUSH2 0x1E20 JUMP JUMPDEST PUSH2 0x2C01 DUP2 DUP6 PUSH2 0x2B99 JUMP JUMPDEST SWAP4 POP PUSH2 0x2C11 DUP2 DUP6 PUSH1 0x20 DUP7 ADD PUSH2 0x1E3A JUMP JUMPDEST DUP1 DUP5 ADD SWAP2 POP POP SWAP3 SWAP2 POP POP JUMP JUMPDEST PUSH0 PUSH2 0x2C27 DUP3 PUSH2 0x2BCB JUMP JUMPDEST SWAP2 POP PUSH2 0x2C33 DUP3 DUP5 PUSH2 0x2BED JUMP JUMPDEST SWAP2 POP DUP2 SWAP1 POP SWAP3 SWAP2 POP POP JUMP JUMPDEST POP JUMP JUMPDEST PUSH0 PUSH2 0x2C4C PUSH0 DUP4 PUSH2 0x236F JUMP JUMPDEST SWAP2 POP PUSH2 0x2C57 DUP3 PUSH2 0x2C3E JUMP JUMPDEST PUSH0 DUP3 ADD SWAP1 POP SWAP2 SWAP1 POP JUMP JUMPDEST PUSH0 PUSH1 0x80 DUP3 ADD SWAP1 POP DUP2 DUP2 SUB PUSH0 DUP4 ADD MSTORE PUSH2 0x2C79 DUP2 DUP7 PUSH2 0x237F JUMP JUMPDEST SWAP1 POP DUP2 DUP2 SUB PUSH1 0x20 DUP4 ADD MSTORE PUSH2 0x2C8D DUP2 DUP6 PUSH2 0x237F JUMP JUMPDEST SWAP1 POP DUP2 DUP2 SUB PUSH1 0x40 DUP4 ADD MSTORE PUSH2 0x2CA0 DUP2 PUSH2 0x2C41 JUMP JUMPDEST SWAP1 POP PUSH2 0x2CAF PUSH1 0x60 DUP4 ADD DUP5 PUSH2 0x204A JUMP JUMPDEST SWAP5 SWAP4 POP POP POP POP JUMP JUMPDEST PUSH0 DUP2 MLOAD SWAP1 POP PUSH2 0x2CC5 DUP2 PUSH2 0x1C5D JUMP JUMPDEST SWAP3 SWAP2 POP POP JUMP JUMPDEST PUSH0 PUSH1 0x20 DUP3 DUP5 SUB SLT ISZERO PUSH2 0x2CE0 JUMPI PUSH2 0x2CDF PUSH2 0x1C25 JUMP JUMPDEST JUMPDEST PUSH0 PUSH2 0x2CED DUP5 DUP3 DUP6 ADD PUSH2 0x2CB7 JUMP JUMPDEST SWAP2 POP POP SWAP3 SWAP2 POP POP JUMP JUMPDEST PUSH0 DUP2 SWAP1 POP SWAP2 SWAP1 POP JUMP JUMPDEST PUSH0 PUSH2 0x2D19 PUSH2 0x2D14 PUSH2 0x2D0F DUP5 PUSH2 0x2CF6 JUMP JUMPDEST PUSH2 0x28F1 JUMP JUMPDEST PUSH2 0x1CEE JUMP JUMPDEST SWAP1 POP SWAP2 SWAP1 POP JUMP JUMPDEST PUSH2 0x2D29 DUP2 PUSH2 0x2CFF JUMP JUMPDEST DUP3 MSTORE POP POP JUMP JUMPDEST PUSH0 PUSH1 0xE0 DUP3 ADD SWAP1 POP PUSH2 0x2D42 PUSH0 DUP4 ADD DUP11 PUSH2 0x204A JUMP JUMPDEST PUSH2 0x2D4F PUSH1 0x20 DUP4 ADD DUP10 PUSH2 0x204A JUMP JUMPDEST PUSH2 0x2D5C PUSH1 0x40 DUP4 ADD DUP9 PUSH2 0x204A JUMP JUMPDEST PUSH2 0x2D69 PUSH1 0x60 DUP4 ADD DUP8 PUSH2 0x226C JUMP JUMPDEST PUSH2 0x2D76 PUSH1 0x80 DUP4 ADD DUP7 PUSH2 0x2D20 JUMP JUMPDEST PUSH2 0x2D83 PUSH1 0xA0 DUP4 ADD DUP6 PUSH2 0x226C JUMP JUMPDEST PUSH2 0x2D90 PUSH1 0xC0 DUP4 ADD DUP5 PUSH2 0x2B1D JUMP JUMPDEST SWAP9 SWAP8 POP POP POP POP POP POP POP POP JUMP JUMPDEST PUSH32 0x4F776E61626C653A206E6577206F776E657220697320746865207A65726F2061 PUSH0 DUP3 ADD MSTORE PUSH32 0x6464726573730000000000000000000000000000000000000000000000000000 PUSH1 0x20 DUP3 ADD MSTORE POP JUMP JUMPDEST PUSH0 PUSH2 0x2DF6 PUSH1 0x26 DUP4 PUSH2 0x236F JUMP JUMPDEST SWAP2 POP PUSH2 0x2E01 DUP3 PUSH2 0x2D9C JUMP JUMPDEST PUSH1 0x40 DUP3 ADD SWAP1 POP SWAP2 SWAP1 POP JUMP JUMPDEST PUSH0 PUSH1 0x20 DUP3 ADD SWAP1 POP DUP2 DUP2 SUB PUSH0 DUP4 ADD MSTORE PUSH2 0x2E23 DUP2 PUSH2 0x2DEA JUMP JUMPDEST SWAP1 POP SWAP2 SWAP1 POP JUMP JUMPDEST PUSH0 PUSH2 0x2E34 DUP3 PUSH2 0x1CEE JUMP JUMPDEST SWAP2 POP PUSH2 0x2E3F DUP4 PUSH2 0x1CEE JUMP JUMPDEST SWAP3 POP DUP3 DUP3 ADD SWAP1 POP DUP1 DUP3 GT ISZERO PUSH2 0x2E57 JUMPI PUSH2 0x2E56 PUSH2 0x26D2 JUMP JUMPDEST JUMPDEST SWAP3 SWAP2 POP POP JUMP JUMPDEST PUSH32 0x4E487B7100000000000000000000000000000000000000000000000000000000 PUSH0 MSTORE PUSH1 0x12 PUSH1 0x4 MSTORE PUSH1 0x24 PUSH0 REVERT JUMPDEST PUSH0 PUSH2 0x2E94 DUP3 PUSH2 0x1CEE JUMP JUMPDEST SWAP2 POP PUSH2 0x2E9F DUP4 PUSH2 0x1CEE JUMP JUMPDEST SWAP3 POP DUP3 PUSH2 0x2EAF JUMPI PUSH2 0x2EAE PUSH2 0x2E5D JUMP JUMPDEST JUMPDEST DUP3 DUP3 DIV SWAP1 POP SWAP3 SWAP2 POP POP JUMP JUMPDEST PUSH0 PUSH2 0x2EC4 DUP3 PUSH2 0x1CEE JUMP JUMPDEST SWAP2 POP PUSH2 0x2ECF DUP4 PUSH2 0x1CEE JUMP JUMPDEST SWAP3 POP DUP3 DUP3 MUL PUSH2 0x2EDD DUP2 PUSH2 0x1CEE JUMP JUMPDEST SWAP2 POP DUP3 DUP3 DIV DUP5 EQ DUP4 ISZERO OR PUSH2 0x2EF4 JUMPI PUSH2 0x2EF3 PUSH2 0x26D2 JUMP JUMPDEST JUMPDEST POP SWAP3 SWAP2 POP POP JUMP JUMPDEST PUSH0 PUSH1 0xFF DUP3 AND SWAP1 POP SWAP2 SWAP1 POP JUMP JUMPDEST PUSH0 PUSH2 0x2F11 DUP3 PUSH2 0x2EFB JUMP JUMPDEST SWAP2 POP PUSH2 0x2F1C DUP4 PUSH2 0x2EFB JUMP JUMPDEST SWAP3 POP DUP3 DUP3 ADD SWAP1 POP PUSH1 0xFF DUP2 GT ISZERO PUSH2 0x2F35 JUMPI PUSH2 0x2F34 PUSH2 0x26D2 JUMP JUMPDEST JUMPDEST SWAP3 SWAP2 POP POP JUMP INVALID LOG2 PUSH5 0x6970667358 0x22 SLT KECCAK256 MSTORE PUSH18 0xEE32B64F0BB1B06BE78FA1EEA7D2DCD31C83 PUSH24 0xAE46D5864B33EF5B619BB264736F6C634300081500330000 "
		},
		"gasEstimates": {
			"creation": {
				"codeDepositCost": "2429000",
				"executionCost": "infinite",
				"totalCost": "infinite"
			},
			"external": {
				"NextEventId()": "2514",
				"_eventInfo(uint256)": "infinite",
				"_eventOwner(uint256)": "2917",
				"_ownerEventList(address,uint256)": "infinite",
				"_vendingMachine()": "2597",
				"modifyEventInfo(uint256,uint256,uint256,int256,int256,string,address)": "infinite",
				"owner()": "2560",
				"plainUserCheckAvailability(address,address[])": "infinite",
				"queryEventInfo(uint256,uint256)": "infinite",
				"querySelectedEventInfo(address)": "infinite",
				"registEventWithNFT(uint256,uint256,int256,int256,string,address,address,uint256,uint256,uint256)": "infinite",
				"registEventWithoutNFT(uint256,uint256,int256,int256,string,address,address,uint256,uint256)": "infinite",
				"renounceOwnership()": "30307",
				"transferManager(uint256,address)": "27264",
				"transferOwnership(address)": "30736",
				"updateVendingMachine(address)": "26961",
				"userCheckAvailability(address,uint256,uint256)": "infinite",
				"userCheckSelectedAvailability(address,address)": "infinite"
			},
			"internal": {
				"_registEvent(uint256,uint256,int256,int256,string memory,address)": "infinite",
				"uint2str(uint256)": "infinite"
			}
		},
		"methodIdentifiers": {
			"NextEventId()": "7d7da0db",
			"_eventInfo(uint256)": "c7ac2138",
			"_eventOwner(uint256)": "5850e487",
			"_ownerEventList(address,uint256)": "84c12089",
			"_vendingMachine()": "c1a2bbcd",
			"modifyEventInfo(uint256,uint256,uint256,int256,int256,string,address)": "779dbaa9",
			"owner()": "8da5cb5b",
			"plainUserCheckAvailability(address,address[])": "75cfe90b",
			"queryEventInfo(uint256,uint256)": "cac17f33",
			"querySelectedEventInfo(address)": "546409ee",
			"registEventWithNFT(uint256,uint256,int256,int256,string,address,address,uint256,uint256,uint256)": "d0ffd2b7",
			"registEventWithoutNFT(uint256,uint256,int256,int256,string,address,address,uint256,uint256)": "dba8020d",
			"renounceOwnership()": "715018a6",
			"transferManager(uint256,address)": "897c86c8",
			"transferOwnership(address)": "f2fde38b",
			"updateVendingMachine(address)": "43d089a7",
			"userCheckAvailability(address,uint256,uint256)": "abe95d02",
			"userCheckSelectedAvailability(address,address)": "08184150"
		}
	},
	"abi": [
		{
			"inputs": [
				{
					"internalType": "address",
					"name": "vendingMachine",
					"type": "address"
				}
			],
			"stateMutability": "nonpayable",
			"type": "constructor"
		},
		{
			"anonymous": false,
			"inputs": [
				{
					"indexed": true,
					"internalType": "address",
					"name": "previousOwner",
					"type": "address"
				},
				{
					"indexed": true,
					"internalType": "address",
					"name": "newOwner",
					"type": "address"
				}
			],
			"name": "OwnershipTransferred",
			"type": "event"
		},
		{
			"inputs": [],
			"name": "NextEventId",
			"outputs": [
				{
					"internalType": "uint256",
					"name": "",
					"type": "uint256"
				}
			],
			"stateMutability": "view",
			"type": "function"
		},
		{
			"inputs": [
				{
					"internalType": "uint256",
					"name": "",
					"type": "uint256"
				}
			],
			"name": "_eventInfo",
			"outputs": [
				{
					"internalType": "address",
					"name": "nftAddress",
					"type": "address"
				},
				{
					"internalType": "uint256",
					"name": "startTime",
					"type": "uint256"
				},
				{
					"internalType": "uint256",
					"name": "duration",
					"type": "uint256"
				},
				{
					"internalType": "int256",
					"name": "latitude",
					"type": "int256"
				},
				{
					"internalType": "int256",
					"name": "longitude",
					"type": "int256"
				},
				{
					"internalType": "string",
					"name": "description",
					"type": "string"
				}
			],
			"stateMutability": "view",
			"type": "function"
		},
		{
			"inputs": [
				{
					"internalType": "uint256",
					"name": "",
					"type": "uint256"
				}
			],
			"name": "_eventOwner",
			"outputs": [
				{
					"internalType": "address",
					"name": "",
					"type": "address"
				}
			],
			"stateMutability": "view",
			"type": "function"
		},
		{
			"inputs": [
				{
					"internalType": "address",
					"name": "",
					"type": "address"
				},
				{
					"internalType": "uint256",
					"name": "",
					"type": "uint256"
				}
			],
			"name": "_ownerEventList",
			"outputs": [
				{
					"internalType": "uint256",
					"name": "",
					"type": "uint256"
				}
			],
			"stateMutability": "view",
			"type": "function"
		},
		{
			"inputs": [],
			"name": "_vendingMachine",
			"outputs": [
				{
					"internalType": "address",
					"name": "",
					"type": "address"
				}
			],
			"stateMutability": "view",
			"type": "function"
		},
		{
			"inputs": [
				{
					"internalType": "uint256",
					"name": "eventId",
					"type": "uint256"
				},
				{
					"internalType": "uint256",
					"name": "startTime",
					"type": "uint256"
				},
				{
					"internalType": "uint256",
					"name": "duration",
					"type": "uint256"
				},
				{
					"internalType": "int256",
					"name": "latitude",
					"type": "int256"
				},
				{
					"internalType": "int256",
					"name": "longitude",
					"type": "int256"
				},
				{
					"internalType": "string",
					"name": "description",
					"type": "string"
				},
				{
					"internalType": "address",
					"name": "nftContract",
					"type": "address"
				}
			],
			"name": "modifyEventInfo",
			"outputs": [],
			"stateMutability": "nonpayable",
			"type": "function"
		},
		{
			"inputs": [],
			"name": "owner",
			"outputs": [
				{
					"internalType": "address",
					"name": "",
					"type": "address"
				}
			],
			"stateMutability": "view",
			"type": "function"
		},
		{
			"inputs": [
				{
					"internalType": "address",
					"name": "user",
					"type": "address"
				},
				{
					"internalType": "address[]",
					"name": "nftAddress",
					"type": "address[]"
				}
			],
			"name": "plainUserCheckAvailability",
			"outputs": [
				{
					"internalType": "uint256[]",
					"name": "",
					"type": "uint256[]"
				}
			],
			"stateMutability": "view",
			"type": "function"
		},
		{
			"inputs": [
				{
					"internalType": "uint256",
					"name": "startEventId",
					"type": "uint256"
				},
				{
					"internalType": "uint256",
					"name": "endEventId",
					"type": "uint256"
				}
			],
			"name": "queryEventInfo",
			"outputs": [
				{
					"components": [
						{
							"internalType": "uint256",
							"name": "eventId",
							"type": "uint256"
						},
						{
							"internalType": "address",
							"name": "nftAddress",
							"type": "address"
						},
						{
							"internalType": "uint256",
							"name": "startTime",
							"type": "uint256"
						},
						{
							"internalType": "uint256",
							"name": "duration",
							"type": "uint256"
						},
						{
							"internalType": "int256",
							"name": "latitude",
							"type": "int256"
						},
						{
							"internalType": "int256",
							"name": "longitude",
							"type": "int256"
						},
						{
							"internalType": "string",
							"name": "description",
							"type": "string"
						}
					],
					"internalType": "struct NFTEventRegister.EventQueryInfo[]",
					"name": "",
					"type": "tuple[]"
				}
			],
			"stateMutability": "view",
			"type": "function"
		},
		{
			"inputs": [
				{
					"internalType": "address",
					"name": "controller",
					"type": "address"
				}
			],
			"name": "querySelectedEventInfo",
			"outputs": [
				{
					"components": [
						{
							"internalType": "uint256",
							"name": "eventId",
							"type": "uint256"
						},
						{
							"internalType": "address",
							"name": "nftAddress",
							"type": "address"
						},
						{
							"internalType": "uint256",
							"name": "startTime",
							"type": "uint256"
						},
						{
							"internalType": "uint256",
							"name": "duration",
							"type": "uint256"
						},
						{
							"internalType": "int256",
							"name": "latitude",
							"type": "int256"
						},
						{
							"internalType": "int256",
							"name": "longitude",
							"type": "int256"
						},
						{
							"internalType": "string",
							"name": "description",
							"type": "string"
						}
					],
					"internalType": "struct NFTEventRegister.EventQueryInfo[]",
					"name": "",
					"type": "tuple[]"
				}
			],
			"stateMutability": "view",
			"type": "function"
		},
		{
			"inputs": [
				{
					"internalType": "uint256",
					"name": "startTime",
					"type": "uint256"
				},
				{
					"internalType": "uint256",
					"name": "duration",
					"type": "uint256"
				},
				{
					"internalType": "int256",
					"name": "latitude",
					"type": "int256"
				},
				{
					"internalType": "int256",
					"name": "longitude",
					"type": "int256"
				},
				{
					"internalType": "string",
					"name": "description",
					"type": "string"
				},
				{
					"internalType": "address",
					"name": "nftContract",
					"type": "address"
				},
				{
					"internalType": "address",
					"name": "quoteToken",
					"type": "address"
				},
				{
					"internalType": "uint256",
					"name": "quotePrice",
					"type": "uint256"
				},
				{
					"internalType": "uint256",
					"name": "start",
					"type": "uint256"
				},
				{
					"internalType": "uint256",
					"name": "end",
					"type": "uint256"
				}
			],
			"name": "registEventWithNFT",
			"outputs": [],
			"stateMutability": "nonpayable",
			"type": "function"
		},
		{
			"inputs": [
				{
					"internalType": "uint256",
					"name": "startTime",
					"type": "uint256"
				},
				{
					"internalType": "uint256",
					"name": "duration",
					"type": "uint256"
				},
				{
					"internalType": "int256",
					"name": "latitude",
					"type": "int256"
				},
				{
					"internalType": "int256",
					"name": "longitude",
					"type": "int256"
				},
				{
					"internalType": "string",
					"name": "description",
					"type": "string"
				},
				{
					"internalType": "address",
					"name": "nftFactoryAddress",
					"type": "address"
				},
				{
					"internalType": "address",
					"name": "quoteToken",
					"type": "address"
				},
				{
					"internalType": "uint256",
					"name": "quotePrice",
					"type": "uint256"
				},
				{
					"internalType": "uint256",
					"name": "quantityForSale",
					"type": "uint256"
				}
			],
			"name": "registEventWithoutNFT",
			"outputs": [
				{
					"internalType": "address",
					"name": "",
					"type": "address"
				}
			],
			"stateMutability": "nonpayable",
			"type": "function"
		},
		{
			"inputs": [],
			"name": "renounceOwnership",
			"outputs": [],
			"stateMutability": "nonpayable",
			"type": "function"
		},
		{
			"inputs": [
				{
					"internalType": "uint256",
					"name": "eventId",
					"type": "uint256"
				},
				{
					"internalType": "address",
					"name": "manager",
					"type": "address"
				}
			],
			"name": "transferManager",
			"outputs": [],
			"stateMutability": "nonpayable",
			"type": "function"
		},
		{
			"inputs": [
				{
					"internalType": "address",
					"name": "newOwner",
					"type": "address"
				}
			],
			"name": "transferOwnership",
			"outputs": [],
			"stateMutability": "nonpayable",
			"type": "function"
		},
		{
			"inputs": [
				{
					"internalType": "address",
					"name": "newVendingMachine",
					"type": "address"
				}
			],
			"name": "updateVendingMachine",
			"outputs": [],
			"stateMutability": "nonpayable",
			"type": "function"
		},
		{
			"inputs": [
				{
					"internalType": "address",
					"name": "user",
					"type": "address"
				},
				{
					"internalType": "uint256",
					"name": "startEventId",
					"type": "uint256"
				},
				{
					"internalType": "uint256",
					"name": "endEventId",
					"type": "uint256"
				}
			],
			"name": "userCheckAvailability",
			"outputs": [
				{
					"internalType": "uint256[]",
					"name": "",
					"type": "uint256[]"
				}
			],
			"stateMutability": "view",
			"type": "function"
		},
		{
			"inputs": [
				{
					"internalType": "address",
					"name": "user",
					"type": "address"
				},
				{
					"internalType": "address",
					"name": "controller",
					"type": "address"
				}
			],
			"name": "userCheckSelectedAvailability",
			"outputs": [
				{
					"internalType": "uint256[]",
					"name": "",
					"type": "uint256[]"
				}
			],
			"stateMutability": "view",
			"type": "function"
		}
	]
}