{
	"data": {
		"bytecode": {
			"linkReferences": {},
			"object": "608060405234801562000010575f80fd5b5060405162005236380380620052368339818101604052810190620000369190620002cb565b8282815f9081620000489190620005b8565b5080600190816200005a9190620005b8565b5050505f6200006e6200013f60201b60201c565b905080600a5f6101000a81548173ffffffffffffffffffffffffffffffffffffffff021916908373ffffffffffffffffffffffffffffffffffffffff1602179055508073ffffffffffffffffffffffffffffffffffffffff165f73ffffffffffffffffffffffffffffffffffffffff167f8be0079c531659141344cd1fd0a4f28419497f9722a3daafe3b4186f6b6457e060405160405180910390a3505f600d5f6101000a81548160ff02191690831515021790555080600e9081620001359190620005b8565b505050506200069c565b5f33905090565b5f604051905090565b5f80fd5b5f80fd5b5f80fd5b5f80fd5b5f601f19601f8301169050919050565b7f4e487b71000000000000000000000000000000000000000000000000000000005f52604160045260245ffd5b620001a7826200015f565b810181811067ffffffffffffffff82111715620001c957620001c86200016f565b5b80604052505050565b5f620001dd62000146565b9050620001eb82826200019c565b919050565b5f67ffffffffffffffff8211156200020d576200020c6200016f565b5b62000218826200015f565b9050602081019050919050565b5f5b838110156200024457808201518184015260208101905062000227565b5f8484015250505050565b5f620002656200025f84620001f0565b620001d2565b9050828152602081018484840111156200028457620002836200015b565b5b6200029184828562000225565b509392505050565b5f82601f830112620002b057620002af62000157565b5b8151620002c28482602086016200024f565b91505092915050565b5f805f60608486031215620002e557620002e46200014f565b5b5f84015167ffffffffffffffff81111562000305576200030462000153565b5b620003138682870162000299565b935050602084015167ffffffffffffffff81111562000337576200033662000153565b5b620003458682870162000299565b925050604084015167ffffffffffffffff81111562000369576200036862000153565b5b620003778682870162000299565b9150509250925092565b5f81519050919050565b7f4e487b71000000000000000000000000000000000000000000000000000000005f52602260045260245ffd5b5f6002820490506001821680620003d057607f821691505b602082108103620003e657620003e56200038b565b5b50919050565b5f819050815f5260205f209050919050565b5f6020601f8301049050919050565b5f82821b905092915050565b5f600883026200044a7fffffffffffffffffffffffffffffffffffffffffffffffffffffffffffffffff826200040d565b6200045686836200040d565b95508019841693508086168417925050509392505050565b5f819050919050565b5f819050919050565b5f620004a06200049a62000494846200046e565b62000477565b6200046e565b9050919050565b5f819050919050565b620004bb8362000480565b620004d3620004ca82620004a7565b84845462000419565b825550505050565b5f90565b620004e9620004db565b620004f6818484620004b0565b505050565b5b818110156200051d57620005115f82620004df565b600181019050620004fc565b5050565b601f8211156200056c576200053681620003ec565b6200054184620003fe565b8101602085101562000551578190505b620005696200056085620003fe565b830182620004fb565b50505b505050565b5f82821c905092915050565b5f6200058e5f198460080262000571565b1980831691505092915050565b5f620005a883836200057d565b9150826002028217905092915050565b620005c38262000381565b67ffffffffffffffff811115620005df57620005de6200016f565b5b620005eb8254620003b8565b620005f882828562000521565b5f60209050601f8311600181146200062e575f841562000619578287015190505b6200062585826200059b565b86555062000694565b601f1984166200063e86620003ec565b5f5b82811015620006675784890151825560018201915060208501945060208101905062000640565b8683101562000687578489015162000683601f8916826200057d565b8355505b6001600288020188555050505b505050505050565b614b8c80620006aa5f395ff3fe608060405234801561000f575f80fd5b5060043610610251575f3560e01c806370a0823111610144578063ac18de43116100c1578063e985e9c511610085578063e985e9c5146106b5578063ec4db283146106e5578063f2cf203c14610715578063f2fde38b14610731578063f56d504f1461074d578063f76f950e1461077d57610251565b8063ac18de4314610601578063b88d4fde1461061d578063c0732d0314610639578063c87b56dd14610669578063d99655721461069957610251565b806395d89b411161010857806395d89b4114610573578063983b2d56146105915780639c26eb3f146105ad578063a0bcfc7f146105c9578063a22cb465146105e557610251565b806370a08231146104f5578063715018a6146105255780638456cb591461052f5780638da5cb5b146105395780639034edb51461055757610251565b80632f745c59116101d257806342842e0e1161019657806342842e0e1461043f5780634f6ccce71461045b5780635c975abb1461048b5780636352211e146104a9578063681db87c146104d957610251565b80632f745c59146103af5780633092afd5146103df5780633e63eb2a146103fb5780633f4ba83a1461041957806340d097c31461042357610251565b80630b04d31c116102195780630b04d31c1461031f57806318160ddd1461033b5780631c1780871461035957806323b872dd146103775780632d06177a1461039357610251565b806301ffc9a714610255578063052641da1461028557806306fdde03146102b5578063081812fc146102d3578063095ea7b314610303575b5f80fd5b61026f600480360381019061026a9190613550565b6107ad565b60405161027c9190613595565b60405180910390f35b61029f600480360381019061029a9190613642565b610826565b6040516102ac919061375f565b60405180910390f35b6102bd6108fa565b6040516102ca9190613809565b60405180910390f35b6102ed60048036038101906102e89190613853565b610989565b6040516102fa91906138bd565b60405180910390f35b61031d60048036038101906103189190613900565b6109a3565b005b61033960048036038101906103349190613993565b6109b9565b005b610343610a65565b60405161035091906139ed565b60405180910390f35b610361610a71565b60405161036e91906139ed565b60405180910390f35b610391600480360381019061038c9190613a06565b610a77565b005b6103ad60048036038101906103a89190613a56565b610b76565b005b6103c960048036038101906103c49190613900565b610c64565b6040516103d691906139ed565b60405180910390f35b6103f960048036038101906103f49190613a56565b610d08565b005b610403610df5565b6040516104109190613809565b60405180910390f35b610421610e81565b005b61043d60048036038101906104389190613a56565b610f21565b005b61045960048036038101906104549190613a06565b611037565b005b61047560048036038101906104709190613853565b611056565b60405161048291906139ed565b60405180910390f35b6104936110c8565b6040516104a09190613595565b60405180910390f35b6104c360048036038101906104be9190613853565b6110dd565b6040516104d091906138bd565b60405180910390f35b6104f360048036038101906104ee9190613ad6565b611163565b005b61050f600480360381019061050a9190613a56565b6112cd565b60405161051c91906139ed565b60405180910390f35b61052d611383565b005b6105376114d6565b005b610541611576565b60405161054e91906138bd565b60405180910390f35b610571600480360381019061056c9190613b21565b61159e565b005b61057b611723565b6040516105889190613809565b60405180910390f35b6105ab60048036038101906105a69190613a56565b6117b3565b005b6105c760048036038101906105c29190613bd1565b6118a1565b005b6105e360048036038101906105de9190613cb7565b611a0c565b005b6105ff60048036038101906105fa9190613d2c565b611ab8565b005b61061b60048036038101906106169190613a56565b611ace565b005b61063760048036038101906106329190613e92565b611bbb565b005b610653600480360381019061064e9190613853565b611bd8565b6040516106609190613f21565b60405180910390f35b610683600480360381019061067e9190613853565b611bf8565b6040516106909190613809565b60405180910390f35b6106b360048036038101906106ae9190613f3a565b611cb6565b005b6106cf60048036038101906106ca9190613f8a565b611dce565b6040516106dc9190613595565b60405180910390f35b6106ff60048036038101906106fa9190613fc8565b611e5c565b60405161070c91906139ed565b60405180910390f35b61072f600480360381019061072a9190613853565b611e86565b005b61074b60048036038101906107469190613a56565b611f26565b005b61076760048036038101906107629190614006565b6120e8565b604051610774919061375f565b60405180910390f35b61079760048036038101906107929190613853565b6121d6565b6040516107a49190613809565b60405180910390f35b5f7f780e9d63000000000000000000000000000000000000000000000000000000007bffffffffffffffffffffffffffffffffffffffffffffffffffffffff1916827bffffffffffffffffffffffffffffffffffffffffffffffffffffffff1916148061081f575061081e82612354565b5b9050919050565b60605f8383905067ffffffffffffffff81111561084657610845613d6e565b5b6040519080825280602002602001820160405280156108745781602001602082028036833780820191505090505b5090505f5b848490508110156108ee5760105f86868481811061089a57610899614084565b5b9050602002013581526020019081526020015f205f8781526020019081526020015f20548282815181106108d1576108d0614084565b5b602002602001018181525050806108e7906140de565b9050610879565b50809150509392505050565b60605f805461090890614152565b80601f016020809104026020016040519081016040528092919081815260200182805461093490614152565b801561097f5780601f106109565761010080835404028352916020019161097f565b820191905f5260205f20905b81548152906001019060200180831161096257829003601f168201915b5050505050905090565b5f61099382612435565b61099c826124b0565b9050919050565b6109b582826109b06124e9565b6124f0565b5050565b6109c16124e9565b73ffffffffffffffffffffffffffffffffffffffff16600a5f9054906101000a900473ffffffffffffffffffffffffffffffffffffffff1673ffffffffffffffffffffffffffffffffffffffff1614610a4f576040517f08c379a0000000000000000000000000000000000000000000000000000000008152600401610a46906141cc565b60405180910390fd5b818160119190610a60929190613484565b505050565b5f600880549050905090565b600f5481565b5f73ffffffffffffffffffffffffffffffffffffffff168273ffffffffffffffffffffffffffffffffffffffff1603610ae7575f6040517f64a0ae92000000000000000000000000000000000000000000000000000000008152600401610ade91906138bd565b60405180910390fd5b5f610afa8383610af56124e9565b612502565b90508373ffffffffffffffffffffffffffffffffffffffff168173ffffffffffffffffffffffffffffffffffffffff1614610b70578382826040517f64283d7b000000000000000000000000000000000000000000000000000000008152600401610b67939291906141ea565b60405180910390fd5b50505050565b610b7e6124e9565b73ffffffffffffffffffffffffffffffffffffffff16600a5f9054906101000a900473ffffffffffffffffffffffffffffffffffffffff1673ffffffffffffffffffffffffffffffffffffffff1614610c0c576040517f08c379a0000000000000000000000000000000000000000000000000000000008152600401610c03906141cc565b60405180910390fd5b6001600b5f8373ffffffffffffffffffffffffffffffffffffffff1673ffffffffffffffffffffffffffffffffffffffff1681526020019081526020015f205f6101000a81548160ff02191690831515021790555050565b5f610c6e836112cd565b8210610cb35782826040517fa57d13dc000000000000000000000000000000000000000000000000000000008152600401610caa92919061421f565b60405180910390fd5b60065f8473ffffffffffffffffffffffffffffffffffffffff1673ffffffffffffffffffffffffffffffffffffffff1681526020019081526020015f205f8381526020019081526020015f2054905092915050565b610d106124e9565b73ffffffffffffffffffffffffffffffffffffffff16600a5f9054906101000a900473ffffffffffffffffffffffffffffffffffffffff1673ffffffffffffffffffffffffffffffffffffffff1614610d9e576040517f08c379a0000000000000000000000000000000000000000000000000000000008152600401610d95906141cc565b60405180910390fd5b5f600c5f8373ffffffffffffffffffffffffffffffffffffffff1673ffffffffffffffffffffffffffffffffffffffff1681526020019081526020015f205f6101000a81548160ff02191690831515021790555050565b600e8054610e0290614152565b80601f0160208091040260200160405190810160405280929190818152602001828054610e2e90614152565b8015610e795780601f10610e5057610100808354040283529160200191610e79565b820191905f5260205f20905b815481529060010190602001808311610e5c57829003601f168201915b505050505081565b610e896124e9565b73ffffffffffffffffffffffffffffffffffffffff16600a5f9054906101000a900473ffffffffffffffffffffffffffffffffffffffff1673ffffffffffffffffffffffffffffffffffffffff1614610f17576040517f08c379a0000000000000000000000000000000000000000000000000000000008152600401610f0e906141cc565b60405180910390fd5b610f1f61251f565b565b610f296124e9565b73ffffffffffffffffffffffffffffffffffffffff16600a5f9054906101000a900473ffffffffffffffffffffffffffffffffffffffff1673ffffffffffffffffffffffffffffffffffffffff161480610fd05750600c5f610f896124e9565b73ffffffffffffffffffffffffffffffffffffffff1673ffffffffffffffffffffffffffffffffffffffff1681526020019081526020015f205f9054906101000a900460ff165b61100f576040517f08c379a0000000000000000000000000000000000000000000000000000000008152600401611006906142b6565b60405180910390fd5b61101b81600f54612580565b6001600f5f82825461102d91906142d4565b9250508190555050565b61105183838360405180602001604052805f815250611bbb565b505050565b5f61105f610a65565b82106110a4575f826040517fa57d13dc00000000000000000000000000000000000000000000000000000000815260040161109b92919061421f565b60405180910390fd5b600882815481106110b8576110b7614084565b5b905f5260205f2001549050919050565b5f600d5f9054906101000a900460ff16905090565b5f806110e88361259d565b90505f73ffffffffffffffffffffffffffffffffffffffff168173ffffffffffffffffffffffffffffffffffffffff160361115a57826040517f7e27328900000000000000000000000000000000000000000000000000000000815260040161115191906139ed565b60405180910390fd5b80915050919050565b61116b6124e9565b73ffffffffffffffffffffffffffffffffffffffff16600a5f9054906101000a900473ffffffffffffffffffffffffffffffffffffffff1673ffffffffffffffffffffffffffffffffffffffff1614806112125750600c5f6111cb6124e9565b73ffffffffffffffffffffffffffffffffffffffff1673ffffffffffffffffffffffffffffffffffffffff1681526020019081526020015f205f9054906101000a900460ff165b611251576040517f08c379a0000000000000000000000000000000000000000000000000000000008152600401611248906142b6565b60405180910390fd5b5f5b828290508110156112ad5761129c83838381811061127457611273614084565b5b90506020020160208101906112899190613a56565b82600f5461129791906142d4565b612580565b806112a6906140de565b9050611253565b5081819050600f5f8282546112c291906142d4565b925050819055505050565b5f8073ffffffffffffffffffffffffffffffffffffffff168273ffffffffffffffffffffffffffffffffffffffff160361133e575f6040517f89c62b6400000000000000000000000000000000000000000000000000000000815260040161133591906138bd565b60405180910390fd5b60035f8373ffffffffffffffffffffffffffffffffffffffff1673ffffffffffffffffffffffffffffffffffffffff1681526020019081526020015f20549050919050565b61138b6124e9565b73ffffffffffffffffffffffffffffffffffffffff16600a5f9054906101000a900473ffffffffffffffffffffffffffffffffffffffff1673ffffffffffffffffffffffffffffffffffffffff1614611419576040517f08c379a0000000000000000000000000000000000000000000000000000000008152600401611410906141cc565b60405180910390fd5b5f73ffffffffffffffffffffffffffffffffffffffff16600a5f9054906101000a900473ffffffffffffffffffffffffffffffffffffffff1673ffffffffffffffffffffffffffffffffffffffff167f8be0079c531659141344cd1fd0a4f28419497f9722a3daafe3b4186f6b6457e060405160405180910390a35f600a5f6101000a81548173ffffffffffffffffffffffffffffffffffffffff021916908373ffffffffffffffffffffffffffffffffffffffff160217905550565b6114de6124e9565b73ffffffffffffffffffffffffffffffffffffffff16600a5f9054906101000a900473ffffffffffffffffffffffffffffffffffffffff1673ffffffffffffffffffffffffffffffffffffffff161461156c576040517f08c379a0000000000000000000000000000000000000000000000000000000008152600401611563906141cc565b60405180910390fd5b6115746125d6565b565b5f600a5f9054906101000a900473ffffffffffffffffffffffffffffffffffffffff16905090565b6115a66124e9565b73ffffffffffffffffffffffffffffffffffffffff16600a5f9054906101000a900473ffffffffffffffffffffffffffffffffffffffff1673ffffffffffffffffffffffffffffffffffffffff16148061164d5750600b5f6116066124e9565b73ffffffffffffffffffffffffffffffffffffffff1673ffffffffffffffffffffffffffffffffffffffff1681526020019081526020015f205f9054906101000a900460ff165b61168c576040517f08c379a000000000000000000000000000000000000000000000000000000000815260040161168390614377565b60405180910390fd5b5f5b8484905081101561171a578282828181106116ac576116ab614084565b5b9050602002013560105f8787858181106116c9576116c8614084565b5b9050602002013581526020019081526020015f205f8989858181106116f1576116f0614084565b5b9050602002013581526020019081526020015f208190555080611713906140de565b905061168e565b50505050505050565b60606001805461173290614152565b80601f016020809104026020016040519081016040528092919081815260200182805461175e90614152565b80156117a95780601f10611780576101008083540402835291602001916117a9565b820191905f5260205f20905b81548152906001019060200180831161178c57829003601f168201915b5050505050905090565b6117bb6124e9565b73ffffffffffffffffffffffffffffffffffffffff16600a5f9054906101000a900473ffffffffffffffffffffffffffffffffffffffff1673ffffffffffffffffffffffffffffffffffffffff1614611849576040517f08c379a0000000000000000000000000000000000000000000000000000000008152600401611840906141cc565b60405180910390fd5b6001600c5f8373ffffffffffffffffffffffffffffffffffffffff1673ffffffffffffffffffffffffffffffffffffffff1681526020019081526020015f205f6101000a81548160ff02191690831515021790555050565b6118a96124e9565b73ffffffffffffffffffffffffffffffffffffffff16600a5f9054906101000a900473ffffffffffffffffffffffffffffffffffffffff1673ffffffffffffffffffffffffffffffffffffffff1614806119505750600b5f6119096124e9565b73ffffffffffffffffffffffffffffffffffffffff1673ffffffffffffffffffffffffffffffffffffffff1681526020019081526020015f205f9054906101000a900460ff165b61198f576040517f08c379a000000000000000000000000000000000000000000000000000000000815260040161198690614377565b60405180910390fd5b5f5b84849050811015611a04578282828181106119af576119ae614084565b5b9050602002013560105f8787858181106119cc576119cb614084565b5b9050602002013581526020019081526020015f205f8881526020019081526020015f2081905550806119fd906140de565b9050611991565b505050505050565b611a146124e9565b73ffffffffffffffffffffffffffffffffffffffff16600a5f9054906101000a900473ffffffffffffffffffffffffffffffffffffffff1673ffffffffffffffffffffffffffffffffffffffff1614611aa2576040517f08c379a0000000000000000000000000000000000000000000000000000000008152600401611a99906141cc565b60405180910390fd5b8181600e9182611ab392919061453c565b505050565b611aca611ac36124e9565b8383612638565b5050565b611ad66124e9565b73ffffffffffffffffffffffffffffffffffffffff16600a5f9054906101000a900473ffffffffffffffffffffffffffffffffffffffff1673ffffffffffffffffffffffffffffffffffffffff1614611b64576040517f08c379a0000000000000000000000000000000000000000000000000000000008152600401611b5b906141cc565b60405180910390fd5b5f600b5f8373ffffffffffffffffffffffffffffffffffffffff1673ffffffffffffffffffffffffffffffffffffffff1681526020019081526020015f205f6101000a81548160ff02191690831515021790555050565b611bc6848484610a77565b611bd2848484846127a1565b50505050565b60118181548110611be7575f80fd5b905f5260205f20015f915090505481565b6060611c0382612435565b5f600e611c0f846121d6565b604051602001611c20929190614757565b60405160208183030381529060405290505f5b601180549050811015611cac5781611c4a826121d6565b611c78611c7360118581548110611c6457611c63614084565b5b905f5260205f20015488611e5c565b6121d6565b604051602001611c8a93929190614868565b604051602081830303815290604052915080611ca5906140de565b9050611c33565b5080915050919050565b611cbe6124e9565b73ffffffffffffffffffffffffffffffffffffffff16600a5f9054906101000a900473ffffffffffffffffffffffffffffffffffffffff1673ffffffffffffffffffffffffffffffffffffffff161480611d655750600b5f611d1e6124e9565b73ffffffffffffffffffffffffffffffffffffffff1673ffffffffffffffffffffffffffffffffffffffff1681526020019081526020015f205f9054906101000a900460ff165b611da4576040517f08c379a0000000000000000000000000000000000000000000000000000000008152600401611d9b90614377565b60405180910390fd5b8060105f8481526020019081526020015f205f8581526020019081526020015f2081905550505050565b5f60055f8473ffffffffffffffffffffffffffffffffffffffff1673ffffffffffffffffffffffffffffffffffffffff1681526020019081526020015f205f8373ffffffffffffffffffffffffffffffffffffffff1673ffffffffffffffffffffffffffffffffffffffff1681526020019081526020015f205f9054906101000a900460ff16905092915050565b5f60105f8381526020019081526020015f205f8481526020019081526020015f2054905092915050565b611e8e6124e9565b73ffffffffffffffffffffffffffffffffffffffff16600a5f9054906101000a900473ffffffffffffffffffffffffffffffffffffffff1673ffffffffffffffffffffffffffffffffffffffff1614611f1c576040517f08c379a0000000000000000000000000000000000000000000000000000000008152600401611f13906141cc565b60405180910390fd5b80600f8190555050565b611f2e6124e9565b73ffffffffffffffffffffffffffffffffffffffff16600a5f9054906101000a900473ffffffffffffffffffffffffffffffffffffffff1673ffffffffffffffffffffffffffffffffffffffff1614611fbc576040517f08c379a0000000000000000000000000000000000000000000000000000000008152600401611fb3906141cc565b60405180910390fd5b5f73ffffffffffffffffffffffffffffffffffffffff168173ffffffffffffffffffffffffffffffffffffffff160361202a576040517f08c379a000000000000000000000000000000000000000000000000000000000815260040161202190614929565b60405180910390fd5b8073ffffffffffffffffffffffffffffffffffffffff16600a5f9054906101000a900473ffffffffffffffffffffffffffffffffffffffff1673ffffffffffffffffffffffffffffffffffffffff167f8be0079c531659141344cd1fd0a4f28419497f9722a3daafe3b4186f6b6457e060405160405180910390a380600a5f6101000a81548173ffffffffffffffffffffffffffffffffffffffff021916908373ffffffffffffffffffffffffffffffffffffffff16021790555050565b60605f8383905067ffffffffffffffff81111561210857612107613d6e565b5b6040519080825280602002602001820160405280156121365781602001602082028036833780820191505090505b5090505f5b848490508110156121c95760105f86868481811061215c5761215b614084565b5b9050602002013581526020019081526020015f205f88888481811061218457612183614084565b5b9050602002013581526020019081526020015f20548282815181106121ac576121ab614084565b5b602002602001018181525050806121c2906140de565b905061213b565b5080915050949350505050565b60605f820361221c576040518060400160405280600181526020017f3000000000000000000000000000000000000000000000000000000000000000815250905061234f565b5f8290505f5b5f821461224b578080612234906140de565b915050600a826122449190614974565b9150612222565b5f8167ffffffffffffffff81111561226657612265613d6e565b5b6040519080825280601f01601f1916602001820160405280156122985781602001600182028036833780820191505090505b5090505f8290505b5f8614612347576001816122b491906149a4565b90505f600a80886122c59190614974565b6122cf91906149d7565b876122da91906149a4565b60306122e69190614a24565b90505f8160f81b90508084848151811061230357612302614084565b5b60200101907effffffffffffffffffffffffffffffffffffffffffffffffffffffffffffff191690815f1a905350600a8861233e9190614974565b975050506122a0565b819450505050505b919050565b5f7f80ac58cd000000000000000000000000000000000000000000000000000000007bffffffffffffffffffffffffffffffffffffffffffffffffffffffff1916827bffffffffffffffffffffffffffffffffffffffffffffffffffffffff1916148061241e57507f5b5e139f000000000000000000000000000000000000000000000000000000007bffffffffffffffffffffffffffffffffffffffffffffffffffffffff1916827bffffffffffffffffffffffffffffffffffffffffffffffffffffffff1916145b8061242e575061242d82612953565b5b9050919050565b5f73ffffffffffffffffffffffffffffffffffffffff166124558261259d565b73ffffffffffffffffffffffffffffffffffffffff16036124ad57806040517f7e2732890000000000000000000000000000000000000000000000000000000081526004016124a491906139ed565b60405180910390fd5b50565b5f60045f8381526020019081526020015f205f9054906101000a900473ffffffffffffffffffffffffffffffffffffffff169050919050565b5f33905090565b6124fd83838360016129bc565b505050565b5f61250b612b7b565b612516848484612bbc565b90509392505050565b612527612cd6565b5f600d5f6101000a81548160ff0219169083151502179055507f5db9ee0a495bf2e6ff9c91a7834c1ba4fdd244a5e8aa4e537bd38aeae4b073aa6125696124e9565b60405161257691906138bd565b60405180910390a1565b612599828260405180602001604052805f815250612d16565b5050565b5f60025f8381526020019081526020015f205f9054906101000a900473ffffffffffffffffffffffffffffffffffffffff169050919050565b6125de612b7b565b6001600d5f6101000a81548160ff0219169083151502179055507f62e78cea01bee320cd4e420270b5ea74000d11b0c9f74754ebdbfc544b05a2586126216124e9565b60405161262e91906138bd565b60405180910390a1565b5f73ffffffffffffffffffffffffffffffffffffffff168273ffffffffffffffffffffffffffffffffffffffff16036126a857816040517f5b08ba1800000000000000000000000000000000000000000000000000000000815260040161269f91906138bd565b60405180910390fd5b8060055f8573ffffffffffffffffffffffffffffffffffffffff1673ffffffffffffffffffffffffffffffffffffffff1681526020019081526020015f205f8473ffffffffffffffffffffffffffffffffffffffff1673ffffffffffffffffffffffffffffffffffffffff1681526020019081526020015f205f6101000a81548160ff0219169083151502179055508173ffffffffffffffffffffffffffffffffffffffff168373ffffffffffffffffffffffffffffffffffffffff167f17307eab39ab6107e8899845ad3d59bd9653f200f220920489ca2b5937696c31836040516127949190613595565b60405180910390a3505050565b5f8373ffffffffffffffffffffffffffffffffffffffff163b111561294d578273ffffffffffffffffffffffffffffffffffffffff1663150b7a026127e46124e9565b8685856040518563ffffffff1660e01b81526004016128069493929190614aa0565b6020604051808303815f875af192505050801561284157506040513d601f19601f8201168201806040525081019061283e9190614afe565b60015b6128c2573d805f811461286f576040519150601f19603f3d011682016040523d82523d5f602084013e612874565b606091505b505f8151036128ba57836040517f64a0ae920000000000000000000000000000000000000000000000000000000081526004016128b191906138bd565b60405180910390fd5b805181602001fd5b63150b7a0260e01b7bffffffffffffffffffffffffffffffffffffffffffffffffffffffff1916817bffffffffffffffffffffffffffffffffffffffffffffffffffffffff19161461294b57836040517f64a0ae9200000000000000000000000000000000000000000000000000000000815260040161294291906138bd565b60405180910390fd5b505b50505050565b5f7f01ffc9a7000000000000000000000000000000000000000000000000000000007bffffffffffffffffffffffffffffffffffffffffffffffffffffffff1916827bffffffffffffffffffffffffffffffffffffffffffffffffffffffff1916149050919050565b80806129f457505f73ffffffffffffffffffffffffffffffffffffffff168273ffffffffffffffffffffffffffffffffffffffff1614155b15612b26575f612a03846110dd565b90505f73ffffffffffffffffffffffffffffffffffffffff168373ffffffffffffffffffffffffffffffffffffffff1614158015612a6d57508273ffffffffffffffffffffffffffffffffffffffff168173ffffffffffffffffffffffffffffffffffffffff1614155b8015612a805750612a7e8184611dce565b155b15612ac257826040517fa9fbf51f000000000000000000000000000000000000000000000000000000008152600401612ab991906138bd565b60405180910390fd5b8115612b2457838573ffffffffffffffffffffffffffffffffffffffff168273ffffffffffffffffffffffffffffffffffffffff167f8c5be1e5ebec7d5bd14f71427d1e84f3dd0314c0f7b2291e5b200ac8c7c3b92560405160405180910390a45b505b8360045f8581526020019081526020015f205f6101000a81548173ffffffffffffffffffffffffffffffffffffffff021916908373ffffffffffffffffffffffffffffffffffffffff16021790555050505050565b612b836110c8565b15612bba576040517fd93c066500000000000000000000000000000000000000000000000000000000815260040160405180910390fd5b565b5f80612bc9858585612d31565b90505f73ffffffffffffffffffffffffffffffffffffffff168173ffffffffffffffffffffffffffffffffffffffff1603612c0c57612c0784612f3c565b612c4b565b8473ffffffffffffffffffffffffffffffffffffffff168173ffffffffffffffffffffffffffffffffffffffff1614612c4a57612c498185612f80565b5b5b5f73ffffffffffffffffffffffffffffffffffffffff168573ffffffffffffffffffffffffffffffffffffffff1603612c8c57612c87846130ca565b612ccb565b8473ffffffffffffffffffffffffffffffffffffffff168173ffffffffffffffffffffffffffffffffffffffff1614612cca57612cc9858561318a565b5b5b809150509392505050565b612cde6110c8565b612d14576040517f8dfc202b00000000000000000000000000000000000000000000000000000000815260040160405180910390fd5b565b612d20838361320e565b612d2c5f8484846127a1565b505050565b5f80612d3c8461259d565b90505f73ffffffffffffffffffffffffffffffffffffffff168373ffffffffffffffffffffffffffffffffffffffff1614612d7d57612d7c818486613301565b5b5f73ffffffffffffffffffffffffffffffffffffffff168173ffffffffffffffffffffffffffffffffffffffff1614612e0857612dbc5f855f806129bc565b600160035f8373ffffffffffffffffffffffffffffffffffffffff1673ffffffffffffffffffffffffffffffffffffffff1681526020019081526020015f205f82825403925050819055505b5f73ffffffffffffffffffffffffffffffffffffffff168573ffffffffffffffffffffffffffffffffffffffff1614612e8757600160035f8773ffffffffffffffffffffffffffffffffffffffff1673ffffffffffffffffffffffffffffffffffffffff1681526020019081526020015f205f82825401925050819055505b8460025f8681526020019081526020015f205f6101000a81548173ffffffffffffffffffffffffffffffffffffffff021916908373ffffffffffffffffffffffffffffffffffffffff160217905550838573ffffffffffffffffffffffffffffffffffffffff168273ffffffffffffffffffffffffffffffffffffffff167fddf252ad1be2c89b69c2b068fc378daa952ba7f163c4a11628f55a4df523b3ef60405160405180910390a4809150509392505050565b60088054905060095f8381526020019081526020015f2081905550600881908060018154018082558091505060019003905f5260205f20015f909190919091505550565b5f612f8a836112cd565b90505f60075f8481526020019081526020015f20549050818114613061575f60065f8673ffffffffffffffffffffffffffffffffffffffff1673ffffffffffffffffffffffffffffffffffffffff1681526020019081526020015f205f8481526020019081526020015f205490508060065f8773ffffffffffffffffffffffffffffffffffffffff1673ffffffffffffffffffffffffffffffffffffffff1681526020019081526020015f205f8481526020019081526020015f20819055508160075f8381526020019081526020015f2081905550505b60075f8481526020019081526020015f205f905560065f8573ffffffffffffffffffffffffffffffffffffffff1673ffffffffffffffffffffffffffffffffffffffff1681526020019081526020015f205f8381526020019081526020015f205f905550505050565b5f60016008805490506130dd91906149a4565b90505f60095f8481526020019081526020015f205490505f6008838154811061310957613108614084565b5b905f5260205f2001549050806008838154811061312957613128614084565b5b905f5260205f2001819055508160095f8381526020019081526020015f208190555060095f8581526020019081526020015f205f9055600880548061317157613170614b29565b5b600190038181905f5260205f20015f9055905550505050565b5f6001613196846112cd565b6131a091906149a4565b90508160065f8573ffffffffffffffffffffffffffffffffffffffff1673ffffffffffffffffffffffffffffffffffffffff1681526020019081526020015f205f8381526020019081526020015f20819055508060075f8481526020019081526020015f2081905550505050565b5f73ffffffffffffffffffffffffffffffffffffffff168273ffffffffffffffffffffffffffffffffffffffff160361327e575f6040517f64a0ae9200000000000000000000000000000000000000000000000000000000815260040161327591906138bd565b60405180910390fd5b5f61328a83835f612502565b90505f73ffffffffffffffffffffffffffffffffffffffff168173ffffffffffffffffffffffffffffffffffffffff16146132fc575f6040517f73c6ac6e0000000000000000000000000000000000000000000000000000000081526004016132f391906138bd565b60405180910390fd5b505050565b61330c8383836133c4565b6133bf575f73ffffffffffffffffffffffffffffffffffffffff168373ffffffffffffffffffffffffffffffffffffffff160361338057806040517f7e27328900000000000000000000000000000000000000000000000000000000815260040161337791906139ed565b60405180910390fd5b81816040517f177e802f0000000000000000000000000000000000000000000000000000000081526004016133b692919061421f565b60405180910390fd5b505050565b5f8073ffffffffffffffffffffffffffffffffffffffff168373ffffffffffffffffffffffffffffffffffffffff161415801561347b57508273ffffffffffffffffffffffffffffffffffffffff168473ffffffffffffffffffffffffffffffffffffffff16148061343c575061343b8484611dce565b5b8061347a57508273ffffffffffffffffffffffffffffffffffffffff16613462836124b0565b73ffffffffffffffffffffffffffffffffffffffff16145b5b90509392505050565b828054828255905f5260205f209081019282156134be579160200282015b828111156134bd5782358255916020019190600101906134a2565b5b5090506134cb91906134cf565b5090565b5b808211156134e6575f815f9055506001016134d0565b5090565b5f604051905090565b5f80fd5b5f80fd5b5f7fffffffff0000000000000000000000000000000000000000000000000000000082169050919050565b61352f816134fb565b8114613539575f80fd5b50565b5f8135905061354a81613526565b92915050565b5f60208284031215613565576135646134f3565b5b5f6135728482850161353c565b91505092915050565b5f8115159050919050565b61358f8161357b565b82525050565b5f6020820190506135a85f830184613586565b92915050565b5f819050919050565b6135c0816135ae565b81146135ca575f80fd5b50565b5f813590506135db816135b7565b92915050565b5f80fd5b5f80fd5b5f80fd5b5f8083601f840112613602576136016135e1565b5b8235905067ffffffffffffffff81111561361f5761361e6135e5565b5b60208301915083602082028301111561363b5761363a6135e9565b5b9250929050565b5f805f60408486031215613659576136586134f3565b5b5f613666868287016135cd565b935050602084013567ffffffffffffffff811115613687576136866134f7565b5b613693868287016135ed565b92509250509250925092565b5f81519050919050565b5f82825260208201905092915050565b5f819050602082019050919050565b5f819050919050565b6136da816136c8565b82525050565b5f6136eb83836136d1565b60208301905092915050565b5f602082019050919050565b5f61370d8261369f565b61371781856136a9565b9350613722836136b9565b805f5b8381101561375257815161373988826136e0565b9750613744836136f7565b925050600181019050613725565b5085935050505092915050565b5f6020820190508181035f8301526137778184613703565b905092915050565b5f81519050919050565b5f82825260208201905092915050565b5f5b838110156137b657808201518184015260208101905061379b565b5f8484015250505050565b5f601f19601f8301169050919050565b5f6137db8261377f565b6137e58185613789565b93506137f5818560208601613799565b6137fe816137c1565b840191505092915050565b5f6020820190508181035f83015261382181846137d1565b905092915050565b613832816136c8565b811461383c575f80fd5b50565b5f8135905061384d81613829565b92915050565b5f60208284031215613868576138676134f3565b5b5f6138758482850161383f565b91505092915050565b5f73ffffffffffffffffffffffffffffffffffffffff82169050919050565b5f6138a78261387e565b9050919050565b6138b78161389d565b82525050565b5f6020820190506138d05f8301846138ae565b92915050565b6138df8161389d565b81146138e9575f80fd5b50565b5f813590506138fa816138d6565b92915050565b5f8060408385031215613916576139156134f3565b5b5f613923858286016138ec565b92505060206139348582860161383f565b9150509250929050565b5f8083601f840112613953576139526135e1565b5b8235905067ffffffffffffffff8111156139705761396f6135e5565b5b60208301915083602082028301111561398c5761398b6135e9565b5b9250929050565b5f80602083850312156139a9576139a86134f3565b5b5f83013567ffffffffffffffff8111156139c6576139c56134f7565b5b6139d28582860161393e565b92509250509250929050565b6139e7816136c8565b82525050565b5f602082019050613a005f8301846139de565b92915050565b5f805f60608486031215613a1d57613a1c6134f3565b5b5f613a2a868287016138ec565b9350506020613a3b868287016138ec565b9250506040613a4c8682870161383f565b9150509250925092565b5f60208284031215613a6b57613a6a6134f3565b5b5f613a78848285016138ec565b91505092915050565b5f8083601f840112613a9657613a956135e1565b5b8235905067ffffffffffffffff811115613ab357613ab26135e5565b5b602083019150836020820283011115613acf57613ace6135e9565b5b9250929050565b5f8060208385031215613aec57613aeb6134f3565b5b5f83013567ffffffffffffffff811115613b0957613b086134f7565b5b613b1585828601613a81565b92509250509250929050565b5f805f805f8060608789031215613b3b57613b3a6134f3565b5b5f87013567ffffffffffffffff811115613b5857613b576134f7565b5b613b6489828a0161393e565b9650965050602087013567ffffffffffffffff811115613b8757613b866134f7565b5b613b9389828a016135ed565b9450945050604087013567ffffffffffffffff811115613bb657613bb56134f7565b5b613bc289828a016135ed565b92509250509295509295509295565b5f805f805f60608688031215613bea57613be96134f3565b5b5f613bf7888289016135cd565b955050602086013567ffffffffffffffff811115613c1857613c176134f7565b5b613c24888289016135ed565b9450945050604086013567ffffffffffffffff811115613c4757613c466134f7565b5b613c53888289016135ed565b92509250509295509295909350565b5f8083601f840112613c7757613c766135e1565b5b8235905067ffffffffffffffff811115613c9457613c936135e5565b5b602083019150836001820283011115613cb057613caf6135e9565b5b9250929050565b5f8060208385031215613ccd57613ccc6134f3565b5b5f83013567ffffffffffffffff811115613cea57613ce96134f7565b5b613cf685828601613c62565b92509250509250929050565b613d0b8161357b565b8114613d15575f80fd5b50565b5f81359050613d2681613d02565b92915050565b5f8060408385031215613d4257613d416134f3565b5b5f613d4f858286016138ec565b9250506020613d6085828601613d18565b9150509250929050565b5f80fd5b7f4e487b71000000000000000000000000000000000000000000000000000000005f52604160045260245ffd5b613da4826137c1565b810181811067ffffffffffffffff82111715613dc357613dc2613d6e565b5b80604052505050565b5f613dd56134ea565b9050613de18282613d9b565b919050565b5f67ffffffffffffffff821115613e0057613dff613d6e565b5b613e09826137c1565b9050602081019050919050565b828183375f83830152505050565b5f613e36613e3184613de6565b613dcc565b905082815260208101848484011115613e5257613e51613d6a565b5b613e5d848285613e16565b509392505050565b5f82601f830112613e7957613e786135e1565b5b8135613e89848260208601613e24565b91505092915050565b5f805f8060808587031215613eaa57613ea96134f3565b5b5f613eb7878288016138ec565b9450506020613ec8878288016138ec565b9350506040613ed98782880161383f565b925050606085013567ffffffffffffffff811115613efa57613ef96134f7565b5b613f0687828801613e65565b91505092959194509250565b613f1b816135ae565b82525050565b5f602082019050613f345f830184613f12565b92915050565b5f805f60608486031215613f5157613f506134f3565b5b5f613f5e868287016135cd565b9350506020613f6f8682870161383f565b9250506040613f808682870161383f565b9150509250925092565b5f8060408385031215613fa057613f9f6134f3565b5b5f613fad858286016138ec565b9250506020613fbe858286016138ec565b9150509250929050565b5f8060408385031215613fde57613fdd6134f3565b5b5f613feb858286016135cd565b9250506020613ffc8582860161383f565b9150509250929050565b5f805f806040858703121561401e5761401d6134f3565b5b5f85013567ffffffffffffffff81111561403b5761403a6134f7565b5b6140478782880161393e565b9450945050602085013567ffffffffffffffff81111561406a576140696134f7565b5b614076878288016135ed565b925092505092959194509250565b7f4e487b71000000000000000000000000000000000000000000000000000000005f52603260045260245ffd5b7f4e487b71000000000000000000000000000000000000000000000000000000005f52601160045260245ffd5b5f6140e8826136c8565b91507fffffffffffffffffffffffffffffffffffffffffffffffffffffffffffffffff820361411a576141196140b1565b5b600182019050919050565b7f4e487b71000000000000000000000000000000000000000000000000000000005f52602260045260245ffd5b5f600282049050600182168061416957607f821691505b60208210810361417c5761417b614125565b5b50919050565b7f4f776e61626c653a2063616c6c6572206973206e6f7420746865206f776e65725f82015250565b5f6141b6602083613789565b91506141c182614182565b602082019050919050565b5f6020820190508181035f8301526141e3816141aa565b9050919050565b5f6060820190506141fd5f8301866138ae565b61420a60208301856139de565b61421760408301846138ae565b949350505050565b5f6040820190506142325f8301856138ae565b61423f60208301846139de565b9392505050565b7f4f776e61626c653a2063616c6c6572206973206e6f74206f776e65722f6d696e5f8201527f7465720000000000000000000000000000000000000000000000000000000000602082015250565b5f6142a0602383613789565b91506142ab82614246565b604082019050919050565b5f6020820190508181035f8301526142cd81614294565b9050919050565b5f6142de826136c8565b91506142e9836136c8565b9250828201905080821115614301576143006140b1565b5b92915050565b7f4f776e61626c653a2063616c6c6572206973206e6f74206f776e65722f6d616e5f8201527f6167657200000000000000000000000000000000000000000000000000000000602082015250565b5f614361602483613789565b915061436c82614307565b604082019050919050565b5f6020820190508181035f83015261438e81614355565b9050919050565b5f82905092915050565b5f819050815f5260205f209050919050565b5f6020601f8301049050919050565b5f82821b905092915050565b5f600883026143fb7fffffffffffffffffffffffffffffffffffffffffffffffffffffffffffffffff826143c0565b61440586836143c0565b95508019841693508086168417925050509392505050565b5f819050919050565b5f61444061443b614436846136c8565b61441d565b6136c8565b9050919050565b5f819050919050565b61445983614426565b61446d61446582614447565b8484546143cc565b825550505050565b5f90565b614481614475565b61448c818484614450565b505050565b5b818110156144af576144a45f82614479565b600181019050614492565b5050565b601f8211156144f4576144c58161439f565b6144ce846143b1565b810160208510156144dd578190505b6144f16144e9856143b1565b830182614491565b50505b505050565b5f82821c905092915050565b5f6145145f19846008026144f9565b1980831691505092915050565b5f61452c8383614505565b9150826002028217905092915050565b6145468383614395565b67ffffffffffffffff81111561455f5761455e613d6e565b5b6145698254614152565b6145748282856144b3565b5f601f8311600181146145a1575f841561458f578287013590505b6145998582614521565b865550614600565b601f1984166145af8661439f565b5f5b828110156145d6578489013582556001820191506020850194506020810190506145b1565b868310156145f357848901356145ef601f891682614505565b8355505b6001600288020188555050505b50505050505050565b5f81905092915050565b5f815461461f81614152565b6146298186614609565b9450600182165f811461464357600181146146585761468a565b60ff198316865281151582028601935061468a565b6146618561439f565b5f5b8381101561468257815481890152600182019150602081019050614663565b838801955050505b50505092915050565b7f3f69643d000000000000000000000000000000000000000000000000000000005f82015250565b5f6146c7600483614609565b91506146d282614693565b600482019050919050565b5f6146e78261377f565b6146f18185614609565b9350614701818560208601613799565b80840191505092915050565b7f26000000000000000000000000000000000000000000000000000000000000005f82015250565b5f614741600183614609565b915061474c8261470d565b600182019050919050565b5f6147628285614613565b915061476d826146bb565b915061477982846146dd565b915061478482614735565b91508190509392505050565b5f81519050919050565b5f81905092915050565b5f6147ae82614790565b6147b8818561479a565b93506147c8818560208601613799565b80840191505092915050565b7f61000000000000000000000000000000000000000000000000000000000000005f82015250565b5f614808600183614609565b9150614813826147d4565b600182019050919050565b7f3d000000000000000000000000000000000000000000000000000000000000005f82015250565b5f614852600183614609565b915061485d8261481e565b600182019050919050565b5f61487382866147a4565b915061487e826147fc565b915061488a82856146dd565b915061489582614846565b91506148a182846146dd565b91506148ac82614735565b9150819050949350505050565b7f4f776e61626c653a206e6577206f776e657220697320746865207a65726f20615f8201527f6464726573730000000000000000000000000000000000000000000000000000602082015250565b5f614913602683613789565b915061491e826148b9565b604082019050919050565b5f6020820190508181035f83015261494081614907565b9050919050565b7f4e487b71000000000000000000000000000000000000000000000000000000005f52601260045260245ffd5b5f61497e826136c8565b9150614989836136c8565b92508261499957614998614947565b5b828204905092915050565b5f6149ae826136c8565b91506149b9836136c8565b92508282039050818111156149d1576149d06140b1565b5b92915050565b5f6149e1826136c8565b91506149ec836136c8565b92508282026149fa816136c8565b91508282048414831517614a1157614a106140b1565b5b5092915050565b5f60ff82169050919050565b5f614a2e82614a18565b9150614a3983614a18565b9250828201905060ff811115614a5257614a516140b1565b5b92915050565b5f82825260208201905092915050565b5f614a7282614790565b614a7c8185614a58565b9350614a8c818560208601613799565b614a95816137c1565b840191505092915050565b5f608082019050614ab35f8301876138ae565b614ac060208301866138ae565b614acd60408301856139de565b8181036060830152614adf8184614a68565b905095945050505050565b5f81519050614af881613526565b92915050565b5f60208284031215614b1357614b126134f3565b5b5f614b2084828501614aea565b91505092915050565b7f4e487b71000000000000000000000000000000000000000000000000000000005f52603160045260245ffdfea2646970667358221220b1968ec4219495ac49a2b348a26fa30929ab3b474414de7dadc12845e73f08fc64736f6c63430008150033",
			"opcodes": "PUSH1 0x80 PUSH1 0x40 MSTORE CALLVALUE DUP1 ISZERO PUSH3 0x10 JUMPI PUSH0 DUP1 REVERT JUMPDEST POP PUSH1 0x40 MLOAD PUSH3 0x5236 CODESIZE SUB DUP1 PUSH3 0x5236 DUP4 CODECOPY DUP2 DUP2 ADD PUSH1 0x40 MSTORE DUP2 ADD SWAP1 PUSH3 0x36 SWAP2 SWAP1 PUSH3 0x2CB JUMP JUMPDEST DUP3 DUP3 DUP2 PUSH0 SWAP1 DUP2 PUSH3 0x48 SWAP2 SWAP1 PUSH3 0x5B8 JUMP JUMPDEST POP DUP1 PUSH1 0x1 SWAP1 DUP2 PUSH3 0x5A SWAP2 SWAP1 PUSH3 0x5B8 JUMP JUMPDEST POP POP POP PUSH0 PUSH3 0x6E PUSH3 0x13F PUSH1 0x20 SHL PUSH1 0x20 SHR JUMP JUMPDEST SWAP1 POP DUP1 PUSH1 0xA PUSH0 PUSH2 0x100 EXP DUP2 SLOAD DUP2 PUSH20 0xFFFFFFFFFFFFFFFFFFFFFFFFFFFFFFFFFFFFFFFF MUL NOT AND SWAP1 DUP4 PUSH20 0xFFFFFFFFFFFFFFFFFFFFFFFFFFFFFFFFFFFFFFFF AND MUL OR SWAP1 SSTORE POP DUP1 PUSH20 0xFFFFFFFFFFFFFFFFFFFFFFFFFFFFFFFFFFFFFFFF AND PUSH0 PUSH20 0xFFFFFFFFFFFFFFFFFFFFFFFFFFFFFFFFFFFFFFFF AND PUSH32 0x8BE0079C531659141344CD1FD0A4F28419497F9722A3DAAFE3B4186F6B6457E0 PUSH1 0x40 MLOAD PUSH1 0x40 MLOAD DUP1 SWAP2 SUB SWAP1 LOG3 POP PUSH0 PUSH1 0xD PUSH0 PUSH2 0x100 EXP DUP2 SLOAD DUP2 PUSH1 0xFF MUL NOT AND SWAP1 DUP4 ISZERO ISZERO MUL OR SWAP1 SSTORE POP DUP1 PUSH1 0xE SWAP1 DUP2 PUSH3 0x135 SWAP2 SWAP1 PUSH3 0x5B8 JUMP JUMPDEST POP POP POP POP PUSH3 0x69C JUMP JUMPDEST PUSH0 CALLER SWAP1 POP SWAP1 JUMP JUMPDEST PUSH0 PUSH1 0x40 MLOAD SWAP1 POP SWAP1 JUMP JUMPDEST PUSH0 DUP1 REVERT JUMPDEST PUSH0 DUP1 REVERT JUMPDEST PUSH0 DUP1 REVERT JUMPDEST PUSH0 DUP1 REVERT JUMPDEST PUSH0 PUSH1 0x1F NOT PUSH1 0x1F DUP4 ADD AND SWAP1 POP SWAP2 SWAP1 POP JUMP JUMPDEST PUSH32 0x4E487B7100000000000000000000000000000000000000000000000000000000 PUSH0 MSTORE PUSH1 0x41 PUSH1 0x4 MSTORE PUSH1 0x24 PUSH0 REVERT JUMPDEST PUSH3 0x1A7 DUP3 PUSH3 0x15F JUMP JUMPDEST DUP2 ADD DUP2 DUP2 LT PUSH8 0xFFFFFFFFFFFFFFFF DUP3 GT OR ISZERO PUSH3 0x1C9 JUMPI PUSH3 0x1C8 PUSH3 0x16F JUMP JUMPDEST JUMPDEST DUP1 PUSH1 0x40 MSTORE POP POP POP JUMP JUMPDEST PUSH0 PUSH3 0x1DD PUSH3 0x146 JUMP JUMPDEST SWAP1 POP PUSH3 0x1EB DUP3 DUP3 PUSH3 0x19C JUMP JUMPDEST SWAP2 SWAP1 POP JUMP JUMPDEST PUSH0 PUSH8 0xFFFFFFFFFFFFFFFF DUP3 GT ISZERO PUSH3 0x20D JUMPI PUSH3 0x20C PUSH3 0x16F JUMP JUMPDEST JUMPDEST PUSH3 0x218 DUP3 PUSH3 0x15F JUMP JUMPDEST SWAP1 POP PUSH1 0x20 DUP2 ADD SWAP1 POP SWAP2 SWAP1 POP JUMP JUMPDEST PUSH0 JUMPDEST DUP4 DUP2 LT ISZERO PUSH3 0x244 JUMPI DUP1 DUP3 ADD MLOAD DUP2 DUP5 ADD MSTORE PUSH1 0x20 DUP2 ADD SWAP1 POP PUSH3 0x227 JUMP JUMPDEST PUSH0 DUP5 DUP5 ADD MSTORE POP POP POP POP JUMP JUMPDEST PUSH0 PUSH3 0x265 PUSH3 0x25F DUP5 PUSH3 0x1F0 JUMP JUMPDEST PUSH3 0x1D2 JUMP JUMPDEST SWAP1 POP DUP3 DUP2 MSTORE PUSH1 0x20 DUP2 ADD DUP5 DUP5 DUP5 ADD GT ISZERO PUSH3 0x284 JUMPI PUSH3 0x283 PUSH3 0x15B JUMP JUMPDEST JUMPDEST PUSH3 0x291 DUP5 DUP3 DUP6 PUSH3 0x225 JUMP JUMPDEST POP SWAP4 SWAP3 POP POP POP JUMP JUMPDEST PUSH0 DUP3 PUSH1 0x1F DUP4 ADD SLT PUSH3 0x2B0 JUMPI PUSH3 0x2AF PUSH3 0x157 JUMP JUMPDEST JUMPDEST DUP2 MLOAD PUSH3 0x2C2 DUP5 DUP3 PUSH1 0x20 DUP7 ADD PUSH3 0x24F JUMP JUMPDEST SWAP2 POP POP SWAP3 SWAP2 POP POP JUMP JUMPDEST PUSH0 DUP1 PUSH0 PUSH1 0x60 DUP5 DUP7 SUB SLT ISZERO PUSH3 0x2E5 JUMPI PUSH3 0x2E4 PUSH3 0x14F JUMP JUMPDEST JUMPDEST PUSH0 DUP5 ADD MLOAD PUSH8 0xFFFFFFFFFFFFFFFF DUP2 GT ISZERO PUSH3 0x305 JUMPI PUSH3 0x304 PUSH3 0x153 JUMP JUMPDEST JUMPDEST PUSH3 0x313 DUP7 DUP3 DUP8 ADD PUSH3 0x299 JUMP JUMPDEST SWAP4 POP POP PUSH1 0x20 DUP5 ADD MLOAD PUSH8 0xFFFFFFFFFFFFFFFF DUP2 GT ISZERO PUSH3 0x337 JUMPI PUSH3 0x336 PUSH3 0x153 JUMP JUMPDEST JUMPDEST PUSH3 0x345 DUP7 DUP3 DUP8 ADD PUSH3 0x299 JUMP JUMPDEST SWAP3 POP POP PUSH1 0x40 DUP5 ADD MLOAD PUSH8 0xFFFFFFFFFFFFFFFF DUP2 GT ISZERO PUSH3 0x369 JUMPI PUSH3 0x368 PUSH3 0x153 JUMP JUMPDEST JUMPDEST PUSH3 0x377 DUP7 DUP3 DUP8 ADD PUSH3 0x299 JUMP JUMPDEST SWAP2 POP POP SWAP3 POP SWAP3 POP SWAP3 JUMP JUMPDEST PUSH0 DUP2 MLOAD SWAP1 POP SWAP2 SWAP1 POP JUMP JUMPDEST PUSH32 0x4E487B7100000000000000000000000000000000000000000000000000000000 PUSH0 MSTORE PUSH1 0x22 PUSH1 0x4 MSTORE PUSH1 0x24 PUSH0 REVERT JUMPDEST PUSH0 PUSH1 0x2 DUP3 DIV SWAP1 POP PUSH1 0x1 DUP3 AND DUP1 PUSH3 0x3D0 JUMPI PUSH1 0x7F DUP3 AND SWAP2 POP JUMPDEST PUSH1 0x20 DUP3 LT DUP2 SUB PUSH3 0x3E6 JUMPI PUSH3 0x3E5 PUSH3 0x38B JUMP JUMPDEST JUMPDEST POP SWAP2 SWAP1 POP JUMP JUMPDEST PUSH0 DUP2 SWAP1 POP DUP2 PUSH0 MSTORE PUSH1 0x20 PUSH0 KECCAK256 SWAP1 POP SWAP2 SWAP1 POP JUMP JUMPDEST PUSH0 PUSH1 0x20 PUSH1 0x1F DUP4 ADD DIV SWAP1 POP SWAP2 SWAP1 POP JUMP JUMPDEST PUSH0 DUP3 DUP3 SHL SWAP1 POP SWAP3 SWAP2 POP POP JUMP JUMPDEST PUSH0 PUSH1 0x8 DUP4 MUL PUSH3 0x44A PUSH32 0xFFFFFFFFFFFFFFFFFFFFFFFFFFFFFFFFFFFFFFFFFFFFFFFFFFFFFFFFFFFFFFFF DUP3 PUSH3 0x40D JUMP JUMPDEST PUSH3 0x456 DUP7 DUP4 PUSH3 0x40D JUMP JUMPDEST SWAP6 POP DUP1 NOT DUP5 AND SWAP4 POP DUP1 DUP7 AND DUP5 OR SWAP3 POP POP POP SWAP4 SWAP3 POP POP POP JUMP JUMPDEST PUSH0 DUP2 SWAP1 POP SWAP2 SWAP1 POP JUMP JUMPDEST PUSH0 DUP2 SWAP1 POP SWAP2 SWAP1 POP JUMP JUMPDEST PUSH0 PUSH3 0x4A0 PUSH3 0x49A PUSH3 0x494 DUP5 PUSH3 0x46E JUMP JUMPDEST PUSH3 0x477 JUMP JUMPDEST PUSH3 0x46E JUMP JUMPDEST SWAP1 POP SWAP2 SWAP1 POP JUMP JUMPDEST PUSH0 DUP2 SWAP1 POP SWAP2 SWAP1 POP JUMP JUMPDEST PUSH3 0x4BB DUP4 PUSH3 0x480 JUMP JUMPDEST PUSH3 0x4D3 PUSH3 0x4CA DUP3 PUSH3 0x4A7 JUMP JUMPDEST DUP5 DUP5 SLOAD PUSH3 0x419 JUMP JUMPDEST DUP3 SSTORE POP POP POP POP JUMP JUMPDEST PUSH0 SWAP1 JUMP JUMPDEST PUSH3 0x4E9 PUSH3 0x4DB JUMP JUMPDEST PUSH3 0x4F6 DUP2 DUP5 DUP5 PUSH3 0x4B0 JUMP JUMPDEST POP POP POP JUMP JUMPDEST JUMPDEST DUP2 DUP2 LT ISZERO PUSH3 0x51D JUMPI PUSH3 0x511 PUSH0 DUP3 PUSH3 0x4DF JUMP JUMPDEST PUSH1 0x1 DUP2 ADD SWAP1 POP PUSH3 0x4FC JUMP JUMPDEST POP POP JUMP JUMPDEST PUSH1 0x1F DUP3 GT ISZERO PUSH3 0x56C JUMPI PUSH3 0x536 DUP2 PUSH3 0x3EC JUMP JUMPDEST PUSH3 0x541 DUP5 PUSH3 0x3FE JUMP JUMPDEST DUP2 ADD PUSH1 0x20 DUP6 LT ISZERO PUSH3 0x551 JUMPI DUP2 SWAP1 POP JUMPDEST PUSH3 0x569 PUSH3 0x560 DUP6 PUSH3 0x3FE JUMP JUMPDEST DUP4 ADD DUP3 PUSH3 0x4FB JUMP JUMPDEST POP POP JUMPDEST POP POP POP JUMP JUMPDEST PUSH0 DUP3 DUP3 SHR SWAP1 POP SWAP3 SWAP2 POP POP JUMP JUMPDEST PUSH0 PUSH3 0x58E PUSH0 NOT DUP5 PUSH1 0x8 MUL PUSH3 0x571 JUMP JUMPDEST NOT DUP1 DUP4 AND SWAP2 POP POP SWAP3 SWAP2 POP POP JUMP JUMPDEST PUSH0 PUSH3 0x5A8 DUP4 DUP4 PUSH3 0x57D JUMP JUMPDEST SWAP2 POP DUP3 PUSH1 0x2 MUL DUP3 OR SWAP1 POP SWAP3 SWAP2 POP POP JUMP JUMPDEST PUSH3 0x5C3 DUP3 PUSH3 0x381 JUMP JUMPDEST PUSH8 0xFFFFFFFFFFFFFFFF DUP2 GT ISZERO PUSH3 0x5DF JUMPI PUSH3 0x5DE PUSH3 0x16F JUMP JUMPDEST JUMPDEST PUSH3 0x5EB DUP3 SLOAD PUSH3 0x3B8 JUMP JUMPDEST PUSH3 0x5F8 DUP3 DUP3 DUP6 PUSH3 0x521 JUMP JUMPDEST PUSH0 PUSH1 0x20 SWAP1 POP PUSH1 0x1F DUP4 GT PUSH1 0x1 DUP2 EQ PUSH3 0x62E JUMPI PUSH0 DUP5 ISZERO PUSH3 0x619 JUMPI DUP3 DUP8 ADD MLOAD SWAP1 POP JUMPDEST PUSH3 0x625 DUP6 DUP3 PUSH3 0x59B JUMP JUMPDEST DUP7 SSTORE POP PUSH3 0x694 JUMP JUMPDEST PUSH1 0x1F NOT DUP5 AND PUSH3 0x63E DUP7 PUSH3 0x3EC JUMP JUMPDEST PUSH0 JUMPDEST DUP3 DUP2 LT ISZERO PUSH3 0x667 JUMPI DUP5 DUP10 ADD MLOAD DUP3 SSTORE PUSH1 0x1 DUP3 ADD SWAP2 POP PUSH1 0x20 DUP6 ADD SWAP5 POP PUSH1 0x20 DUP2 ADD SWAP1 POP PUSH3 0x640 JUMP JUMPDEST DUP7 DUP4 LT ISZERO PUSH3 0x687 JUMPI DUP5 DUP10 ADD MLOAD PUSH3 0x683 PUSH1 0x1F DUP10 AND DUP3 PUSH3 0x57D JUMP JUMPDEST DUP4 SSTORE POP JUMPDEST PUSH1 0x1 PUSH1 0x2 DUP9 MUL ADD DUP9 SSTORE POP POP POP JUMPDEST POP POP POP POP POP POP JUMP JUMPDEST PUSH2 0x4B8C DUP1 PUSH3 0x6AA PUSH0 CODECOPY PUSH0 RETURN INVALID PUSH1 0x80 PUSH1 0x40 MSTORE CALLVALUE DUP1 ISZERO PUSH2 0xF JUMPI PUSH0 DUP1 REVERT JUMPDEST POP PUSH1 0x4 CALLDATASIZE LT PUSH2 0x251 JUMPI PUSH0 CALLDATALOAD PUSH1 0xE0 SHR DUP1 PUSH4 0x70A08231 GT PUSH2 0x144 JUMPI DUP1 PUSH4 0xAC18DE43 GT PUSH2 0xC1 JUMPI DUP1 PUSH4 0xE985E9C5 GT PUSH2 0x85 JUMPI DUP1 PUSH4 0xE985E9C5 EQ PUSH2 0x6B5 JUMPI DUP1 PUSH4 0xEC4DB283 EQ PUSH2 0x6E5 JUMPI DUP1 PUSH4 0xF2CF203C EQ PUSH2 0x715 JUMPI DUP1 PUSH4 0xF2FDE38B EQ PUSH2 0x731 JUMPI DUP1 PUSH4 0xF56D504F EQ PUSH2 0x74D JUMPI DUP1 PUSH4 0xF76F950E EQ PUSH2 0x77D JUMPI PUSH2 0x251 JUMP JUMPDEST DUP1 PUSH4 0xAC18DE43 EQ PUSH2 0x601 JUMPI DUP1 PUSH4 0xB88D4FDE EQ PUSH2 0x61D JUMPI DUP1 PUSH4 0xC0732D03 EQ PUSH2 0x639 JUMPI DUP1 PUSH4 0xC87B56DD EQ PUSH2 0x669 JUMPI DUP1 PUSH4 0xD9965572 EQ PUSH2 0x699 JUMPI PUSH2 0x251 JUMP JUMPDEST DUP1 PUSH4 0x95D89B41 GT PUSH2 0x108 JUMPI DUP1 PUSH4 0x95D89B41 EQ PUSH2 0x573 JUMPI DUP1 PUSH4 0x983B2D56 EQ PUSH2 0x591 JUMPI DUP1 PUSH4 0x9C26EB3F EQ PUSH2 0x5AD JUMPI DUP1 PUSH4 0xA0BCFC7F EQ PUSH2 0x5C9 JUMPI DUP1 PUSH4 0xA22CB465 EQ PUSH2 0x5E5 JUMPI PUSH2 0x251 JUMP JUMPDEST DUP1 PUSH4 0x70A08231 EQ PUSH2 0x4F5 JUMPI DUP1 PUSH4 0x715018A6 EQ PUSH2 0x525 JUMPI DUP1 PUSH4 0x8456CB59 EQ PUSH2 0x52F JUMPI DUP1 PUSH4 0x8DA5CB5B EQ PUSH2 0x539 JUMPI DUP1 PUSH4 0x9034EDB5 EQ PUSH2 0x557 JUMPI PUSH2 0x251 JUMP JUMPDEST DUP1 PUSH4 0x2F745C59 GT PUSH2 0x1D2 JUMPI DUP1 PUSH4 0x42842E0E GT PUSH2 0x196 JUMPI DUP1 PUSH4 0x42842E0E EQ PUSH2 0x43F JUMPI DUP1 PUSH4 0x4F6CCCE7 EQ PUSH2 0x45B JUMPI DUP1 PUSH4 0x5C975ABB EQ PUSH2 0x48B JUMPI DUP1 PUSH4 0x6352211E EQ PUSH2 0x4A9 JUMPI DUP1 PUSH4 0x681DB87C EQ PUSH2 0x4D9 JUMPI PUSH2 0x251 JUMP JUMPDEST DUP1 PUSH4 0x2F745C59 EQ PUSH2 0x3AF JUMPI DUP1 PUSH4 0x3092AFD5 EQ PUSH2 0x3DF JUMPI DUP1 PUSH4 0x3E63EB2A EQ PUSH2 0x3FB JUMPI DUP1 PUSH4 0x3F4BA83A EQ PUSH2 0x419 JUMPI DUP1 PUSH4 0x40D097C3 EQ PUSH2 0x423 JUMPI PUSH2 0x251 JUMP JUMPDEST DUP1 PUSH4 0xB04D31C GT PUSH2 0x219 JUMPI DUP1 PUSH4 0xB04D31C EQ PUSH2 0x31F JUMPI DUP1 PUSH4 0x18160DDD EQ PUSH2 0x33B JUMPI DUP1 PUSH4 0x1C178087 EQ PUSH2 0x359 JUMPI DUP1 PUSH4 0x23B872DD EQ PUSH2 0x377 JUMPI DUP1 PUSH4 0x2D06177A EQ PUSH2 0x393 JUMPI PUSH2 0x251 JUMP JUMPDEST DUP1 PUSH4 0x1FFC9A7 EQ PUSH2 0x255 JUMPI DUP1 PUSH4 0x52641DA EQ PUSH2 0x285 JUMPI DUP1 PUSH4 0x6FDDE03 EQ PUSH2 0x2B5 JUMPI DUP1 PUSH4 0x81812FC EQ PUSH2 0x2D3 JUMPI DUP1 PUSH4 0x95EA7B3 EQ PUSH2 0x303 JUMPI JUMPDEST PUSH0 DUP1 REVERT JUMPDEST PUSH2 0x26F PUSH1 0x4 DUP1 CALLDATASIZE SUB DUP2 ADD SWAP1 PUSH2 0x26A SWAP2 SWAP1 PUSH2 0x3550 JUMP JUMPDEST PUSH2 0x7AD JUMP JUMPDEST PUSH1 0x40 MLOAD PUSH2 0x27C SWAP2 SWAP1 PUSH2 0x3595 JUMP JUMPDEST PUSH1 0x40 MLOAD DUP1 SWAP2 SUB SWAP1 RETURN JUMPDEST PUSH2 0x29F PUSH1 0x4 DUP1 CALLDATASIZE SUB DUP2 ADD SWAP1 PUSH2 0x29A SWAP2 SWAP1 PUSH2 0x3642 JUMP JUMPDEST PUSH2 0x826 JUMP JUMPDEST PUSH1 0x40 MLOAD PUSH2 0x2AC SWAP2 SWAP1 PUSH2 0x375F JUMP JUMPDEST PUSH1 0x40 MLOAD DUP1 SWAP2 SUB SWAP1 RETURN JUMPDEST PUSH2 0x2BD PUSH2 0x8FA JUMP JUMPDEST PUSH1 0x40 MLOAD PUSH2 0x2CA SWAP2 SWAP1 PUSH2 0x3809 JUMP JUMPDEST PUSH1 0x40 MLOAD DUP1 SWAP2 SUB SWAP1 RETURN JUMPDEST PUSH2 0x2ED PUSH1 0x4 DUP1 CALLDATASIZE SUB DUP2 ADD SWAP1 PUSH2 0x2E8 SWAP2 SWAP1 PUSH2 0x3853 JUMP JUMPDEST PUSH2 0x989 JUMP JUMPDEST PUSH1 0x40 MLOAD PUSH2 0x2FA SWAP2 SWAP1 PUSH2 0x38BD JUMP JUMPDEST PUSH1 0x40 MLOAD DUP1 SWAP2 SUB SWAP1 RETURN JUMPDEST PUSH2 0x31D PUSH1 0x4 DUP1 CALLDATASIZE SUB DUP2 ADD SWAP1 PUSH2 0x318 SWAP2 SWAP1 PUSH2 0x3900 JUMP JUMPDEST PUSH2 0x9A3 JUMP JUMPDEST STOP JUMPDEST PUSH2 0x339 PUSH1 0x4 DUP1 CALLDATASIZE SUB DUP2 ADD SWAP1 PUSH2 0x334 SWAP2 SWAP1 PUSH2 0x3993 JUMP JUMPDEST PUSH2 0x9B9 JUMP JUMPDEST STOP JUMPDEST PUSH2 0x343 PUSH2 0xA65 JUMP JUMPDEST PUSH1 0x40 MLOAD PUSH2 0x350 SWAP2 SWAP1 PUSH2 0x39ED JUMP JUMPDEST PUSH1 0x40 MLOAD DUP1 SWAP2 SUB SWAP1 RETURN JUMPDEST PUSH2 0x361 PUSH2 0xA71 JUMP JUMPDEST PUSH1 0x40 MLOAD PUSH2 0x36E SWAP2 SWAP1 PUSH2 0x39ED JUMP JUMPDEST PUSH1 0x40 MLOAD DUP1 SWAP2 SUB SWAP1 RETURN JUMPDEST PUSH2 0x391 PUSH1 0x4 DUP1 CALLDATASIZE SUB DUP2 ADD SWAP1 PUSH2 0x38C SWAP2 SWAP1 PUSH2 0x3A06 JUMP JUMPDEST PUSH2 0xA77 JUMP JUMPDEST STOP JUMPDEST PUSH2 0x3AD PUSH1 0x4 DUP1 CALLDATASIZE SUB DUP2 ADD SWAP1 PUSH2 0x3A8 SWAP2 SWAP1 PUSH2 0x3A56 JUMP JUMPDEST PUSH2 0xB76 JUMP JUMPDEST STOP JUMPDEST PUSH2 0x3C9 PUSH1 0x4 DUP1 CALLDATASIZE SUB DUP2 ADD SWAP1 PUSH2 0x3C4 SWAP2 SWAP1 PUSH2 0x3900 JUMP JUMPDEST PUSH2 0xC64 JUMP JUMPDEST PUSH1 0x40 MLOAD PUSH2 0x3D6 SWAP2 SWAP1 PUSH2 0x39ED JUMP JUMPDEST PUSH1 0x40 MLOAD DUP1 SWAP2 SUB SWAP1 RETURN JUMPDEST PUSH2 0x3F9 PUSH1 0x4 DUP1 CALLDATASIZE SUB DUP2 ADD SWAP1 PUSH2 0x3F4 SWAP2 SWAP1 PUSH2 0x3A56 JUMP JUMPDEST PUSH2 0xD08 JUMP JUMPDEST STOP JUMPDEST PUSH2 0x403 PUSH2 0xDF5 JUMP JUMPDEST PUSH1 0x40 MLOAD PUSH2 0x410 SWAP2 SWAP1 PUSH2 0x3809 JUMP JUMPDEST PUSH1 0x40 MLOAD DUP1 SWAP2 SUB SWAP1 RETURN JUMPDEST PUSH2 0x421 PUSH2 0xE81 JUMP JUMPDEST STOP JUMPDEST PUSH2 0x43D PUSH1 0x4 DUP1 CALLDATASIZE SUB DUP2 ADD SWAP1 PUSH2 0x438 SWAP2 SWAP1 PUSH2 0x3A56 JUMP JUMPDEST PUSH2 0xF21 JUMP JUMPDEST STOP JUMPDEST PUSH2 0x459 PUSH1 0x4 DUP1 CALLDATASIZE SUB DUP2 ADD SWAP1 PUSH2 0x454 SWAP2 SWAP1 PUSH2 0x3A06 JUMP JUMPDEST PUSH2 0x1037 JUMP JUMPDEST STOP JUMPDEST PUSH2 0x475 PUSH1 0x4 DUP1 CALLDATASIZE SUB DUP2 ADD SWAP1 PUSH2 0x470 SWAP2 SWAP1 PUSH2 0x3853 JUMP JUMPDEST PUSH2 0x1056 JUMP JUMPDEST PUSH1 0x40 MLOAD PUSH2 0x482 SWAP2 SWAP1 PUSH2 0x39ED JUMP JUMPDEST PUSH1 0x40 MLOAD DUP1 SWAP2 SUB SWAP1 RETURN JUMPDEST PUSH2 0x493 PUSH2 0x10C8 JUMP JUMPDEST PUSH1 0x40 MLOAD PUSH2 0x4A0 SWAP2 SWAP1 PUSH2 0x3595 JUMP JUMPDEST PUSH1 0x40 MLOAD DUP1 SWAP2 SUB SWAP1 RETURN JUMPDEST PUSH2 0x4C3 PUSH1 0x4 DUP1 CALLDATASIZE SUB DUP2 ADD SWAP1 PUSH2 0x4BE SWAP2 SWAP1 PUSH2 0x3853 JUMP JUMPDEST PUSH2 0x10DD JUMP JUMPDEST PUSH1 0x40 MLOAD PUSH2 0x4D0 SWAP2 SWAP1 PUSH2 0x38BD JUMP JUMPDEST PUSH1 0x40 MLOAD DUP1 SWAP2 SUB SWAP1 RETURN JUMPDEST PUSH2 0x4F3 PUSH1 0x4 DUP1 CALLDATASIZE SUB DUP2 ADD SWAP1 PUSH2 0x4EE SWAP2 SWAP1 PUSH2 0x3AD6 JUMP JUMPDEST PUSH2 0x1163 JUMP JUMPDEST STOP JUMPDEST PUSH2 0x50F PUSH1 0x4 DUP1 CALLDATASIZE SUB DUP2 ADD SWAP1 PUSH2 0x50A SWAP2 SWAP1 PUSH2 0x3A56 JUMP JUMPDEST PUSH2 0x12CD JUMP JUMPDEST PUSH1 0x40 MLOAD PUSH2 0x51C SWAP2 SWAP1 PUSH2 0x39ED JUMP JUMPDEST PUSH1 0x40 MLOAD DUP1 SWAP2 SUB SWAP1 RETURN JUMPDEST PUSH2 0x52D PUSH2 0x1383 JUMP JUMPDEST STOP JUMPDEST PUSH2 0x537 PUSH2 0x14D6 JUMP JUMPDEST STOP JUMPDEST PUSH2 0x541 PUSH2 0x1576 JUMP JUMPDEST PUSH1 0x40 MLOAD PUSH2 0x54E SWAP2 SWAP1 PUSH2 0x38BD JUMP JUMPDEST PUSH1 0x40 MLOAD DUP1 SWAP2 SUB SWAP1 RETURN JUMPDEST PUSH2 0x571 PUSH1 0x4 DUP1 CALLDATASIZE SUB DUP2 ADD SWAP1 PUSH2 0x56C SWAP2 SWAP1 PUSH2 0x3B21 JUMP JUMPDEST PUSH2 0x159E JUMP JUMPDEST STOP JUMPDEST PUSH2 0x57B PUSH2 0x1723 JUMP JUMPDEST PUSH1 0x40 MLOAD PUSH2 0x588 SWAP2 SWAP1 PUSH2 0x3809 JUMP JUMPDEST PUSH1 0x40 MLOAD DUP1 SWAP2 SUB SWAP1 RETURN JUMPDEST PUSH2 0x5AB PUSH1 0x4 DUP1 CALLDATASIZE SUB DUP2 ADD SWAP1 PUSH2 0x5A6 SWAP2 SWAP1 PUSH2 0x3A56 JUMP JUMPDEST PUSH2 0x17B3 JUMP JUMPDEST STOP JUMPDEST PUSH2 0x5C7 PUSH1 0x4 DUP1 CALLDATASIZE SUB DUP2 ADD SWAP1 PUSH2 0x5C2 SWAP2 SWAP1 PUSH2 0x3BD1 JUMP JUMPDEST PUSH2 0x18A1 JUMP JUMPDEST STOP JUMPDEST PUSH2 0x5E3 PUSH1 0x4 DUP1 CALLDATASIZE SUB DUP2 ADD SWAP1 PUSH2 0x5DE SWAP2 SWAP1 PUSH2 0x3CB7 JUMP JUMPDEST PUSH2 0x1A0C JUMP JUMPDEST STOP JUMPDEST PUSH2 0x5FF PUSH1 0x4 DUP1 CALLDATASIZE SUB DUP2 ADD SWAP1 PUSH2 0x5FA SWAP2 SWAP1 PUSH2 0x3D2C JUMP JUMPDEST PUSH2 0x1AB8 JUMP JUMPDEST STOP JUMPDEST PUSH2 0x61B PUSH1 0x4 DUP1 CALLDATASIZE SUB DUP2 ADD SWAP1 PUSH2 0x616 SWAP2 SWAP1 PUSH2 0x3A56 JUMP JUMPDEST PUSH2 0x1ACE JUMP JUMPDEST STOP JUMPDEST PUSH2 0x637 PUSH1 0x4 DUP1 CALLDATASIZE SUB DUP2 ADD SWAP1 PUSH2 0x632 SWAP2 SWAP1 PUSH2 0x3E92 JUMP JUMPDEST PUSH2 0x1BBB JUMP JUMPDEST STOP JUMPDEST PUSH2 0x653 PUSH1 0x4 DUP1 CALLDATASIZE SUB DUP2 ADD SWAP1 PUSH2 0x64E SWAP2 SWAP1 PUSH2 0x3853 JUMP JUMPDEST PUSH2 0x1BD8 JUMP JUMPDEST PUSH1 0x40 MLOAD PUSH2 0x660 SWAP2 SWAP1 PUSH2 0x3F21 JUMP JUMPDEST PUSH1 0x40 MLOAD DUP1 SWAP2 SUB SWAP1 RETURN JUMPDEST PUSH2 0x683 PUSH1 0x4 DUP1 CALLDATASIZE SUB DUP2 ADD SWAP1 PUSH2 0x67E SWAP2 SWAP1 PUSH2 0x3853 JUMP JUMPDEST PUSH2 0x1BF8 JUMP JUMPDEST PUSH1 0x40 MLOAD PUSH2 0x690 SWAP2 SWAP1 PUSH2 0x3809 JUMP JUMPDEST PUSH1 0x40 MLOAD DUP1 SWAP2 SUB SWAP1 RETURN JUMPDEST PUSH2 0x6B3 PUSH1 0x4 DUP1 CALLDATASIZE SUB DUP2 ADD SWAP1 PUSH2 0x6AE SWAP2 SWAP1 PUSH2 0x3F3A JUMP JUMPDEST PUSH2 0x1CB6 JUMP JUMPDEST STOP JUMPDEST PUSH2 0x6CF PUSH1 0x4 DUP1 CALLDATASIZE SUB DUP2 ADD SWAP1 PUSH2 0x6CA SWAP2 SWAP1 PUSH2 0x3F8A JUMP JUMPDEST PUSH2 0x1DCE JUMP JUMPDEST PUSH1 0x40 MLOAD PUSH2 0x6DC SWAP2 SWAP1 PUSH2 0x3595 JUMP JUMPDEST PUSH1 0x40 MLOAD DUP1 SWAP2 SUB SWAP1 RETURN JUMPDEST PUSH2 0x6FF PUSH1 0x4 DUP1 CALLDATASIZE SUB DUP2 ADD SWAP1 PUSH2 0x6FA SWAP2 SWAP1 PUSH2 0x3FC8 JUMP JUMPDEST PUSH2 0x1E5C JUMP JUMPDEST PUSH1 0x40 MLOAD PUSH2 0x70C SWAP2 SWAP1 PUSH2 0x39ED JUMP JUMPDEST PUSH1 0x40 MLOAD DUP1 SWAP2 SUB SWAP1 RETURN JUMPDEST PUSH2 0x72F PUSH1 0x4 DUP1 CALLDATASIZE SUB DUP2 ADD SWAP1 PUSH2 0x72A SWAP2 SWAP1 PUSH2 0x3853 JUMP JUMPDEST PUSH2 0x1E86 JUMP JUMPDEST STOP JUMPDEST PUSH2 0x74B PUSH1 0x4 DUP1 CALLDATASIZE SUB DUP2 ADD SWAP1 PUSH2 0x746 SWAP2 SWAP1 PUSH2 0x3A56 JUMP JUMPDEST PUSH2 0x1F26 JUMP JUMPDEST STOP JUMPDEST PUSH2 0x767 PUSH1 0x4 DUP1 CALLDATASIZE SUB DUP2 ADD SWAP1 PUSH2 0x762 SWAP2 SWAP1 PUSH2 0x4006 JUMP JUMPDEST PUSH2 0x20E8 JUMP JUMPDEST PUSH1 0x40 MLOAD PUSH2 0x774 SWAP2 SWAP1 PUSH2 0x375F JUMP JUMPDEST PUSH1 0x40 MLOAD DUP1 SWAP2 SUB SWAP1 RETURN JUMPDEST PUSH2 0x797 PUSH1 0x4 DUP1 CALLDATASIZE SUB DUP2 ADD SWAP1 PUSH2 0x792 SWAP2 SWAP1 PUSH2 0x3853 JUMP JUMPDEST PUSH2 0x21D6 JUMP JUMPDEST PUSH1 0x40 MLOAD PUSH2 0x7A4 SWAP2 SWAP1 PUSH2 0x3809 JUMP JUMPDEST PUSH1 0x40 MLOAD DUP1 SWAP2 SUB SWAP1 RETURN JUMPDEST PUSH0 PUSH32 0x780E9D6300000000000000000000000000000000000000000000000000000000 PUSH28 0xFFFFFFFFFFFFFFFFFFFFFFFFFFFFFFFFFFFFFFFFFFFFFFFFFFFFFFFF NOT AND DUP3 PUSH28 0xFFFFFFFFFFFFFFFFFFFFFFFFFFFFFFFFFFFFFFFFFFFFFFFFFFFFFFFF NOT AND EQ DUP1 PUSH2 0x81F JUMPI POP PUSH2 0x81E DUP3 PUSH2 0x2354 JUMP JUMPDEST JUMPDEST SWAP1 POP SWAP2 SWAP1 POP JUMP JUMPDEST PUSH1 0x60 PUSH0 DUP4 DUP4 SWAP1 POP PUSH8 0xFFFFFFFFFFFFFFFF DUP2 GT ISZERO PUSH2 0x846 JUMPI PUSH2 0x845 PUSH2 0x3D6E JUMP JUMPDEST JUMPDEST PUSH1 0x40 MLOAD SWAP1 DUP1 DUP3 MSTORE DUP1 PUSH1 0x20 MUL PUSH1 0x20 ADD DUP3 ADD PUSH1 0x40 MSTORE DUP1 ISZERO PUSH2 0x874 JUMPI DUP2 PUSH1 0x20 ADD PUSH1 0x20 DUP3 MUL DUP1 CALLDATASIZE DUP4 CALLDATACOPY DUP1 DUP3 ADD SWAP2 POP POP SWAP1 POP JUMPDEST POP SWAP1 POP PUSH0 JUMPDEST DUP5 DUP5 SWAP1 POP DUP2 LT ISZERO PUSH2 0x8EE JUMPI PUSH1 0x10 PUSH0 DUP7 DUP7 DUP5 DUP2 DUP2 LT PUSH2 0x89A JUMPI PUSH2 0x899 PUSH2 0x4084 JUMP JUMPDEST JUMPDEST SWAP1 POP PUSH1 0x20 MUL ADD CALLDATALOAD DUP2 MSTORE PUSH1 0x20 ADD SWAP1 DUP2 MSTORE PUSH1 0x20 ADD PUSH0 KECCAK256 PUSH0 DUP8 DUP2 MSTORE PUSH1 0x20 ADD SWAP1 DUP2 MSTORE PUSH1 0x20 ADD PUSH0 KECCAK256 SLOAD DUP3 DUP3 DUP2 MLOAD DUP2 LT PUSH2 0x8D1 JUMPI PUSH2 0x8D0 PUSH2 0x4084 JUMP JUMPDEST JUMPDEST PUSH1 0x20 MUL PUSH1 0x20 ADD ADD DUP2 DUP2 MSTORE POP POP DUP1 PUSH2 0x8E7 SWAP1 PUSH2 0x40DE JUMP JUMPDEST SWAP1 POP PUSH2 0x879 JUMP JUMPDEST POP DUP1 SWAP2 POP POP SWAP4 SWAP3 POP POP POP JUMP JUMPDEST PUSH1 0x60 PUSH0 DUP1 SLOAD PUSH2 0x908 SWAP1 PUSH2 0x4152 JUMP JUMPDEST DUP1 PUSH1 0x1F ADD PUSH1 0x20 DUP1 SWAP2 DIV MUL PUSH1 0x20 ADD PUSH1 0x40 MLOAD SWAP1 DUP2 ADD PUSH1 0x40 MSTORE DUP1 SWAP3 SWAP2 SWAP1 DUP2 DUP2 MSTORE PUSH1 0x20 ADD DUP3 DUP1 SLOAD PUSH2 0x934 SWAP1 PUSH2 0x4152 JUMP JUMPDEST DUP1 ISZERO PUSH2 0x97F JUMPI DUP1 PUSH1 0x1F LT PUSH2 0x956 JUMPI PUSH2 0x100 DUP1 DUP4 SLOAD DIV MUL DUP4 MSTORE SWAP2 PUSH1 0x20 ADD SWAP2 PUSH2 0x97F JUMP JUMPDEST DUP3 ADD SWAP2 SWAP1 PUSH0 MSTORE PUSH1 0x20 PUSH0 KECCAK256 SWAP1 JUMPDEST DUP2 SLOAD DUP2 MSTORE SWAP1 PUSH1 0x1 ADD SWAP1 PUSH1 0x20 ADD DUP1 DUP4 GT PUSH2 0x962 JUMPI DUP3 SWAP1 SUB PUSH1 0x1F AND DUP3 ADD SWAP2 JUMPDEST POP POP POP POP POP SWAP1 POP SWAP1 JUMP JUMPDEST PUSH0 PUSH2 0x993 DUP3 PUSH2 0x2435 JUMP JUMPDEST PUSH2 0x99C DUP3 PUSH2 0x24B0 JUMP JUMPDEST SWAP1 POP SWAP2 SWAP1 POP JUMP JUMPDEST PUSH2 0x9B5 DUP3 DUP3 PUSH2 0x9B0 PUSH2 0x24E9 JUMP JUMPDEST PUSH2 0x24F0 JUMP JUMPDEST POP POP JUMP JUMPDEST PUSH2 0x9C1 PUSH2 0x24E9 JUMP JUMPDEST PUSH20 0xFFFFFFFFFFFFFFFFFFFFFFFFFFFFFFFFFFFFFFFF AND PUSH1 0xA PUSH0 SWAP1 SLOAD SWAP1 PUSH2 0x100 EXP SWAP1 DIV PUSH20 0xFFFFFFFFFFFFFFFFFFFFFFFFFFFFFFFFFFFFFFFF AND PUSH20 0xFFFFFFFFFFFFFFFFFFFFFFFFFFFFFFFFFFFFFFFF AND EQ PUSH2 0xA4F JUMPI PUSH1 0x40 MLOAD PUSH32 0x8C379A000000000000000000000000000000000000000000000000000000000 DUP2 MSTORE PUSH1 0x4 ADD PUSH2 0xA46 SWAP1 PUSH2 0x41CC JUMP JUMPDEST PUSH1 0x40 MLOAD DUP1 SWAP2 SUB SWAP1 REVERT JUMPDEST DUP2 DUP2 PUSH1 0x11 SWAP2 SWAP1 PUSH2 0xA60 SWAP3 SWAP2 SWAP1 PUSH2 0x3484 JUMP JUMPDEST POP POP POP JUMP JUMPDEST PUSH0 PUSH1 0x8 DUP1 SLOAD SWAP1 POP SWAP1 POP SWAP1 JUMP JUMPDEST PUSH1 0xF SLOAD DUP2 JUMP JUMPDEST PUSH0 PUSH20 0xFFFFFFFFFFFFFFFFFFFFFFFFFFFFFFFFFFFFFFFF AND DUP3 PUSH20 0xFFFFFFFFFFFFFFFFFFFFFFFFFFFFFFFFFFFFFFFF AND SUB PUSH2 0xAE7 JUMPI PUSH0 PUSH1 0x40 MLOAD PUSH32 0x64A0AE9200000000000000000000000000000000000000000000000000000000 DUP2 MSTORE PUSH1 0x4 ADD PUSH2 0xADE SWAP2 SWAP1 PUSH2 0x38BD JUMP JUMPDEST PUSH1 0x40 MLOAD DUP1 SWAP2 SUB SWAP1 REVERT JUMPDEST PUSH0 PUSH2 0xAFA DUP4 DUP4 PUSH2 0xAF5 PUSH2 0x24E9 JUMP JUMPDEST PUSH2 0x2502 JUMP JUMPDEST SWAP1 POP DUP4 PUSH20 0xFFFFFFFFFFFFFFFFFFFFFFFFFFFFFFFFFFFFFFFF AND DUP2 PUSH20 0xFFFFFFFFFFFFFFFFFFFFFFFFFFFFFFFFFFFFFFFF AND EQ PUSH2 0xB70 JUMPI DUP4 DUP3 DUP3 PUSH1 0x40 MLOAD PUSH32 0x64283D7B00000000000000000000000000000000000000000000000000000000 DUP2 MSTORE PUSH1 0x4 ADD PUSH2 0xB67 SWAP4 SWAP3 SWAP2 SWAP1 PUSH2 0x41EA JUMP JUMPDEST PUSH1 0x40 MLOAD DUP1 SWAP2 SUB SWAP1 REVERT JUMPDEST POP POP POP POP JUMP JUMPDEST PUSH2 0xB7E PUSH2 0x24E9 JUMP JUMPDEST PUSH20 0xFFFFFFFFFFFFFFFFFFFFFFFFFFFFFFFFFFFFFFFF AND PUSH1 0xA PUSH0 SWAP1 SLOAD SWAP1 PUSH2 0x100 EXP SWAP1 DIV PUSH20 0xFFFFFFFFFFFFFFFFFFFFFFFFFFFFFFFFFFFFFFFF AND PUSH20 0xFFFFFFFFFFFFFFFFFFFFFFFFFFFFFFFFFFFFFFFF AND EQ PUSH2 0xC0C JUMPI PUSH1 0x40 MLOAD PUSH32 0x8C379A000000000000000000000000000000000000000000000000000000000 DUP2 MSTORE PUSH1 0x4 ADD PUSH2 0xC03 SWAP1 PUSH2 0x41CC JUMP JUMPDEST PUSH1 0x40 MLOAD DUP1 SWAP2 SUB SWAP1 REVERT JUMPDEST PUSH1 0x1 PUSH1 0xB PUSH0 DUP4 PUSH20 0xFFFFFFFFFFFFFFFFFFFFFFFFFFFFFFFFFFFFFFFF AND PUSH20 0xFFFFFFFFFFFFFFFFFFFFFFFFFFFFFFFFFFFFFFFF AND DUP2 MSTORE PUSH1 0x20 ADD SWAP1 DUP2 MSTORE PUSH1 0x20 ADD PUSH0 KECCAK256 PUSH0 PUSH2 0x100 EXP DUP2 SLOAD DUP2 PUSH1 0xFF MUL NOT AND SWAP1 DUP4 ISZERO ISZERO MUL OR SWAP1 SSTORE POP POP JUMP JUMPDEST PUSH0 PUSH2 0xC6E DUP4 PUSH2 0x12CD JUMP JUMPDEST DUP3 LT PUSH2 0xCB3 JUMPI DUP3 DUP3 PUSH1 0x40 MLOAD PUSH32 0xA57D13DC00000000000000000000000000000000000000000000000000000000 DUP2 MSTORE PUSH1 0x4 ADD PUSH2 0xCAA SWAP3 SWAP2 SWAP1 PUSH2 0x421F JUMP JUMPDEST PUSH1 0x40 MLOAD DUP1 SWAP2 SUB SWAP1 REVERT JUMPDEST PUSH1 0x6 PUSH0 DUP5 PUSH20 0xFFFFFFFFFFFFFFFFFFFFFFFFFFFFFFFFFFFFFFFF AND PUSH20 0xFFFFFFFFFFFFFFFFFFFFFFFFFFFFFFFFFFFFFFFF AND DUP2 MSTORE PUSH1 0x20 ADD SWAP1 DUP2 MSTORE PUSH1 0x20 ADD PUSH0 KECCAK256 PUSH0 DUP4 DUP2 MSTORE PUSH1 0x20 ADD SWAP1 DUP2 MSTORE PUSH1 0x20 ADD PUSH0 KECCAK256 SLOAD SWAP1 POP SWAP3 SWAP2 POP POP JUMP JUMPDEST PUSH2 0xD10 PUSH2 0x24E9 JUMP JUMPDEST PUSH20 0xFFFFFFFFFFFFFFFFFFFFFFFFFFFFFFFFFFFFFFFF AND PUSH1 0xA PUSH0 SWAP1 SLOAD SWAP1 PUSH2 0x100 EXP SWAP1 DIV PUSH20 0xFFFFFFFFFFFFFFFFFFFFFFFFFFFFFFFFFFFFFFFF AND PUSH20 0xFFFFFFFFFFFFFFFFFFFFFFFFFFFFFFFFFFFFFFFF AND EQ PUSH2 0xD9E JUMPI PUSH1 0x40 MLOAD PUSH32 0x8C379A000000000000000000000000000000000000000000000000000000000 DUP2 MSTORE PUSH1 0x4 ADD PUSH2 0xD95 SWAP1 PUSH2 0x41CC JUMP JUMPDEST PUSH1 0x40 MLOAD DUP1 SWAP2 SUB SWAP1 REVERT JUMPDEST PUSH0 PUSH1 0xC PUSH0 DUP4 PUSH20 0xFFFFFFFFFFFFFFFFFFFFFFFFFFFFFFFFFFFFFFFF AND PUSH20 0xFFFFFFFFFFFFFFFFFFFFFFFFFFFFFFFFFFFFFFFF AND DUP2 MSTORE PUSH1 0x20 ADD SWAP1 DUP2 MSTORE PUSH1 0x20 ADD PUSH0 KECCAK256 PUSH0 PUSH2 0x100 EXP DUP2 SLOAD DUP2 PUSH1 0xFF MUL NOT AND SWAP1 DUP4 ISZERO ISZERO MUL OR SWAP1 SSTORE POP POP JUMP JUMPDEST PUSH1 0xE DUP1 SLOAD PUSH2 0xE02 SWAP1 PUSH2 0x4152 JUMP JUMPDEST DUP1 PUSH1 0x1F ADD PUSH1 0x20 DUP1 SWAP2 DIV MUL PUSH1 0x20 ADD PUSH1 0x40 MLOAD SWAP1 DUP2 ADD PUSH1 0x40 MSTORE DUP1 SWAP3 SWAP2 SWAP1 DUP2 DUP2 MSTORE PUSH1 0x20 ADD DUP3 DUP1 SLOAD PUSH2 0xE2E SWAP1 PUSH2 0x4152 JUMP JUMPDEST DUP1 ISZERO PUSH2 0xE79 JUMPI DUP1 PUSH1 0x1F LT PUSH2 0xE50 JUMPI PUSH2 0x100 DUP1 DUP4 SLOAD DIV MUL DUP4 MSTORE SWAP2 PUSH1 0x20 ADD SWAP2 PUSH2 0xE79 JUMP JUMPDEST DUP3 ADD SWAP2 SWAP1 PUSH0 MSTORE PUSH1 0x20 PUSH0 KECCAK256 SWAP1 JUMPDEST DUP2 SLOAD DUP2 MSTORE SWAP1 PUSH1 0x1 ADD SWAP1 PUSH1 0x20 ADD DUP1 DUP4 GT PUSH2 0xE5C JUMPI DUP3 SWAP1 SUB PUSH1 0x1F AND DUP3 ADD SWAP2 JUMPDEST POP POP POP POP POP DUP2 JUMP JUMPDEST PUSH2 0xE89 PUSH2 0x24E9 JUMP JUMPDEST PUSH20 0xFFFFFFFFFFFFFFFFFFFFFFFFFFFFFFFFFFFFFFFF AND PUSH1 0xA PUSH0 SWAP1 SLOAD SWAP1 PUSH2 0x100 EXP SWAP1 DIV PUSH20 0xFFFFFFFFFFFFFFFFFFFFFFFFFFFFFFFFFFFFFFFF AND PUSH20 0xFFFFFFFFFFFFFFFFFFFFFFFFFFFFFFFFFFFFFFFF AND EQ PUSH2 0xF17 JUMPI PUSH1 0x40 MLOAD PUSH32 0x8C379A000000000000000000000000000000000000000000000000000000000 DUP2 MSTORE PUSH1 0x4 ADD PUSH2 0xF0E SWAP1 PUSH2 0x41CC JUMP JUMPDEST PUSH1 0x40 MLOAD DUP1 SWAP2 SUB SWAP1 REVERT JUMPDEST PUSH2 0xF1F PUSH2 0x251F JUMP JUMPDEST JUMP JUMPDEST PUSH2 0xF29 PUSH2 0x24E9 JUMP JUMPDEST PUSH20 0xFFFFFFFFFFFFFFFFFFFFFFFFFFFFFFFFFFFFFFFF AND PUSH1 0xA PUSH0 SWAP1 SLOAD SWAP1 PUSH2 0x100 EXP SWAP1 DIV PUSH20 0xFFFFFFFFFFFFFFFFFFFFFFFFFFFFFFFFFFFFFFFF AND PUSH20 0xFFFFFFFFFFFFFFFFFFFFFFFFFFFFFFFFFFFFFFFF AND EQ DUP1 PUSH2 0xFD0 JUMPI POP PUSH1 0xC PUSH0 PUSH2 0xF89 PUSH2 0x24E9 JUMP JUMPDEST PUSH20 0xFFFFFFFFFFFFFFFFFFFFFFFFFFFFFFFFFFFFFFFF AND PUSH20 0xFFFFFFFFFFFFFFFFFFFFFFFFFFFFFFFFFFFFFFFF AND DUP2 MSTORE PUSH1 0x20 ADD SWAP1 DUP2 MSTORE PUSH1 0x20 ADD PUSH0 KECCAK256 PUSH0 SWAP1 SLOAD SWAP1 PUSH2 0x100 EXP SWAP1 DIV PUSH1 0xFF AND JUMPDEST PUSH2 0x100F JUMPI PUSH1 0x40 MLOAD PUSH32 0x8C379A000000000000000000000000000000000000000000000000000000000 DUP2 MSTORE PUSH1 0x4 ADD PUSH2 0x1006 SWAP1 PUSH2 0x42B6 JUMP JUMPDEST PUSH1 0x40 MLOAD DUP1 SWAP2 SUB SWAP1 REVERT JUMPDEST PUSH2 0x101B DUP2 PUSH1 0xF SLOAD PUSH2 0x2580 JUMP JUMPDEST PUSH1 0x1 PUSH1 0xF PUSH0 DUP3 DUP3 SLOAD PUSH2 0x102D SWAP2 SWAP1 PUSH2 0x42D4 JUMP JUMPDEST SWAP3 POP POP DUP2 SWAP1 SSTORE POP POP JUMP JUMPDEST PUSH2 0x1051 DUP4 DUP4 DUP4 PUSH1 0x40 MLOAD DUP1 PUSH1 0x20 ADD PUSH1 0x40 MSTORE DUP1 PUSH0 DUP2 MSTORE POP PUSH2 0x1BBB JUMP JUMPDEST POP POP POP JUMP JUMPDEST PUSH0 PUSH2 0x105F PUSH2 0xA65 JUMP JUMPDEST DUP3 LT PUSH2 0x10A4 JUMPI PUSH0 DUP3 PUSH1 0x40 MLOAD PUSH32 0xA57D13DC00000000000000000000000000000000000000000000000000000000 DUP2 MSTORE PUSH1 0x4 ADD PUSH2 0x109B SWAP3 SWAP2 SWAP1 PUSH2 0x421F JUMP JUMPDEST PUSH1 0x40 MLOAD DUP1 SWAP2 SUB SWAP1 REVERT JUMPDEST PUSH1 0x8 DUP3 DUP2 SLOAD DUP2 LT PUSH2 0x10B8 JUMPI PUSH2 0x10B7 PUSH2 0x4084 JUMP JUMPDEST JUMPDEST SWAP1 PUSH0 MSTORE PUSH1 0x20 PUSH0 KECCAK256 ADD SLOAD SWAP1 POP SWAP2 SWAP1 POP JUMP JUMPDEST PUSH0 PUSH1 0xD PUSH0 SWAP1 SLOAD SWAP1 PUSH2 0x100 EXP SWAP1 DIV PUSH1 0xFF AND SWAP1 POP SWAP1 JUMP JUMPDEST PUSH0 DUP1 PUSH2 0x10E8 DUP4 PUSH2 0x259D JUMP JUMPDEST SWAP1 POP PUSH0 PUSH20 0xFFFFFFFFFFFFFFFFFFFFFFFFFFFFFFFFFFFFFFFF AND DUP2 PUSH20 0xFFFFFFFFFFFFFFFFFFFFFFFFFFFFFFFFFFFFFFFF AND SUB PUSH2 0x115A JUMPI DUP3 PUSH1 0x40 MLOAD PUSH32 0x7E27328900000000000000000000000000000000000000000000000000000000 DUP2 MSTORE PUSH1 0x4 ADD PUSH2 0x1151 SWAP2 SWAP1 PUSH2 0x39ED JUMP JUMPDEST PUSH1 0x40 MLOAD DUP1 SWAP2 SUB SWAP1 REVERT JUMPDEST DUP1 SWAP2 POP POP SWAP2 SWAP1 POP JUMP JUMPDEST PUSH2 0x116B PUSH2 0x24E9 JUMP JUMPDEST PUSH20 0xFFFFFFFFFFFFFFFFFFFFFFFFFFFFFFFFFFFFFFFF AND PUSH1 0xA PUSH0 SWAP1 SLOAD SWAP1 PUSH2 0x100 EXP SWAP1 DIV PUSH20 0xFFFFFFFFFFFFFFFFFFFFFFFFFFFFFFFFFFFFFFFF AND PUSH20 0xFFFFFFFFFFFFFFFFFFFFFFFFFFFFFFFFFFFFFFFF AND EQ DUP1 PUSH2 0x1212 JUMPI POP PUSH1 0xC PUSH0 PUSH2 0x11CB PUSH2 0x24E9 JUMP JUMPDEST PUSH20 0xFFFFFFFFFFFFFFFFFFFFFFFFFFFFFFFFFFFFFFFF AND PUSH20 0xFFFFFFFFFFFFFFFFFFFFFFFFFFFFFFFFFFFFFFFF AND DUP2 MSTORE PUSH1 0x20 ADD SWAP1 DUP2 MSTORE PUSH1 0x20 ADD PUSH0 KECCAK256 PUSH0 SWAP1 SLOAD SWAP1 PUSH2 0x100 EXP SWAP1 DIV PUSH1 0xFF AND JUMPDEST PUSH2 0x1251 JUMPI PUSH1 0x40 MLOAD PUSH32 0x8C379A000000000000000000000000000000000000000000000000000000000 DUP2 MSTORE PUSH1 0x4 ADD PUSH2 0x1248 SWAP1 PUSH2 0x42B6 JUMP JUMPDEST PUSH1 0x40 MLOAD DUP1 SWAP2 SUB SWAP1 REVERT JUMPDEST PUSH0 JUMPDEST DUP3 DUP3 SWAP1 POP DUP2 LT ISZERO PUSH2 0x12AD JUMPI PUSH2 0x129C DUP4 DUP4 DUP4 DUP2 DUP2 LT PUSH2 0x1274 JUMPI PUSH2 0x1273 PUSH2 0x4084 JUMP JUMPDEST JUMPDEST SWAP1 POP PUSH1 0x20 MUL ADD PUSH1 0x20 DUP2 ADD SWAP1 PUSH2 0x1289 SWAP2 SWAP1 PUSH2 0x3A56 JUMP JUMPDEST DUP3 PUSH1 0xF SLOAD PUSH2 0x1297 SWAP2 SWAP1 PUSH2 0x42D4 JUMP JUMPDEST PUSH2 0x2580 JUMP JUMPDEST DUP1 PUSH2 0x12A6 SWAP1 PUSH2 0x40DE JUMP JUMPDEST SWAP1 POP PUSH2 0x1253 JUMP JUMPDEST POP DUP2 DUP2 SWAP1 POP PUSH1 0xF PUSH0 DUP3 DUP3 SLOAD PUSH2 0x12C2 SWAP2 SWAP1 PUSH2 0x42D4 JUMP JUMPDEST SWAP3 POP POP DUP2 SWAP1 SSTORE POP POP POP JUMP JUMPDEST PUSH0 DUP1 PUSH20 0xFFFFFFFFFFFFFFFFFFFFFFFFFFFFFFFFFFFFFFFF AND DUP3 PUSH20 0xFFFFFFFFFFFFFFFFFFFFFFFFFFFFFFFFFFFFFFFF AND SUB PUSH2 0x133E JUMPI PUSH0 PUSH1 0x40 MLOAD PUSH32 0x89C62B6400000000000000000000000000000000000000000000000000000000 DUP2 MSTORE PUSH1 0x4 ADD PUSH2 0x1335 SWAP2 SWAP1 PUSH2 0x38BD JUMP JUMPDEST PUSH1 0x40 MLOAD DUP1 SWAP2 SUB SWAP1 REVERT JUMPDEST PUSH1 0x3 PUSH0 DUP4 PUSH20 0xFFFFFFFFFFFFFFFFFFFFFFFFFFFFFFFFFFFFFFFF AND PUSH20 0xFFFFFFFFFFFFFFFFFFFFFFFFFFFFFFFFFFFFFFFF AND DUP2 MSTORE PUSH1 0x20 ADD SWAP1 DUP2 MSTORE PUSH1 0x20 ADD PUSH0 KECCAK256 SLOAD SWAP1 POP SWAP2 SWAP1 POP JUMP JUMPDEST PUSH2 0x138B PUSH2 0x24E9 JUMP JUMPDEST PUSH20 0xFFFFFFFFFFFFFFFFFFFFFFFFFFFFFFFFFFFFFFFF AND PUSH1 0xA PUSH0 SWAP1 SLOAD SWAP1 PUSH2 0x100 EXP SWAP1 DIV PUSH20 0xFFFFFFFFFFFFFFFFFFFFFFFFFFFFFFFFFFFFFFFF AND PUSH20 0xFFFFFFFFFFFFFFFFFFFFFFFFFFFFFFFFFFFFFFFF AND EQ PUSH2 0x1419 JUMPI PUSH1 0x40 MLOAD PUSH32 0x8C379A000000000000000000000000000000000000000000000000000000000 DUP2 MSTORE PUSH1 0x4 ADD PUSH2 0x1410 SWAP1 PUSH2 0x41CC JUMP JUMPDEST PUSH1 0x40 MLOAD DUP1 SWAP2 SUB SWAP1 REVERT JUMPDEST PUSH0 PUSH20 0xFFFFFFFFFFFFFFFFFFFFFFFFFFFFFFFFFFFFFFFF AND PUSH1 0xA PUSH0 SWAP1 SLOAD SWAP1 PUSH2 0x100 EXP SWAP1 DIV PUSH20 0xFFFFFFFFFFFFFFFFFFFFFFFFFFFFFFFFFFFFFFFF AND PUSH20 0xFFFFFFFFFFFFFFFFFFFFFFFFFFFFFFFFFFFFFFFF AND PUSH32 0x8BE0079C531659141344CD1FD0A4F28419497F9722A3DAAFE3B4186F6B6457E0 PUSH1 0x40 MLOAD PUSH1 0x40 MLOAD DUP1 SWAP2 SUB SWAP1 LOG3 PUSH0 PUSH1 0xA PUSH0 PUSH2 0x100 EXP DUP2 SLOAD DUP2 PUSH20 0xFFFFFFFFFFFFFFFFFFFFFFFFFFFFFFFFFFFFFFFF MUL NOT AND SWAP1 DUP4 PUSH20 0xFFFFFFFFFFFFFFFFFFFFFFFFFFFFFFFFFFFFFFFF AND MUL OR SWAP1 SSTORE POP JUMP JUMPDEST PUSH2 0x14DE PUSH2 0x24E9 JUMP JUMPDEST PUSH20 0xFFFFFFFFFFFFFFFFFFFFFFFFFFFFFFFFFFFFFFFF AND PUSH1 0xA PUSH0 SWAP1 SLOAD SWAP1 PUSH2 0x100 EXP SWAP1 DIV PUSH20 0xFFFFFFFFFFFFFFFFFFFFFFFFFFFFFFFFFFFFFFFF AND PUSH20 0xFFFFFFFFFFFFFFFFFFFFFFFFFFFFFFFFFFFFFFFF AND EQ PUSH2 0x156C JUMPI PUSH1 0x40 MLOAD PUSH32 0x8C379A000000000000000000000000000000000000000000000000000000000 DUP2 MSTORE PUSH1 0x4 ADD PUSH2 0x1563 SWAP1 PUSH2 0x41CC JUMP JUMPDEST PUSH1 0x40 MLOAD DUP1 SWAP2 SUB SWAP1 REVERT JUMPDEST PUSH2 0x1574 PUSH2 0x25D6 JUMP JUMPDEST JUMP JUMPDEST PUSH0 PUSH1 0xA PUSH0 SWAP1 SLOAD SWAP1 PUSH2 0x100 EXP SWAP1 DIV PUSH20 0xFFFFFFFFFFFFFFFFFFFFFFFFFFFFFFFFFFFFFFFF AND SWAP1 POP SWAP1 JUMP JUMPDEST PUSH2 0x15A6 PUSH2 0x24E9 JUMP JUMPDEST PUSH20 0xFFFFFFFFFFFFFFFFFFFFFFFFFFFFFFFFFFFFFFFF AND PUSH1 0xA PUSH0 SWAP1 SLOAD SWAP1 PUSH2 0x100 EXP SWAP1 DIV PUSH20 0xFFFFFFFFFFFFFFFFFFFFFFFFFFFFFFFFFFFFFFFF AND PUSH20 0xFFFFFFFFFFFFFFFFFFFFFFFFFFFFFFFFFFFFFFFF AND EQ DUP1 PUSH2 0x164D JUMPI POP PUSH1 0xB PUSH0 PUSH2 0x1606 PUSH2 0x24E9 JUMP JUMPDEST PUSH20 0xFFFFFFFFFFFFFFFFFFFFFFFFFFFFFFFFFFFFFFFF AND PUSH20 0xFFFFFFFFFFFFFFFFFFFFFFFFFFFFFFFFFFFFFFFF AND DUP2 MSTORE PUSH1 0x20 ADD SWAP1 DUP2 MSTORE PUSH1 0x20 ADD PUSH0 KECCAK256 PUSH0 SWAP1 SLOAD SWAP1 PUSH2 0x100 EXP SWAP1 DIV PUSH1 0xFF AND JUMPDEST PUSH2 0x168C JUMPI PUSH1 0x40 MLOAD PUSH32 0x8C379A000000000000000000000000000000000000000000000000000000000 DUP2 MSTORE PUSH1 0x4 ADD PUSH2 0x1683 SWAP1 PUSH2 0x4377 JUMP JUMPDEST PUSH1 0x40 MLOAD DUP1 SWAP2 SUB SWAP1 REVERT JUMPDEST PUSH0 JUMPDEST DUP5 DUP5 SWAP1 POP DUP2 LT ISZERO PUSH2 0x171A JUMPI DUP3 DUP3 DUP3 DUP2 DUP2 LT PUSH2 0x16AC JUMPI PUSH2 0x16AB PUSH2 0x4084 JUMP JUMPDEST JUMPDEST SWAP1 POP PUSH1 0x20 MUL ADD CALLDATALOAD PUSH1 0x10 PUSH0 DUP8 DUP8 DUP6 DUP2 DUP2 LT PUSH2 0x16C9 JUMPI PUSH2 0x16C8 PUSH2 0x4084 JUMP JUMPDEST JUMPDEST SWAP1 POP PUSH1 0x20 MUL ADD CALLDATALOAD DUP2 MSTORE PUSH1 0x20 ADD SWAP1 DUP2 MSTORE PUSH1 0x20 ADD PUSH0 KECCAK256 PUSH0 DUP10 DUP10 DUP6 DUP2 DUP2 LT PUSH2 0x16F1 JUMPI PUSH2 0x16F0 PUSH2 0x4084 JUMP JUMPDEST JUMPDEST SWAP1 POP PUSH1 0x20 MUL ADD CALLDATALOAD DUP2 MSTORE PUSH1 0x20 ADD SWAP1 DUP2 MSTORE PUSH1 0x20 ADD PUSH0 KECCAK256 DUP2 SWAP1 SSTORE POP DUP1 PUSH2 0x1713 SWAP1 PUSH2 0x40DE JUMP JUMPDEST SWAP1 POP PUSH2 0x168E JUMP JUMPDEST POP POP POP POP POP POP POP JUMP JUMPDEST PUSH1 0x60 PUSH1 0x1 DUP1 SLOAD PUSH2 0x1732 SWAP1 PUSH2 0x4152 JUMP JUMPDEST DUP1 PUSH1 0x1F ADD PUSH1 0x20 DUP1 SWAP2 DIV MUL PUSH1 0x20 ADD PUSH1 0x40 MLOAD SWAP1 DUP2 ADD PUSH1 0x40 MSTORE DUP1 SWAP3 SWAP2 SWAP1 DUP2 DUP2 MSTORE PUSH1 0x20 ADD DUP3 DUP1 SLOAD PUSH2 0x175E SWAP1 PUSH2 0x4152 JUMP JUMPDEST DUP1 ISZERO PUSH2 0x17A9 JUMPI DUP1 PUSH1 0x1F LT PUSH2 0x1780 JUMPI PUSH2 0x100 DUP1 DUP4 SLOAD DIV MUL DUP4 MSTORE SWAP2 PUSH1 0x20 ADD SWAP2 PUSH2 0x17A9 JUMP JUMPDEST DUP3 ADD SWAP2 SWAP1 PUSH0 MSTORE PUSH1 0x20 PUSH0 KECCAK256 SWAP1 JUMPDEST DUP2 SLOAD DUP2 MSTORE SWAP1 PUSH1 0x1 ADD SWAP1 PUSH1 0x20 ADD DUP1 DUP4 GT PUSH2 0x178C JUMPI DUP3 SWAP1 SUB PUSH1 0x1F AND DUP3 ADD SWAP2 JUMPDEST POP POP POP POP POP SWAP1 POP SWAP1 JUMP JUMPDEST PUSH2 0x17BB PUSH2 0x24E9 JUMP JUMPDEST PUSH20 0xFFFFFFFFFFFFFFFFFFFFFFFFFFFFFFFFFFFFFFFF AND PUSH1 0xA PUSH0 SWAP1 SLOAD SWAP1 PUSH2 0x100 EXP SWAP1 DIV PUSH20 0xFFFFFFFFFFFFFFFFFFFFFFFFFFFFFFFFFFFFFFFF AND PUSH20 0xFFFFFFFFFFFFFFFFFFFFFFFFFFFFFFFFFFFFFFFF AND EQ PUSH2 0x1849 JUMPI PUSH1 0x40 MLOAD PUSH32 0x8C379A000000000000000000000000000000000000000000000000000000000 DUP2 MSTORE PUSH1 0x4 ADD PUSH2 0x1840 SWAP1 PUSH2 0x41CC JUMP JUMPDEST PUSH1 0x40 MLOAD DUP1 SWAP2 SUB SWAP1 REVERT JUMPDEST PUSH1 0x1 PUSH1 0xC PUSH0 DUP4 PUSH20 0xFFFFFFFFFFFFFFFFFFFFFFFFFFFFFFFFFFFFFFFF AND PUSH20 0xFFFFFFFFFFFFFFFFFFFFFFFFFFFFFFFFFFFFFFFF AND DUP2 MSTORE PUSH1 0x20 ADD SWAP1 DUP2 MSTORE PUSH1 0x20 ADD PUSH0 KECCAK256 PUSH0 PUSH2 0x100 EXP DUP2 SLOAD DUP2 PUSH1 0xFF MUL NOT AND SWAP1 DUP4 ISZERO ISZERO MUL OR SWAP1 SSTORE POP POP JUMP JUMPDEST PUSH2 0x18A9 PUSH2 0x24E9 JUMP JUMPDEST PUSH20 0xFFFFFFFFFFFFFFFFFFFFFFFFFFFFFFFFFFFFFFFF AND PUSH1 0xA PUSH0 SWAP1 SLOAD SWAP1 PUSH2 0x100 EXP SWAP1 DIV PUSH20 0xFFFFFFFFFFFFFFFFFFFFFFFFFFFFFFFFFFFFFFFF AND PUSH20 0xFFFFFFFFFFFFFFFFFFFFFFFFFFFFFFFFFFFFFFFF AND EQ DUP1 PUSH2 0x1950 JUMPI POP PUSH1 0xB PUSH0 PUSH2 0x1909 PUSH2 0x24E9 JUMP JUMPDEST PUSH20 0xFFFFFFFFFFFFFFFFFFFFFFFFFFFFFFFFFFFFFFFF AND PUSH20 0xFFFFFFFFFFFFFFFFFFFFFFFFFFFFFFFFFFFFFFFF AND DUP2 MSTORE PUSH1 0x20 ADD SWAP1 DUP2 MSTORE PUSH1 0x20 ADD PUSH0 KECCAK256 PUSH0 SWAP1 SLOAD SWAP1 PUSH2 0x100 EXP SWAP1 DIV PUSH1 0xFF AND JUMPDEST PUSH2 0x198F JUMPI PUSH1 0x40 MLOAD PUSH32 0x8C379A000000000000000000000000000000000000000000000000000000000 DUP2 MSTORE PUSH1 0x4 ADD PUSH2 0x1986 SWAP1 PUSH2 0x4377 JUMP JUMPDEST PUSH1 0x40 MLOAD DUP1 SWAP2 SUB SWAP1 REVERT JUMPDEST PUSH0 JUMPDEST DUP5 DUP5 SWAP1 POP DUP2 LT ISZERO PUSH2 0x1A04 JUMPI DUP3 DUP3 DUP3 DUP2 DUP2 LT PUSH2 0x19AF JUMPI PUSH2 0x19AE PUSH2 0x4084 JUMP JUMPDEST JUMPDEST SWAP1 POP PUSH1 0x20 MUL ADD CALLDATALOAD PUSH1 0x10 PUSH0 DUP8 DUP8 DUP6 DUP2 DUP2 LT PUSH2 0x19CC JUMPI PUSH2 0x19CB PUSH2 0x4084 JUMP JUMPDEST JUMPDEST SWAP1 POP PUSH1 0x20 MUL ADD CALLDATALOAD DUP2 MSTORE PUSH1 0x20 ADD SWAP1 DUP2 MSTORE PUSH1 0x20 ADD PUSH0 KECCAK256 PUSH0 DUP9 DUP2 MSTORE PUSH1 0x20 ADD SWAP1 DUP2 MSTORE PUSH1 0x20 ADD PUSH0 KECCAK256 DUP2 SWAP1 SSTORE POP DUP1 PUSH2 0x19FD SWAP1 PUSH2 0x40DE JUMP JUMPDEST SWAP1 POP PUSH2 0x1991 JUMP JUMPDEST POP POP POP POP POP POP JUMP JUMPDEST PUSH2 0x1A14 PUSH2 0x24E9 JUMP JUMPDEST PUSH20 0xFFFFFFFFFFFFFFFFFFFFFFFFFFFFFFFFFFFFFFFF AND PUSH1 0xA PUSH0 SWAP1 SLOAD SWAP1 PUSH2 0x100 EXP SWAP1 DIV PUSH20 0xFFFFFFFFFFFFFFFFFFFFFFFFFFFFFFFFFFFFFFFF AND PUSH20 0xFFFFFFFFFFFFFFFFFFFFFFFFFFFFFFFFFFFFFFFF AND EQ PUSH2 0x1AA2 JUMPI PUSH1 0x40 MLOAD PUSH32 0x8C379A000000000000000000000000000000000000000000000000000000000 DUP2 MSTORE PUSH1 0x4 ADD PUSH2 0x1A99 SWAP1 PUSH2 0x41CC JUMP JUMPDEST PUSH1 0x40 MLOAD DUP1 SWAP2 SUB SWAP1 REVERT JUMPDEST DUP2 DUP2 PUSH1 0xE SWAP2 DUP3 PUSH2 0x1AB3 SWAP3 SWAP2 SWAP1 PUSH2 0x453C JUMP JUMPDEST POP POP POP JUMP JUMPDEST PUSH2 0x1ACA PUSH2 0x1AC3 PUSH2 0x24E9 JUMP JUMPDEST DUP4 DUP4 PUSH2 0x2638 JUMP JUMPDEST POP POP JUMP JUMPDEST PUSH2 0x1AD6 PUSH2 0x24E9 JUMP JUMPDEST PUSH20 0xFFFFFFFFFFFFFFFFFFFFFFFFFFFFFFFFFFFFFFFF AND PUSH1 0xA PUSH0 SWAP1 SLOAD SWAP1 PUSH2 0x100 EXP SWAP1 DIV PUSH20 0xFFFFFFFFFFFFFFFFFFFFFFFFFFFFFFFFFFFFFFFF AND PUSH20 0xFFFFFFFFFFFFFFFFFFFFFFFFFFFFFFFFFFFFFFFF AND EQ PUSH2 0x1B64 JUMPI PUSH1 0x40 MLOAD PUSH32 0x8C379A000000000000000000000000000000000000000000000000000000000 DUP2 MSTORE PUSH1 0x4 ADD PUSH2 0x1B5B SWAP1 PUSH2 0x41CC JUMP JUMPDEST PUSH1 0x40 MLOAD DUP1 SWAP2 SUB SWAP1 REVERT JUMPDEST PUSH0 PUSH1 0xB PUSH0 DUP4 PUSH20 0xFFFFFFFFFFFFFFFFFFFFFFFFFFFFFFFFFFFFFFFF AND PUSH20 0xFFFFFFFFFFFFFFFFFFFFFFFFFFFFFFFFFFFFFFFF AND DUP2 MSTORE PUSH1 0x20 ADD SWAP1 DUP2 MSTORE PUSH1 0x20 ADD PUSH0 KECCAK256 PUSH0 PUSH2 0x100 EXP DUP2 SLOAD DUP2 PUSH1 0xFF MUL NOT AND SWAP1 DUP4 ISZERO ISZERO MUL OR SWAP1 SSTORE POP POP JUMP JUMPDEST PUSH2 0x1BC6 DUP5 DUP5 DUP5 PUSH2 0xA77 JUMP JUMPDEST PUSH2 0x1BD2 DUP5 DUP5 DUP5 DUP5 PUSH2 0x27A1 JUMP JUMPDEST POP POP POP POP JUMP JUMPDEST PUSH1 0x11 DUP2 DUP2 SLOAD DUP2 LT PUSH2 0x1BE7 JUMPI PUSH0 DUP1 REVERT JUMPDEST SWAP1 PUSH0 MSTORE PUSH1 0x20 PUSH0 KECCAK256 ADD PUSH0 SWAP2 POP SWAP1 POP SLOAD DUP2 JUMP JUMPDEST PUSH1 0x60 PUSH2 0x1C03 DUP3 PUSH2 0x2435 JUMP JUMPDEST PUSH0 PUSH1 0xE PUSH2 0x1C0F DUP5 PUSH2 0x21D6 JUMP JUMPDEST PUSH1 0x40 MLOAD PUSH1 0x20 ADD PUSH2 0x1C20 SWAP3 SWAP2 SWAP1 PUSH2 0x4757 JUMP JUMPDEST PUSH1 0x40 MLOAD PUSH1 0x20 DUP2 DUP4 SUB SUB DUP2 MSTORE SWAP1 PUSH1 0x40 MSTORE SWAP1 POP PUSH0 JUMPDEST PUSH1 0x11 DUP1 SLOAD SWAP1 POP DUP2 LT ISZERO PUSH2 0x1CAC JUMPI DUP2 PUSH2 0x1C4A DUP3 PUSH2 0x21D6 JUMP JUMPDEST PUSH2 0x1C78 PUSH2 0x1C73 PUSH1 0x11 DUP6 DUP2 SLOAD DUP2 LT PUSH2 0x1C64 JUMPI PUSH2 0x1C63 PUSH2 0x4084 JUMP JUMPDEST JUMPDEST SWAP1 PUSH0 MSTORE PUSH1 0x20 PUSH0 KECCAK256 ADD SLOAD DUP9 PUSH2 0x1E5C JUMP JUMPDEST PUSH2 0x21D6 JUMP JUMPDEST PUSH1 0x40 MLOAD PUSH1 0x20 ADD PUSH2 0x1C8A SWAP4 SWAP3 SWAP2 SWAP1 PUSH2 0x4868 JUMP JUMPDEST PUSH1 0x40 MLOAD PUSH1 0x20 DUP2 DUP4 SUB SUB DUP2 MSTORE SWAP1 PUSH1 0x40 MSTORE SWAP2 POP DUP1 PUSH2 0x1CA5 SWAP1 PUSH2 0x40DE JUMP JUMPDEST SWAP1 POP PUSH2 0x1C33 JUMP JUMPDEST POP DUP1 SWAP2 POP POP SWAP2 SWAP1 POP JUMP JUMPDEST PUSH2 0x1CBE PUSH2 0x24E9 JUMP JUMPDEST PUSH20 0xFFFFFFFFFFFFFFFFFFFFFFFFFFFFFFFFFFFFFFFF AND PUSH1 0xA PUSH0 SWAP1 SLOAD SWAP1 PUSH2 0x100 EXP SWAP1 DIV PUSH20 0xFFFFFFFFFFFFFFFFFFFFFFFFFFFFFFFFFFFFFFFF AND PUSH20 0xFFFFFFFFFFFFFFFFFFFFFFFFFFFFFFFFFFFFFFFF AND EQ DUP1 PUSH2 0x1D65 JUMPI POP PUSH1 0xB PUSH0 PUSH2 0x1D1E PUSH2 0x24E9 JUMP JUMPDEST PUSH20 0xFFFFFFFFFFFFFFFFFFFFFFFFFFFFFFFFFFFFFFFF AND PUSH20 0xFFFFFFFFFFFFFFFFFFFFFFFFFFFFFFFFFFFFFFFF AND DUP2 MSTORE PUSH1 0x20 ADD SWAP1 DUP2 MSTORE PUSH1 0x20 ADD PUSH0 KECCAK256 PUSH0 SWAP1 SLOAD SWAP1 PUSH2 0x100 EXP SWAP1 DIV PUSH1 0xFF AND JUMPDEST PUSH2 0x1DA4 JUMPI PUSH1 0x40 MLOAD PUSH32 0x8C379A000000000000000000000000000000000000000000000000000000000 DUP2 MSTORE PUSH1 0x4 ADD PUSH2 0x1D9B SWAP1 PUSH2 0x4377 JUMP JUMPDEST PUSH1 0x40 MLOAD DUP1 SWAP2 SUB SWAP1 REVERT JUMPDEST DUP1 PUSH1 0x10 PUSH0 DUP5 DUP2 MSTORE PUSH1 0x20 ADD SWAP1 DUP2 MSTORE PUSH1 0x20 ADD PUSH0 KECCAK256 PUSH0 DUP6 DUP2 MSTORE PUSH1 0x20 ADD SWAP1 DUP2 MSTORE PUSH1 0x20 ADD PUSH0 KECCAK256 DUP2 SWAP1 SSTORE POP POP POP POP JUMP JUMPDEST PUSH0 PUSH1 0x5 PUSH0 DUP5 PUSH20 0xFFFFFFFFFFFFFFFFFFFFFFFFFFFFFFFFFFFFFFFF AND PUSH20 0xFFFFFFFFFFFFFFFFFFFFFFFFFFFFFFFFFFFFFFFF AND DUP2 MSTORE PUSH1 0x20 ADD SWAP1 DUP2 MSTORE PUSH1 0x20 ADD PUSH0 KECCAK256 PUSH0 DUP4 PUSH20 0xFFFFFFFFFFFFFFFFFFFFFFFFFFFFFFFFFFFFFFFF AND PUSH20 0xFFFFFFFFFFFFFFFFFFFFFFFFFFFFFFFFFFFFFFFF AND DUP2 MSTORE PUSH1 0x20 ADD SWAP1 DUP2 MSTORE PUSH1 0x20 ADD PUSH0 KECCAK256 PUSH0 SWAP1 SLOAD SWAP1 PUSH2 0x100 EXP SWAP1 DIV PUSH1 0xFF AND SWAP1 POP SWAP3 SWAP2 POP POP JUMP JUMPDEST PUSH0 PUSH1 0x10 PUSH0 DUP4 DUP2 MSTORE PUSH1 0x20 ADD SWAP1 DUP2 MSTORE PUSH1 0x20 ADD PUSH0 KECCAK256 PUSH0 DUP5 DUP2 MSTORE PUSH1 0x20 ADD SWAP1 DUP2 MSTORE PUSH1 0x20 ADD PUSH0 KECCAK256 SLOAD SWAP1 POP SWAP3 SWAP2 POP POP JUMP JUMPDEST PUSH2 0x1E8E PUSH2 0x24E9 JUMP JUMPDEST PUSH20 0xFFFFFFFFFFFFFFFFFFFFFFFFFFFFFFFFFFFFFFFF AND PUSH1 0xA PUSH0 SWAP1 SLOAD SWAP1 PUSH2 0x100 EXP SWAP1 DIV PUSH20 0xFFFFFFFFFFFFFFFFFFFFFFFFFFFFFFFFFFFFFFFF AND PUSH20 0xFFFFFFFFFFFFFFFFFFFFFFFFFFFFFFFFFFFFFFFF AND EQ PUSH2 0x1F1C JUMPI PUSH1 0x40 MLOAD PUSH32 0x8C379A000000000000000000000000000000000000000000000000000000000 DUP2 MSTORE PUSH1 0x4 ADD PUSH2 0x1F13 SWAP1 PUSH2 0x41CC JUMP JUMPDEST PUSH1 0x40 MLOAD DUP1 SWAP2 SUB SWAP1 REVERT JUMPDEST DUP1 PUSH1 0xF DUP2 SWAP1 SSTORE POP POP JUMP JUMPDEST PUSH2 0x1F2E PUSH2 0x24E9 JUMP JUMPDEST PUSH20 0xFFFFFFFFFFFFFFFFFFFFFFFFFFFFFFFFFFFFFFFF AND PUSH1 0xA PUSH0 SWAP1 SLOAD SWAP1 PUSH2 0x100 EXP SWAP1 DIV PUSH20 0xFFFFFFFFFFFFFFFFFFFFFFFFFFFFFFFFFFFFFFFF AND PUSH20 0xFFFFFFFFFFFFFFFFFFFFFFFFFFFFFFFFFFFFFFFF AND EQ PUSH2 0x1FBC JUMPI PUSH1 0x40 MLOAD PUSH32 0x8C379A000000000000000000000000000000000000000000000000000000000 DUP2 MSTORE PUSH1 0x4 ADD PUSH2 0x1FB3 SWAP1 PUSH2 0x41CC JUMP JUMPDEST PUSH1 0x40 MLOAD DUP1 SWAP2 SUB SWAP1 REVERT JUMPDEST PUSH0 PUSH20 0xFFFFFFFFFFFFFFFFFFFFFFFFFFFFFFFFFFFFFFFF AND DUP2 PUSH20 0xFFFFFFFFFFFFFFFFFFFFFFFFFFFFFFFFFFFFFFFF AND SUB PUSH2 0x202A JUMPI PUSH1 0x40 MLOAD PUSH32 0x8C379A000000000000000000000000000000000000000000000000000000000 DUP2 MSTORE PUSH1 0x4 ADD PUSH2 0x2021 SWAP1 PUSH2 0x4929 JUMP JUMPDEST PUSH1 0x40 MLOAD DUP1 SWAP2 SUB SWAP1 REVERT JUMPDEST DUP1 PUSH20 0xFFFFFFFFFFFFFFFFFFFFFFFFFFFFFFFFFFFFFFFF AND PUSH1 0xA PUSH0 SWAP1 SLOAD SWAP1 PUSH2 0x100 EXP SWAP1 DIV PUSH20 0xFFFFFFFFFFFFFFFFFFFFFFFFFFFFFFFFFFFFFFFF AND PUSH20 0xFFFFFFFFFFFFFFFFFFFFFFFFFFFFFFFFFFFFFFFF AND PUSH32 0x8BE0079C531659141344CD1FD0A4F28419497F9722A3DAAFE3B4186F6B6457E0 PUSH1 0x40 MLOAD PUSH1 0x40 MLOAD DUP1 SWAP2 SUB SWAP1 LOG3 DUP1 PUSH1 0xA PUSH0 PUSH2 0x100 EXP DUP2 SLOAD DUP2 PUSH20 0xFFFFFFFFFFFFFFFFFFFFFFFFFFFFFFFFFFFFFFFF MUL NOT AND SWAP1 DUP4 PUSH20 0xFFFFFFFFFFFFFFFFFFFFFFFFFFFFFFFFFFFFFFFF AND MUL OR SWAP1 SSTORE POP POP JUMP JUMPDEST PUSH1 0x60 PUSH0 DUP4 DUP4 SWAP1 POP PUSH8 0xFFFFFFFFFFFFFFFF DUP2 GT ISZERO PUSH2 0x2108 JUMPI PUSH2 0x2107 PUSH2 0x3D6E JUMP JUMPDEST JUMPDEST PUSH1 0x40 MLOAD SWAP1 DUP1 DUP3 MSTORE DUP1 PUSH1 0x20 MUL PUSH1 0x20 ADD DUP3 ADD PUSH1 0x40 MSTORE DUP1 ISZERO PUSH2 0x2136 JUMPI DUP2 PUSH1 0x20 ADD PUSH1 0x20 DUP3 MUL DUP1 CALLDATASIZE DUP4 CALLDATACOPY DUP1 DUP3 ADD SWAP2 POP POP SWAP1 POP JUMPDEST POP SWAP1 POP PUSH0 JUMPDEST DUP5 DUP5 SWAP1 POP DUP2 LT ISZERO PUSH2 0x21C9 JUMPI PUSH1 0x10 PUSH0 DUP7 DUP7 DUP5 DUP2 DUP2 LT PUSH2 0x215C JUMPI PUSH2 0x215B PUSH2 0x4084 JUMP JUMPDEST JUMPDEST SWAP1 POP PUSH1 0x20 MUL ADD CALLDATALOAD DUP2 MSTORE PUSH1 0x20 ADD SWAP1 DUP2 MSTORE PUSH1 0x20 ADD PUSH0 KECCAK256 PUSH0 DUP9 DUP9 DUP5 DUP2 DUP2 LT PUSH2 0x2184 JUMPI PUSH2 0x2183 PUSH2 0x4084 JUMP JUMPDEST JUMPDEST SWAP1 POP PUSH1 0x20 MUL ADD CALLDATALOAD DUP2 MSTORE PUSH1 0x20 ADD SWAP1 DUP2 MSTORE PUSH1 0x20 ADD PUSH0 KECCAK256 SLOAD DUP3 DUP3 DUP2 MLOAD DUP2 LT PUSH2 0x21AC JUMPI PUSH2 0x21AB PUSH2 0x4084 JUMP JUMPDEST JUMPDEST PUSH1 0x20 MUL PUSH1 0x20 ADD ADD DUP2 DUP2 MSTORE POP POP DUP1 PUSH2 0x21C2 SWAP1 PUSH2 0x40DE JUMP JUMPDEST SWAP1 POP PUSH2 0x213B JUMP JUMPDEST POP DUP1 SWAP2 POP POP SWAP5 SWAP4 POP POP POP POP JUMP JUMPDEST PUSH1 0x60 PUSH0 DUP3 SUB PUSH2 0x221C JUMPI PUSH1 0x40 MLOAD DUP1 PUSH1 0x40 ADD PUSH1 0x40 MSTORE DUP1 PUSH1 0x1 DUP2 MSTORE PUSH1 0x20 ADD PUSH32 0x3000000000000000000000000000000000000000000000000000000000000000 DUP2 MSTORE POP SWAP1 POP PUSH2 0x234F JUMP JUMPDEST PUSH0 DUP3 SWAP1 POP PUSH0 JUMPDEST PUSH0 DUP3 EQ PUSH2 0x224B JUMPI DUP1 DUP1 PUSH2 0x2234 SWAP1 PUSH2 0x40DE JUMP JUMPDEST SWAP2 POP POP PUSH1 0xA DUP3 PUSH2 0x2244 SWAP2 SWAP1 PUSH2 0x4974 JUMP JUMPDEST SWAP2 POP PUSH2 0x2222 JUMP JUMPDEST PUSH0 DUP2 PUSH8 0xFFFFFFFFFFFFFFFF DUP2 GT ISZERO PUSH2 0x2266 JUMPI PUSH2 0x2265 PUSH2 0x3D6E JUMP JUMPDEST JUMPDEST PUSH1 0x40 MLOAD SWAP1 DUP1 DUP3 MSTORE DUP1 PUSH1 0x1F ADD PUSH1 0x1F NOT AND PUSH1 0x20 ADD DUP3 ADD PUSH1 0x40 MSTORE DUP1 ISZERO PUSH2 0x2298 JUMPI DUP2 PUSH1 0x20 ADD PUSH1 0x1 DUP3 MUL DUP1 CALLDATASIZE DUP4 CALLDATACOPY DUP1 DUP3 ADD SWAP2 POP POP SWAP1 POP JUMPDEST POP SWAP1 POP PUSH0 DUP3 SWAP1 POP JUMPDEST PUSH0 DUP7 EQ PUSH2 0x2347 JUMPI PUSH1 0x1 DUP2 PUSH2 0x22B4 SWAP2 SWAP1 PUSH2 0x49A4 JUMP JUMPDEST SWAP1 POP PUSH0 PUSH1 0xA DUP1 DUP9 PUSH2 0x22C5 SWAP2 SWAP1 PUSH2 0x4974 JUMP JUMPDEST PUSH2 0x22CF SWAP2 SWAP1 PUSH2 0x49D7 JUMP JUMPDEST DUP8 PUSH2 0x22DA SWAP2 SWAP1 PUSH2 0x49A4 JUMP JUMPDEST PUSH1 0x30 PUSH2 0x22E6 SWAP2 SWAP1 PUSH2 0x4A24 JUMP JUMPDEST SWAP1 POP PUSH0 DUP2 PUSH1 0xF8 SHL SWAP1 POP DUP1 DUP5 DUP5 DUP2 MLOAD DUP2 LT PUSH2 0x2303 JUMPI PUSH2 0x2302 PUSH2 0x4084 JUMP JUMPDEST JUMPDEST PUSH1 0x20 ADD ADD SWAP1 PUSH31 0xFFFFFFFFFFFFFFFFFFFFFFFFFFFFFFFFFFFFFFFFFFFFFFFFFFFFFFFFFFFFFF NOT AND SWAP1 DUP2 PUSH0 BYTE SWAP1 MSTORE8 POP PUSH1 0xA DUP9 PUSH2 0x233E SWAP2 SWAP1 PUSH2 0x4974 JUMP JUMPDEST SWAP8 POP POP POP PUSH2 0x22A0 JUMP JUMPDEST DUP2 SWAP5 POP POP POP POP POP JUMPDEST SWAP2 SWAP1 POP JUMP JUMPDEST PUSH0 PUSH32 0x80AC58CD00000000000000000000000000000000000000000000000000000000 PUSH28 0xFFFFFFFFFFFFFFFFFFFFFFFFFFFFFFFFFFFFFFFFFFFFFFFFFFFFFFFF NOT AND DUP3 PUSH28 0xFFFFFFFFFFFFFFFFFFFFFFFFFFFFFFFFFFFFFFFFFFFFFFFFFFFFFFFF NOT AND EQ DUP1 PUSH2 0x241E JUMPI POP PUSH32 0x5B5E139F00000000000000000000000000000000000000000000000000000000 PUSH28 0xFFFFFFFFFFFFFFFFFFFFFFFFFFFFFFFFFFFFFFFFFFFFFFFFFFFFFFFF NOT AND DUP3 PUSH28 0xFFFFFFFFFFFFFFFFFFFFFFFFFFFFFFFFFFFFFFFFFFFFFFFFFFFFFFFF NOT AND EQ JUMPDEST DUP1 PUSH2 0x242E JUMPI POP PUSH2 0x242D DUP3 PUSH2 0x2953 JUMP JUMPDEST JUMPDEST SWAP1 POP SWAP2 SWAP1 POP JUMP JUMPDEST PUSH0 PUSH20 0xFFFFFFFFFFFFFFFFFFFFFFFFFFFFFFFFFFFFFFFF AND PUSH2 0x2455 DUP3 PUSH2 0x259D JUMP JUMPDEST PUSH20 0xFFFFFFFFFFFFFFFFFFFFFFFFFFFFFFFFFFFFFFFF AND SUB PUSH2 0x24AD JUMPI DUP1 PUSH1 0x40 MLOAD PUSH32 0x7E27328900000000000000000000000000000000000000000000000000000000 DUP2 MSTORE PUSH1 0x4 ADD PUSH2 0x24A4 SWAP2 SWAP1 PUSH2 0x39ED JUMP JUMPDEST PUSH1 0x40 MLOAD DUP1 SWAP2 SUB SWAP1 REVERT JUMPDEST POP JUMP JUMPDEST PUSH0 PUSH1 0x4 PUSH0 DUP4 DUP2 MSTORE PUSH1 0x20 ADD SWAP1 DUP2 MSTORE PUSH1 0x20 ADD PUSH0 KECCAK256 PUSH0 SWAP1 SLOAD SWAP1 PUSH2 0x100 EXP SWAP1 DIV PUSH20 0xFFFFFFFFFFFFFFFFFFFFFFFFFFFFFFFFFFFFFFFF AND SWAP1 POP SWAP2 SWAP1 POP JUMP JUMPDEST PUSH0 CALLER SWAP1 POP SWAP1 JUMP JUMPDEST PUSH2 0x24FD DUP4 DUP4 DUP4 PUSH1 0x1 PUSH2 0x29BC JUMP JUMPDEST POP POP POP JUMP JUMPDEST PUSH0 PUSH2 0x250B PUSH2 0x2B7B JUMP JUMPDEST PUSH2 0x2516 DUP5 DUP5 DUP5 PUSH2 0x2BBC JUMP JUMPDEST SWAP1 POP SWAP4 SWAP3 POP POP POP JUMP JUMPDEST PUSH2 0x2527 PUSH2 0x2CD6 JUMP JUMPDEST PUSH0 PUSH1 0xD PUSH0 PUSH2 0x100 EXP DUP2 SLOAD DUP2 PUSH1 0xFF MUL NOT AND SWAP1 DUP4 ISZERO ISZERO MUL OR SWAP1 SSTORE POP PUSH32 0x5DB9EE0A495BF2E6FF9C91A7834C1BA4FDD244A5E8AA4E537BD38AEAE4B073AA PUSH2 0x2569 PUSH2 0x24E9 JUMP JUMPDEST PUSH1 0x40 MLOAD PUSH2 0x2576 SWAP2 SWAP1 PUSH2 0x38BD JUMP JUMPDEST PUSH1 0x40 MLOAD DUP1 SWAP2 SUB SWAP1 LOG1 JUMP JUMPDEST PUSH2 0x2599 DUP3 DUP3 PUSH1 0x40 MLOAD DUP1 PUSH1 0x20 ADD PUSH1 0x40 MSTORE DUP1 PUSH0 DUP2 MSTORE POP PUSH2 0x2D16 JUMP JUMPDEST POP POP JUMP JUMPDEST PUSH0 PUSH1 0x2 PUSH0 DUP4 DUP2 MSTORE PUSH1 0x20 ADD SWAP1 DUP2 MSTORE PUSH1 0x20 ADD PUSH0 KECCAK256 PUSH0 SWAP1 SLOAD SWAP1 PUSH2 0x100 EXP SWAP1 DIV PUSH20 0xFFFFFFFFFFFFFFFFFFFFFFFFFFFFFFFFFFFFFFFF AND SWAP1 POP SWAP2 SWAP1 POP JUMP JUMPDEST PUSH2 0x25DE PUSH2 0x2B7B JUMP JUMPDEST PUSH1 0x1 PUSH1 0xD PUSH0 PUSH2 0x100 EXP DUP2 SLOAD DUP2 PUSH1 0xFF MUL NOT AND SWAP1 DUP4 ISZERO ISZERO MUL OR SWAP1 SSTORE POP PUSH32 0x62E78CEA01BEE320CD4E420270B5EA74000D11B0C9F74754EBDBFC544B05A258 PUSH2 0x2621 PUSH2 0x24E9 JUMP JUMPDEST PUSH1 0x40 MLOAD PUSH2 0x262E SWAP2 SWAP1 PUSH2 0x38BD JUMP JUMPDEST PUSH1 0x40 MLOAD DUP1 SWAP2 SUB SWAP1 LOG1 JUMP JUMPDEST PUSH0 PUSH20 0xFFFFFFFFFFFFFFFFFFFFFFFFFFFFFFFFFFFFFFFF AND DUP3 PUSH20 0xFFFFFFFFFFFFFFFFFFFFFFFFFFFFFFFFFFFFFFFF AND SUB PUSH2 0x26A8 JUMPI DUP2 PUSH1 0x40 MLOAD PUSH32 0x5B08BA1800000000000000000000000000000000000000000000000000000000 DUP2 MSTORE PUSH1 0x4 ADD PUSH2 0x269F SWAP2 SWAP1 PUSH2 0x38BD JUMP JUMPDEST PUSH1 0x40 MLOAD DUP1 SWAP2 SUB SWAP1 REVERT JUMPDEST DUP1 PUSH1 0x5 PUSH0 DUP6 PUSH20 0xFFFFFFFFFFFFFFFFFFFFFFFFFFFFFFFFFFFFFFFF AND PUSH20 0xFFFFFFFFFFFFFFFFFFFFFFFFFFFFFFFFFFFFFFFF AND DUP2 MSTORE PUSH1 0x20 ADD SWAP1 DUP2 MSTORE PUSH1 0x20 ADD PUSH0 KECCAK256 PUSH0 DUP5 PUSH20 0xFFFFFFFFFFFFFFFFFFFFFFFFFFFFFFFFFFFFFFFF AND PUSH20 0xFFFFFFFFFFFFFFFFFFFFFFFFFFFFFFFFFFFFFFFF AND DUP2 MSTORE PUSH1 0x20 ADD SWAP1 DUP2 MSTORE PUSH1 0x20 ADD PUSH0 KECCAK256 PUSH0 PUSH2 0x100 EXP DUP2 SLOAD DUP2 PUSH1 0xFF MUL NOT AND SWAP1 DUP4 ISZERO ISZERO MUL OR SWAP1 SSTORE POP DUP2 PUSH20 0xFFFFFFFFFFFFFFFFFFFFFFFFFFFFFFFFFFFFFFFF AND DUP4 PUSH20 0xFFFFFFFFFFFFFFFFFFFFFFFFFFFFFFFFFFFFFFFF AND PUSH32 0x17307EAB39AB6107E8899845AD3D59BD9653F200F220920489CA2B5937696C31 DUP4 PUSH1 0x40 MLOAD PUSH2 0x2794 SWAP2 SWAP1 PUSH2 0x3595 JUMP JUMPDEST PUSH1 0x40 MLOAD DUP1 SWAP2 SUB SWAP1 LOG3 POP POP POP JUMP JUMPDEST PUSH0 DUP4 PUSH20 0xFFFFFFFFFFFFFFFFFFFFFFFFFFFFFFFFFFFFFFFF AND EXTCODESIZE GT ISZERO PUSH2 0x294D JUMPI DUP3 PUSH20 0xFFFFFFFFFFFFFFFFFFFFFFFFFFFFFFFFFFFFFFFF AND PUSH4 0x150B7A02 PUSH2 0x27E4 PUSH2 0x24E9 JUMP JUMPDEST DUP7 DUP6 DUP6 PUSH1 0x40 MLOAD DUP6 PUSH4 0xFFFFFFFF AND PUSH1 0xE0 SHL DUP2 MSTORE PUSH1 0x4 ADD PUSH2 0x2806 SWAP5 SWAP4 SWAP3 SWAP2 SWAP1 PUSH2 0x4AA0 JUMP JUMPDEST PUSH1 0x20 PUSH1 0x40 MLOAD DUP1 DUP4 SUB DUP2 PUSH0 DUP8 GAS CALL SWAP3 POP POP POP DUP1 ISZERO PUSH2 0x2841 JUMPI POP PUSH1 0x40 MLOAD RETURNDATASIZE PUSH1 0x1F NOT PUSH1 0x1F DUP3 ADD AND DUP3 ADD DUP1 PUSH1 0x40 MSTORE POP DUP2 ADD SWAP1 PUSH2 0x283E SWAP2 SWAP1 PUSH2 0x4AFE JUMP JUMPDEST PUSH1 0x1 JUMPDEST PUSH2 0x28C2 JUMPI RETURNDATASIZE DUP1 PUSH0 DUP2 EQ PUSH2 0x286F JUMPI PUSH1 0x40 MLOAD SWAP2 POP PUSH1 0x1F NOT PUSH1 0x3F RETURNDATASIZE ADD AND DUP3 ADD PUSH1 0x40 MSTORE RETURNDATASIZE DUP3 MSTORE RETURNDATASIZE PUSH0 PUSH1 0x20 DUP5 ADD RETURNDATACOPY PUSH2 0x2874 JUMP JUMPDEST PUSH1 0x60 SWAP2 POP JUMPDEST POP PUSH0 DUP2 MLOAD SUB PUSH2 0x28BA JUMPI DUP4 PUSH1 0x40 MLOAD PUSH32 0x64A0AE9200000000000000000000000000000000000000000000000000000000 DUP2 MSTORE PUSH1 0x4 ADD PUSH2 0x28B1 SWAP2 SWAP1 PUSH2 0x38BD JUMP JUMPDEST PUSH1 0x40 MLOAD DUP1 SWAP2 SUB SWAP1 REVERT JUMPDEST DUP1 MLOAD DUP2 PUSH1 0x20 ADD REVERT JUMPDEST PUSH4 0x150B7A02 PUSH1 0xE0 SHL PUSH28 0xFFFFFFFFFFFFFFFFFFFFFFFFFFFFFFFFFFFFFFFFFFFFFFFFFFFFFFFF NOT AND DUP2 PUSH28 0xFFFFFFFFFFFFFFFFFFFFFFFFFFFFFFFFFFFFFFFFFFFFFFFFFFFFFFFF NOT AND EQ PUSH2 0x294B JUMPI DUP4 PUSH1 0x40 MLOAD PUSH32 0x64A0AE9200000000000000000000000000000000000000000000000000000000 DUP2 MSTORE PUSH1 0x4 ADD PUSH2 0x2942 SWAP2 SWAP1 PUSH2 0x38BD JUMP JUMPDEST PUSH1 0x40 MLOAD DUP1 SWAP2 SUB SWAP1 REVERT JUMPDEST POP JUMPDEST POP POP POP POP JUMP JUMPDEST PUSH0 PUSH32 0x1FFC9A700000000000000000000000000000000000000000000000000000000 PUSH28 0xFFFFFFFFFFFFFFFFFFFFFFFFFFFFFFFFFFFFFFFFFFFFFFFFFFFFFFFF NOT AND DUP3 PUSH28 0xFFFFFFFFFFFFFFFFFFFFFFFFFFFFFFFFFFFFFFFFFFFFFFFFFFFFFFFF NOT AND EQ SWAP1 POP SWAP2 SWAP1 POP JUMP JUMPDEST DUP1 DUP1 PUSH2 0x29F4 JUMPI POP PUSH0 PUSH20 0xFFFFFFFFFFFFFFFFFFFFFFFFFFFFFFFFFFFFFFFF AND DUP3 PUSH20 0xFFFFFFFFFFFFFFFFFFFFFFFFFFFFFFFFFFFFFFFF AND EQ ISZERO JUMPDEST ISZERO PUSH2 0x2B26 JUMPI PUSH0 PUSH2 0x2A03 DUP5 PUSH2 0x10DD JUMP JUMPDEST SWAP1 POP PUSH0 PUSH20 0xFFFFFFFFFFFFFFFFFFFFFFFFFFFFFFFFFFFFFFFF AND DUP4 PUSH20 0xFFFFFFFFFFFFFFFFFFFFFFFFFFFFFFFFFFFFFFFF AND EQ ISZERO DUP1 ISZERO PUSH2 0x2A6D JUMPI POP DUP3 PUSH20 0xFFFFFFFFFFFFFFFFFFFFFFFFFFFFFFFFFFFFFFFF AND DUP2 PUSH20 0xFFFFFFFFFFFFFFFFFFFFFFFFFFFFFFFFFFFFFFFF AND EQ ISZERO JUMPDEST DUP1 ISZERO PUSH2 0x2A80 JUMPI POP PUSH2 0x2A7E DUP2 DUP5 PUSH2 0x1DCE JUMP JUMPDEST ISZERO JUMPDEST ISZERO PUSH2 0x2AC2 JUMPI DUP3 PUSH1 0x40 MLOAD PUSH32 0xA9FBF51F00000000000000000000000000000000000000000000000000000000 DUP2 MSTORE PUSH1 0x4 ADD PUSH2 0x2AB9 SWAP2 SWAP1 PUSH2 0x38BD JUMP JUMPDEST PUSH1 0x40 MLOAD DUP1 SWAP2 SUB SWAP1 REVERT JUMPDEST DUP2 ISZERO PUSH2 0x2B24 JUMPI DUP4 DUP6 PUSH20 0xFFFFFFFFFFFFFFFFFFFFFFFFFFFFFFFFFFFFFFFF AND DUP3 PUSH20 0xFFFFFFFFFFFFFFFFFFFFFFFFFFFFFFFFFFFFFFFF AND PUSH32 0x8C5BE1E5EBEC7D5BD14F71427D1E84F3DD0314C0F7B2291E5B200AC8C7C3B925 PUSH1 0x40 MLOAD PUSH1 0x40 MLOAD DUP1 SWAP2 SUB SWAP1 LOG4 JUMPDEST POP JUMPDEST DUP4 PUSH1 0x4 PUSH0 DUP6 DUP2 MSTORE PUSH1 0x20 ADD SWAP1 DUP2 MSTORE PUSH1 0x20 ADD PUSH0 KECCAK256 PUSH0 PUSH2 0x100 EXP DUP2 SLOAD DUP2 PUSH20 0xFFFFFFFFFFFFFFFFFFFFFFFFFFFFFFFFFFFFFFFF MUL NOT AND SWAP1 DUP4 PUSH20 0xFFFFFFFFFFFFFFFFFFFFFFFFFFFFFFFFFFFFFFFF AND MUL OR SWAP1 SSTORE POP POP POP POP POP JUMP JUMPDEST PUSH2 0x2B83 PUSH2 0x10C8 JUMP JUMPDEST ISZERO PUSH2 0x2BBA JUMPI PUSH1 0x40 MLOAD PUSH32 0xD93C066500000000000000000000000000000000000000000000000000000000 DUP2 MSTORE PUSH1 0x4 ADD PUSH1 0x40 MLOAD DUP1 SWAP2 SUB SWAP1 REVERT JUMPDEST JUMP JUMPDEST PUSH0 DUP1 PUSH2 0x2BC9 DUP6 DUP6 DUP6 PUSH2 0x2D31 JUMP JUMPDEST SWAP1 POP PUSH0 PUSH20 0xFFFFFFFFFFFFFFFFFFFFFFFFFFFFFFFFFFFFFFFF AND DUP2 PUSH20 0xFFFFFFFFFFFFFFFFFFFFFFFFFFFFFFFFFFFFFFFF AND SUB PUSH2 0x2C0C JUMPI PUSH2 0x2C07 DUP5 PUSH2 0x2F3C JUMP JUMPDEST PUSH2 0x2C4B JUMP JUMPDEST DUP5 PUSH20 0xFFFFFFFFFFFFFFFFFFFFFFFFFFFFFFFFFFFFFFFF AND DUP2 PUSH20 0xFFFFFFFFFFFFFFFFFFFFFFFFFFFFFFFFFFFFFFFF AND EQ PUSH2 0x2C4A JUMPI PUSH2 0x2C49 DUP2 DUP6 PUSH2 0x2F80 JUMP JUMPDEST JUMPDEST JUMPDEST PUSH0 PUSH20 0xFFFFFFFFFFFFFFFFFFFFFFFFFFFFFFFFFFFFFFFF AND DUP6 PUSH20 0xFFFFFFFFFFFFFFFFFFFFFFFFFFFFFFFFFFFFFFFF AND SUB PUSH2 0x2C8C JUMPI PUSH2 0x2C87 DUP5 PUSH2 0x30CA JUMP JUMPDEST PUSH2 0x2CCB JUMP JUMPDEST DUP5 PUSH20 0xFFFFFFFFFFFFFFFFFFFFFFFFFFFFFFFFFFFFFFFF AND DUP2 PUSH20 0xFFFFFFFFFFFFFFFFFFFFFFFFFFFFFFFFFFFFFFFF AND EQ PUSH2 0x2CCA JUMPI PUSH2 0x2CC9 DUP6 DUP6 PUSH2 0x318A JUMP JUMPDEST JUMPDEST JUMPDEST DUP1 SWAP2 POP POP SWAP4 SWAP3 POP POP POP JUMP JUMPDEST PUSH2 0x2CDE PUSH2 0x10C8 JUMP JUMPDEST PUSH2 0x2D14 JUMPI PUSH1 0x40 MLOAD PUSH32 0x8DFC202B00000000000000000000000000000000000000000000000000000000 DUP2 MSTORE PUSH1 0x4 ADD PUSH1 0x40 MLOAD DUP1 SWAP2 SUB SWAP1 REVERT JUMPDEST JUMP JUMPDEST PUSH2 0x2D20 DUP4 DUP4 PUSH2 0x320E JUMP JUMPDEST PUSH2 0x2D2C PUSH0 DUP5 DUP5 DUP5 PUSH2 0x27A1 JUMP JUMPDEST POP POP POP JUMP JUMPDEST PUSH0 DUP1 PUSH2 0x2D3C DUP5 PUSH2 0x259D JUMP JUMPDEST SWAP1 POP PUSH0 PUSH20 0xFFFFFFFFFFFFFFFFFFFFFFFFFFFFFFFFFFFFFFFF AND DUP4 PUSH20 0xFFFFFFFFFFFFFFFFFFFFFFFFFFFFFFFFFFFFFFFF AND EQ PUSH2 0x2D7D JUMPI PUSH2 0x2D7C DUP2 DUP5 DUP7 PUSH2 0x3301 JUMP JUMPDEST JUMPDEST PUSH0 PUSH20 0xFFFFFFFFFFFFFFFFFFFFFFFFFFFFFFFFFFFFFFFF AND DUP2 PUSH20 0xFFFFFFFFFFFFFFFFFFFFFFFFFFFFFFFFFFFFFFFF AND EQ PUSH2 0x2E08 JUMPI PUSH2 0x2DBC PUSH0 DUP6 PUSH0 DUP1 PUSH2 0x29BC JUMP JUMPDEST PUSH1 0x1 PUSH1 0x3 PUSH0 DUP4 PUSH20 0xFFFFFFFFFFFFFFFFFFFFFFFFFFFFFFFFFFFFFFFF AND PUSH20 0xFFFFFFFFFFFFFFFFFFFFFFFFFFFFFFFFFFFFFFFF AND DUP2 MSTORE PUSH1 0x20 ADD SWAP1 DUP2 MSTORE PUSH1 0x20 ADD PUSH0 KECCAK256 PUSH0 DUP3 DUP3 SLOAD SUB SWAP3 POP POP DUP2 SWAP1 SSTORE POP JUMPDEST PUSH0 PUSH20 0xFFFFFFFFFFFFFFFFFFFFFFFFFFFFFFFFFFFFFFFF AND DUP6 PUSH20 0xFFFFFFFFFFFFFFFFFFFFFFFFFFFFFFFFFFFFFFFF AND EQ PUSH2 0x2E87 JUMPI PUSH1 0x1 PUSH1 0x3 PUSH0 DUP8 PUSH20 0xFFFFFFFFFFFFFFFFFFFFFFFFFFFFFFFFFFFFFFFF AND PUSH20 0xFFFFFFFFFFFFFFFFFFFFFFFFFFFFFFFFFFFFFFFF AND DUP2 MSTORE PUSH1 0x20 ADD SWAP1 DUP2 MSTORE PUSH1 0x20 ADD PUSH0 KECCAK256 PUSH0 DUP3 DUP3 SLOAD ADD SWAP3 POP POP DUP2 SWAP1 SSTORE POP JUMPDEST DUP5 PUSH1 0x2 PUSH0 DUP7 DUP2 MSTORE PUSH1 0x20 ADD SWAP1 DUP2 MSTORE PUSH1 0x20 ADD PUSH0 KECCAK256 PUSH0 PUSH2 0x100 EXP DUP2 SLOAD DUP2 PUSH20 0xFFFFFFFFFFFFFFFFFFFFFFFFFFFFFFFFFFFFFFFF MUL NOT AND SWAP1 DUP4 PUSH20 0xFFFFFFFFFFFFFFFFFFFFFFFFFFFFFFFFFFFFFFFF AND MUL OR SWAP1 SSTORE POP DUP4 DUP6 PUSH20 0xFFFFFFFFFFFFFFFFFFFFFFFFFFFFFFFFFFFFFFFF AND DUP3 PUSH20 0xFFFFFFFFFFFFFFFFFFFFFFFFFFFFFFFFFFFFFFFF AND PUSH32 0xDDF252AD1BE2C89B69C2B068FC378DAA952BA7F163C4A11628F55A4DF523B3EF PUSH1 0x40 MLOAD PUSH1 0x40 MLOAD DUP1 SWAP2 SUB SWAP1 LOG4 DUP1 SWAP2 POP POP SWAP4 SWAP3 POP POP POP JUMP JUMPDEST PUSH1 0x8 DUP1 SLOAD SWAP1 POP PUSH1 0x9 PUSH0 DUP4 DUP2 MSTORE PUSH1 0x20 ADD SWAP1 DUP2 MSTORE PUSH1 0x20 ADD PUSH0 KECCAK256 DUP2 SWAP1 SSTORE POP PUSH1 0x8 DUP2 SWAP1 DUP1 PUSH1 0x1 DUP2 SLOAD ADD DUP1 DUP3 SSTORE DUP1 SWAP2 POP POP PUSH1 0x1 SWAP1 SUB SWAP1 PUSH0 MSTORE PUSH1 0x20 PUSH0 KECCAK256 ADD PUSH0 SWAP1 SWAP2 SWAP1 SWAP2 SWAP1 SWAP2 POP SSTORE POP JUMP JUMPDEST PUSH0 PUSH2 0x2F8A DUP4 PUSH2 0x12CD JUMP JUMPDEST SWAP1 POP PUSH0 PUSH1 0x7 PUSH0 DUP5 DUP2 MSTORE PUSH1 0x20 ADD SWAP1 DUP2 MSTORE PUSH1 0x20 ADD PUSH0 KECCAK256 SLOAD SWAP1 POP DUP2 DUP2 EQ PUSH2 0x3061 JUMPI PUSH0 PUSH1 0x6 PUSH0 DUP7 PUSH20 0xFFFFFFFFFFFFFFFFFFFFFFFFFFFFFFFFFFFFFFFF AND PUSH20 0xFFFFFFFFFFFFFFFFFFFFFFFFFFFFFFFFFFFFFFFF AND DUP2 MSTORE PUSH1 0x20 ADD SWAP1 DUP2 MSTORE PUSH1 0x20 ADD PUSH0 KECCAK256 PUSH0 DUP5 DUP2 MSTORE PUSH1 0x20 ADD SWAP1 DUP2 MSTORE PUSH1 0x20 ADD PUSH0 KECCAK256 SLOAD SWAP1 POP DUP1 PUSH1 0x6 PUSH0 DUP8 PUSH20 0xFFFFFFFFFFFFFFFFFFFFFFFFFFFFFFFFFFFFFFFF AND PUSH20 0xFFFFFFFFFFFFFFFFFFFFFFFFFFFFFFFFFFFFFFFF AND DUP2 MSTORE PUSH1 0x20 ADD SWAP1 DUP2 MSTORE PUSH1 0x20 ADD PUSH0 KECCAK256 PUSH0 DUP5 DUP2 MSTORE PUSH1 0x20 ADD SWAP1 DUP2 MSTORE PUSH1 0x20 ADD PUSH0 KECCAK256 DUP2 SWAP1 SSTORE POP DUP2 PUSH1 0x7 PUSH0 DUP4 DUP2 MSTORE PUSH1 0x20 ADD SWAP1 DUP2 MSTORE PUSH1 0x20 ADD PUSH0 KECCAK256 DUP2 SWAP1 SSTORE POP POP JUMPDEST PUSH1 0x7 PUSH0 DUP5 DUP2 MSTORE PUSH1 0x20 ADD SWAP1 DUP2 MSTORE PUSH1 0x20 ADD PUSH0 KECCAK256 PUSH0 SWAP1 SSTORE PUSH1 0x6 PUSH0 DUP6 PUSH20 0xFFFFFFFFFFFFFFFFFFFFFFFFFFFFFFFFFFFFFFFF AND PUSH20 0xFFFFFFFFFFFFFFFFFFFFFFFFFFFFFFFFFFFFFFFF AND DUP2 MSTORE PUSH1 0x20 ADD SWAP1 DUP2 MSTORE PUSH1 0x20 ADD PUSH0 KECCAK256 PUSH0 DUP4 DUP2 MSTORE PUSH1 0x20 ADD SWAP1 DUP2 MSTORE PUSH1 0x20 ADD PUSH0 KECCAK256 PUSH0 SWAP1 SSTORE POP POP POP POP JUMP JUMPDEST PUSH0 PUSH1 0x1 PUSH1 0x8 DUP1 SLOAD SWAP1 POP PUSH2 0x30DD SWAP2 SWAP1 PUSH2 0x49A4 JUMP JUMPDEST SWAP1 POP PUSH0 PUSH1 0x9 PUSH0 DUP5 DUP2 MSTORE PUSH1 0x20 ADD SWAP1 DUP2 MSTORE PUSH1 0x20 ADD PUSH0 KECCAK256 SLOAD SWAP1 POP PUSH0 PUSH1 0x8 DUP4 DUP2 SLOAD DUP2 LT PUSH2 0x3109 JUMPI PUSH2 0x3108 PUSH2 0x4084 JUMP JUMPDEST JUMPDEST SWAP1 PUSH0 MSTORE PUSH1 0x20 PUSH0 KECCAK256 ADD SLOAD SWAP1 POP DUP1 PUSH1 0x8 DUP4 DUP2 SLOAD DUP2 LT PUSH2 0x3129 JUMPI PUSH2 0x3128 PUSH2 0x4084 JUMP JUMPDEST JUMPDEST SWAP1 PUSH0 MSTORE PUSH1 0x20 PUSH0 KECCAK256 ADD DUP2 SWAP1 SSTORE POP DUP2 PUSH1 0x9 PUSH0 DUP4 DUP2 MSTORE PUSH1 0x20 ADD SWAP1 DUP2 MSTORE PUSH1 0x20 ADD PUSH0 KECCAK256 DUP2 SWAP1 SSTORE POP PUSH1 0x9 PUSH0 DUP6 DUP2 MSTORE PUSH1 0x20 ADD SWAP1 DUP2 MSTORE PUSH1 0x20 ADD PUSH0 KECCAK256 PUSH0 SWAP1 SSTORE PUSH1 0x8 DUP1 SLOAD DUP1 PUSH2 0x3171 JUMPI PUSH2 0x3170 PUSH2 0x4B29 JUMP JUMPDEST JUMPDEST PUSH1 0x1 SWAP1 SUB DUP2 DUP2 SWAP1 PUSH0 MSTORE PUSH1 0x20 PUSH0 KECCAK256 ADD PUSH0 SWAP1 SSTORE SWAP1 SSTORE POP POP POP POP JUMP JUMPDEST PUSH0 PUSH1 0x1 PUSH2 0x3196 DUP5 PUSH2 0x12CD JUMP JUMPDEST PUSH2 0x31A0 SWAP2 SWAP1 PUSH2 0x49A4 JUMP JUMPDEST SWAP1 POP DUP2 PUSH1 0x6 PUSH0 DUP6 PUSH20 0xFFFFFFFFFFFFFFFFFFFFFFFFFFFFFFFFFFFFFFFF AND PUSH20 0xFFFFFFFFFFFFFFFFFFFFFFFFFFFFFFFFFFFFFFFF AND DUP2 MSTORE PUSH1 0x20 ADD SWAP1 DUP2 MSTORE PUSH1 0x20 ADD PUSH0 KECCAK256 PUSH0 DUP4 DUP2 MSTORE PUSH1 0x20 ADD SWAP1 DUP2 MSTORE PUSH1 0x20 ADD PUSH0 KECCAK256 DUP2 SWAP1 SSTORE POP DUP1 PUSH1 0x7 PUSH0 DUP5 DUP2 MSTORE PUSH1 0x20 ADD SWAP1 DUP2 MSTORE PUSH1 0x20 ADD PUSH0 KECCAK256 DUP2 SWAP1 SSTORE POP POP POP POP JUMP JUMPDEST PUSH0 PUSH20 0xFFFFFFFFFFFFFFFFFFFFFFFFFFFFFFFFFFFFFFFF AND DUP3 PUSH20 0xFFFFFFFFFFFFFFFFFFFFFFFFFFFFFFFFFFFFFFFF AND SUB PUSH2 0x327E JUMPI PUSH0 PUSH1 0x40 MLOAD PUSH32 0x64A0AE9200000000000000000000000000000000000000000000000000000000 DUP2 MSTORE PUSH1 0x4 ADD PUSH2 0x3275 SWAP2 SWAP1 PUSH2 0x38BD JUMP JUMPDEST PUSH1 0x40 MLOAD DUP1 SWAP2 SUB SWAP1 REVERT JUMPDEST PUSH0 PUSH2 0x328A DUP4 DUP4 PUSH0 PUSH2 0x2502 JUMP JUMPDEST SWAP1 POP PUSH0 PUSH20 0xFFFFFFFFFFFFFFFFFFFFFFFFFFFFFFFFFFFFFFFF AND DUP2 PUSH20 0xFFFFFFFFFFFFFFFFFFFFFFFFFFFFFFFFFFFFFFFF AND EQ PUSH2 0x32FC JUMPI PUSH0 PUSH1 0x40 MLOAD PUSH32 0x73C6AC6E00000000000000000000000000000000000000000000000000000000 DUP2 MSTORE PUSH1 0x4 ADD PUSH2 0x32F3 SWAP2 SWAP1 PUSH2 0x38BD JUMP JUMPDEST PUSH1 0x40 MLOAD DUP1 SWAP2 SUB SWAP1 REVERT JUMPDEST POP POP POP JUMP JUMPDEST PUSH2 0x330C DUP4 DUP4 DUP4 PUSH2 0x33C4 JUMP JUMPDEST PUSH2 0x33BF JUMPI PUSH0 PUSH20 0xFFFFFFFFFFFFFFFFFFFFFFFFFFFFFFFFFFFFFFFF AND DUP4 PUSH20 0xFFFFFFFFFFFFFFFFFFFFFFFFFFFFFFFFFFFFFFFF AND SUB PUSH2 0x3380 JUMPI DUP1 PUSH1 0x40 MLOAD PUSH32 0x7E27328900000000000000000000000000000000000000000000000000000000 DUP2 MSTORE PUSH1 0x4 ADD PUSH2 0x3377 SWAP2 SWAP1 PUSH2 0x39ED JUMP JUMPDEST PUSH1 0x40 MLOAD DUP1 SWAP2 SUB SWAP1 REVERT JUMPDEST DUP2 DUP2 PUSH1 0x40 MLOAD PUSH32 0x177E802F00000000000000000000000000000000000000000000000000000000 DUP2 MSTORE PUSH1 0x4 ADD PUSH2 0x33B6 SWAP3 SWAP2 SWAP1 PUSH2 0x421F JUMP JUMPDEST PUSH1 0x40 MLOAD DUP1 SWAP2 SUB SWAP1 REVERT JUMPDEST POP POP POP JUMP JUMPDEST PUSH0 DUP1 PUSH20 0xFFFFFFFFFFFFFFFFFFFFFFFFFFFFFFFFFFFFFFFF AND DUP4 PUSH20 0xFFFFFFFFFFFFFFFFFFFFFFFFFFFFFFFFFFFFFFFF AND EQ ISZERO DUP1 ISZERO PUSH2 0x347B JUMPI POP DUP3 PUSH20 0xFFFFFFFFFFFFFFFFFFFFFFFFFFFFFFFFFFFFFFFF AND DUP5 PUSH20 0xFFFFFFFFFFFFFFFFFFFFFFFFFFFFFFFFFFFFFFFF AND EQ DUP1 PUSH2 0x343C JUMPI POP PUSH2 0x343B DUP5 DUP5 PUSH2 0x1DCE JUMP JUMPDEST JUMPDEST DUP1 PUSH2 0x347A JUMPI POP DUP3 PUSH20 0xFFFFFFFFFFFFFFFFFFFFFFFFFFFFFFFFFFFFFFFF AND PUSH2 0x3462 DUP4 PUSH2 0x24B0 JUMP JUMPDEST PUSH20 0xFFFFFFFFFFFFFFFFFFFFFFFFFFFFFFFFFFFFFFFF AND EQ JUMPDEST JUMPDEST SWAP1 POP SWAP4 SWAP3 POP POP POP JUMP JUMPDEST DUP3 DUP1 SLOAD DUP3 DUP3 SSTORE SWAP1 PUSH0 MSTORE PUSH1 0x20 PUSH0 KECCAK256 SWAP1 DUP2 ADD SWAP3 DUP3 ISZERO PUSH2 0x34BE JUMPI SWAP2 PUSH1 0x20 MUL DUP3 ADD JUMPDEST DUP3 DUP2 GT ISZERO PUSH2 0x34BD JUMPI DUP3 CALLDATALOAD DUP3 SSTORE SWAP2 PUSH1 0x20 ADD SWAP2 SWAP1 PUSH1 0x1 ADD SWAP1 PUSH2 0x34A2 JUMP JUMPDEST JUMPDEST POP SWAP1 POP PUSH2 0x34CB SWAP2 SWAP1 PUSH2 0x34CF JUMP JUMPDEST POP SWAP1 JUMP JUMPDEST JUMPDEST DUP1 DUP3 GT ISZERO PUSH2 0x34E6 JUMPI PUSH0 DUP2 PUSH0 SWAP1 SSTORE POP PUSH1 0x1 ADD PUSH2 0x34D0 JUMP JUMPDEST POP SWAP1 JUMP JUMPDEST PUSH0 PUSH1 0x40 MLOAD SWAP1 POP SWAP1 JUMP JUMPDEST PUSH0 DUP1 REVERT JUMPDEST PUSH0 DUP1 REVERT JUMPDEST PUSH0 PUSH32 0xFFFFFFFF00000000000000000000000000000000000000000000000000000000 DUP3 AND SWAP1 POP SWAP2 SWAP1 POP JUMP JUMPDEST PUSH2 0x352F DUP2 PUSH2 0x34FB JUMP JUMPDEST DUP2 EQ PUSH2 0x3539 JUMPI PUSH0 DUP1 REVERT JUMPDEST POP JUMP JUMPDEST PUSH0 DUP2 CALLDATALOAD SWAP1 POP PUSH2 0x354A DUP2 PUSH2 0x3526 JUMP JUMPDEST SWAP3 SWAP2 POP POP JUMP JUMPDEST PUSH0 PUSH1 0x20 DUP3 DUP5 SUB SLT ISZERO PUSH2 0x3565 JUMPI PUSH2 0x3564 PUSH2 0x34F3 JUMP JUMPDEST JUMPDEST PUSH0 PUSH2 0x3572 DUP5 DUP3 DUP6 ADD PUSH2 0x353C JUMP JUMPDEST SWAP2 POP POP SWAP3 SWAP2 POP POP JUMP JUMPDEST PUSH0 DUP2 ISZERO ISZERO SWAP1 POP SWAP2 SWAP1 POP JUMP JUMPDEST PUSH2 0x358F DUP2 PUSH2 0x357B JUMP JUMPDEST DUP3 MSTORE POP POP JUMP JUMPDEST PUSH0 PUSH1 0x20 DUP3 ADD SWAP1 POP PUSH2 0x35A8 PUSH0 DUP4 ADD DUP5 PUSH2 0x3586 JUMP JUMPDEST SWAP3 SWAP2 POP POP JUMP JUMPDEST PUSH0 DUP2 SWAP1 POP SWAP2 SWAP1 POP JUMP JUMPDEST PUSH2 0x35C0 DUP2 PUSH2 0x35AE JUMP JUMPDEST DUP2 EQ PUSH2 0x35CA JUMPI PUSH0 DUP1 REVERT JUMPDEST POP JUMP JUMPDEST PUSH0 DUP2 CALLDATALOAD SWAP1 POP PUSH2 0x35DB DUP2 PUSH2 0x35B7 JUMP JUMPDEST SWAP3 SWAP2 POP POP JUMP JUMPDEST PUSH0 DUP1 REVERT JUMPDEST PUSH0 DUP1 REVERT JUMPDEST PUSH0 DUP1 REVERT JUMPDEST PUSH0 DUP1 DUP4 PUSH1 0x1F DUP5 ADD SLT PUSH2 0x3602 JUMPI PUSH2 0x3601 PUSH2 0x35E1 JUMP JUMPDEST JUMPDEST DUP3 CALLDATALOAD SWAP1 POP PUSH8 0xFFFFFFFFFFFFFFFF DUP2 GT ISZERO PUSH2 0x361F JUMPI PUSH2 0x361E PUSH2 0x35E5 JUMP JUMPDEST JUMPDEST PUSH1 0x20 DUP4 ADD SWAP2 POP DUP4 PUSH1 0x20 DUP3 MUL DUP4 ADD GT ISZERO PUSH2 0x363B JUMPI PUSH2 0x363A PUSH2 0x35E9 JUMP JUMPDEST JUMPDEST SWAP3 POP SWAP3 SWAP1 POP JUMP JUMPDEST PUSH0 DUP1 PUSH0 PUSH1 0x40 DUP5 DUP7 SUB SLT ISZERO PUSH2 0x3659 JUMPI PUSH2 0x3658 PUSH2 0x34F3 JUMP JUMPDEST JUMPDEST PUSH0 PUSH2 0x3666 DUP7 DUP3 DUP8 ADD PUSH2 0x35CD JUMP JUMPDEST SWAP4 POP POP PUSH1 0x20 DUP5 ADD CALLDATALOAD PUSH8 0xFFFFFFFFFFFFFFFF DUP2 GT ISZERO PUSH2 0x3687 JUMPI PUSH2 0x3686 PUSH2 0x34F7 JUMP JUMPDEST JUMPDEST PUSH2 0x3693 DUP7 DUP3 DUP8 ADD PUSH2 0x35ED JUMP JUMPDEST SWAP3 POP SWAP3 POP POP SWAP3 POP SWAP3 POP SWAP3 JUMP JUMPDEST PUSH0 DUP2 MLOAD SWAP1 POP SWAP2 SWAP1 POP JUMP JUMPDEST PUSH0 DUP3 DUP3 MSTORE PUSH1 0x20 DUP3 ADD SWAP1 POP SWAP3 SWAP2 POP POP JUMP JUMPDEST PUSH0 DUP2 SWAP1 POP PUSH1 0x20 DUP3 ADD SWAP1 POP SWAP2 SWAP1 POP JUMP JUMPDEST PUSH0 DUP2 SWAP1 POP SWAP2 SWAP1 POP JUMP JUMPDEST PUSH2 0x36DA DUP2 PUSH2 0x36C8 JUMP JUMPDEST DUP3 MSTORE POP POP JUMP JUMPDEST PUSH0 PUSH2 0x36EB DUP4 DUP4 PUSH2 0x36D1 JUMP JUMPDEST PUSH1 0x20 DUP4 ADD SWAP1 POP SWAP3 SWAP2 POP POP JUMP JUMPDEST PUSH0 PUSH1 0x20 DUP3 ADD SWAP1 POP SWAP2 SWAP1 POP JUMP JUMPDEST PUSH0 PUSH2 0x370D DUP3 PUSH2 0x369F JUMP JUMPDEST PUSH2 0x3717 DUP2 DUP6 PUSH2 0x36A9 JUMP JUMPDEST SWAP4 POP PUSH2 0x3722 DUP4 PUSH2 0x36B9 JUMP JUMPDEST DUP1 PUSH0 JUMPDEST DUP4 DUP2 LT ISZERO PUSH2 0x3752 JUMPI DUP2 MLOAD PUSH2 0x3739 DUP9 DUP3 PUSH2 0x36E0 JUMP JUMPDEST SWAP8 POP PUSH2 0x3744 DUP4 PUSH2 0x36F7 JUMP JUMPDEST SWAP3 POP POP PUSH1 0x1 DUP2 ADD SWAP1 POP PUSH2 0x3725 JUMP JUMPDEST POP DUP6 SWAP4 POP POP POP POP SWAP3 SWAP2 POP POP JUMP JUMPDEST PUSH0 PUSH1 0x20 DUP3 ADD SWAP1 POP DUP2 DUP2 SUB PUSH0 DUP4 ADD MSTORE PUSH2 0x3777 DUP2 DUP5 PUSH2 0x3703 JUMP JUMPDEST SWAP1 POP SWAP3 SWAP2 POP POP JUMP JUMPDEST PUSH0 DUP2 MLOAD SWAP1 POP SWAP2 SWAP1 POP JUMP JUMPDEST PUSH0 DUP3 DUP3 MSTORE PUSH1 0x20 DUP3 ADD SWAP1 POP SWAP3 SWAP2 POP POP JUMP JUMPDEST PUSH0 JUMPDEST DUP4 DUP2 LT ISZERO PUSH2 0x37B6 JUMPI DUP1 DUP3 ADD MLOAD DUP2 DUP5 ADD MSTORE PUSH1 0x20 DUP2 ADD SWAP1 POP PUSH2 0x379B JUMP JUMPDEST PUSH0 DUP5 DUP5 ADD MSTORE POP POP POP POP JUMP JUMPDEST PUSH0 PUSH1 0x1F NOT PUSH1 0x1F DUP4 ADD AND SWAP1 POP SWAP2 SWAP1 POP JUMP JUMPDEST PUSH0 PUSH2 0x37DB DUP3 PUSH2 0x377F JUMP JUMPDEST PUSH2 0x37E5 DUP2 DUP6 PUSH2 0x3789 JUMP JUMPDEST SWAP4 POP PUSH2 0x37F5 DUP2 DUP6 PUSH1 0x20 DUP7 ADD PUSH2 0x3799 JUMP JUMPDEST PUSH2 0x37FE DUP2 PUSH2 0x37C1 JUMP JUMPDEST DUP5 ADD SWAP2 POP POP SWAP3 SWAP2 POP POP JUMP JUMPDEST PUSH0 PUSH1 0x20 DUP3 ADD SWAP1 POP DUP2 DUP2 SUB PUSH0 DUP4 ADD MSTORE PUSH2 0x3821 DUP2 DUP5 PUSH2 0x37D1 JUMP JUMPDEST SWAP1 POP SWAP3 SWAP2 POP POP JUMP JUMPDEST PUSH2 0x3832 DUP2 PUSH2 0x36C8 JUMP JUMPDEST DUP2 EQ PUSH2 0x383C JUMPI PUSH0 DUP1 REVERT JUMPDEST POP JUMP JUMPDEST PUSH0 DUP2 CALLDATALOAD SWAP1 POP PUSH2 0x384D DUP2 PUSH2 0x3829 JUMP JUMPDEST SWAP3 SWAP2 POP POP JUMP JUMPDEST PUSH0 PUSH1 0x20 DUP3 DUP5 SUB SLT ISZERO PUSH2 0x3868 JUMPI PUSH2 0x3867 PUSH2 0x34F3 JUMP JUMPDEST JUMPDEST PUSH0 PUSH2 0x3875 DUP5 DUP3 DUP6 ADD PUSH2 0x383F JUMP JUMPDEST SWAP2 POP POP SWAP3 SWAP2 POP POP JUMP JUMPDEST PUSH0 PUSH20 0xFFFFFFFFFFFFFFFFFFFFFFFFFFFFFFFFFFFFFFFF DUP3 AND SWAP1 POP SWAP2 SWAP1 POP JUMP JUMPDEST PUSH0 PUSH2 0x38A7 DUP3 PUSH2 0x387E JUMP JUMPDEST SWAP1 POP SWAP2 SWAP1 POP JUMP JUMPDEST PUSH2 0x38B7 DUP2 PUSH2 0x389D JUMP JUMPDEST DUP3 MSTORE POP POP JUMP JUMPDEST PUSH0 PUSH1 0x20 DUP3 ADD SWAP1 POP PUSH2 0x38D0 PUSH0 DUP4 ADD DUP5 PUSH2 0x38AE JUMP JUMPDEST SWAP3 SWAP2 POP POP JUMP JUMPDEST PUSH2 0x38DF DUP2 PUSH2 0x389D JUMP JUMPDEST DUP2 EQ PUSH2 0x38E9 JUMPI PUSH0 DUP1 REVERT JUMPDEST POP JUMP JUMPDEST PUSH0 DUP2 CALLDATALOAD SWAP1 POP PUSH2 0x38FA DUP2 PUSH2 0x38D6 JUMP JUMPDEST SWAP3 SWAP2 POP POP JUMP JUMPDEST PUSH0 DUP1 PUSH1 0x40 DUP4 DUP6 SUB SLT ISZERO PUSH2 0x3916 JUMPI PUSH2 0x3915 PUSH2 0x34F3 JUMP JUMPDEST JUMPDEST PUSH0 PUSH2 0x3923 DUP6 DUP3 DUP7 ADD PUSH2 0x38EC JUMP JUMPDEST SWAP3 POP POP PUSH1 0x20 PUSH2 0x3934 DUP6 DUP3 DUP7 ADD PUSH2 0x383F JUMP JUMPDEST SWAP2 POP POP SWAP3 POP SWAP3 SWAP1 POP JUMP JUMPDEST PUSH0 DUP1 DUP4 PUSH1 0x1F DUP5 ADD SLT PUSH2 0x3953 JUMPI PUSH2 0x3952 PUSH2 0x35E1 JUMP JUMPDEST JUMPDEST DUP3 CALLDATALOAD SWAP1 POP PUSH8 0xFFFFFFFFFFFFFFFF DUP2 GT ISZERO PUSH2 0x3970 JUMPI PUSH2 0x396F PUSH2 0x35E5 JUMP JUMPDEST JUMPDEST PUSH1 0x20 DUP4 ADD SWAP2 POP DUP4 PUSH1 0x20 DUP3 MUL DUP4 ADD GT ISZERO PUSH2 0x398C JUMPI PUSH2 0x398B PUSH2 0x35E9 JUMP JUMPDEST JUMPDEST SWAP3 POP SWAP3 SWAP1 POP JUMP JUMPDEST PUSH0 DUP1 PUSH1 0x20 DUP4 DUP6 SUB SLT ISZERO PUSH2 0x39A9 JUMPI PUSH2 0x39A8 PUSH2 0x34F3 JUMP JUMPDEST JUMPDEST PUSH0 DUP4 ADD CALLDATALOAD PUSH8 0xFFFFFFFFFFFFFFFF DUP2 GT ISZERO PUSH2 0x39C6 JUMPI PUSH2 0x39C5 PUSH2 0x34F7 JUMP JUMPDEST JUMPDEST PUSH2 0x39D2 DUP6 DUP3 DUP7 ADD PUSH2 0x393E JUMP JUMPDEST SWAP3 POP SWAP3 POP POP SWAP3 POP SWAP3 SWAP1 POP JUMP JUMPDEST PUSH2 0x39E7 DUP2 PUSH2 0x36C8 JUMP JUMPDEST DUP3 MSTORE POP POP JUMP JUMPDEST PUSH0 PUSH1 0x20 DUP3 ADD SWAP1 POP PUSH2 0x3A00 PUSH0 DUP4 ADD DUP5 PUSH2 0x39DE JUMP JUMPDEST SWAP3 SWAP2 POP POP JUMP JUMPDEST PUSH0 DUP1 PUSH0 PUSH1 0x60 DUP5 DUP7 SUB SLT ISZERO PUSH2 0x3A1D JUMPI PUSH2 0x3A1C PUSH2 0x34F3 JUMP JUMPDEST JUMPDEST PUSH0 PUSH2 0x3A2A DUP7 DUP3 DUP8 ADD PUSH2 0x38EC JUMP JUMPDEST SWAP4 POP POP PUSH1 0x20 PUSH2 0x3A3B DUP7 DUP3 DUP8 ADD PUSH2 0x38EC JUMP JUMPDEST SWAP3 POP POP PUSH1 0x40 PUSH2 0x3A4C DUP7 DUP3 DUP8 ADD PUSH2 0x383F JUMP JUMPDEST SWAP2 POP POP SWAP3 POP SWAP3 POP SWAP3 JUMP JUMPDEST PUSH0 PUSH1 0x20 DUP3 DUP5 SUB SLT ISZERO PUSH2 0x3A6B JUMPI PUSH2 0x3A6A PUSH2 0x34F3 JUMP JUMPDEST JUMPDEST PUSH0 PUSH2 0x3A78 DUP5 DUP3 DUP6 ADD PUSH2 0x38EC JUMP JUMPDEST SWAP2 POP POP SWAP3 SWAP2 POP POP JUMP JUMPDEST PUSH0 DUP1 DUP4 PUSH1 0x1F DUP5 ADD SLT PUSH2 0x3A96 JUMPI PUSH2 0x3A95 PUSH2 0x35E1 JUMP JUMPDEST JUMPDEST DUP3 CALLDATALOAD SWAP1 POP PUSH8 0xFFFFFFFFFFFFFFFF DUP2 GT ISZERO PUSH2 0x3AB3 JUMPI PUSH2 0x3AB2 PUSH2 0x35E5 JUMP JUMPDEST JUMPDEST PUSH1 0x20 DUP4 ADD SWAP2 POP DUP4 PUSH1 0x20 DUP3 MUL DUP4 ADD GT ISZERO PUSH2 0x3ACF JUMPI PUSH2 0x3ACE PUSH2 0x35E9 JUMP JUMPDEST JUMPDEST SWAP3 POP SWAP3 SWAP1 POP JUMP JUMPDEST PUSH0 DUP1 PUSH1 0x20 DUP4 DUP6 SUB SLT ISZERO PUSH2 0x3AEC JUMPI PUSH2 0x3AEB PUSH2 0x34F3 JUMP JUMPDEST JUMPDEST PUSH0 DUP4 ADD CALLDATALOAD PUSH8 0xFFFFFFFFFFFFFFFF DUP2 GT ISZERO PUSH2 0x3B09 JUMPI PUSH2 0x3B08 PUSH2 0x34F7 JUMP JUMPDEST JUMPDEST PUSH2 0x3B15 DUP6 DUP3 DUP7 ADD PUSH2 0x3A81 JUMP JUMPDEST SWAP3 POP SWAP3 POP POP SWAP3 POP SWAP3 SWAP1 POP JUMP JUMPDEST PUSH0 DUP1 PUSH0 DUP1 PUSH0 DUP1 PUSH1 0x60 DUP8 DUP10 SUB SLT ISZERO PUSH2 0x3B3B JUMPI PUSH2 0x3B3A PUSH2 0x34F3 JUMP JUMPDEST JUMPDEST PUSH0 DUP8 ADD CALLDATALOAD PUSH8 0xFFFFFFFFFFFFFFFF DUP2 GT ISZERO PUSH2 0x3B58 JUMPI PUSH2 0x3B57 PUSH2 0x34F7 JUMP JUMPDEST JUMPDEST PUSH2 0x3B64 DUP10 DUP3 DUP11 ADD PUSH2 0x393E JUMP JUMPDEST SWAP7 POP SWAP7 POP POP PUSH1 0x20 DUP8 ADD CALLDATALOAD PUSH8 0xFFFFFFFFFFFFFFFF DUP2 GT ISZERO PUSH2 0x3B87 JUMPI PUSH2 0x3B86 PUSH2 0x34F7 JUMP JUMPDEST JUMPDEST PUSH2 0x3B93 DUP10 DUP3 DUP11 ADD PUSH2 0x35ED JUMP JUMPDEST SWAP5 POP SWAP5 POP POP PUSH1 0x40 DUP8 ADD CALLDATALOAD PUSH8 0xFFFFFFFFFFFFFFFF DUP2 GT ISZERO PUSH2 0x3BB6 JUMPI PUSH2 0x3BB5 PUSH2 0x34F7 JUMP JUMPDEST JUMPDEST PUSH2 0x3BC2 DUP10 DUP3 DUP11 ADD PUSH2 0x35ED JUMP JUMPDEST SWAP3 POP SWAP3 POP POP SWAP3 SWAP6 POP SWAP3 SWAP6 POP SWAP3 SWAP6 JUMP JUMPDEST PUSH0 DUP1 PUSH0 DUP1 PUSH0 PUSH1 0x60 DUP7 DUP9 SUB SLT ISZERO PUSH2 0x3BEA JUMPI PUSH2 0x3BE9 PUSH2 0x34F3 JUMP JUMPDEST JUMPDEST PUSH0 PUSH2 0x3BF7 DUP9 DUP3 DUP10 ADD PUSH2 0x35CD JUMP JUMPDEST SWAP6 POP POP PUSH1 0x20 DUP7 ADD CALLDATALOAD PUSH8 0xFFFFFFFFFFFFFFFF DUP2 GT ISZERO PUSH2 0x3C18 JUMPI PUSH2 0x3C17 PUSH2 0x34F7 JUMP JUMPDEST JUMPDEST PUSH2 0x3C24 DUP9 DUP3 DUP10 ADD PUSH2 0x35ED JUMP JUMPDEST SWAP5 POP SWAP5 POP POP PUSH1 0x40 DUP7 ADD CALLDATALOAD PUSH8 0xFFFFFFFFFFFFFFFF DUP2 GT ISZERO PUSH2 0x3C47 JUMPI PUSH2 0x3C46 PUSH2 0x34F7 JUMP JUMPDEST JUMPDEST PUSH2 0x3C53 DUP9 DUP3 DUP10 ADD PUSH2 0x35ED JUMP JUMPDEST SWAP3 POP SWAP3 POP POP SWAP3 SWAP6 POP SWAP3 SWAP6 SWAP1 SWAP4 POP JUMP JUMPDEST PUSH0 DUP1 DUP4 PUSH1 0x1F DUP5 ADD SLT PUSH2 0x3C77 JUMPI PUSH2 0x3C76 PUSH2 0x35E1 JUMP JUMPDEST JUMPDEST DUP3 CALLDATALOAD SWAP1 POP PUSH8 0xFFFFFFFFFFFFFFFF DUP2 GT ISZERO PUSH2 0x3C94 JUMPI PUSH2 0x3C93 PUSH2 0x35E5 JUMP JUMPDEST JUMPDEST PUSH1 0x20 DUP4 ADD SWAP2 POP DUP4 PUSH1 0x1 DUP3 MUL DUP4 ADD GT ISZERO PUSH2 0x3CB0 JUMPI PUSH2 0x3CAF PUSH2 0x35E9 JUMP JUMPDEST JUMPDEST SWAP3 POP SWAP3 SWAP1 POP JUMP JUMPDEST PUSH0 DUP1 PUSH1 0x20 DUP4 DUP6 SUB SLT ISZERO PUSH2 0x3CCD JUMPI PUSH2 0x3CCC PUSH2 0x34F3 JUMP JUMPDEST JUMPDEST PUSH0 DUP4 ADD CALLDATALOAD PUSH8 0xFFFFFFFFFFFFFFFF DUP2 GT ISZERO PUSH2 0x3CEA JUMPI PUSH2 0x3CE9 PUSH2 0x34F7 JUMP JUMPDEST JUMPDEST PUSH2 0x3CF6 DUP6 DUP3 DUP7 ADD PUSH2 0x3C62 JUMP JUMPDEST SWAP3 POP SWAP3 POP POP SWAP3 POP SWAP3 SWAP1 POP JUMP JUMPDEST PUSH2 0x3D0B DUP2 PUSH2 0x357B JUMP JUMPDEST DUP2 EQ PUSH2 0x3D15 JUMPI PUSH0 DUP1 REVERT JUMPDEST POP JUMP JUMPDEST PUSH0 DUP2 CALLDATALOAD SWAP1 POP PUSH2 0x3D26 DUP2 PUSH2 0x3D02 JUMP JUMPDEST SWAP3 SWAP2 POP POP JUMP JUMPDEST PUSH0 DUP1 PUSH1 0x40 DUP4 DUP6 SUB SLT ISZERO PUSH2 0x3D42 JUMPI PUSH2 0x3D41 PUSH2 0x34F3 JUMP JUMPDEST JUMPDEST PUSH0 PUSH2 0x3D4F DUP6 DUP3 DUP7 ADD PUSH2 0x38EC JUMP JUMPDEST SWAP3 POP POP PUSH1 0x20 PUSH2 0x3D60 DUP6 DUP3 DUP7 ADD PUSH2 0x3D18 JUMP JUMPDEST SWAP2 POP POP SWAP3 POP SWAP3 SWAP1 POP JUMP JUMPDEST PUSH0 DUP1 REVERT JUMPDEST PUSH32 0x4E487B7100000000000000000000000000000000000000000000000000000000 PUSH0 MSTORE PUSH1 0x41 PUSH1 0x4 MSTORE PUSH1 0x24 PUSH0 REVERT JUMPDEST PUSH2 0x3DA4 DUP3 PUSH2 0x37C1 JUMP JUMPDEST DUP2 ADD DUP2 DUP2 LT PUSH8 0xFFFFFFFFFFFFFFFF DUP3 GT OR ISZERO PUSH2 0x3DC3 JUMPI PUSH2 0x3DC2 PUSH2 0x3D6E JUMP JUMPDEST JUMPDEST DUP1 PUSH1 0x40 MSTORE POP POP POP JUMP JUMPDEST PUSH0 PUSH2 0x3DD5 PUSH2 0x34EA JUMP JUMPDEST SWAP1 POP PUSH2 0x3DE1 DUP3 DUP3 PUSH2 0x3D9B JUMP JUMPDEST SWAP2 SWAP1 POP JUMP JUMPDEST PUSH0 PUSH8 0xFFFFFFFFFFFFFFFF DUP3 GT ISZERO PUSH2 0x3E00 JUMPI PUSH2 0x3DFF PUSH2 0x3D6E JUMP JUMPDEST JUMPDEST PUSH2 0x3E09 DUP3 PUSH2 0x37C1 JUMP JUMPDEST SWAP1 POP PUSH1 0x20 DUP2 ADD SWAP1 POP SWAP2 SWAP1 POP JUMP JUMPDEST DUP3 DUP2 DUP4 CALLDATACOPY PUSH0 DUP4 DUP4 ADD MSTORE POP POP POP JUMP JUMPDEST PUSH0 PUSH2 0x3E36 PUSH2 0x3E31 DUP5 PUSH2 0x3DE6 JUMP JUMPDEST PUSH2 0x3DCC JUMP JUMPDEST SWAP1 POP DUP3 DUP2 MSTORE PUSH1 0x20 DUP2 ADD DUP5 DUP5 DUP5 ADD GT ISZERO PUSH2 0x3E52 JUMPI PUSH2 0x3E51 PUSH2 0x3D6A JUMP JUMPDEST JUMPDEST PUSH2 0x3E5D DUP5 DUP3 DUP6 PUSH2 0x3E16 JUMP JUMPDEST POP SWAP4 SWAP3 POP POP POP JUMP JUMPDEST PUSH0 DUP3 PUSH1 0x1F DUP4 ADD SLT PUSH2 0x3E79 JUMPI PUSH2 0x3E78 PUSH2 0x35E1 JUMP JUMPDEST JUMPDEST DUP2 CALLDATALOAD PUSH2 0x3E89 DUP5 DUP3 PUSH1 0x20 DUP7 ADD PUSH2 0x3E24 JUMP JUMPDEST SWAP2 POP POP SWAP3 SWAP2 POP POP JUMP JUMPDEST PUSH0 DUP1 PUSH0 DUP1 PUSH1 0x80 DUP6 DUP8 SUB SLT ISZERO PUSH2 0x3EAA JUMPI PUSH2 0x3EA9 PUSH2 0x34F3 JUMP JUMPDEST JUMPDEST PUSH0 PUSH2 0x3EB7 DUP8 DUP3 DUP9 ADD PUSH2 0x38EC JUMP JUMPDEST SWAP5 POP POP PUSH1 0x20 PUSH2 0x3EC8 DUP8 DUP3 DUP9 ADD PUSH2 0x38EC JUMP JUMPDEST SWAP4 POP POP PUSH1 0x40 PUSH2 0x3ED9 DUP8 DUP3 DUP9 ADD PUSH2 0x383F JUMP JUMPDEST SWAP3 POP POP PUSH1 0x60 DUP6 ADD CALLDATALOAD PUSH8 0xFFFFFFFFFFFFFFFF DUP2 GT ISZERO PUSH2 0x3EFA JUMPI PUSH2 0x3EF9 PUSH2 0x34F7 JUMP JUMPDEST JUMPDEST PUSH2 0x3F06 DUP8 DUP3 DUP9 ADD PUSH2 0x3E65 JUMP JUMPDEST SWAP2 POP POP SWAP3 SWAP6 SWAP2 SWAP5 POP SWAP3 POP JUMP JUMPDEST PUSH2 0x3F1B DUP2 PUSH2 0x35AE JUMP JUMPDEST DUP3 MSTORE POP POP JUMP JUMPDEST PUSH0 PUSH1 0x20 DUP3 ADD SWAP1 POP PUSH2 0x3F34 PUSH0 DUP4 ADD DUP5 PUSH2 0x3F12 JUMP JUMPDEST SWAP3 SWAP2 POP POP JUMP JUMPDEST PUSH0 DUP1 PUSH0 PUSH1 0x60 DUP5 DUP7 SUB SLT ISZERO PUSH2 0x3F51 JUMPI PUSH2 0x3F50 PUSH2 0x34F3 JUMP JUMPDEST JUMPDEST PUSH0 PUSH2 0x3F5E DUP7 DUP3 DUP8 ADD PUSH2 0x35CD JUMP JUMPDEST SWAP4 POP POP PUSH1 0x20 PUSH2 0x3F6F DUP7 DUP3 DUP8 ADD PUSH2 0x383F JUMP JUMPDEST SWAP3 POP POP PUSH1 0x40 PUSH2 0x3F80 DUP7 DUP3 DUP8 ADD PUSH2 0x383F JUMP JUMPDEST SWAP2 POP POP SWAP3 POP SWAP3 POP SWAP3 JUMP JUMPDEST PUSH0 DUP1 PUSH1 0x40 DUP4 DUP6 SUB SLT ISZERO PUSH2 0x3FA0 JUMPI PUSH2 0x3F9F PUSH2 0x34F3 JUMP JUMPDEST JUMPDEST PUSH0 PUSH2 0x3FAD DUP6 DUP3 DUP7 ADD PUSH2 0x38EC JUMP JUMPDEST SWAP3 POP POP PUSH1 0x20 PUSH2 0x3FBE DUP6 DUP3 DUP7 ADD PUSH2 0x38EC JUMP JUMPDEST SWAP2 POP POP SWAP3 POP SWAP3 SWAP1 POP JUMP JUMPDEST PUSH0 DUP1 PUSH1 0x40 DUP4 DUP6 SUB SLT ISZERO PUSH2 0x3FDE JUMPI PUSH2 0x3FDD PUSH2 0x34F3 JUMP JUMPDEST JUMPDEST PUSH0 PUSH2 0x3FEB DUP6 DUP3 DUP7 ADD PUSH2 0x35CD JUMP JUMPDEST SWAP3 POP POP PUSH1 0x20 PUSH2 0x3FFC DUP6 DUP3 DUP7 ADD PUSH2 0x383F JUMP JUMPDEST SWAP2 POP POP SWAP3 POP SWAP3 SWAP1 POP JUMP JUMPDEST PUSH0 DUP1 PUSH0 DUP1 PUSH1 0x40 DUP6 DUP8 SUB SLT ISZERO PUSH2 0x401E JUMPI PUSH2 0x401D PUSH2 0x34F3 JUMP JUMPDEST JUMPDEST PUSH0 DUP6 ADD CALLDATALOAD PUSH8 0xFFFFFFFFFFFFFFFF DUP2 GT ISZERO PUSH2 0x403B JUMPI PUSH2 0x403A PUSH2 0x34F7 JUMP JUMPDEST JUMPDEST PUSH2 0x4047 DUP8 DUP3 DUP9 ADD PUSH2 0x393E JUMP JUMPDEST SWAP5 POP SWAP5 POP POP PUSH1 0x20 DUP6 ADD CALLDATALOAD PUSH8 0xFFFFFFFFFFFFFFFF DUP2 GT ISZERO PUSH2 0x406A JUMPI PUSH2 0x4069 PUSH2 0x34F7 JUMP JUMPDEST JUMPDEST PUSH2 0x4076 DUP8 DUP3 DUP9 ADD PUSH2 0x35ED JUMP JUMPDEST SWAP3 POP SWAP3 POP POP SWAP3 SWAP6 SWAP2 SWAP5 POP SWAP3 POP JUMP JUMPDEST PUSH32 0x4E487B7100000000000000000000000000000000000000000000000000000000 PUSH0 MSTORE PUSH1 0x32 PUSH1 0x4 MSTORE PUSH1 0x24 PUSH0 REVERT JUMPDEST PUSH32 0x4E487B7100000000000000000000000000000000000000000000000000000000 PUSH0 MSTORE PUSH1 0x11 PUSH1 0x4 MSTORE PUSH1 0x24 PUSH0 REVERT JUMPDEST PUSH0 PUSH2 0x40E8 DUP3 PUSH2 0x36C8 JUMP JUMPDEST SWAP2 POP PUSH32 0xFFFFFFFFFFFFFFFFFFFFFFFFFFFFFFFFFFFFFFFFFFFFFFFFFFFFFFFFFFFFFFFF DUP3 SUB PUSH2 0x411A JUMPI PUSH2 0x4119 PUSH2 0x40B1 JUMP JUMPDEST JUMPDEST PUSH1 0x1 DUP3 ADD SWAP1 POP SWAP2 SWAP1 POP JUMP JUMPDEST PUSH32 0x4E487B7100000000000000000000000000000000000000000000000000000000 PUSH0 MSTORE PUSH1 0x22 PUSH1 0x4 MSTORE PUSH1 0x24 PUSH0 REVERT JUMPDEST PUSH0 PUSH1 0x2 DUP3 DIV SWAP1 POP PUSH1 0x1 DUP3 AND DUP1 PUSH2 0x4169 JUMPI PUSH1 0x7F DUP3 AND SWAP2 POP JUMPDEST PUSH1 0x20 DUP3 LT DUP2 SUB PUSH2 0x417C JUMPI PUSH2 0x417B PUSH2 0x4125 JUMP JUMPDEST JUMPDEST POP SWAP2 SWAP1 POP JUMP JUMPDEST PUSH32 0x4F776E61626C653A2063616C6C6572206973206E6F7420746865206F776E6572 PUSH0 DUP3 ADD MSTORE POP JUMP JUMPDEST PUSH0 PUSH2 0x41B6 PUSH1 0x20 DUP4 PUSH2 0x3789 JUMP JUMPDEST SWAP2 POP PUSH2 0x41C1 DUP3 PUSH2 0x4182 JUMP JUMPDEST PUSH1 0x20 DUP3 ADD SWAP1 POP SWAP2 SWAP1 POP JUMP JUMPDEST PUSH0 PUSH1 0x20 DUP3 ADD SWAP1 POP DUP2 DUP2 SUB PUSH0 DUP4 ADD MSTORE PUSH2 0x41E3 DUP2 PUSH2 0x41AA JUMP JUMPDEST SWAP1 POP SWAP2 SWAP1 POP JUMP JUMPDEST PUSH0 PUSH1 0x60 DUP3 ADD SWAP1 POP PUSH2 0x41FD PUSH0 DUP4 ADD DUP7 PUSH2 0x38AE JUMP JUMPDEST PUSH2 0x420A PUSH1 0x20 DUP4 ADD DUP6 PUSH2 0x39DE JUMP JUMPDEST PUSH2 0x4217 PUSH1 0x40 DUP4 ADD DUP5 PUSH2 0x38AE JUMP JUMPDEST SWAP5 SWAP4 POP POP POP POP JUMP JUMPDEST PUSH0 PUSH1 0x40 DUP3 ADD SWAP1 POP PUSH2 0x4232 PUSH0 DUP4 ADD DUP6 PUSH2 0x38AE JUMP JUMPDEST PUSH2 0x423F PUSH1 0x20 DUP4 ADD DUP5 PUSH2 0x39DE JUMP JUMPDEST SWAP4 SWAP3 POP POP POP JUMP JUMPDEST PUSH32 0x4F776E61626C653A2063616C6C6572206973206E6F74206F776E65722F6D696E PUSH0 DUP3 ADD MSTORE PUSH32 0x7465720000000000000000000000000000000000000000000000000000000000 PUSH1 0x20 DUP3 ADD MSTORE POP JUMP JUMPDEST PUSH0 PUSH2 0x42A0 PUSH1 0x23 DUP4 PUSH2 0x3789 JUMP JUMPDEST SWAP2 POP PUSH2 0x42AB DUP3 PUSH2 0x4246 JUMP JUMPDEST PUSH1 0x40 DUP3 ADD SWAP1 POP SWAP2 SWAP1 POP JUMP JUMPDEST PUSH0 PUSH1 0x20 DUP3 ADD SWAP1 POP DUP2 DUP2 SUB PUSH0 DUP4 ADD MSTORE PUSH2 0x42CD DUP2 PUSH2 0x4294 JUMP JUMPDEST SWAP1 POP SWAP2 SWAP1 POP JUMP JUMPDEST PUSH0 PUSH2 0x42DE DUP3 PUSH2 0x36C8 JUMP JUMPDEST SWAP2 POP PUSH2 0x42E9 DUP4 PUSH2 0x36C8 JUMP JUMPDEST SWAP3 POP DUP3 DUP3 ADD SWAP1 POP DUP1 DUP3 GT ISZERO PUSH2 0x4301 JUMPI PUSH2 0x4300 PUSH2 0x40B1 JUMP JUMPDEST JUMPDEST SWAP3 SWAP2 POP POP JUMP JUMPDEST PUSH32 0x4F776E61626C653A2063616C6C6572206973206E6F74206F776E65722F6D616E PUSH0 DUP3 ADD MSTORE PUSH32 0x6167657200000000000000000000000000000000000000000000000000000000 PUSH1 0x20 DUP3 ADD MSTORE POP JUMP JUMPDEST PUSH0 PUSH2 0x4361 PUSH1 0x24 DUP4 PUSH2 0x3789 JUMP JUMPDEST SWAP2 POP PUSH2 0x436C DUP3 PUSH2 0x4307 JUMP JUMPDEST PUSH1 0x40 DUP3 ADD SWAP1 POP SWAP2 SWAP1 POP JUMP JUMPDEST PUSH0 PUSH1 0x20 DUP3 ADD SWAP1 POP DUP2 DUP2 SUB PUSH0 DUP4 ADD MSTORE PUSH2 0x438E DUP2 PUSH2 0x4355 JUMP JUMPDEST SWAP1 POP SWAP2 SWAP1 POP JUMP JUMPDEST PUSH0 DUP3 SWAP1 POP SWAP3 SWAP2 POP POP JUMP JUMPDEST PUSH0 DUP2 SWAP1 POP DUP2 PUSH0 MSTORE PUSH1 0x20 PUSH0 KECCAK256 SWAP1 POP SWAP2 SWAP1 POP JUMP JUMPDEST PUSH0 PUSH1 0x20 PUSH1 0x1F DUP4 ADD DIV SWAP1 POP SWAP2 SWAP1 POP JUMP JUMPDEST PUSH0 DUP3 DUP3 SHL SWAP1 POP SWAP3 SWAP2 POP POP JUMP JUMPDEST PUSH0 PUSH1 0x8 DUP4 MUL PUSH2 0x43FB PUSH32 0xFFFFFFFFFFFFFFFFFFFFFFFFFFFFFFFFFFFFFFFFFFFFFFFFFFFFFFFFFFFFFFFF DUP3 PUSH2 0x43C0 JUMP JUMPDEST PUSH2 0x4405 DUP7 DUP4 PUSH2 0x43C0 JUMP JUMPDEST SWAP6 POP DUP1 NOT DUP5 AND SWAP4 POP DUP1 DUP7 AND DUP5 OR SWAP3 POP POP POP SWAP4 SWAP3 POP POP POP JUMP JUMPDEST PUSH0 DUP2 SWAP1 POP SWAP2 SWAP1 POP JUMP JUMPDEST PUSH0 PUSH2 0x4440 PUSH2 0x443B PUSH2 0x4436 DUP5 PUSH2 0x36C8 JUMP JUMPDEST PUSH2 0x441D JUMP JUMPDEST PUSH2 0x36C8 JUMP JUMPDEST SWAP1 POP SWAP2 SWAP1 POP JUMP JUMPDEST PUSH0 DUP2 SWAP1 POP SWAP2 SWAP1 POP JUMP JUMPDEST PUSH2 0x4459 DUP4 PUSH2 0x4426 JUMP JUMPDEST PUSH2 0x446D PUSH2 0x4465 DUP3 PUSH2 0x4447 JUMP JUMPDEST DUP5 DUP5 SLOAD PUSH2 0x43CC JUMP JUMPDEST DUP3 SSTORE POP POP POP POP JUMP JUMPDEST PUSH0 SWAP1 JUMP JUMPDEST PUSH2 0x4481 PUSH2 0x4475 JUMP JUMPDEST PUSH2 0x448C DUP2 DUP5 DUP5 PUSH2 0x4450 JUMP JUMPDEST POP POP POP JUMP JUMPDEST JUMPDEST DUP2 DUP2 LT ISZERO PUSH2 0x44AF JUMPI PUSH2 0x44A4 PUSH0 DUP3 PUSH2 0x4479 JUMP JUMPDEST PUSH1 0x1 DUP2 ADD SWAP1 POP PUSH2 0x4492 JUMP JUMPDEST POP POP JUMP JUMPDEST PUSH1 0x1F DUP3 GT ISZERO PUSH2 0x44F4 JUMPI PUSH2 0x44C5 DUP2 PUSH2 0x439F JUMP JUMPDEST PUSH2 0x44CE DUP5 PUSH2 0x43B1 JUMP JUMPDEST DUP2 ADD PUSH1 0x20 DUP6 LT ISZERO PUSH2 0x44DD JUMPI DUP2 SWAP1 POP JUMPDEST PUSH2 0x44F1 PUSH2 0x44E9 DUP6 PUSH2 0x43B1 JUMP JUMPDEST DUP4 ADD DUP3 PUSH2 0x4491 JUMP JUMPDEST POP POP JUMPDEST POP POP POP JUMP JUMPDEST PUSH0 DUP3 DUP3 SHR SWAP1 POP SWAP3 SWAP2 POP POP JUMP JUMPDEST PUSH0 PUSH2 0x4514 PUSH0 NOT DUP5 PUSH1 0x8 MUL PUSH2 0x44F9 JUMP JUMPDEST NOT DUP1 DUP4 AND SWAP2 POP POP SWAP3 SWAP2 POP POP JUMP JUMPDEST PUSH0 PUSH2 0x452C DUP4 DUP4 PUSH2 0x4505 JUMP JUMPDEST SWAP2 POP DUP3 PUSH1 0x2 MUL DUP3 OR SWAP1 POP SWAP3 SWAP2 POP POP JUMP JUMPDEST PUSH2 0x4546 DUP4 DUP4 PUSH2 0x4395 JUMP JUMPDEST PUSH8 0xFFFFFFFFFFFFFFFF DUP2 GT ISZERO PUSH2 0x455F JUMPI PUSH2 0x455E PUSH2 0x3D6E JUMP JUMPDEST JUMPDEST PUSH2 0x4569 DUP3 SLOAD PUSH2 0x4152 JUMP JUMPDEST PUSH2 0x4574 DUP3 DUP3 DUP6 PUSH2 0x44B3 JUMP JUMPDEST PUSH0 PUSH1 0x1F DUP4 GT PUSH1 0x1 DUP2 EQ PUSH2 0x45A1 JUMPI PUSH0 DUP5 ISZERO PUSH2 0x458F JUMPI DUP3 DUP8 ADD CALLDATALOAD SWAP1 POP JUMPDEST PUSH2 0x4599 DUP6 DUP3 PUSH2 0x4521 JUMP JUMPDEST DUP7 SSTORE POP PUSH2 0x4600 JUMP JUMPDEST PUSH1 0x1F NOT DUP5 AND PUSH2 0x45AF DUP7 PUSH2 0x439F JUMP JUMPDEST PUSH0 JUMPDEST DUP3 DUP2 LT ISZERO PUSH2 0x45D6 JUMPI DUP5 DUP10 ADD CALLDATALOAD DUP3 SSTORE PUSH1 0x1 DUP3 ADD SWAP2 POP PUSH1 0x20 DUP6 ADD SWAP5 POP PUSH1 0x20 DUP2 ADD SWAP1 POP PUSH2 0x45B1 JUMP JUMPDEST DUP7 DUP4 LT ISZERO PUSH2 0x45F3 JUMPI DUP5 DUP10 ADD CALLDATALOAD PUSH2 0x45EF PUSH1 0x1F DUP10 AND DUP3 PUSH2 0x4505 JUMP JUMPDEST DUP4 SSTORE POP JUMPDEST PUSH1 0x1 PUSH1 0x2 DUP9 MUL ADD DUP9 SSTORE POP POP POP JUMPDEST POP POP POP POP POP POP POP JUMP JUMPDEST PUSH0 DUP2 SWAP1 POP SWAP3 SWAP2 POP POP JUMP JUMPDEST PUSH0 DUP2 SLOAD PUSH2 0x461F DUP2 PUSH2 0x4152 JUMP JUMPDEST PUSH2 0x4629 DUP2 DUP7 PUSH2 0x4609 JUMP JUMPDEST SWAP5 POP PUSH1 0x1 DUP3 AND PUSH0 DUP2 EQ PUSH2 0x4643 JUMPI PUSH1 0x1 DUP2 EQ PUSH2 0x4658 JUMPI PUSH2 0x468A JUMP JUMPDEST PUSH1 0xFF NOT DUP4 AND DUP7 MSTORE DUP2 ISZERO ISZERO DUP3 MUL DUP7 ADD SWAP4 POP PUSH2 0x468A JUMP JUMPDEST PUSH2 0x4661 DUP6 PUSH2 0x439F JUMP JUMPDEST PUSH0 JUMPDEST DUP4 DUP2 LT ISZERO PUSH2 0x4682 JUMPI DUP2 SLOAD DUP2 DUP10 ADD MSTORE PUSH1 0x1 DUP3 ADD SWAP2 POP PUSH1 0x20 DUP2 ADD SWAP1 POP PUSH2 0x4663 JUMP JUMPDEST DUP4 DUP9 ADD SWAP6 POP POP POP JUMPDEST POP POP POP SWAP3 SWAP2 POP POP JUMP JUMPDEST PUSH32 0x3F69643D00000000000000000000000000000000000000000000000000000000 PUSH0 DUP3 ADD MSTORE POP JUMP JUMPDEST PUSH0 PUSH2 0x46C7 PUSH1 0x4 DUP4 PUSH2 0x4609 JUMP JUMPDEST SWAP2 POP PUSH2 0x46D2 DUP3 PUSH2 0x4693 JUMP JUMPDEST PUSH1 0x4 DUP3 ADD SWAP1 POP SWAP2 SWAP1 POP JUMP JUMPDEST PUSH0 PUSH2 0x46E7 DUP3 PUSH2 0x377F JUMP JUMPDEST PUSH2 0x46F1 DUP2 DUP6 PUSH2 0x4609 JUMP JUMPDEST SWAP4 POP PUSH2 0x4701 DUP2 DUP6 PUSH1 0x20 DUP7 ADD PUSH2 0x3799 JUMP JUMPDEST DUP1 DUP5 ADD SWAP2 POP POP SWAP3 SWAP2 POP POP JUMP JUMPDEST PUSH32 0x2600000000000000000000000000000000000000000000000000000000000000 PUSH0 DUP3 ADD MSTORE POP JUMP JUMPDEST PUSH0 PUSH2 0x4741 PUSH1 0x1 DUP4 PUSH2 0x4609 JUMP JUMPDEST SWAP2 POP PUSH2 0x474C DUP3 PUSH2 0x470D JUMP JUMPDEST PUSH1 0x1 DUP3 ADD SWAP1 POP SWAP2 SWAP1 POP JUMP JUMPDEST PUSH0 PUSH2 0x4762 DUP3 DUP6 PUSH2 0x4613 JUMP JUMPDEST SWAP2 POP PUSH2 0x476D DUP3 PUSH2 0x46BB JUMP JUMPDEST SWAP2 POP PUSH2 0x4779 DUP3 DUP5 PUSH2 0x46DD JUMP JUMPDEST SWAP2 POP PUSH2 0x4784 DUP3 PUSH2 0x4735 JUMP JUMPDEST SWAP2 POP DUP2 SWAP1 POP SWAP4 SWAP3 POP POP POP JUMP JUMPDEST PUSH0 DUP2 MLOAD SWAP1 POP SWAP2 SWAP1 POP JUMP JUMPDEST PUSH0 DUP2 SWAP1 POP SWAP3 SWAP2 POP POP JUMP JUMPDEST PUSH0 PUSH2 0x47AE DUP3 PUSH2 0x4790 JUMP JUMPDEST PUSH2 0x47B8 DUP2 DUP6 PUSH2 0x479A JUMP JUMPDEST SWAP4 POP PUSH2 0x47C8 DUP2 DUP6 PUSH1 0x20 DUP7 ADD PUSH2 0x3799 JUMP JUMPDEST DUP1 DUP5 ADD SWAP2 POP POP SWAP3 SWAP2 POP POP JUMP JUMPDEST PUSH32 0x6100000000000000000000000000000000000000000000000000000000000000 PUSH0 DUP3 ADD MSTORE POP JUMP JUMPDEST PUSH0 PUSH2 0x4808 PUSH1 0x1 DUP4 PUSH2 0x4609 JUMP JUMPDEST SWAP2 POP PUSH2 0x4813 DUP3 PUSH2 0x47D4 JUMP JUMPDEST PUSH1 0x1 DUP3 ADD SWAP1 POP SWAP2 SWAP1 POP JUMP JUMPDEST PUSH32 0x3D00000000000000000000000000000000000000000000000000000000000000 PUSH0 DUP3 ADD MSTORE POP JUMP JUMPDEST PUSH0 PUSH2 0x4852 PUSH1 0x1 DUP4 PUSH2 0x4609 JUMP JUMPDEST SWAP2 POP PUSH2 0x485D DUP3 PUSH2 0x481E JUMP JUMPDEST PUSH1 0x1 DUP3 ADD SWAP1 POP SWAP2 SWAP1 POP JUMP JUMPDEST PUSH0 PUSH2 0x4873 DUP3 DUP7 PUSH2 0x47A4 JUMP JUMPDEST SWAP2 POP PUSH2 0x487E DUP3 PUSH2 0x47FC JUMP JUMPDEST SWAP2 POP PUSH2 0x488A DUP3 DUP6 PUSH2 0x46DD JUMP JUMPDEST SWAP2 POP PUSH2 0x4895 DUP3 PUSH2 0x4846 JUMP JUMPDEST SWAP2 POP PUSH2 0x48A1 DUP3 DUP5 PUSH2 0x46DD JUMP JUMPDEST SWAP2 POP PUSH2 0x48AC DUP3 PUSH2 0x4735 JUMP JUMPDEST SWAP2 POP DUP2 SWAP1 POP SWAP5 SWAP4 POP POP POP POP JUMP JUMPDEST PUSH32 0x4F776E61626C653A206E6577206F776E657220697320746865207A65726F2061 PUSH0 DUP3 ADD MSTORE PUSH32 0x6464726573730000000000000000000000000000000000000000000000000000 PUSH1 0x20 DUP3 ADD MSTORE POP JUMP JUMPDEST PUSH0 PUSH2 0x4913 PUSH1 0x26 DUP4 PUSH2 0x3789 JUMP JUMPDEST SWAP2 POP PUSH2 0x491E DUP3 PUSH2 0x48B9 JUMP JUMPDEST PUSH1 0x40 DUP3 ADD SWAP1 POP SWAP2 SWAP1 POP JUMP JUMPDEST PUSH0 PUSH1 0x20 DUP3 ADD SWAP1 POP DUP2 DUP2 SUB PUSH0 DUP4 ADD MSTORE PUSH2 0x4940 DUP2 PUSH2 0x4907 JUMP JUMPDEST SWAP1 POP SWAP2 SWAP1 POP JUMP JUMPDEST PUSH32 0x4E487B7100000000000000000000000000000000000000000000000000000000 PUSH0 MSTORE PUSH1 0x12 PUSH1 0x4 MSTORE PUSH1 0x24 PUSH0 REVERT JUMPDEST PUSH0 PUSH2 0x497E DUP3 PUSH2 0x36C8 JUMP JUMPDEST SWAP2 POP PUSH2 0x4989 DUP4 PUSH2 0x36C8 JUMP JUMPDEST SWAP3 POP DUP3 PUSH2 0x4999 JUMPI PUSH2 0x4998 PUSH2 0x4947 JUMP JUMPDEST JUMPDEST DUP3 DUP3 DIV SWAP1 POP SWAP3 SWAP2 POP POP JUMP JUMPDEST PUSH0 PUSH2 0x49AE DUP3 PUSH2 0x36C8 JUMP JUMPDEST SWAP2 POP PUSH2 0x49B9 DUP4 PUSH2 0x36C8 JUMP JUMPDEST SWAP3 POP DUP3 DUP3 SUB SWAP1 POP DUP2 DUP2 GT ISZERO PUSH2 0x49D1 JUMPI PUSH2 0x49D0 PUSH2 0x40B1 JUMP JUMPDEST JUMPDEST SWAP3 SWAP2 POP POP JUMP JUMPDEST PUSH0 PUSH2 0x49E1 DUP3 PUSH2 0x36C8 JUMP JUMPDEST SWAP2 POP PUSH2 0x49EC DUP4 PUSH2 0x36C8 JUMP JUMPDEST SWAP3 POP DUP3 DUP3 MUL PUSH2 0x49FA DUP2 PUSH2 0x36C8 JUMP JUMPDEST SWAP2 POP DUP3 DUP3 DIV DUP5 EQ DUP4 ISZERO OR PUSH2 0x4A11 JUMPI PUSH2 0x4A10 PUSH2 0x40B1 JUMP JUMPDEST JUMPDEST POP SWAP3 SWAP2 POP POP JUMP JUMPDEST PUSH0 PUSH1 0xFF DUP3 AND SWAP1 POP SWAP2 SWAP1 POP JUMP JUMPDEST PUSH0 PUSH2 0x4A2E DUP3 PUSH2 0x4A18 JUMP JUMPDEST SWAP2 POP PUSH2 0x4A39 DUP4 PUSH2 0x4A18 JUMP JUMPDEST SWAP3 POP DUP3 DUP3 ADD SWAP1 POP PUSH1 0xFF DUP2 GT ISZERO PUSH2 0x4A52 JUMPI PUSH2 0x4A51 PUSH2 0x40B1 JUMP JUMPDEST JUMPDEST SWAP3 SWAP2 POP POP JUMP JUMPDEST PUSH0 DUP3 DUP3 MSTORE PUSH1 0x20 DUP3 ADD SWAP1 POP SWAP3 SWAP2 POP POP JUMP JUMPDEST PUSH0 PUSH2 0x4A72 DUP3 PUSH2 0x4790 JUMP JUMPDEST PUSH2 0x4A7C DUP2 DUP6 PUSH2 0x4A58 JUMP JUMPDEST SWAP4 POP PUSH2 0x4A8C DUP2 DUP6 PUSH1 0x20 DUP7 ADD PUSH2 0x3799 JUMP JUMPDEST PUSH2 0x4A95 DUP2 PUSH2 0x37C1 JUMP JUMPDEST DUP5 ADD SWAP2 POP POP SWAP3 SWAP2 POP POP JUMP JUMPDEST PUSH0 PUSH1 0x80 DUP3 ADD SWAP1 POP PUSH2 0x4AB3 PUSH0 DUP4 ADD DUP8 PUSH2 0x38AE JUMP JUMPDEST PUSH2 0x4AC0 PUSH1 0x20 DUP4 ADD DUP7 PUSH2 0x38AE JUMP JUMPDEST PUSH2 0x4ACD PUSH1 0x40 DUP4 ADD DUP6 PUSH2 0x39DE JUMP JUMPDEST DUP2 DUP2 SUB PUSH1 0x60 DUP4 ADD MSTORE PUSH2 0x4ADF DUP2 DUP5 PUSH2 0x4A68 JUMP JUMPDEST SWAP1 POP SWAP6 SWAP5 POP POP POP POP POP JUMP JUMPDEST PUSH0 DUP2 MLOAD SWAP1 POP PUSH2 0x4AF8 DUP2 PUSH2 0x3526 JUMP JUMPDEST SWAP3 SWAP2 POP POP JUMP JUMPDEST PUSH0 PUSH1 0x20 DUP3 DUP5 SUB SLT ISZERO PUSH2 0x4B13 JUMPI PUSH2 0x4B12 PUSH2 0x34F3 JUMP JUMPDEST JUMPDEST PUSH0 PUSH2 0x4B20 DUP5 DUP3 DUP6 ADD PUSH2 0x4AEA JUMP JUMPDEST SWAP2 POP POP SWAP3 SWAP2 POP POP JUMP JUMPDEST PUSH32 0x4E487B7100000000000000000000000000000000000000000000000000000000 PUSH0 MSTORE PUSH1 0x31 PUSH1 0x4 MSTORE PUSH1 0x24 PUSH0 REVERT INVALID LOG2 PUSH5 0x6970667358 0x22 SLT KECCAK256 0xB1 SWAP7 DUP15 0xC4 0x21 SWAP5 SWAP6 0xAC 0x49 LOG2 0xB3 BASEFEE LOG2 PUSH16 0xA30929AB3B474414DE7DADC12845E73F ADDMOD 0xFC PUSH5 0x736F6C6343 STOP ADDMOD ISZERO STOP CALLER "
		},
		"gasEstimates": {
			"creation": {
				"codeDepositCost": "3868000",
				"executionCost": "infinite",
				"totalCost": "infinite"
			},
			"external": {
				"_baseUri()": "infinite",
				"_currentNextId()": "2515",
				"_properties(uint256)": "4960",
				"addManager(address)": "27140",
				"addMinter(address)": "27073",
				"approve(address,uint256)": "infinite",
				"balanceOf(address)": "infinite",
				"getApproved(uint256)": "infinite",
				"getBatchProperty(bytes32[],uint256[])": "infinite",
				"getMultipleProperty(bytes32,uint256[])": "infinite",
				"getSingleProperty(bytes32,uint256)": "infinite",
				"isApprovedForAll(address,address)": "infinite",
				"name()": "infinite",
				"owner()": "2627",
				"ownerOf(uint256)": "infinite",
				"pause()": "infinite",
				"paused()": "2562",
				"removeManager(address)": "27050",
				"removeMinter(address)": "27073",
				"renounceOwnership()": "30358",
				"safeBatchMint(address[])": "infinite",
				"safeMint(address)": "infinite",
				"safeTransferFrom(address,address,uint256)": "infinite",
				"safeTransferFrom(address,address,uint256,bytes)": "infinite",
				"setApprovalForAll(address,bool)": "infinite",
				"setBaseUri(string)": "infinite",
				"setBatchProperty(bytes32[],uint256[],uint256[])": "infinite",
				"setCurrentNextId(uint256)": "24806",
				"setMultipleProperty(bytes32,uint256[],uint256[])": "infinite",
				"setProperties(bytes32[])": "infinite",
				"setSingleProperty(bytes32,uint256,uint256)": "infinite",
				"supportsInterface(bytes4)": "898",
				"symbol()": "infinite",
				"tokenByIndex(uint256)": "infinite",
				"tokenOfOwnerByIndex(address,uint256)": "infinite",
				"tokenURI(uint256)": "infinite",
				"totalSupply()": "2508",
				"transferFrom(address,address,uint256)": "infinite",
				"transferOwnership(address)": "30742",
				"uint2str(uint256)": "infinite",
				"unpause()": "infinite"
			}
		},
		"methodIdentifiers": {
			"_baseUri()": "3e63eb2a",
			"_currentNextId()": "1c178087",
			"_properties(uint256)": "c0732d03",
			"addManager(address)": "2d06177a",
			"addMinter(address)": "983b2d56",
			"approve(address,uint256)": "095ea7b3",
			"balanceOf(address)": "70a08231",
			"getApproved(uint256)": "081812fc",
			"getBatchProperty(bytes32[],uint256[])": "f56d504f",
			"getMultipleProperty(bytes32,uint256[])": "052641da",
			"getSingleProperty(bytes32,uint256)": "ec4db283",
			"isApprovedForAll(address,address)": "e985e9c5",
			"name()": "06fdde03",
			"owner()": "8da5cb5b",
			"ownerOf(uint256)": "6352211e",
			"pause()": "8456cb59",
			"paused()": "5c975abb",
			"removeManager(address)": "ac18de43",
			"removeMinter(address)": "3092afd5",
			"renounceOwnership()": "715018a6",
			"safeBatchMint(address[])": "681db87c",
			"safeMint(address)": "40d097c3",
			"safeTransferFrom(address,address,uint256)": "42842e0e",
			"safeTransferFrom(address,address,uint256,bytes)": "b88d4fde",
			"setApprovalForAll(address,bool)": "a22cb465",
			"setBaseUri(string)": "a0bcfc7f",
			"setBatchProperty(bytes32[],uint256[],uint256[])": "9034edb5",
			"setCurrentNextId(uint256)": "f2cf203c",
			"setMultipleProperty(bytes32,uint256[],uint256[])": "9c26eb3f",
			"setProperties(bytes32[])": "0b04d31c",
			"setSingleProperty(bytes32,uint256,uint256)": "d9965572",
			"supportsInterface(bytes4)": "01ffc9a7",
			"symbol()": "95d89b41",
			"tokenByIndex(uint256)": "4f6ccce7",
			"tokenOfOwnerByIndex(address,uint256)": "2f745c59",
			"tokenURI(uint256)": "c87b56dd",
			"totalSupply()": "18160ddd",
			"transferFrom(address,address,uint256)": "23b872dd",
			"transferOwnership(address)": "f2fde38b",
			"uint2str(uint256)": "f76f950e",
			"unpause()": "3f4ba83a"
		}
	},
	"abi": [
		{
			"inputs": [
				{
					"internalType": "string",
					"name": "name_",
					"type": "string"
				},
				{
					"internalType": "string",
					"name": "symbol_",
					"type": "string"
				},
				{
					"internalType": "string",
					"name": "baseUri_",
					"type": "string"
				}
			],
			"stateMutability": "nonpayable",
			"type": "constructor"
		},
		{
			"inputs": [],
			"name": "ERC721EnumerableForbiddenBatchMint",
			"type": "error"
		},
		{
			"inputs": [
				{
					"internalType": "address",
					"name": "sender",
					"type": "address"
				},
				{
					"internalType": "uint256",
					"name": "tokenId",
					"type": "uint256"
				},
				{
					"internalType": "address",
					"name": "owner",
					"type": "address"
				}
			],
			"name": "ERC721IncorrectOwner",
			"type": "error"
		},
		{
			"inputs": [
				{
					"internalType": "address",
					"name": "operator",
					"type": "address"
				},
				{
					"internalType": "uint256",
					"name": "tokenId",
					"type": "uint256"
				}
			],
			"name": "ERC721InsufficientApproval",
			"type": "error"
		},
		{
			"inputs": [
				{
					"internalType": "address",
					"name": "approver",
					"type": "address"
				}
			],
			"name": "ERC721InvalidApprover",
			"type": "error"
		},
		{
			"inputs": [
				{
					"internalType": "address",
					"name": "operator",
					"type": "address"
				}
			],
			"name": "ERC721InvalidOperator",
			"type": "error"
		},
		{
			"inputs": [
				{
					"internalType": "address",
					"name": "owner",
					"type": "address"
				}
			],
			"name": "ERC721InvalidOwner",
			"type": "error"
		},
		{
			"inputs": [
				{
					"internalType": "address",
					"name": "receiver",
					"type": "address"
				}
			],
			"name": "ERC721InvalidReceiver",
			"type": "error"
		},
		{
			"inputs": [
				{
					"internalType": "address",
					"name": "sender",
					"type": "address"
				}
			],
			"name": "ERC721InvalidSender",
			"type": "error"
		},
		{
			"inputs": [
				{
					"internalType": "uint256",
					"name": "tokenId",
					"type": "uint256"
				}
			],
			"name": "ERC721NonexistentToken",
			"type": "error"
		},
		{
			"inputs": [
				{
					"internalType": "address",
					"name": "owner",
					"type": "address"
				},
				{
					"internalType": "uint256",
					"name": "index",
					"type": "uint256"
				}
			],
			"name": "ERC721OutOfBoundsIndex",
			"type": "error"
		},
		{
			"inputs": [],
			"name": "EnforcedPause",
			"type": "error"
		},
		{
			"inputs": [],
			"name": "ExpectedPause",
			"type": "error"
		},
		{
			"anonymous": false,
			"inputs": [
				{
					"indexed": true,
					"internalType": "address",
					"name": "owner",
					"type": "address"
				},
				{
					"indexed": true,
					"internalType": "address",
					"name": "approved",
					"type": "address"
				},
				{
					"indexed": true,
					"internalType": "uint256",
					"name": "tokenId",
					"type": "uint256"
				}
			],
			"name": "Approval",
			"type": "event"
		},
		{
			"anonymous": false,
			"inputs": [
				{
					"indexed": true,
					"internalType": "address",
					"name": "owner",
					"type": "address"
				},
				{
					"indexed": true,
					"internalType": "address",
					"name": "operator",
					"type": "address"
				},
				{
					"indexed": false,
					"internalType": "bool",
					"name": "approved",
					"type": "bool"
				}
			],
			"name": "ApprovalForAll",
			"type": "event"
		},
		{
			"anonymous": false,
			"inputs": [
				{
					"indexed": true,
					"internalType": "address",
					"name": "previousOwner",
					"type": "address"
				},
				{
					"indexed": true,
					"internalType": "address",
					"name": "newOwner",
					"type": "address"
				}
			],
			"name": "OwnershipTransferred",
			"type": "event"
		},
		{
			"anonymous": false,
			"inputs": [
				{
					"indexed": false,
					"internalType": "address",
					"name": "account",
					"type": "address"
				}
			],
			"name": "Paused",
			"type": "event"
		},
		{
			"anonymous": false,
			"inputs": [
				{
					"indexed": true,
					"internalType": "address",
					"name": "from",
					"type": "address"
				},
				{
					"indexed": true,
					"internalType": "address",
					"name": "to",
					"type": "address"
				},
				{
					"indexed": true,
					"internalType": "uint256",
					"name": "tokenId",
					"type": "uint256"
				}
			],
			"name": "Transfer",
			"type": "event"
		},
		{
			"anonymous": false,
			"inputs": [
				{
					"indexed": false,
					"internalType": "address",
					"name": "account",
					"type": "address"
				}
			],
			"name": "Unpaused",
			"type": "event"
		},
		{
			"inputs": [],
			"name": "_baseUri",
			"outputs": [
				{
					"internalType": "string",
					"name": "",
					"type": "string"
				}
			],
			"stateMutability": "view",
			"type": "function"
		},
		{
			"inputs": [],
			"name": "_currentNextId",
			"outputs": [
				{
					"internalType": "uint256",
					"name": "",
					"type": "uint256"
				}
			],
			"stateMutability": "view",
			"type": "function"
		},
		{
			"inputs": [
				{
					"internalType": "uint256",
					"name": "",
					"type": "uint256"
				}
			],
			"name": "_properties",
			"outputs": [
				{
					"internalType": "bytes32",
					"name": "",
					"type": "bytes32"
				}
			],
			"stateMutability": "view",
			"type": "function"
		},
		{
			"inputs": [
				{
					"internalType": "address",
					"name": "manager",
					"type": "address"
				}
			],
			"name": "addManager",
			"outputs": [],
			"stateMutability": "nonpayable",
			"type": "function"
		},
		{
			"inputs": [
				{
					"internalType": "address",
					"name": "minter",
					"type": "address"
				}
			],
			"name": "addMinter",
			"outputs": [],
			"stateMutability": "nonpayable",
			"type": "function"
		},
		{
			"inputs": [
				{
					"internalType": "address",
					"name": "to",
					"type": "address"
				},
				{
					"internalType": "uint256",
					"name": "tokenId",
					"type": "uint256"
				}
			],
			"name": "approve",
			"outputs": [],
			"stateMutability": "nonpayable",
			"type": "function"
		},
		{
			"inputs": [
				{
					"internalType": "address",
					"name": "owner",
					"type": "address"
				}
			],
			"name": "balanceOf",
			"outputs": [
				{
					"internalType": "uint256",
					"name": "",
					"type": "uint256"
				}
			],
			"stateMutability": "view",
			"type": "function"
		},
		{
			"inputs": [
				{
					"internalType": "uint256",
					"name": "tokenId",
					"type": "uint256"
				}
			],
			"name": "getApproved",
			"outputs": [
				{
					"internalType": "address",
					"name": "",
					"type": "address"
				}
			],
			"stateMutability": "view",
			"type": "function"
		},
		{
			"inputs": [
				{
					"internalType": "bytes32[]",
					"name": "_property",
					"type": "bytes32[]"
				},
				{
					"internalType": "uint256[]",
					"name": "_id",
					"type": "uint256[]"
				}
			],
			"name": "getBatchProperty",
			"outputs": [
				{
					"internalType": "uint256[]",
					"name": "_value",
					"type": "uint256[]"
				}
			],
			"stateMutability": "view",
			"type": "function"
		},
		{
			"inputs": [
				{
					"internalType": "bytes32",
					"name": "_property",
					"type": "bytes32"
				},
				{
					"internalType": "uint256[]",
					"name": "_id",
					"type": "uint256[]"
				}
			],
			"name": "getMultipleProperty",
			"outputs": [
				{
					"internalType": "uint256[]",
					"name": "_value",
					"type": "uint256[]"
				}
			],
			"stateMutability": "view",
			"type": "function"
		},
		{
			"inputs": [
				{
					"internalType": "bytes32",
					"name": "_property",
					"type": "bytes32"
				},
				{
					"internalType": "uint256",
					"name": "_id",
					"type": "uint256"
				}
			],
			"name": "getSingleProperty",
			"outputs": [
				{
					"internalType": "uint256",
					"name": "_value",
					"type": "uint256"
				}
			],
			"stateMutability": "view",
			"type": "function"
		},
		{
			"inputs": [
				{
					"internalType": "address",
					"name": "owner",
					"type": "address"
				},
				{
					"internalType": "address",
					"name": "operator",
					"type": "address"
				}
			],
			"name": "isApprovedForAll",
			"outputs": [
				{
					"internalType": "bool",
					"name": "",
					"type": "bool"
				}
			],
			"stateMutability": "view",
			"type": "function"
		},
		{
			"inputs": [],
			"name": "name",
			"outputs": [
				{
					"internalType": "string",
					"name": "",
					"type": "string"
				}
			],
			"stateMutability": "view",
			"type": "function"
		},
		{
			"inputs": [],
			"name": "owner",
			"outputs": [
				{
					"internalType": "address",
					"name": "",
					"type": "address"
				}
			],
			"stateMutability": "view",
			"type": "function"
		},
		{
			"inputs": [
				{
					"internalType": "uint256",
					"name": "tokenId",
					"type": "uint256"
				}
			],
			"name": "ownerOf",
			"outputs": [
				{
					"internalType": "address",
					"name": "",
					"type": "address"
				}
			],
			"stateMutability": "view",
			"type": "function"
		},
		{
			"inputs": [],
			"name": "pause",
			"outputs": [],
			"stateMutability": "nonpayable",
			"type": "function"
		},
		{
			"inputs": [],
			"name": "paused",
			"outputs": [
				{
					"internalType": "bool",
					"name": "",
					"type": "bool"
				}
			],
			"stateMutability": "view",
			"type": "function"
		},
		{
			"inputs": [
				{
					"internalType": "address",
					"name": "manager",
					"type": "address"
				}
			],
			"name": "removeManager",
			"outputs": [],
			"stateMutability": "nonpayable",
			"type": "function"
		},
		{
			"inputs": [
				{
					"internalType": "address",
					"name": "minter",
					"type": "address"
				}
			],
			"name": "removeMinter",
			"outputs": [],
			"stateMutability": "nonpayable",
			"type": "function"
		},
		{
			"inputs": [],
			"name": "renounceOwnership",
			"outputs": [],
			"stateMutability": "nonpayable",
			"type": "function"
		},
		{
			"inputs": [
				{
					"internalType": "address[]",
					"name": "_to",
					"type": "address[]"
				}
			],
			"name": "safeBatchMint",
			"outputs": [],
			"stateMutability": "nonpayable",
			"type": "function"
		},
		{
			"inputs": [
				{
					"internalType": "address",
					"name": "_to",
					"type": "address"
				}
			],
			"name": "safeMint",
			"outputs": [],
			"stateMutability": "nonpayable",
			"type": "function"
		},
		{
			"inputs": [
				{
					"internalType": "address",
					"name": "from",
					"type": "address"
				},
				{
					"internalType": "address",
					"name": "to",
					"type": "address"
				},
				{
					"internalType": "uint256",
					"name": "tokenId",
					"type": "uint256"
				}
			],
			"name": "safeTransferFrom",
			"outputs": [],
			"stateMutability": "nonpayable",
			"type": "function"
		},
		{
			"inputs": [
				{
					"internalType": "address",
					"name": "from",
					"type": "address"
				},
				{
					"internalType": "address",
					"name": "to",
					"type": "address"
				},
				{
					"internalType": "uint256",
					"name": "tokenId",
					"type": "uint256"
				},
				{
					"internalType": "bytes",
					"name": "data",
					"type": "bytes"
				}
			],
			"name": "safeTransferFrom",
			"outputs": [],
			"stateMutability": "nonpayable",
			"type": "function"
		},
		{
			"inputs": [
				{
					"internalType": "address",
					"name": "operator",
					"type": "address"
				},
				{
					"internalType": "bool",
					"name": "approved",
					"type": "bool"
				}
			],
			"name": "setApprovalForAll",
			"outputs": [],
			"stateMutability": "nonpayable",
			"type": "function"
		},
		{
			"inputs": [
				{
					"internalType": "string",
					"name": "newuri",
					"type": "string"
				}
			],
			"name": "setBaseUri",
			"outputs": [],
			"stateMutability": "nonpayable",
			"type": "function"
		},
		{
			"inputs": [
				{
					"internalType": "bytes32[]",
					"name": "_property",
					"type": "bytes32[]"
				},
				{
					"internalType": "uint256[]",
					"name": "_id",
					"type": "uint256[]"
				},
				{
					"internalType": "uint256[]",
					"name": "_value",
					"type": "uint256[]"
				}
			],
			"name": "setBatchProperty",
			"outputs": [],
			"stateMutability": "nonpayable",
			"type": "function"
		},
		{
			"inputs": [
				{
					"internalType": "uint256",
					"name": "_newNextId",
					"type": "uint256"
				}
			],
			"name": "setCurrentNextId",
			"outputs": [],
			"stateMutability": "nonpayable",
			"type": "function"
		},
		{
			"inputs": [
				{
					"internalType": "bytes32",
					"name": "_property",
					"type": "bytes32"
				},
				{
					"internalType": "uint256[]",
					"name": "_id",
					"type": "uint256[]"
				},
				{
					"internalType": "uint256[]",
					"name": "_value",
					"type": "uint256[]"
				}
			],
			"name": "setMultipleProperty",
			"outputs": [],
			"stateMutability": "nonpayable",
			"type": "function"
		},
		{
			"inputs": [
				{
					"internalType": "bytes32[]",
					"name": "_propertyList",
					"type": "bytes32[]"
				}
			],
			"name": "setProperties",
			"outputs": [],
			"stateMutability": "nonpayable",
			"type": "function"
		},
		{
			"inputs": [
				{
					"internalType": "bytes32",
					"name": "_property",
					"type": "bytes32"
				},
				{
					"internalType": "uint256",
					"name": "_id",
					"type": "uint256"
				},
				{
					"internalType": "uint256",
					"name": "_value",
					"type": "uint256"
				}
			],
			"name": "setSingleProperty",
			"outputs": [],
			"stateMutability": "nonpayable",
			"type": "function"
		},
		{
			"inputs": [
				{
					"internalType": "bytes4",
					"name": "interfaceId",
					"type": "bytes4"
				}
			],
			"name": "supportsInterface",
			"outputs": [
				{
					"internalType": "bool",
					"name": "",
					"type": "bool"
				}
			],
			"stateMutability": "view",
			"type": "function"
		},
		{
			"inputs": [],
			"name": "symbol",
			"outputs": [
				{
					"internalType": "string",
					"name": "",
					"type": "string"
				}
			],
			"stateMutability": "view",
			"type": "function"
		},
		{
			"inputs": [
				{
					"internalType": "uint256",
					"name": "index",
					"type": "uint256"
				}
			],
			"name": "tokenByIndex",
			"outputs": [
				{
					"internalType": "uint256",
					"name": "",
					"type": "uint256"
				}
			],
			"stateMutability": "view",
			"type": "function"
		},
		{
			"inputs": [
				{
					"internalType": "address",
					"name": "owner",
					"type": "address"
				},
				{
					"internalType": "uint256",
					"name": "index",
					"type": "uint256"
				}
			],
			"name": "tokenOfOwnerByIndex",
			"outputs": [
				{
					"internalType": "uint256",
					"name": "",
					"type": "uint256"
				}
			],
			"stateMutability": "view",
			"type": "function"
		},
		{
			"inputs": [
				{
					"internalType": "uint256",
					"name": "_id",
					"type": "uint256"
				}
			],
			"name": "tokenURI",
			"outputs": [
				{
					"internalType": "string",
					"name": "",
					"type": "string"
				}
			],
			"stateMutability": "view",
			"type": "function"
		},
		{
			"inputs": [],
			"name": "totalSupply",
			"outputs": [
				{
					"internalType": "uint256",
					"name": "",
					"type": "uint256"
				}
			],
			"stateMutability": "view",
			"type": "function"
		},
		{
			"inputs": [
				{
					"internalType": "address",
					"name": "from",
					"type": "address"
				},
				{
					"internalType": "address",
					"name": "to",
					"type": "address"
				},
				{
					"internalType": "uint256",
					"name": "tokenId",
					"type": "uint256"
				}
			],
			"name": "transferFrom",
			"outputs": [],
			"stateMutability": "nonpayable",
			"type": "function"
		},
		{
			"inputs": [
				{
					"internalType": "address",
					"name": "newOwner",
					"type": "address"
				}
			],
			"name": "transferOwnership",
			"outputs": [],
			"stateMutability": "nonpayable",
			"type": "function"
		},
		{
			"inputs": [
				{
					"internalType": "uint256",
					"name": "_i",
					"type": "uint256"
				}
			],
			"name": "uint2str",
			"outputs": [
				{
					"internalType": "string",
					"name": "_uintAsString",
					"type": "string"
				}
			],
			"stateMutability": "pure",
			"type": "function"
		},
		{
			"inputs": [],
			"name": "unpause",
			"outputs": [],
			"stateMutability": "nonpayable",
			"type": "function"
		}
	]
}