{
	"data": {
		"bytecode": {
			"linkReferences": {},
			"object": "61050761004e600b8282823980515f1a607314610042577f4e487b71000000000000000000000000000000000000000000000000000000005f525f60045260245ffd5b305f52607381538281f3fe7300000000000000000000000000000000000000003014608060405260043610610034575f3560e01c8063f76f950e14610038575b5f80fd5b610052600480360381019061004d919061021d565b610068565b60405161005f91906102d2565b60405180910390f35b60605f82036100ae576040518060400160405280600181526020017f300000000000000000000000000000000000000000000000000000000000000081525090506101e1565b5f8290505f5b5f82146100dd5780806100c69061031f565b915050600a826100d69190610393565b91506100b4565b5f8167ffffffffffffffff8111156100f8576100f76103c3565b5b6040519080825280601f01601f19166020018201604052801561012a5781602001600182028036833780820191505090505b5090505f8290505b5f86146101d95760018161014691906103f0565b90505f600a80886101579190610393565b6101619190610423565b8761016c91906103f0565b60306101789190610470565b90505f8160f81b905080848481518110610195576101946104a4565b5b60200101907effffffffffffffffffffffffffffffffffffffffffffffffffffffffffffff191690815f1a905350600a886101d09190610393565b97505050610132565b819450505050505b919050565b5f80fd5b5f819050919050565b6101fc816101ea565b8114610206575f80fd5b50565b5f81359050610217816101f3565b92915050565b5f60208284031215610232576102316101e6565b5b5f61023f84828501610209565b91505092915050565b5f81519050919050565b5f82825260208201905092915050565b5f5b8381101561027f578082015181840152602081019050610264565b5f8484015250505050565b5f601f19601f8301169050919050565b5f6102a482610248565b6102ae8185610252565b93506102be818560208601610262565b6102c78161028a565b840191505092915050565b5f6020820190508181035f8301526102ea818461029a565b905092915050565b7f4e487b71000000000000000000000000000000000000000000000000000000005f52601160045260245ffd5b5f610329826101ea565b91507fffffffffffffffffffffffffffffffffffffffffffffffffffffffffffffffff820361035b5761035a6102f2565b5b600182019050919050565b7f4e487b71000000000000000000000000000000000000000000000000000000005f52601260045260245ffd5b5f61039d826101ea565b91506103a8836101ea565b9250826103b8576103b7610366565b5b828204905092915050565b7f4e487b71000000000000000000000000000000000000000000000000000000005f52604160045260245ffd5b5f6103fa826101ea565b9150610405836101ea565b925082820390508181111561041d5761041c6102f2565b5b92915050565b5f61042d826101ea565b9150610438836101ea565b9250828202610446816101ea565b9150828204841483151761045d5761045c6102f2565b5b5092915050565b5f60ff82169050919050565b5f61047a82610464565b915061048583610464565b9250828201905060ff81111561049e5761049d6102f2565b5b92915050565b7f4e487b71000000000000000000000000000000000000000000000000000000005f52603260045260245ffdfea26469706673582212207ddd7265b501389e569f50afa0d222bd989dd2c0817fd9449d4f41c85dc301e664736f6c63430008150033",
			"opcodes": "PUSH2 0x507 PUSH2 0x4E PUSH1 0xB DUP3 DUP3 DUP3 CODECOPY DUP1 MLOAD PUSH0 BYTE PUSH1 0x73 EQ PUSH2 0x42 JUMPI PUSH32 0x4E487B7100000000000000000000000000000000000000000000000000000000 PUSH0 MSTORE PUSH0 PUSH1 0x4 MSTORE PUSH1 0x24 PUSH0 REVERT JUMPDEST ADDRESS PUSH0 MSTORE PUSH1 0x73 DUP2 MSTORE8 DUP3 DUP2 RETURN INVALID PUSH20 0x0 ADDRESS EQ PUSH1 0x80 PUSH1 0x40 MSTORE PUSH1 0x4 CALLDATASIZE LT PUSH2 0x34 JUMPI PUSH0 CALLDATALOAD PUSH1 0xE0 SHR DUP1 PUSH4 0xF76F950E EQ PUSH2 0x38 JUMPI JUMPDEST PUSH0 DUP1 REVERT JUMPDEST PUSH2 0x52 PUSH1 0x4 DUP1 CALLDATASIZE SUB DUP2 ADD SWAP1 PUSH2 0x4D SWAP2 SWAP1 PUSH2 0x21D JUMP JUMPDEST PUSH2 0x68 JUMP JUMPDEST PUSH1 0x40 MLOAD PUSH2 0x5F SWAP2 SWAP1 PUSH2 0x2D2 JUMP JUMPDEST PUSH1 0x40 MLOAD DUP1 SWAP2 SUB SWAP1 RETURN JUMPDEST PUSH1 0x60 PUSH0 DUP3 SUB PUSH2 0xAE JUMPI PUSH1 0x40 MLOAD DUP1 PUSH1 0x40 ADD PUSH1 0x40 MSTORE DUP1 PUSH1 0x1 DUP2 MSTORE PUSH1 0x20 ADD PUSH32 0x3000000000000000000000000000000000000000000000000000000000000000 DUP2 MSTORE POP SWAP1 POP PUSH2 0x1E1 JUMP JUMPDEST PUSH0 DUP3 SWAP1 POP PUSH0 JUMPDEST PUSH0 DUP3 EQ PUSH2 0xDD JUMPI DUP1 DUP1 PUSH2 0xC6 SWAP1 PUSH2 0x31F JUMP JUMPDEST SWAP2 POP POP PUSH1 0xA DUP3 PUSH2 0xD6 SWAP2 SWAP1 PUSH2 0x393 JUMP JUMPDEST SWAP2 POP PUSH2 0xB4 JUMP JUMPDEST PUSH0 DUP2 PUSH8 0xFFFFFFFFFFFFFFFF DUP2 GT ISZERO PUSH2 0xF8 JUMPI PUSH2 0xF7 PUSH2 0x3C3 JUMP JUMPDEST JUMPDEST PUSH1 0x40 MLOAD SWAP1 DUP1 DUP3 MSTORE DUP1 PUSH1 0x1F ADD PUSH1 0x1F NOT AND PUSH1 0x20 ADD DUP3 ADD PUSH1 0x40 MSTORE DUP1 ISZERO PUSH2 0x12A JUMPI DUP2 PUSH1 0x20 ADD PUSH1 0x1 DUP3 MUL DUP1 CALLDATASIZE DUP4 CALLDATACOPY DUP1 DUP3 ADD SWAP2 POP POP SWAP1 POP JUMPDEST POP SWAP1 POP PUSH0 DUP3 SWAP1 POP JUMPDEST PUSH0 DUP7 EQ PUSH2 0x1D9 JUMPI PUSH1 0x1 DUP2 PUSH2 0x146 SWAP2 SWAP1 PUSH2 0x3F0 JUMP JUMPDEST SWAP1 POP PUSH0 PUSH1 0xA DUP1 DUP9 PUSH2 0x157 SWAP2 SWAP1 PUSH2 0x393 JUMP JUMPDEST PUSH2 0x161 SWAP2 SWAP1 PUSH2 0x423 JUMP JUMPDEST DUP8 PUSH2 0x16C SWAP2 SWAP1 PUSH2 0x3F0 JUMP JUMPDEST PUSH1 0x30 PUSH2 0x178 SWAP2 SWAP1 PUSH2 0x470 JUMP JUMPDEST SWAP1 POP PUSH0 DUP2 PUSH1 0xF8 SHL SWAP1 POP DUP1 DUP5 DUP5 DUP2 MLOAD DUP2 LT PUSH2 0x195 JUMPI PUSH2 0x194 PUSH2 0x4A4 JUMP JUMPDEST JUMPDEST PUSH1 0x20 ADD ADD SWAP1 PUSH31 0xFFFFFFFFFFFFFFFFFFFFFFFFFFFFFFFFFFFFFFFFFFFFFFFFFFFFFFFFFFFFFF NOT AND SWAP1 DUP2 PUSH0 BYTE SWAP1 MSTORE8 POP PUSH1 0xA DUP9 PUSH2 0x1D0 SWAP2 SWAP1 PUSH2 0x393 JUMP JUMPDEST SWAP8 POP POP POP PUSH2 0x132 JUMP JUMPDEST DUP2 SWAP5 POP POP POP POP POP JUMPDEST SWAP2 SWAP1 POP JUMP JUMPDEST PUSH0 DUP1 REVERT JUMPDEST PUSH0 DUP2 SWAP1 POP SWAP2 SWAP1 POP JUMP JUMPDEST PUSH2 0x1FC DUP2 PUSH2 0x1EA JUMP JUMPDEST DUP2 EQ PUSH2 0x206 JUMPI PUSH0 DUP1 REVERT JUMPDEST POP JUMP JUMPDEST PUSH0 DUP2 CALLDATALOAD SWAP1 POP PUSH2 0x217 DUP2 PUSH2 0x1F3 JUMP JUMPDEST SWAP3 SWAP2 POP POP JUMP JUMPDEST PUSH0 PUSH1 0x20 DUP3 DUP5 SUB SLT ISZERO PUSH2 0x232 JUMPI PUSH2 0x231 PUSH2 0x1E6 JUMP JUMPDEST JUMPDEST PUSH0 PUSH2 0x23F DUP5 DUP3 DUP6 ADD PUSH2 0x209 JUMP JUMPDEST SWAP2 POP POP SWAP3 SWAP2 POP POP JUMP JUMPDEST PUSH0 DUP2 MLOAD SWAP1 POP SWAP2 SWAP1 POP JUMP JUMPDEST PUSH0 DUP3 DUP3 MSTORE PUSH1 0x20 DUP3 ADD SWAP1 POP SWAP3 SWAP2 POP POP JUMP JUMPDEST PUSH0 JUMPDEST DUP4 DUP2 LT ISZERO PUSH2 0x27F JUMPI DUP1 DUP3 ADD MLOAD DUP2 DUP5 ADD MSTORE PUSH1 0x20 DUP2 ADD SWAP1 POP PUSH2 0x264 JUMP JUMPDEST PUSH0 DUP5 DUP5 ADD MSTORE POP POP POP POP JUMP JUMPDEST PUSH0 PUSH1 0x1F NOT PUSH1 0x1F DUP4 ADD AND SWAP1 POP SWAP2 SWAP1 POP JUMP JUMPDEST PUSH0 PUSH2 0x2A4 DUP3 PUSH2 0x248 JUMP JUMPDEST PUSH2 0x2AE DUP2 DUP6 PUSH2 0x252 JUMP JUMPDEST SWAP4 POP PUSH2 0x2BE DUP2 DUP6 PUSH1 0x20 DUP7 ADD PUSH2 0x262 JUMP JUMPDEST PUSH2 0x2C7 DUP2 PUSH2 0x28A JUMP JUMPDEST DUP5 ADD SWAP2 POP POP SWAP3 SWAP2 POP POP JUMP JUMPDEST PUSH0 PUSH1 0x20 DUP3 ADD SWAP1 POP DUP2 DUP2 SUB PUSH0 DUP4 ADD MSTORE PUSH2 0x2EA DUP2 DUP5 PUSH2 0x29A JUMP JUMPDEST SWAP1 POP SWAP3 SWAP2 POP POP JUMP JUMPDEST PUSH32 0x4E487B7100000000000000000000000000000000000000000000000000000000 PUSH0 MSTORE PUSH1 0x11 PUSH1 0x4 MSTORE PUSH1 0x24 PUSH0 REVERT JUMPDEST PUSH0 PUSH2 0x329 DUP3 PUSH2 0x1EA JUMP JUMPDEST SWAP2 POP PUSH32 0xFFFFFFFFFFFFFFFFFFFFFFFFFFFFFFFFFFFFFFFFFFFFFFFFFFFFFFFFFFFFFFFF DUP3 SUB PUSH2 0x35B JUMPI PUSH2 0x35A PUSH2 0x2F2 JUMP JUMPDEST JUMPDEST PUSH1 0x1 DUP3 ADD SWAP1 POP SWAP2 SWAP1 POP JUMP JUMPDEST PUSH32 0x4E487B7100000000000000000000000000000000000000000000000000000000 PUSH0 MSTORE PUSH1 0x12 PUSH1 0x4 MSTORE PUSH1 0x24 PUSH0 REVERT JUMPDEST PUSH0 PUSH2 0x39D DUP3 PUSH2 0x1EA JUMP JUMPDEST SWAP2 POP PUSH2 0x3A8 DUP4 PUSH2 0x1EA JUMP JUMPDEST SWAP3 POP DUP3 PUSH2 0x3B8 JUMPI PUSH2 0x3B7 PUSH2 0x366 JUMP JUMPDEST JUMPDEST DUP3 DUP3 DIV SWAP1 POP SWAP3 SWAP2 POP POP JUMP JUMPDEST PUSH32 0x4E487B7100000000000000000000000000000000000000000000000000000000 PUSH0 MSTORE PUSH1 0x41 PUSH1 0x4 MSTORE PUSH1 0x24 PUSH0 REVERT JUMPDEST PUSH0 PUSH2 0x3FA DUP3 PUSH2 0x1EA JUMP JUMPDEST SWAP2 POP PUSH2 0x405 DUP4 PUSH2 0x1EA JUMP JUMPDEST SWAP3 POP DUP3 DUP3 SUB SWAP1 POP DUP2 DUP2 GT ISZERO PUSH2 0x41D JUMPI PUSH2 0x41C PUSH2 0x2F2 JUMP JUMPDEST JUMPDEST SWAP3 SWAP2 POP POP JUMP JUMPDEST PUSH0 PUSH2 0x42D DUP3 PUSH2 0x1EA JUMP JUMPDEST SWAP2 POP PUSH2 0x438 DUP4 PUSH2 0x1EA JUMP JUMPDEST SWAP3 POP DUP3 DUP3 MUL PUSH2 0x446 DUP2 PUSH2 0x1EA JUMP JUMPDEST SWAP2 POP DUP3 DUP3 DIV DUP5 EQ DUP4 ISZERO OR PUSH2 0x45D JUMPI PUSH2 0x45C PUSH2 0x2F2 JUMP JUMPDEST JUMPDEST POP SWAP3 SWAP2 POP POP JUMP JUMPDEST PUSH0 PUSH1 0xFF DUP3 AND SWAP1 POP SWAP2 SWAP1 POP JUMP JUMPDEST PUSH0 PUSH2 0x47A DUP3 PUSH2 0x464 JUMP JUMPDEST SWAP2 POP PUSH2 0x485 DUP4 PUSH2 0x464 JUMP JUMPDEST SWAP3 POP DUP3 DUP3 ADD SWAP1 POP PUSH1 0xFF DUP2 GT ISZERO PUSH2 0x49E JUMPI PUSH2 0x49D PUSH2 0x2F2 JUMP JUMPDEST JUMPDEST SWAP3 SWAP2 POP POP JUMP JUMPDEST PUSH32 0x4E487B7100000000000000000000000000000000000000000000000000000000 PUSH0 MSTORE PUSH1 0x32 PUSH1 0x4 MSTORE PUSH1 0x24 PUSH0 REVERT INVALID LOG2 PUSH5 0x6970667358 0x22 SLT KECCAK256 PUSH30 0xDD7265B501389E569F50AFA0D222BD989DD2C0817FD9449D4F41C85DC301 0xE6 PUSH5 0x736F6C6343 STOP ADDMOD ISZERO STOP CALLER "
		},
		"gasEstimates": {
			"creation": {
				"codeDepositCost": "257400",
				"executionCost": "323",
				"totalCost": "257723"
			},
			"external": {
				"uint2str(uint256)": "infinite"
			}
		},
		"methodIdentifiers": {
			"uint2str(uint256)": "f76f950e"
		}
	},
	"abi": [
		{
			"inputs": [
				{
					"internalType": "uint256",
					"name": "_i",
					"type": "uint256"
				}
			],
			"name": "uint2str",
			"outputs": [
				{
					"internalType": "string",
					"name": "_uintAsString",
					"type": "string"
				}
			],
			"stateMutability": "pure",
			"type": "function"
		}
	]
}