{
	"data": {
		"bytecode": {
			"linkReferences": {},
			"object": "60806040526001600555348015610014575f80fd5b50612099806100225f395ff3fe608060405234801561000f575f80fd5b50600436106100fe575f3560e01c80636b4c203111610095578063ba0419ee11610064578063ba0419ee146102cc578063d3077e50146102ff578063e94b0dd21461032f578063f0640ac01461035f576100fe565b80636b4c20311461023257806374aa640b146102625780639d5260c514610280578063a102d7da146102b0576100fe565b80632c9115c7116100d15780632c9115c7146101865780633e56e6c3146101b657806355759204146101d25780636826f29614610202576100fe565b806307431ea81461010257806317e080461461011e57806328c689f41461013a5780632bcbc54d1461016a575b5f80fd5b61011c600480360381019061011791906116e4565b61038f565b005b61013860048036038101906101339190611769565b610443565b005b610154600480360381019061014f91906117b9565b6104f7565b6040516101619190611806565b60405180910390f35b610184600480360381019061017f9190611854565b610522565b005b6101a0600480360381019061019b91906116e4565b6105da565b6040516101ad91906118da565b60405180910390f35b6101d060048036038101906101cb91906118f3565b61060a565b005b6101ec60048036038101906101e79190611931565b610853565b6040516101f99190611aae565b60405180910390f35b61021c600480360381019061021791906118f3565b610b40565b6040516102299190611aae565b60405180910390f35b61024c600480360381019061024791906116e4565b610d0e565b60405161025991906118da565b60405180910390f35b61026a610d3e565b6040516102779190611806565b60405180910390f35b61029a60048036038101906102959190611931565b610d44565b6040516102a79190611add565b60405180910390f35b6102ca60048036038101906102c59190611af6565b610d61565b005b6102e660048036038101906102e191906116e4565b61106f565b6040516102f69493929190611b93565b60405180910390f35b610319600480360381019061031491906117b9565b6110a7565b6040516103269190611806565b60405180910390f35b610349600480360381019061034491906116e4565b6110d2565b60405161035691906118da565b60405180910390f35b610379600480360381019061037491906116e4565b611101565b6040516103869190611806565b60405180910390f35b5f808281526020019081526020015f205f9054906101000a900473ffffffffffffffffffffffffffffffffffffffff1673ffffffffffffffffffffffffffffffffffffffff166103dd611116565b73ffffffffffffffffffffffffffffffffffffffff1614610433576040517f08c379a000000000000000000000000000000000000000000000000000000000815260040161042a90611c30565b60405180910390fd5b610440815f805f8061111d565b50565b5f808481526020019081526020015f205f9054906101000a900473ffffffffffffffffffffffffffffffffffffffff1673ffffffffffffffffffffffffffffffffffffffff16610491611116565b73ffffffffffffffffffffffffffffffffffffffff16146104e7576040517f08c379a00000000000000000000000000000000000000000000000000000000081526004016104de90611c30565b60405180910390fd5b6104f28383836113bc565b505050565b6004602052815f5260405f208181548110610510575f80fd5b905f5260205f20015f91509150505481565b5f808681526020019081526020015f205f9054906101000a900473ffffffffffffffffffffffffffffffffffffffff1673ffffffffffffffffffffffffffffffffffffffff16610570611116565b73ffffffffffffffffffffffffffffffffffffffff16146105c6576040517f08c379a00000000000000000000000000000000000000000000000000000000081526004016105bd90611c30565b60405180910390fd5b6105d3858585858561111d565b5050505050565b6007602052805f5260405f205f915054906101000a900473ffffffffffffffffffffffffffffffffffffffff1681565b5f60075f8481526020019081526020015f205f9054906101000a900473ffffffffffffffffffffffffffffffffffffffff1690505f60065f8581526020019081526020015f205490505f8111610695576040517f08c379a000000000000000000000000000000000000000000000000000000000815260040161068c90611c98565b60405180910390fd5b60085f8581526020019081526020015f20600101548360085f8781526020019081526020015f20600201546106ca9190611ce3565b111561070b576040517f08c379a000000000000000000000000000000000000000000000000000000000815260040161070290611d60565b60405180910390fd5b5f60085f8681526020019081526020015f206002015490505f5b8481101561075d5761074c610738611116565b8783856107459190611ce3565b8787611475565b8061075690611d7e565b9050610725565b505f805f8781526020019081526020015f205f9054906101000a900473ffffffffffffffffffffffffffffffffffffffff1690508373ffffffffffffffffffffffffffffffffffffffff166323b872dd6107b5611116565b8388876107c29190611dc5565b6040518463ffffffff1660e01b81526004016107e093929190611e06565b6020604051808303815f875af11580156107fc573d5f803e3d5ffd5b505050506040513d601f19601f820116820180604052508101906108209190611e4f565b508460085f8881526020019081526020015f206002015f8282546108449190611ce3565b92505081905550505050505050565b60605f60015f8473ffffffffffffffffffffffffffffffffffffffff1673ffffffffffffffffffffffffffffffffffffffff1681526020019081526020015f208054806020026020016040519081016040528092919081815260200182805480156108db57602002820191905f5260205f20905b8154815260200190600101908083116108c7575b505050505090505f815167ffffffffffffffff8111156108fe576108fd611e7a565b5b60405190808252806020026020018201604052801561093757816020015b61092461164b565b81526020019060019003908161091c5790505b5090505f5b8251811015610b35576040518060e0016040528084838151811061096357610962611ea7565b5b6020026020010151815260200160035f86858151811061098657610985611ea7565b5b602002602001015181526020019081526020015f205f9054906101000a900473ffffffffffffffffffffffffffffffffffffffff1673ffffffffffffffffffffffffffffffffffffffff16815260200160075f8685815181106109ec576109eb611ea7565b5b602002602001015181526020019081526020015f205f9054906101000a900473ffffffffffffffffffffffffffffffffffffffff1673ffffffffffffffffffffffffffffffffffffffff16815260200160065f868581518110610a5257610a51611ea7565b5b602002602001015181526020019081526020015f2054815260200160085f868581518110610a8357610a82611ea7565b5b602002602001015181526020019081526020015f205f0154815260200160085f868581518110610ab657610ab5611ea7565b5b602002602001015181526020019081526020015f2060010154815260200160085f868581518110610aea57610ae9611ea7565b5b602002602001015181526020019081526020015f2060020154815250828281518110610b1957610b18611ea7565b5b602002602001018190525080610b2e90611d7e565b905061093c565b508092505050919050565b60605f8383610b4f9190611ed4565b67ffffffffffffffff811115610b6857610b67611e7a565b5b604051908082528060200260200182016040528015610ba157816020015b610b8e61164b565b815260200190600190039081610b865790505b5090505f8490505b8381108015610bb9575060055481105b15610d03576040518060e0016040528082815260200160035f8481526020019081526020015f205f9054906101000a900473ffffffffffffffffffffffffffffffffffffffff1673ffffffffffffffffffffffffffffffffffffffff16815260200160075f8481526020019081526020015f205f9054906101000a900473ffffffffffffffffffffffffffffffffffffffff1673ffffffffffffffffffffffffffffffffffffffff16815260200160065f8481526020019081526020015f2054815260200160085f8481526020019081526020015f205f0154815260200160085f8481526020019081526020015f2060010154815260200160085f8481526020019081526020015f2060020154815250828683610cd69190611ed4565b81518110610ce757610ce6611ea7565b5b602002602001018190525080610cfc90611d7e565b9050610ba9565b508091505092915050565b6003602052805f5260405f205f915054906101000a900473ffffffffffffffffffffffffffffffffffffffff1681565b60055481565b6002602052805f5260405f205f915054906101000a900460ff1681565b5f60055490505f8773ffffffffffffffffffffffffffffffffffffffff16638da5cb5b6040518163ffffffff1660e01b8152600401602060405180830381865afa925050508015610dd057506040513d601f19601f82011682018060405250810190610dcd9190611f1b565b60015b610ddc575f9050610e0f565b8973ffffffffffffffffffffffffffffffffffffffff168173ffffffffffffffffffffffffffffffffffffffff16149150505b8873ffffffffffffffffffffffffffffffffffffffff163373ffffffffffffffffffffffffffffffffffffffff161480610e465750805b610e85576040517f08c379a0000000000000000000000000000000000000000000000000000000008152600401610e7c90611fb6565b60405180910390fd5b60015f8a73ffffffffffffffffffffffffffffffffffffffff1673ffffffffffffffffffffffffffffffffffffffff1681526020019081526020015f2082908060018154018082558091505060019003905f5260205f20015f9091909190915055885f808481526020019081526020015f205f6101000a81548173ffffffffffffffffffffffffffffffffffffffff021916908373ffffffffffffffffffffffffffffffffffffffff1602179055508760035f8481526020019081526020015f205f6101000a81548173ffffffffffffffffffffffffffffffffffffffff021916908373ffffffffffffffffffffffffffffffffffffffff16021790555060045f8973ffffffffffffffffffffffffffffffffffffffff1673ffffffffffffffffffffffffffffffffffffffff1681526020019081526020015f2082908060018154018082558091505060019003905f5260205f20015f9091909190915055600160055f828254610ff69190611ce3565b925050819055508773ffffffffffffffffffffffffffffffffffffffff16827ff969889e41a66146585e9096d772989fb856bf8c90a3dab3019385f961d1d0148b60405161104491906118da565b60405180910390a3611059828686888761111d565b6110648288886113bc565b505050505050505050565b6008602052805f5260405f205f91509050805f015490806001015490806002015490806003015f9054906101000a900460ff16905084565b6001602052815f5260405f2081815481106110c0575f80fd5b905f5260205f20015f91509150505481565b5f602052805f5260405f205f915054906101000a900473ffffffffffffffffffffffffffffffffffffffff1681565b6006602052805f5260405f205f915090505481565b5f33905090565b8015611297575f151560025f60035f8981526020019081526020015f205f9054906101000a900473ffffffffffffffffffffffffffffffffffffffff1673ffffffffffffffffffffffffffffffffffffffff1673ffffffffffffffffffffffffffffffffffffffff1681526020019081526020015f205f9054906101000a900460ff1615150361123157600160025f60035f8981526020019081526020015f205f9054906101000a900473ffffffffffffffffffffffffffffffffffffffff1673ffffffffffffffffffffffffffffffffffffffff1673ffffffffffffffffffffffffffffffffffffffff1681526020019081526020015f205f6101000a81548160ff021916908315150217905550611292565b60085f8681526020019081526020015f206003015f9054906101000a900460ff16611291576040517f08c379a00000000000000000000000000000000000000000000000000000000081526004016112889061201e565b60405180910390fd5b5b611343565b60085f8681526020019081526020015f206003015f9054906101000a900460ff1615611342575f60025f60035f8981526020019081526020015f205f9054906101000a900473ffffffffffffffffffffffffffffffffffffffff1673ffffffffffffffffffffffffffffffffffffffff1673ffffffffffffffffffffffffffffffffffffffff1681526020019081526020015f205f6101000a81548160ff0219169083151502179055505b5b604051806080016040528085815260200184815260200183815260200182151581525060085f8781526020019081526020015f205f820151815f015560208201518160010155604082015181600201556060820151816003015f6101000a81548160ff0219169083151502179055509050505050505050565b8060065f8581526020019081526020015f20819055508160075f8581526020019081526020015f205f6101000a81548173ffffffffffffffffffffffffffffffffffffffff021916908373ffffffffffffffffffffffffffffffffffffffff1602179055508173ffffffffffffffffffffffffffffffffffffffff16837fa12a16bd71e55bbf7799c7df296ece9879529ade9513321b2fb2b5e9e3281a57836040516114689190611806565b60405180910390a3505050565b5f60035f8681526020019081526020015f205f9054906101000a900473ffffffffffffffffffffffffffffffffffffffff16905060085f8681526020019081526020015f206003015f9054906101000a900460ff161561153c578073ffffffffffffffffffffffffffffffffffffffff1663a144819487866040518363ffffffff1660e01b815260040161150a92919061203c565b5f604051808303815f87803b158015611521575f80fd5b505af1158015611533573d5f803e3d5ffd5b505050506115db565b5f805f8781526020019081526020015f205f9054906101000a900473ffffffffffffffffffffffffffffffffffffffff1690508173ffffffffffffffffffffffffffffffffffffffff166342842e0e8289886040518463ffffffff1660e01b81526004016115ac93929190611e06565b5f604051808303815f87803b1580156115c3575f80fd5b505af11580156115d5573d5f803e3d5ffd5b50505050505b838173ffffffffffffffffffffffffffffffffffffffff168773ffffffffffffffffffffffffffffffffffffffff167f8870a84c4ffeabaf12b2d60c6cd4671cd4fc012d1b850f5643a16174af016184868660405161163b92919061203c565b60405180910390a4505050505050565b6040518060e001604052805f81526020015f73ffffffffffffffffffffffffffffffffffffffff1681526020015f73ffffffffffffffffffffffffffffffffffffffff1681526020015f81526020015f81526020015f81526020015f81525090565b5f80fd5b5f819050919050565b6116c3816116b1565b81146116cd575f80fd5b50565b5f813590506116de816116ba565b92915050565b5f602082840312156116f9576116f86116ad565b5b5f611706848285016116d0565b91505092915050565b5f73ffffffffffffffffffffffffffffffffffffffff82169050919050565b5f6117388261170f565b9050919050565b6117488161172e565b8114611752575f80fd5b50565b5f813590506117638161173f565b92915050565b5f805f606084860312156117805761177f6116ad565b5b5f61178d868287016116d0565b935050602061179e86828701611755565b92505060406117af868287016116d0565b9150509250925092565b5f80604083850312156117cf576117ce6116ad565b5b5f6117dc85828601611755565b92505060206117ed858286016116d0565b9150509250929050565b611800816116b1565b82525050565b5f6020820190506118195f8301846117f7565b92915050565b5f8115159050919050565b6118338161181f565b811461183d575f80fd5b50565b5f8135905061184e8161182a565b92915050565b5f805f805f60a0868803121561186d5761186c6116ad565b5b5f61187a888289016116d0565b955050602061188b888289016116d0565b945050604061189c888289016116d0565b93505060606118ad888289016116d0565b92505060806118be88828901611840565b9150509295509295909350565b6118d48161172e565b82525050565b5f6020820190506118ed5f8301846118cb565b92915050565b5f8060408385031215611909576119086116ad565b5b5f611916858286016116d0565b9250506020611927858286016116d0565b9150509250929050565b5f60208284031215611946576119456116ad565b5b5f61195384828501611755565b91505092915050565b5f81519050919050565b5f82825260208201905092915050565b5f819050602082019050919050565b61198e816116b1565b82525050565b61199d8161172e565b82525050565b60e082015f8201516119b75f850182611985565b5060208201516119ca6020850182611994565b5060408201516119dd6040850182611994565b5060608201516119f06060850182611985565b506080820151611a036080850182611985565b5060a0820151611a1660a0850182611985565b5060c0820151611a2960c0850182611985565b50505050565b5f611a3a83836119a3565b60e08301905092915050565b5f602082019050919050565b5f611a5c8261195c565b611a668185611966565b9350611a7183611976565b805f5b83811015611aa1578151611a888882611a2f565b9750611a9383611a46565b925050600181019050611a74565b5085935050505092915050565b5f6020820190508181035f830152611ac68184611a52565b905092915050565b611ad78161181f565b82525050565b5f602082019050611af05f830184611ace565b92915050565b5f805f805f805f60e0888a031215611b1157611b106116ad565b5b5f611b1e8a828b01611755565b9750506020611b2f8a828b01611755565b9650506040611b408a828b01611755565b9550506060611b518a828b016116d0565b9450506080611b628a828b016116d0565b93505060a0611b738a828b016116d0565b92505060c0611b848a828b01611840565b91505092959891949750929550565b5f608082019050611ba65f8301876117f7565b611bb360208301866117f7565b611bc060408301856117f7565b611bcd6060830184611ace565b95945050505050565b5f82825260208201905092915050565b7f4e6f7420636f6e74726f6c6c6572206f6620636f6d6d6f6469747900000000005f82015250565b5f611c1a601b83611bd6565b9150611c2582611be6565b602082019050919050565b5f6020820190508181035f830152611c4781611c0e565b9050919050565b7f4e6f2070726963650000000000000000000000000000000000000000000000005f82015250565b5f611c82600883611bd6565b9150611c8d82611c4e565b602082019050919050565b5f6020820190508181035f830152611caf81611c76565b9050919050565b7f4e487b71000000000000000000000000000000000000000000000000000000005f52601160045260245ffd5b5f611ced826116b1565b9150611cf8836116b1565b9250828201905080821115611d1057611d0f611cb6565b5b92915050565b7f546f6b656e4964206e6f7420656e6f7567682f436c6f736500000000000000005f82015250565b5f611d4a601883611bd6565b9150611d5582611d16565b602082019050919050565b5f6020820190508181035f830152611d7781611d3e565b9050919050565b5f611d88826116b1565b91507fffffffffffffffffffffffffffffffffffffffffffffffffffffffffffffffff8203611dba57611db9611cb6565b5b600182019050919050565b5f611dcf826116b1565b9150611dda836116b1565b9250828202611de8816116b1565b91508282048414831517611dff57611dfe611cb6565b5b5092915050565b5f606082019050611e195f8301866118cb565b611e2660208301856118cb565b611e3360408301846117f7565b949350505050565b5f81519050611e498161182a565b92915050565b5f60208284031215611e6457611e636116ad565b5b5f611e7184828501611e3b565b91505092915050565b7f4e487b71000000000000000000000000000000000000000000000000000000005f52604160045260245ffd5b7f4e487b71000000000000000000000000000000000000000000000000000000005f52603260045260245ffd5b5f611ede826116b1565b9150611ee9836116b1565b9250828203905081811115611f0157611f00611cb6565b5b92915050565b5f81519050611f158161173f565b92915050565b5f60208284031215611f3057611f2f6116ad565b5b5f611f3d84828501611f07565b91505092915050565b7f52616e646f6d207472656173757279206163636f756e74206e6f7420616c6c6f5f8201527f77656420756e6c657373204e465420636f6e74726163742773206f776e657220602082015250565b5f611fa0604083611bd6565b9150611fab82611f46565b604082019050919050565b5f6020820190508181035f830152611fcd81611f94565b9050919050565b7f506f74656e7469616c204d696e7420416363657373204c65616b0000000000005f82015250565b5f612008601a83611bd6565b915061201382611fd4565b602082019050919050565b5f6020820190508181035f83015261203581611ffc565b9050919050565b5f60408201905061204f5f8301856118cb565b61205c60208301846117f7565b939250505056fea26469706673582212202e724bc41306d6c4332cb208e486a6a271cc5d475edaf084f37962ab33ac216a64736f6c63430008150033",
			"opcodes": "PUSH1 0x80 PUSH1 0x40 MSTORE PUSH1 0x1 PUSH1 0x5 SSTORE CALLVALUE DUP1 ISZERO PUSH2 0x14 JUMPI PUSH0 DUP1 REVERT JUMPDEST POP PUSH2 0x2099 DUP1 PUSH2 0x22 PUSH0 CODECOPY PUSH0 RETURN INVALID PUSH1 0x80 PUSH1 0x40 MSTORE CALLVALUE DUP1 ISZERO PUSH2 0xF JUMPI PUSH0 DUP1 REVERT JUMPDEST POP PUSH1 0x4 CALLDATASIZE LT PUSH2 0xFE JUMPI PUSH0 CALLDATALOAD PUSH1 0xE0 SHR DUP1 PUSH4 0x6B4C2031 GT PUSH2 0x95 JUMPI DUP1 PUSH4 0xBA0419EE GT PUSH2 0x64 JUMPI DUP1 PUSH4 0xBA0419EE EQ PUSH2 0x2CC JUMPI DUP1 PUSH4 0xD3077E50 EQ PUSH2 0x2FF JUMPI DUP1 PUSH4 0xE94B0DD2 EQ PUSH2 0x32F JUMPI DUP1 PUSH4 0xF0640AC0 EQ PUSH2 0x35F JUMPI PUSH2 0xFE JUMP JUMPDEST DUP1 PUSH4 0x6B4C2031 EQ PUSH2 0x232 JUMPI DUP1 PUSH4 0x74AA640B EQ PUSH2 0x262 JUMPI DUP1 PUSH4 0x9D5260C5 EQ PUSH2 0x280 JUMPI DUP1 PUSH4 0xA102D7DA EQ PUSH2 0x2B0 JUMPI PUSH2 0xFE JUMP JUMPDEST DUP1 PUSH4 0x2C9115C7 GT PUSH2 0xD1 JUMPI DUP1 PUSH4 0x2C9115C7 EQ PUSH2 0x186 JUMPI DUP1 PUSH4 0x3E56E6C3 EQ PUSH2 0x1B6 JUMPI DUP1 PUSH4 0x55759204 EQ PUSH2 0x1D2 JUMPI DUP1 PUSH4 0x6826F296 EQ PUSH2 0x202 JUMPI PUSH2 0xFE JUMP JUMPDEST DUP1 PUSH4 0x7431EA8 EQ PUSH2 0x102 JUMPI DUP1 PUSH4 0x17E08046 EQ PUSH2 0x11E JUMPI DUP1 PUSH4 0x28C689F4 EQ PUSH2 0x13A JUMPI DUP1 PUSH4 0x2BCBC54D EQ PUSH2 0x16A JUMPI JUMPDEST PUSH0 DUP1 REVERT JUMPDEST PUSH2 0x11C PUSH1 0x4 DUP1 CALLDATASIZE SUB DUP2 ADD SWAP1 PUSH2 0x117 SWAP2 SWAP1 PUSH2 0x16E4 JUMP JUMPDEST PUSH2 0x38F JUMP JUMPDEST STOP JUMPDEST PUSH2 0x138 PUSH1 0x4 DUP1 CALLDATASIZE SUB DUP2 ADD SWAP1 PUSH2 0x133 SWAP2 SWAP1 PUSH2 0x1769 JUMP JUMPDEST PUSH2 0x443 JUMP JUMPDEST STOP JUMPDEST PUSH2 0x154 PUSH1 0x4 DUP1 CALLDATASIZE SUB DUP2 ADD SWAP1 PUSH2 0x14F SWAP2 SWAP1 PUSH2 0x17B9 JUMP JUMPDEST PUSH2 0x4F7 JUMP JUMPDEST PUSH1 0x40 MLOAD PUSH2 0x161 SWAP2 SWAP1 PUSH2 0x1806 JUMP JUMPDEST PUSH1 0x40 MLOAD DUP1 SWAP2 SUB SWAP1 RETURN JUMPDEST PUSH2 0x184 PUSH1 0x4 DUP1 CALLDATASIZE SUB DUP2 ADD SWAP1 PUSH2 0x17F SWAP2 SWAP1 PUSH2 0x1854 JUMP JUMPDEST PUSH2 0x522 JUMP JUMPDEST STOP JUMPDEST PUSH2 0x1A0 PUSH1 0x4 DUP1 CALLDATASIZE SUB DUP2 ADD SWAP1 PUSH2 0x19B SWAP2 SWAP1 PUSH2 0x16E4 JUMP JUMPDEST PUSH2 0x5DA JUMP JUMPDEST PUSH1 0x40 MLOAD PUSH2 0x1AD SWAP2 SWAP1 PUSH2 0x18DA JUMP JUMPDEST PUSH1 0x40 MLOAD DUP1 SWAP2 SUB SWAP1 RETURN JUMPDEST PUSH2 0x1D0 PUSH1 0x4 DUP1 CALLDATASIZE SUB DUP2 ADD SWAP1 PUSH2 0x1CB SWAP2 SWAP1 PUSH2 0x18F3 JUMP JUMPDEST PUSH2 0x60A JUMP JUMPDEST STOP JUMPDEST PUSH2 0x1EC PUSH1 0x4 DUP1 CALLDATASIZE SUB DUP2 ADD SWAP1 PUSH2 0x1E7 SWAP2 SWAP1 PUSH2 0x1931 JUMP JUMPDEST PUSH2 0x853 JUMP JUMPDEST PUSH1 0x40 MLOAD PUSH2 0x1F9 SWAP2 SWAP1 PUSH2 0x1AAE JUMP JUMPDEST PUSH1 0x40 MLOAD DUP1 SWAP2 SUB SWAP1 RETURN JUMPDEST PUSH2 0x21C PUSH1 0x4 DUP1 CALLDATASIZE SUB DUP2 ADD SWAP1 PUSH2 0x217 SWAP2 SWAP1 PUSH2 0x18F3 JUMP JUMPDEST PUSH2 0xB40 JUMP JUMPDEST PUSH1 0x40 MLOAD PUSH2 0x229 SWAP2 SWAP1 PUSH2 0x1AAE JUMP JUMPDEST PUSH1 0x40 MLOAD DUP1 SWAP2 SUB SWAP1 RETURN JUMPDEST PUSH2 0x24C PUSH1 0x4 DUP1 CALLDATASIZE SUB DUP2 ADD SWAP1 PUSH2 0x247 SWAP2 SWAP1 PUSH2 0x16E4 JUMP JUMPDEST PUSH2 0xD0E JUMP JUMPDEST PUSH1 0x40 MLOAD PUSH2 0x259 SWAP2 SWAP1 PUSH2 0x18DA JUMP JUMPDEST PUSH1 0x40 MLOAD DUP1 SWAP2 SUB SWAP1 RETURN JUMPDEST PUSH2 0x26A PUSH2 0xD3E JUMP JUMPDEST PUSH1 0x40 MLOAD PUSH2 0x277 SWAP2 SWAP1 PUSH2 0x1806 JUMP JUMPDEST PUSH1 0x40 MLOAD DUP1 SWAP2 SUB SWAP1 RETURN JUMPDEST PUSH2 0x29A PUSH1 0x4 DUP1 CALLDATASIZE SUB DUP2 ADD SWAP1 PUSH2 0x295 SWAP2 SWAP1 PUSH2 0x1931 JUMP JUMPDEST PUSH2 0xD44 JUMP JUMPDEST PUSH1 0x40 MLOAD PUSH2 0x2A7 SWAP2 SWAP1 PUSH2 0x1ADD JUMP JUMPDEST PUSH1 0x40 MLOAD DUP1 SWAP2 SUB SWAP1 RETURN JUMPDEST PUSH2 0x2CA PUSH1 0x4 DUP1 CALLDATASIZE SUB DUP2 ADD SWAP1 PUSH2 0x2C5 SWAP2 SWAP1 PUSH2 0x1AF6 JUMP JUMPDEST PUSH2 0xD61 JUMP JUMPDEST STOP JUMPDEST PUSH2 0x2E6 PUSH1 0x4 DUP1 CALLDATASIZE SUB DUP2 ADD SWAP1 PUSH2 0x2E1 SWAP2 SWAP1 PUSH2 0x16E4 JUMP JUMPDEST PUSH2 0x106F JUMP JUMPDEST PUSH1 0x40 MLOAD PUSH2 0x2F6 SWAP5 SWAP4 SWAP3 SWAP2 SWAP1 PUSH2 0x1B93 JUMP JUMPDEST PUSH1 0x40 MLOAD DUP1 SWAP2 SUB SWAP1 RETURN JUMPDEST PUSH2 0x319 PUSH1 0x4 DUP1 CALLDATASIZE SUB DUP2 ADD SWAP1 PUSH2 0x314 SWAP2 SWAP1 PUSH2 0x17B9 JUMP JUMPDEST PUSH2 0x10A7 JUMP JUMPDEST PUSH1 0x40 MLOAD PUSH2 0x326 SWAP2 SWAP1 PUSH2 0x1806 JUMP JUMPDEST PUSH1 0x40 MLOAD DUP1 SWAP2 SUB SWAP1 RETURN JUMPDEST PUSH2 0x349 PUSH1 0x4 DUP1 CALLDATASIZE SUB DUP2 ADD SWAP1 PUSH2 0x344 SWAP2 SWAP1 PUSH2 0x16E4 JUMP JUMPDEST PUSH2 0x10D2 JUMP JUMPDEST PUSH1 0x40 MLOAD PUSH2 0x356 SWAP2 SWAP1 PUSH2 0x18DA JUMP JUMPDEST PUSH1 0x40 MLOAD DUP1 SWAP2 SUB SWAP1 RETURN JUMPDEST PUSH2 0x379 PUSH1 0x4 DUP1 CALLDATASIZE SUB DUP2 ADD SWAP1 PUSH2 0x374 SWAP2 SWAP1 PUSH2 0x16E4 JUMP JUMPDEST PUSH2 0x1101 JUMP JUMPDEST PUSH1 0x40 MLOAD PUSH2 0x386 SWAP2 SWAP1 PUSH2 0x1806 JUMP JUMPDEST PUSH1 0x40 MLOAD DUP1 SWAP2 SUB SWAP1 RETURN JUMPDEST PUSH0 DUP1 DUP3 DUP2 MSTORE PUSH1 0x20 ADD SWAP1 DUP2 MSTORE PUSH1 0x20 ADD PUSH0 KECCAK256 PUSH0 SWAP1 SLOAD SWAP1 PUSH2 0x100 EXP SWAP1 DIV PUSH20 0xFFFFFFFFFFFFFFFFFFFFFFFFFFFFFFFFFFFFFFFF AND PUSH20 0xFFFFFFFFFFFFFFFFFFFFFFFFFFFFFFFFFFFFFFFF AND PUSH2 0x3DD PUSH2 0x1116 JUMP JUMPDEST PUSH20 0xFFFFFFFFFFFFFFFFFFFFFFFFFFFFFFFFFFFFFFFF AND EQ PUSH2 0x433 JUMPI PUSH1 0x40 MLOAD PUSH32 0x8C379A000000000000000000000000000000000000000000000000000000000 DUP2 MSTORE PUSH1 0x4 ADD PUSH2 0x42A SWAP1 PUSH2 0x1C30 JUMP JUMPDEST PUSH1 0x40 MLOAD DUP1 SWAP2 SUB SWAP1 REVERT JUMPDEST PUSH2 0x440 DUP2 PUSH0 DUP1 PUSH0 DUP1 PUSH2 0x111D JUMP JUMPDEST POP JUMP JUMPDEST PUSH0 DUP1 DUP5 DUP2 MSTORE PUSH1 0x20 ADD SWAP1 DUP2 MSTORE PUSH1 0x20 ADD PUSH0 KECCAK256 PUSH0 SWAP1 SLOAD SWAP1 PUSH2 0x100 EXP SWAP1 DIV PUSH20 0xFFFFFFFFFFFFFFFFFFFFFFFFFFFFFFFFFFFFFFFF AND PUSH20 0xFFFFFFFFFFFFFFFFFFFFFFFFFFFFFFFFFFFFFFFF AND PUSH2 0x491 PUSH2 0x1116 JUMP JUMPDEST PUSH20 0xFFFFFFFFFFFFFFFFFFFFFFFFFFFFFFFFFFFFFFFF AND EQ PUSH2 0x4E7 JUMPI PUSH1 0x40 MLOAD PUSH32 0x8C379A000000000000000000000000000000000000000000000000000000000 DUP2 MSTORE PUSH1 0x4 ADD PUSH2 0x4DE SWAP1 PUSH2 0x1C30 JUMP JUMPDEST PUSH1 0x40 MLOAD DUP1 SWAP2 SUB SWAP1 REVERT JUMPDEST PUSH2 0x4F2 DUP4 DUP4 DUP4 PUSH2 0x13BC JUMP JUMPDEST POP POP POP JUMP JUMPDEST PUSH1 0x4 PUSH1 0x20 MSTORE DUP2 PUSH0 MSTORE PUSH1 0x40 PUSH0 KECCAK256 DUP2 DUP2 SLOAD DUP2 LT PUSH2 0x510 JUMPI PUSH0 DUP1 REVERT JUMPDEST SWAP1 PUSH0 MSTORE PUSH1 0x20 PUSH0 KECCAK256 ADD PUSH0 SWAP2 POP SWAP2 POP POP SLOAD DUP2 JUMP JUMPDEST PUSH0 DUP1 DUP7 DUP2 MSTORE PUSH1 0x20 ADD SWAP1 DUP2 MSTORE PUSH1 0x20 ADD PUSH0 KECCAK256 PUSH0 SWAP1 SLOAD SWAP1 PUSH2 0x100 EXP SWAP1 DIV PUSH20 0xFFFFFFFFFFFFFFFFFFFFFFFFFFFFFFFFFFFFFFFF AND PUSH20 0xFFFFFFFFFFFFFFFFFFFFFFFFFFFFFFFFFFFFFFFF AND PUSH2 0x570 PUSH2 0x1116 JUMP JUMPDEST PUSH20 0xFFFFFFFFFFFFFFFFFFFFFFFFFFFFFFFFFFFFFFFF AND EQ PUSH2 0x5C6 JUMPI PUSH1 0x40 MLOAD PUSH32 0x8C379A000000000000000000000000000000000000000000000000000000000 DUP2 MSTORE PUSH1 0x4 ADD PUSH2 0x5BD SWAP1 PUSH2 0x1C30 JUMP JUMPDEST PUSH1 0x40 MLOAD DUP1 SWAP2 SUB SWAP1 REVERT JUMPDEST PUSH2 0x5D3 DUP6 DUP6 DUP6 DUP6 DUP6 PUSH2 0x111D JUMP JUMPDEST POP POP POP POP POP JUMP JUMPDEST PUSH1 0x7 PUSH1 0x20 MSTORE DUP1 PUSH0 MSTORE PUSH1 0x40 PUSH0 KECCAK256 PUSH0 SWAP2 POP SLOAD SWAP1 PUSH2 0x100 EXP SWAP1 DIV PUSH20 0xFFFFFFFFFFFFFFFFFFFFFFFFFFFFFFFFFFFFFFFF AND DUP2 JUMP JUMPDEST PUSH0 PUSH1 0x7 PUSH0 DUP5 DUP2 MSTORE PUSH1 0x20 ADD SWAP1 DUP2 MSTORE PUSH1 0x20 ADD PUSH0 KECCAK256 PUSH0 SWAP1 SLOAD SWAP1 PUSH2 0x100 EXP SWAP1 DIV PUSH20 0xFFFFFFFFFFFFFFFFFFFFFFFFFFFFFFFFFFFFFFFF AND SWAP1 POP PUSH0 PUSH1 0x6 PUSH0 DUP6 DUP2 MSTORE PUSH1 0x20 ADD SWAP1 DUP2 MSTORE PUSH1 0x20 ADD PUSH0 KECCAK256 SLOAD SWAP1 POP PUSH0 DUP2 GT PUSH2 0x695 JUMPI PUSH1 0x40 MLOAD PUSH32 0x8C379A000000000000000000000000000000000000000000000000000000000 DUP2 MSTORE PUSH1 0x4 ADD PUSH2 0x68C SWAP1 PUSH2 0x1C98 JUMP JUMPDEST PUSH1 0x40 MLOAD DUP1 SWAP2 SUB SWAP1 REVERT JUMPDEST PUSH1 0x8 PUSH0 DUP6 DUP2 MSTORE PUSH1 0x20 ADD SWAP1 DUP2 MSTORE PUSH1 0x20 ADD PUSH0 KECCAK256 PUSH1 0x1 ADD SLOAD DUP4 PUSH1 0x8 PUSH0 DUP8 DUP2 MSTORE PUSH1 0x20 ADD SWAP1 DUP2 MSTORE PUSH1 0x20 ADD PUSH0 KECCAK256 PUSH1 0x2 ADD SLOAD PUSH2 0x6CA SWAP2 SWAP1 PUSH2 0x1CE3 JUMP JUMPDEST GT ISZERO PUSH2 0x70B JUMPI PUSH1 0x40 MLOAD PUSH32 0x8C379A000000000000000000000000000000000000000000000000000000000 DUP2 MSTORE PUSH1 0x4 ADD PUSH2 0x702 SWAP1 PUSH2 0x1D60 JUMP JUMPDEST PUSH1 0x40 MLOAD DUP1 SWAP2 SUB SWAP1 REVERT JUMPDEST PUSH0 PUSH1 0x8 PUSH0 DUP7 DUP2 MSTORE PUSH1 0x20 ADD SWAP1 DUP2 MSTORE PUSH1 0x20 ADD PUSH0 KECCAK256 PUSH1 0x2 ADD SLOAD SWAP1 POP PUSH0 JUMPDEST DUP5 DUP2 LT ISZERO PUSH2 0x75D JUMPI PUSH2 0x74C PUSH2 0x738 PUSH2 0x1116 JUMP JUMPDEST DUP8 DUP4 DUP6 PUSH2 0x745 SWAP2 SWAP1 PUSH2 0x1CE3 JUMP JUMPDEST DUP8 DUP8 PUSH2 0x1475 JUMP JUMPDEST DUP1 PUSH2 0x756 SWAP1 PUSH2 0x1D7E JUMP JUMPDEST SWAP1 POP PUSH2 0x725 JUMP JUMPDEST POP PUSH0 DUP1 PUSH0 DUP8 DUP2 MSTORE PUSH1 0x20 ADD SWAP1 DUP2 MSTORE PUSH1 0x20 ADD PUSH0 KECCAK256 PUSH0 SWAP1 SLOAD SWAP1 PUSH2 0x100 EXP SWAP1 DIV PUSH20 0xFFFFFFFFFFFFFFFFFFFFFFFFFFFFFFFFFFFFFFFF AND SWAP1 POP DUP4 PUSH20 0xFFFFFFFFFFFFFFFFFFFFFFFFFFFFFFFFFFFFFFFF AND PUSH4 0x23B872DD PUSH2 0x7B5 PUSH2 0x1116 JUMP JUMPDEST DUP4 DUP9 DUP8 PUSH2 0x7C2 SWAP2 SWAP1 PUSH2 0x1DC5 JUMP JUMPDEST PUSH1 0x40 MLOAD DUP5 PUSH4 0xFFFFFFFF AND PUSH1 0xE0 SHL DUP2 MSTORE PUSH1 0x4 ADD PUSH2 0x7E0 SWAP4 SWAP3 SWAP2 SWAP1 PUSH2 0x1E06 JUMP JUMPDEST PUSH1 0x20 PUSH1 0x40 MLOAD DUP1 DUP4 SUB DUP2 PUSH0 DUP8 GAS CALL ISZERO DUP1 ISZERO PUSH2 0x7FC JUMPI RETURNDATASIZE PUSH0 DUP1 RETURNDATACOPY RETURNDATASIZE PUSH0 REVERT JUMPDEST POP POP POP POP PUSH1 0x40 MLOAD RETURNDATASIZE PUSH1 0x1F NOT PUSH1 0x1F DUP3 ADD AND DUP3 ADD DUP1 PUSH1 0x40 MSTORE POP DUP2 ADD SWAP1 PUSH2 0x820 SWAP2 SWAP1 PUSH2 0x1E4F JUMP JUMPDEST POP DUP5 PUSH1 0x8 PUSH0 DUP9 DUP2 MSTORE PUSH1 0x20 ADD SWAP1 DUP2 MSTORE PUSH1 0x20 ADD PUSH0 KECCAK256 PUSH1 0x2 ADD PUSH0 DUP3 DUP3 SLOAD PUSH2 0x844 SWAP2 SWAP1 PUSH2 0x1CE3 JUMP JUMPDEST SWAP3 POP POP DUP2 SWAP1 SSTORE POP POP POP POP POP POP POP JUMP JUMPDEST PUSH1 0x60 PUSH0 PUSH1 0x1 PUSH0 DUP5 PUSH20 0xFFFFFFFFFFFFFFFFFFFFFFFFFFFFFFFFFFFFFFFF AND PUSH20 0xFFFFFFFFFFFFFFFFFFFFFFFFFFFFFFFFFFFFFFFF AND DUP2 MSTORE PUSH1 0x20 ADD SWAP1 DUP2 MSTORE PUSH1 0x20 ADD PUSH0 KECCAK256 DUP1 SLOAD DUP1 PUSH1 0x20 MUL PUSH1 0x20 ADD PUSH1 0x40 MLOAD SWAP1 DUP2 ADD PUSH1 0x40 MSTORE DUP1 SWAP3 SWAP2 SWAP1 DUP2 DUP2 MSTORE PUSH1 0x20 ADD DUP3 DUP1 SLOAD DUP1 ISZERO PUSH2 0x8DB JUMPI PUSH1 0x20 MUL DUP3 ADD SWAP2 SWAP1 PUSH0 MSTORE PUSH1 0x20 PUSH0 KECCAK256 SWAP1 JUMPDEST DUP2 SLOAD DUP2 MSTORE PUSH1 0x20 ADD SWAP1 PUSH1 0x1 ADD SWAP1 DUP1 DUP4 GT PUSH2 0x8C7 JUMPI JUMPDEST POP POP POP POP POP SWAP1 POP PUSH0 DUP2 MLOAD PUSH8 0xFFFFFFFFFFFFFFFF DUP2 GT ISZERO PUSH2 0x8FE JUMPI PUSH2 0x8FD PUSH2 0x1E7A JUMP JUMPDEST JUMPDEST PUSH1 0x40 MLOAD SWAP1 DUP1 DUP3 MSTORE DUP1 PUSH1 0x20 MUL PUSH1 0x20 ADD DUP3 ADD PUSH1 0x40 MSTORE DUP1 ISZERO PUSH2 0x937 JUMPI DUP2 PUSH1 0x20 ADD JUMPDEST PUSH2 0x924 PUSH2 0x164B JUMP JUMPDEST DUP2 MSTORE PUSH1 0x20 ADD SWAP1 PUSH1 0x1 SWAP1 SUB SWAP1 DUP2 PUSH2 0x91C JUMPI SWAP1 POP JUMPDEST POP SWAP1 POP PUSH0 JUMPDEST DUP3 MLOAD DUP2 LT ISZERO PUSH2 0xB35 JUMPI PUSH1 0x40 MLOAD DUP1 PUSH1 0xE0 ADD PUSH1 0x40 MSTORE DUP1 DUP5 DUP4 DUP2 MLOAD DUP2 LT PUSH2 0x963 JUMPI PUSH2 0x962 PUSH2 0x1EA7 JUMP JUMPDEST JUMPDEST PUSH1 0x20 MUL PUSH1 0x20 ADD ADD MLOAD DUP2 MSTORE PUSH1 0x20 ADD PUSH1 0x3 PUSH0 DUP7 DUP6 DUP2 MLOAD DUP2 LT PUSH2 0x986 JUMPI PUSH2 0x985 PUSH2 0x1EA7 JUMP JUMPDEST JUMPDEST PUSH1 0x20 MUL PUSH1 0x20 ADD ADD MLOAD DUP2 MSTORE PUSH1 0x20 ADD SWAP1 DUP2 MSTORE PUSH1 0x20 ADD PUSH0 KECCAK256 PUSH0 SWAP1 SLOAD SWAP1 PUSH2 0x100 EXP SWAP1 DIV PUSH20 0xFFFFFFFFFFFFFFFFFFFFFFFFFFFFFFFFFFFFFFFF AND PUSH20 0xFFFFFFFFFFFFFFFFFFFFFFFFFFFFFFFFFFFFFFFF AND DUP2 MSTORE PUSH1 0x20 ADD PUSH1 0x7 PUSH0 DUP7 DUP6 DUP2 MLOAD DUP2 LT PUSH2 0x9EC JUMPI PUSH2 0x9EB PUSH2 0x1EA7 JUMP JUMPDEST JUMPDEST PUSH1 0x20 MUL PUSH1 0x20 ADD ADD MLOAD DUP2 MSTORE PUSH1 0x20 ADD SWAP1 DUP2 MSTORE PUSH1 0x20 ADD PUSH0 KECCAK256 PUSH0 SWAP1 SLOAD SWAP1 PUSH2 0x100 EXP SWAP1 DIV PUSH20 0xFFFFFFFFFFFFFFFFFFFFFFFFFFFFFFFFFFFFFFFF AND PUSH20 0xFFFFFFFFFFFFFFFFFFFFFFFFFFFFFFFFFFFFFFFF AND DUP2 MSTORE PUSH1 0x20 ADD PUSH1 0x6 PUSH0 DUP7 DUP6 DUP2 MLOAD DUP2 LT PUSH2 0xA52 JUMPI PUSH2 0xA51 PUSH2 0x1EA7 JUMP JUMPDEST JUMPDEST PUSH1 0x20 MUL PUSH1 0x20 ADD ADD MLOAD DUP2 MSTORE PUSH1 0x20 ADD SWAP1 DUP2 MSTORE PUSH1 0x20 ADD PUSH0 KECCAK256 SLOAD DUP2 MSTORE PUSH1 0x20 ADD PUSH1 0x8 PUSH0 DUP7 DUP6 DUP2 MLOAD DUP2 LT PUSH2 0xA83 JUMPI PUSH2 0xA82 PUSH2 0x1EA7 JUMP JUMPDEST JUMPDEST PUSH1 0x20 MUL PUSH1 0x20 ADD ADD MLOAD DUP2 MSTORE PUSH1 0x20 ADD SWAP1 DUP2 MSTORE PUSH1 0x20 ADD PUSH0 KECCAK256 PUSH0 ADD SLOAD DUP2 MSTORE PUSH1 0x20 ADD PUSH1 0x8 PUSH0 DUP7 DUP6 DUP2 MLOAD DUP2 LT PUSH2 0xAB6 JUMPI PUSH2 0xAB5 PUSH2 0x1EA7 JUMP JUMPDEST JUMPDEST PUSH1 0x20 MUL PUSH1 0x20 ADD ADD MLOAD DUP2 MSTORE PUSH1 0x20 ADD SWAP1 DUP2 MSTORE PUSH1 0x20 ADD PUSH0 KECCAK256 PUSH1 0x1 ADD SLOAD DUP2 MSTORE PUSH1 0x20 ADD PUSH1 0x8 PUSH0 DUP7 DUP6 DUP2 MLOAD DUP2 LT PUSH2 0xAEA JUMPI PUSH2 0xAE9 PUSH2 0x1EA7 JUMP JUMPDEST JUMPDEST PUSH1 0x20 MUL PUSH1 0x20 ADD ADD MLOAD DUP2 MSTORE PUSH1 0x20 ADD SWAP1 DUP2 MSTORE PUSH1 0x20 ADD PUSH0 KECCAK256 PUSH1 0x2 ADD SLOAD DUP2 MSTORE POP DUP3 DUP3 DUP2 MLOAD DUP2 LT PUSH2 0xB19 JUMPI PUSH2 0xB18 PUSH2 0x1EA7 JUMP JUMPDEST JUMPDEST PUSH1 0x20 MUL PUSH1 0x20 ADD ADD DUP2 SWAP1 MSTORE POP DUP1 PUSH2 0xB2E SWAP1 PUSH2 0x1D7E JUMP JUMPDEST SWAP1 POP PUSH2 0x93C JUMP JUMPDEST POP DUP1 SWAP3 POP POP POP SWAP2 SWAP1 POP JUMP JUMPDEST PUSH1 0x60 PUSH0 DUP4 DUP4 PUSH2 0xB4F SWAP2 SWAP1 PUSH2 0x1ED4 JUMP JUMPDEST PUSH8 0xFFFFFFFFFFFFFFFF DUP2 GT ISZERO PUSH2 0xB68 JUMPI PUSH2 0xB67 PUSH2 0x1E7A JUMP JUMPDEST JUMPDEST PUSH1 0x40 MLOAD SWAP1 DUP1 DUP3 MSTORE DUP1 PUSH1 0x20 MUL PUSH1 0x20 ADD DUP3 ADD PUSH1 0x40 MSTORE DUP1 ISZERO PUSH2 0xBA1 JUMPI DUP2 PUSH1 0x20 ADD JUMPDEST PUSH2 0xB8E PUSH2 0x164B JUMP JUMPDEST DUP2 MSTORE PUSH1 0x20 ADD SWAP1 PUSH1 0x1 SWAP1 SUB SWAP1 DUP2 PUSH2 0xB86 JUMPI SWAP1 POP JUMPDEST POP SWAP1 POP PUSH0 DUP5 SWAP1 POP JUMPDEST DUP4 DUP2 LT DUP1 ISZERO PUSH2 0xBB9 JUMPI POP PUSH1 0x5 SLOAD DUP2 LT JUMPDEST ISZERO PUSH2 0xD03 JUMPI PUSH1 0x40 MLOAD DUP1 PUSH1 0xE0 ADD PUSH1 0x40 MSTORE DUP1 DUP3 DUP2 MSTORE PUSH1 0x20 ADD PUSH1 0x3 PUSH0 DUP5 DUP2 MSTORE PUSH1 0x20 ADD SWAP1 DUP2 MSTORE PUSH1 0x20 ADD PUSH0 KECCAK256 PUSH0 SWAP1 SLOAD SWAP1 PUSH2 0x100 EXP SWAP1 DIV PUSH20 0xFFFFFFFFFFFFFFFFFFFFFFFFFFFFFFFFFFFFFFFF AND PUSH20 0xFFFFFFFFFFFFFFFFFFFFFFFFFFFFFFFFFFFFFFFF AND DUP2 MSTORE PUSH1 0x20 ADD PUSH1 0x7 PUSH0 DUP5 DUP2 MSTORE PUSH1 0x20 ADD SWAP1 DUP2 MSTORE PUSH1 0x20 ADD PUSH0 KECCAK256 PUSH0 SWAP1 SLOAD SWAP1 PUSH2 0x100 EXP SWAP1 DIV PUSH20 0xFFFFFFFFFFFFFFFFFFFFFFFFFFFFFFFFFFFFFFFF AND PUSH20 0xFFFFFFFFFFFFFFFFFFFFFFFFFFFFFFFFFFFFFFFF AND DUP2 MSTORE PUSH1 0x20 ADD PUSH1 0x6 PUSH0 DUP5 DUP2 MSTORE PUSH1 0x20 ADD SWAP1 DUP2 MSTORE PUSH1 0x20 ADD PUSH0 KECCAK256 SLOAD DUP2 MSTORE PUSH1 0x20 ADD PUSH1 0x8 PUSH0 DUP5 DUP2 MSTORE PUSH1 0x20 ADD SWAP1 DUP2 MSTORE PUSH1 0x20 ADD PUSH0 KECCAK256 PUSH0 ADD SLOAD DUP2 MSTORE PUSH1 0x20 ADD PUSH1 0x8 PUSH0 DUP5 DUP2 MSTORE PUSH1 0x20 ADD SWAP1 DUP2 MSTORE PUSH1 0x20 ADD PUSH0 KECCAK256 PUSH1 0x1 ADD SLOAD DUP2 MSTORE PUSH1 0x20 ADD PUSH1 0x8 PUSH0 DUP5 DUP2 MSTORE PUSH1 0x20 ADD SWAP1 DUP2 MSTORE PUSH1 0x20 ADD PUSH0 KECCAK256 PUSH1 0x2 ADD SLOAD DUP2 MSTORE POP DUP3 DUP7 DUP4 PUSH2 0xCD6 SWAP2 SWAP1 PUSH2 0x1ED4 JUMP JUMPDEST DUP2 MLOAD DUP2 LT PUSH2 0xCE7 JUMPI PUSH2 0xCE6 PUSH2 0x1EA7 JUMP JUMPDEST JUMPDEST PUSH1 0x20 MUL PUSH1 0x20 ADD ADD DUP2 SWAP1 MSTORE POP DUP1 PUSH2 0xCFC SWAP1 PUSH2 0x1D7E JUMP JUMPDEST SWAP1 POP PUSH2 0xBA9 JUMP JUMPDEST POP DUP1 SWAP2 POP POP SWAP3 SWAP2 POP POP JUMP JUMPDEST PUSH1 0x3 PUSH1 0x20 MSTORE DUP1 PUSH0 MSTORE PUSH1 0x40 PUSH0 KECCAK256 PUSH0 SWAP2 POP SLOAD SWAP1 PUSH2 0x100 EXP SWAP1 DIV PUSH20 0xFFFFFFFFFFFFFFFFFFFFFFFFFFFFFFFFFFFFFFFF AND DUP2 JUMP JUMPDEST PUSH1 0x5 SLOAD DUP2 JUMP JUMPDEST PUSH1 0x2 PUSH1 0x20 MSTORE DUP1 PUSH0 MSTORE PUSH1 0x40 PUSH0 KECCAK256 PUSH0 SWAP2 POP SLOAD SWAP1 PUSH2 0x100 EXP SWAP1 DIV PUSH1 0xFF AND DUP2 JUMP JUMPDEST PUSH0 PUSH1 0x5 SLOAD SWAP1 POP PUSH0 DUP8 PUSH20 0xFFFFFFFFFFFFFFFFFFFFFFFFFFFFFFFFFFFFFFFF AND PUSH4 0x8DA5CB5B PUSH1 0x40 MLOAD DUP2 PUSH4 0xFFFFFFFF AND PUSH1 0xE0 SHL DUP2 MSTORE PUSH1 0x4 ADD PUSH1 0x20 PUSH1 0x40 MLOAD DUP1 DUP4 SUB DUP2 DUP7 GAS STATICCALL SWAP3 POP POP POP DUP1 ISZERO PUSH2 0xDD0 JUMPI POP PUSH1 0x40 MLOAD RETURNDATASIZE PUSH1 0x1F NOT PUSH1 0x1F DUP3 ADD AND DUP3 ADD DUP1 PUSH1 0x40 MSTORE POP DUP2 ADD SWAP1 PUSH2 0xDCD SWAP2 SWAP1 PUSH2 0x1F1B JUMP JUMPDEST PUSH1 0x1 JUMPDEST PUSH2 0xDDC JUMPI PUSH0 SWAP1 POP PUSH2 0xE0F JUMP JUMPDEST DUP10 PUSH20 0xFFFFFFFFFFFFFFFFFFFFFFFFFFFFFFFFFFFFFFFF AND DUP2 PUSH20 0xFFFFFFFFFFFFFFFFFFFFFFFFFFFFFFFFFFFFFFFF AND EQ SWAP2 POP POP JUMPDEST DUP9 PUSH20 0xFFFFFFFFFFFFFFFFFFFFFFFFFFFFFFFFFFFFFFFF AND CALLER PUSH20 0xFFFFFFFFFFFFFFFFFFFFFFFFFFFFFFFFFFFFFFFF AND EQ DUP1 PUSH2 0xE46 JUMPI POP DUP1 JUMPDEST PUSH2 0xE85 JUMPI PUSH1 0x40 MLOAD PUSH32 0x8C379A000000000000000000000000000000000000000000000000000000000 DUP2 MSTORE PUSH1 0x4 ADD PUSH2 0xE7C SWAP1 PUSH2 0x1FB6 JUMP JUMPDEST PUSH1 0x40 MLOAD DUP1 SWAP2 SUB SWAP1 REVERT JUMPDEST PUSH1 0x1 PUSH0 DUP11 PUSH20 0xFFFFFFFFFFFFFFFFFFFFFFFFFFFFFFFFFFFFFFFF AND PUSH20 0xFFFFFFFFFFFFFFFFFFFFFFFFFFFFFFFFFFFFFFFF AND DUP2 MSTORE PUSH1 0x20 ADD SWAP1 DUP2 MSTORE PUSH1 0x20 ADD PUSH0 KECCAK256 DUP3 SWAP1 DUP1 PUSH1 0x1 DUP2 SLOAD ADD DUP1 DUP3 SSTORE DUP1 SWAP2 POP POP PUSH1 0x1 SWAP1 SUB SWAP1 PUSH0 MSTORE PUSH1 0x20 PUSH0 KECCAK256 ADD PUSH0 SWAP1 SWAP2 SWAP1 SWAP2 SWAP1 SWAP2 POP SSTORE DUP9 PUSH0 DUP1 DUP5 DUP2 MSTORE PUSH1 0x20 ADD SWAP1 DUP2 MSTORE PUSH1 0x20 ADD PUSH0 KECCAK256 PUSH0 PUSH2 0x100 EXP DUP2 SLOAD DUP2 PUSH20 0xFFFFFFFFFFFFFFFFFFFFFFFFFFFFFFFFFFFFFFFF MUL NOT AND SWAP1 DUP4 PUSH20 0xFFFFFFFFFFFFFFFFFFFFFFFFFFFFFFFFFFFFFFFF AND MUL OR SWAP1 SSTORE POP DUP8 PUSH1 0x3 PUSH0 DUP5 DUP2 MSTORE PUSH1 0x20 ADD SWAP1 DUP2 MSTORE PUSH1 0x20 ADD PUSH0 KECCAK256 PUSH0 PUSH2 0x100 EXP DUP2 SLOAD DUP2 PUSH20 0xFFFFFFFFFFFFFFFFFFFFFFFFFFFFFFFFFFFFFFFF MUL NOT AND SWAP1 DUP4 PUSH20 0xFFFFFFFFFFFFFFFFFFFFFFFFFFFFFFFFFFFFFFFF AND MUL OR SWAP1 SSTORE POP PUSH1 0x4 PUSH0 DUP10 PUSH20 0xFFFFFFFFFFFFFFFFFFFFFFFFFFFFFFFFFFFFFFFF AND PUSH20 0xFFFFFFFFFFFFFFFFFFFFFFFFFFFFFFFFFFFFFFFF AND DUP2 MSTORE PUSH1 0x20 ADD SWAP1 DUP2 MSTORE PUSH1 0x20 ADD PUSH0 KECCAK256 DUP3 SWAP1 DUP1 PUSH1 0x1 DUP2 SLOAD ADD DUP1 DUP3 SSTORE DUP1 SWAP2 POP POP PUSH1 0x1 SWAP1 SUB SWAP1 PUSH0 MSTORE PUSH1 0x20 PUSH0 KECCAK256 ADD PUSH0 SWAP1 SWAP2 SWAP1 SWAP2 SWAP1 SWAP2 POP SSTORE PUSH1 0x1 PUSH1 0x5 PUSH0 DUP3 DUP3 SLOAD PUSH2 0xFF6 SWAP2 SWAP1 PUSH2 0x1CE3 JUMP JUMPDEST SWAP3 POP POP DUP2 SWAP1 SSTORE POP DUP8 PUSH20 0xFFFFFFFFFFFFFFFFFFFFFFFFFFFFFFFFFFFFFFFF AND DUP3 PUSH32 0xF969889E41A66146585E9096D772989FB856BF8C90A3DAB3019385F961D1D014 DUP12 PUSH1 0x40 MLOAD PUSH2 0x1044 SWAP2 SWAP1 PUSH2 0x18DA JUMP JUMPDEST PUSH1 0x40 MLOAD DUP1 SWAP2 SUB SWAP1 LOG3 PUSH2 0x1059 DUP3 DUP7 DUP7 DUP9 DUP8 PUSH2 0x111D JUMP JUMPDEST PUSH2 0x1064 DUP3 DUP9 DUP9 PUSH2 0x13BC JUMP JUMPDEST POP POP POP POP POP POP POP POP POP JUMP JUMPDEST PUSH1 0x8 PUSH1 0x20 MSTORE DUP1 PUSH0 MSTORE PUSH1 0x40 PUSH0 KECCAK256 PUSH0 SWAP2 POP SWAP1 POP DUP1 PUSH0 ADD SLOAD SWAP1 DUP1 PUSH1 0x1 ADD SLOAD SWAP1 DUP1 PUSH1 0x2 ADD SLOAD SWAP1 DUP1 PUSH1 0x3 ADD PUSH0 SWAP1 SLOAD SWAP1 PUSH2 0x100 EXP SWAP1 DIV PUSH1 0xFF AND SWAP1 POP DUP5 JUMP JUMPDEST PUSH1 0x1 PUSH1 0x20 MSTORE DUP2 PUSH0 MSTORE PUSH1 0x40 PUSH0 KECCAK256 DUP2 DUP2 SLOAD DUP2 LT PUSH2 0x10C0 JUMPI PUSH0 DUP1 REVERT JUMPDEST SWAP1 PUSH0 MSTORE PUSH1 0x20 PUSH0 KECCAK256 ADD PUSH0 SWAP2 POP SWAP2 POP POP SLOAD DUP2 JUMP JUMPDEST PUSH0 PUSH1 0x20 MSTORE DUP1 PUSH0 MSTORE PUSH1 0x40 PUSH0 KECCAK256 PUSH0 SWAP2 POP SLOAD SWAP1 PUSH2 0x100 EXP SWAP1 DIV PUSH20 0xFFFFFFFFFFFFFFFFFFFFFFFFFFFFFFFFFFFFFFFF AND DUP2 JUMP JUMPDEST PUSH1 0x6 PUSH1 0x20 MSTORE DUP1 PUSH0 MSTORE PUSH1 0x40 PUSH0 KECCAK256 PUSH0 SWAP2 POP SWAP1 POP SLOAD DUP2 JUMP JUMPDEST PUSH0 CALLER SWAP1 POP SWAP1 JUMP JUMPDEST DUP1 ISZERO PUSH2 0x1297 JUMPI PUSH0 ISZERO ISZERO PUSH1 0x2 PUSH0 PUSH1 0x3 PUSH0 DUP10 DUP2 MSTORE PUSH1 0x20 ADD SWAP1 DUP2 MSTORE PUSH1 0x20 ADD PUSH0 KECCAK256 PUSH0 SWAP1 SLOAD SWAP1 PUSH2 0x100 EXP SWAP1 DIV PUSH20 0xFFFFFFFFFFFFFFFFFFFFFFFFFFFFFFFFFFFFFFFF AND PUSH20 0xFFFFFFFFFFFFFFFFFFFFFFFFFFFFFFFFFFFFFFFF AND PUSH20 0xFFFFFFFFFFFFFFFFFFFFFFFFFFFFFFFFFFFFFFFF AND DUP2 MSTORE PUSH1 0x20 ADD SWAP1 DUP2 MSTORE PUSH1 0x20 ADD PUSH0 KECCAK256 PUSH0 SWAP1 SLOAD SWAP1 PUSH2 0x100 EXP SWAP1 DIV PUSH1 0xFF AND ISZERO ISZERO SUB PUSH2 0x1231 JUMPI PUSH1 0x1 PUSH1 0x2 PUSH0 PUSH1 0x3 PUSH0 DUP10 DUP2 MSTORE PUSH1 0x20 ADD SWAP1 DUP2 MSTORE PUSH1 0x20 ADD PUSH0 KECCAK256 PUSH0 SWAP1 SLOAD SWAP1 PUSH2 0x100 EXP SWAP1 DIV PUSH20 0xFFFFFFFFFFFFFFFFFFFFFFFFFFFFFFFFFFFFFFFF AND PUSH20 0xFFFFFFFFFFFFFFFFFFFFFFFFFFFFFFFFFFFFFFFF AND PUSH20 0xFFFFFFFFFFFFFFFFFFFFFFFFFFFFFFFFFFFFFFFF AND DUP2 MSTORE PUSH1 0x20 ADD SWAP1 DUP2 MSTORE PUSH1 0x20 ADD PUSH0 KECCAK256 PUSH0 PUSH2 0x100 EXP DUP2 SLOAD DUP2 PUSH1 0xFF MUL NOT AND SWAP1 DUP4 ISZERO ISZERO MUL OR SWAP1 SSTORE POP PUSH2 0x1292 JUMP JUMPDEST PUSH1 0x8 PUSH0 DUP7 DUP2 MSTORE PUSH1 0x20 ADD SWAP1 DUP2 MSTORE PUSH1 0x20 ADD PUSH0 KECCAK256 PUSH1 0x3 ADD PUSH0 SWAP1 SLOAD SWAP1 PUSH2 0x100 EXP SWAP1 DIV PUSH1 0xFF AND PUSH2 0x1291 JUMPI PUSH1 0x40 MLOAD PUSH32 0x8C379A000000000000000000000000000000000000000000000000000000000 DUP2 MSTORE PUSH1 0x4 ADD PUSH2 0x1288 SWAP1 PUSH2 0x201E JUMP JUMPDEST PUSH1 0x40 MLOAD DUP1 SWAP2 SUB SWAP1 REVERT JUMPDEST JUMPDEST PUSH2 0x1343 JUMP JUMPDEST PUSH1 0x8 PUSH0 DUP7 DUP2 MSTORE PUSH1 0x20 ADD SWAP1 DUP2 MSTORE PUSH1 0x20 ADD PUSH0 KECCAK256 PUSH1 0x3 ADD PUSH0 SWAP1 SLOAD SWAP1 PUSH2 0x100 EXP SWAP1 DIV PUSH1 0xFF AND ISZERO PUSH2 0x1342 JUMPI PUSH0 PUSH1 0x2 PUSH0 PUSH1 0x3 PUSH0 DUP10 DUP2 MSTORE PUSH1 0x20 ADD SWAP1 DUP2 MSTORE PUSH1 0x20 ADD PUSH0 KECCAK256 PUSH0 SWAP1 SLOAD SWAP1 PUSH2 0x100 EXP SWAP1 DIV PUSH20 0xFFFFFFFFFFFFFFFFFFFFFFFFFFFFFFFFFFFFFFFF AND PUSH20 0xFFFFFFFFFFFFFFFFFFFFFFFFFFFFFFFFFFFFFFFF AND PUSH20 0xFFFFFFFFFFFFFFFFFFFFFFFFFFFFFFFFFFFFFFFF AND DUP2 MSTORE PUSH1 0x20 ADD SWAP1 DUP2 MSTORE PUSH1 0x20 ADD PUSH0 KECCAK256 PUSH0 PUSH2 0x100 EXP DUP2 SLOAD DUP2 PUSH1 0xFF MUL NOT AND SWAP1 DUP4 ISZERO ISZERO MUL OR SWAP1 SSTORE POP JUMPDEST JUMPDEST PUSH1 0x40 MLOAD DUP1 PUSH1 0x80 ADD PUSH1 0x40 MSTORE DUP1 DUP6 DUP2 MSTORE PUSH1 0x20 ADD DUP5 DUP2 MSTORE PUSH1 0x20 ADD DUP4 DUP2 MSTORE PUSH1 0x20 ADD DUP3 ISZERO ISZERO DUP2 MSTORE POP PUSH1 0x8 PUSH0 DUP8 DUP2 MSTORE PUSH1 0x20 ADD SWAP1 DUP2 MSTORE PUSH1 0x20 ADD PUSH0 KECCAK256 PUSH0 DUP3 ADD MLOAD DUP2 PUSH0 ADD SSTORE PUSH1 0x20 DUP3 ADD MLOAD DUP2 PUSH1 0x1 ADD SSTORE PUSH1 0x40 DUP3 ADD MLOAD DUP2 PUSH1 0x2 ADD SSTORE PUSH1 0x60 DUP3 ADD MLOAD DUP2 PUSH1 0x3 ADD PUSH0 PUSH2 0x100 EXP DUP2 SLOAD DUP2 PUSH1 0xFF MUL NOT AND SWAP1 DUP4 ISZERO ISZERO MUL OR SWAP1 SSTORE POP SWAP1 POP POP POP POP POP POP POP JUMP JUMPDEST DUP1 PUSH1 0x6 PUSH0 DUP6 DUP2 MSTORE PUSH1 0x20 ADD SWAP1 DUP2 MSTORE PUSH1 0x20 ADD PUSH0 KECCAK256 DUP2 SWAP1 SSTORE POP DUP2 PUSH1 0x7 PUSH0 DUP6 DUP2 MSTORE PUSH1 0x20 ADD SWAP1 DUP2 MSTORE PUSH1 0x20 ADD PUSH0 KECCAK256 PUSH0 PUSH2 0x100 EXP DUP2 SLOAD DUP2 PUSH20 0xFFFFFFFFFFFFFFFFFFFFFFFFFFFFFFFFFFFFFFFF MUL NOT AND SWAP1 DUP4 PUSH20 0xFFFFFFFFFFFFFFFFFFFFFFFFFFFFFFFFFFFFFFFF AND MUL OR SWAP1 SSTORE POP DUP2 PUSH20 0xFFFFFFFFFFFFFFFFFFFFFFFFFFFFFFFFFFFFFFFF AND DUP4 PUSH32 0xA12A16BD71E55BBF7799C7DF296ECE9879529ADE9513321B2FB2B5E9E3281A57 DUP4 PUSH1 0x40 MLOAD PUSH2 0x1468 SWAP2 SWAP1 PUSH2 0x1806 JUMP JUMPDEST PUSH1 0x40 MLOAD DUP1 SWAP2 SUB SWAP1 LOG3 POP POP POP JUMP JUMPDEST PUSH0 PUSH1 0x3 PUSH0 DUP7 DUP2 MSTORE PUSH1 0x20 ADD SWAP1 DUP2 MSTORE PUSH1 0x20 ADD PUSH0 KECCAK256 PUSH0 SWAP1 SLOAD SWAP1 PUSH2 0x100 EXP SWAP1 DIV PUSH20 0xFFFFFFFFFFFFFFFFFFFFFFFFFFFFFFFFFFFFFFFF AND SWAP1 POP PUSH1 0x8 PUSH0 DUP7 DUP2 MSTORE PUSH1 0x20 ADD SWAP1 DUP2 MSTORE PUSH1 0x20 ADD PUSH0 KECCAK256 PUSH1 0x3 ADD PUSH0 SWAP1 SLOAD SWAP1 PUSH2 0x100 EXP SWAP1 DIV PUSH1 0xFF AND ISZERO PUSH2 0x153C JUMPI DUP1 PUSH20 0xFFFFFFFFFFFFFFFFFFFFFFFFFFFFFFFFFFFFFFFF AND PUSH4 0xA1448194 DUP8 DUP7 PUSH1 0x40 MLOAD DUP4 PUSH4 0xFFFFFFFF AND PUSH1 0xE0 SHL DUP2 MSTORE PUSH1 0x4 ADD PUSH2 0x150A SWAP3 SWAP2 SWAP1 PUSH2 0x203C JUMP JUMPDEST PUSH0 PUSH1 0x40 MLOAD DUP1 DUP4 SUB DUP2 PUSH0 DUP8 DUP1 EXTCODESIZE ISZERO DUP1 ISZERO PUSH2 0x1521 JUMPI PUSH0 DUP1 REVERT JUMPDEST POP GAS CALL ISZERO DUP1 ISZERO PUSH2 0x1533 JUMPI RETURNDATASIZE PUSH0 DUP1 RETURNDATACOPY RETURNDATASIZE PUSH0 REVERT JUMPDEST POP POP POP POP PUSH2 0x15DB JUMP JUMPDEST PUSH0 DUP1 PUSH0 DUP8 DUP2 MSTORE PUSH1 0x20 ADD SWAP1 DUP2 MSTORE PUSH1 0x20 ADD PUSH0 KECCAK256 PUSH0 SWAP1 SLOAD SWAP1 PUSH2 0x100 EXP SWAP1 DIV PUSH20 0xFFFFFFFFFFFFFFFFFFFFFFFFFFFFFFFFFFFFFFFF AND SWAP1 POP DUP2 PUSH20 0xFFFFFFFFFFFFFFFFFFFFFFFFFFFFFFFFFFFFFFFF AND PUSH4 0x42842E0E DUP3 DUP10 DUP9 PUSH1 0x40 MLOAD DUP5 PUSH4 0xFFFFFFFF AND PUSH1 0xE0 SHL DUP2 MSTORE PUSH1 0x4 ADD PUSH2 0x15AC SWAP4 SWAP3 SWAP2 SWAP1 PUSH2 0x1E06 JUMP JUMPDEST PUSH0 PUSH1 0x40 MLOAD DUP1 DUP4 SUB DUP2 PUSH0 DUP8 DUP1 EXTCODESIZE ISZERO DUP1 ISZERO PUSH2 0x15C3 JUMPI PUSH0 DUP1 REVERT JUMPDEST POP GAS CALL ISZERO DUP1 ISZERO PUSH2 0x15D5 JUMPI RETURNDATASIZE PUSH0 DUP1 RETURNDATACOPY RETURNDATASIZE PUSH0 REVERT JUMPDEST POP POP POP POP POP JUMPDEST DUP4 DUP2 PUSH20 0xFFFFFFFFFFFFFFFFFFFFFFFFFFFFFFFFFFFFFFFF AND DUP8 PUSH20 0xFFFFFFFFFFFFFFFFFFFFFFFFFFFFFFFFFFFFFFFF AND PUSH32 0x8870A84C4FFEABAF12B2D60C6CD4671CD4FC012D1B850F5643A16174AF016184 DUP7 DUP7 PUSH1 0x40 MLOAD PUSH2 0x163B SWAP3 SWAP2 SWAP1 PUSH2 0x203C JUMP JUMPDEST PUSH1 0x40 MLOAD DUP1 SWAP2 SUB SWAP1 LOG4 POP POP POP POP POP POP JUMP JUMPDEST PUSH1 0x40 MLOAD DUP1 PUSH1 0xE0 ADD PUSH1 0x40 MSTORE DUP1 PUSH0 DUP2 MSTORE PUSH1 0x20 ADD PUSH0 PUSH20 0xFFFFFFFFFFFFFFFFFFFFFFFFFFFFFFFFFFFFFFFF AND DUP2 MSTORE PUSH1 0x20 ADD PUSH0 PUSH20 0xFFFFFFFFFFFFFFFFFFFFFFFFFFFFFFFFFFFFFFFF AND DUP2 MSTORE PUSH1 0x20 ADD PUSH0 DUP2 MSTORE PUSH1 0x20 ADD PUSH0 DUP2 MSTORE PUSH1 0x20 ADD PUSH0 DUP2 MSTORE PUSH1 0x20 ADD PUSH0 DUP2 MSTORE POP SWAP1 JUMP JUMPDEST PUSH0 DUP1 REVERT JUMPDEST PUSH0 DUP2 SWAP1 POP SWAP2 SWAP1 POP JUMP JUMPDEST PUSH2 0x16C3 DUP2 PUSH2 0x16B1 JUMP JUMPDEST DUP2 EQ PUSH2 0x16CD JUMPI PUSH0 DUP1 REVERT JUMPDEST POP JUMP JUMPDEST PUSH0 DUP2 CALLDATALOAD SWAP1 POP PUSH2 0x16DE DUP2 PUSH2 0x16BA JUMP JUMPDEST SWAP3 SWAP2 POP POP JUMP JUMPDEST PUSH0 PUSH1 0x20 DUP3 DUP5 SUB SLT ISZERO PUSH2 0x16F9 JUMPI PUSH2 0x16F8 PUSH2 0x16AD JUMP JUMPDEST JUMPDEST PUSH0 PUSH2 0x1706 DUP5 DUP3 DUP6 ADD PUSH2 0x16D0 JUMP JUMPDEST SWAP2 POP POP SWAP3 SWAP2 POP POP JUMP JUMPDEST PUSH0 PUSH20 0xFFFFFFFFFFFFFFFFFFFFFFFFFFFFFFFFFFFFFFFF DUP3 AND SWAP1 POP SWAP2 SWAP1 POP JUMP JUMPDEST PUSH0 PUSH2 0x1738 DUP3 PUSH2 0x170F JUMP JUMPDEST SWAP1 POP SWAP2 SWAP1 POP JUMP JUMPDEST PUSH2 0x1748 DUP2 PUSH2 0x172E JUMP JUMPDEST DUP2 EQ PUSH2 0x1752 JUMPI PUSH0 DUP1 REVERT JUMPDEST POP JUMP JUMPDEST PUSH0 DUP2 CALLDATALOAD SWAP1 POP PUSH2 0x1763 DUP2 PUSH2 0x173F JUMP JUMPDEST SWAP3 SWAP2 POP POP JUMP JUMPDEST PUSH0 DUP1 PUSH0 PUSH1 0x60 DUP5 DUP7 SUB SLT ISZERO PUSH2 0x1780 JUMPI PUSH2 0x177F PUSH2 0x16AD JUMP JUMPDEST JUMPDEST PUSH0 PUSH2 0x178D DUP7 DUP3 DUP8 ADD PUSH2 0x16D0 JUMP JUMPDEST SWAP4 POP POP PUSH1 0x20 PUSH2 0x179E DUP7 DUP3 DUP8 ADD PUSH2 0x1755 JUMP JUMPDEST SWAP3 POP POP PUSH1 0x40 PUSH2 0x17AF DUP7 DUP3 DUP8 ADD PUSH2 0x16D0 JUMP JUMPDEST SWAP2 POP POP SWAP3 POP SWAP3 POP SWAP3 JUMP JUMPDEST PUSH0 DUP1 PUSH1 0x40 DUP4 DUP6 SUB SLT ISZERO PUSH2 0x17CF JUMPI PUSH2 0x17CE PUSH2 0x16AD JUMP JUMPDEST JUMPDEST PUSH0 PUSH2 0x17DC DUP6 DUP3 DUP7 ADD PUSH2 0x1755 JUMP JUMPDEST SWAP3 POP POP PUSH1 0x20 PUSH2 0x17ED DUP6 DUP3 DUP7 ADD PUSH2 0x16D0 JUMP JUMPDEST SWAP2 POP POP SWAP3 POP SWAP3 SWAP1 POP JUMP JUMPDEST PUSH2 0x1800 DUP2 PUSH2 0x16B1 JUMP JUMPDEST DUP3 MSTORE POP POP JUMP JUMPDEST PUSH0 PUSH1 0x20 DUP3 ADD SWAP1 POP PUSH2 0x1819 PUSH0 DUP4 ADD DUP5 PUSH2 0x17F7 JUMP JUMPDEST SWAP3 SWAP2 POP POP JUMP JUMPDEST PUSH0 DUP2 ISZERO ISZERO SWAP1 POP SWAP2 SWAP1 POP JUMP JUMPDEST PUSH2 0x1833 DUP2 PUSH2 0x181F JUMP JUMPDEST DUP2 EQ PUSH2 0x183D JUMPI PUSH0 DUP1 REVERT JUMPDEST POP JUMP JUMPDEST PUSH0 DUP2 CALLDATALOAD SWAP1 POP PUSH2 0x184E DUP2 PUSH2 0x182A JUMP JUMPDEST SWAP3 SWAP2 POP POP JUMP JUMPDEST PUSH0 DUP1 PUSH0 DUP1 PUSH0 PUSH1 0xA0 DUP7 DUP9 SUB SLT ISZERO PUSH2 0x186D JUMPI PUSH2 0x186C PUSH2 0x16AD JUMP JUMPDEST JUMPDEST PUSH0 PUSH2 0x187A DUP9 DUP3 DUP10 ADD PUSH2 0x16D0 JUMP JUMPDEST SWAP6 POP POP PUSH1 0x20 PUSH2 0x188B DUP9 DUP3 DUP10 ADD PUSH2 0x16D0 JUMP JUMPDEST SWAP5 POP POP PUSH1 0x40 PUSH2 0x189C DUP9 DUP3 DUP10 ADD PUSH2 0x16D0 JUMP JUMPDEST SWAP4 POP POP PUSH1 0x60 PUSH2 0x18AD DUP9 DUP3 DUP10 ADD PUSH2 0x16D0 JUMP JUMPDEST SWAP3 POP POP PUSH1 0x80 PUSH2 0x18BE DUP9 DUP3 DUP10 ADD PUSH2 0x1840 JUMP JUMPDEST SWAP2 POP POP SWAP3 SWAP6 POP SWAP3 SWAP6 SWAP1 SWAP4 POP JUMP JUMPDEST PUSH2 0x18D4 DUP2 PUSH2 0x172E JUMP JUMPDEST DUP3 MSTORE POP POP JUMP JUMPDEST PUSH0 PUSH1 0x20 DUP3 ADD SWAP1 POP PUSH2 0x18ED PUSH0 DUP4 ADD DUP5 PUSH2 0x18CB JUMP JUMPDEST SWAP3 SWAP2 POP POP JUMP JUMPDEST PUSH0 DUP1 PUSH1 0x40 DUP4 DUP6 SUB SLT ISZERO PUSH2 0x1909 JUMPI PUSH2 0x1908 PUSH2 0x16AD JUMP JUMPDEST JUMPDEST PUSH0 PUSH2 0x1916 DUP6 DUP3 DUP7 ADD PUSH2 0x16D0 JUMP JUMPDEST SWAP3 POP POP PUSH1 0x20 PUSH2 0x1927 DUP6 DUP3 DUP7 ADD PUSH2 0x16D0 JUMP JUMPDEST SWAP2 POP POP SWAP3 POP SWAP3 SWAP1 POP JUMP JUMPDEST PUSH0 PUSH1 0x20 DUP3 DUP5 SUB SLT ISZERO PUSH2 0x1946 JUMPI PUSH2 0x1945 PUSH2 0x16AD JUMP JUMPDEST JUMPDEST PUSH0 PUSH2 0x1953 DUP5 DUP3 DUP6 ADD PUSH2 0x1755 JUMP JUMPDEST SWAP2 POP POP SWAP3 SWAP2 POP POP JUMP JUMPDEST PUSH0 DUP2 MLOAD SWAP1 POP SWAP2 SWAP1 POP JUMP JUMPDEST PUSH0 DUP3 DUP3 MSTORE PUSH1 0x20 DUP3 ADD SWAP1 POP SWAP3 SWAP2 POP POP JUMP JUMPDEST PUSH0 DUP2 SWAP1 POP PUSH1 0x20 DUP3 ADD SWAP1 POP SWAP2 SWAP1 POP JUMP JUMPDEST PUSH2 0x198E DUP2 PUSH2 0x16B1 JUMP JUMPDEST DUP3 MSTORE POP POP JUMP JUMPDEST PUSH2 0x199D DUP2 PUSH2 0x172E JUMP JUMPDEST DUP3 MSTORE POP POP JUMP JUMPDEST PUSH1 0xE0 DUP3 ADD PUSH0 DUP3 ADD MLOAD PUSH2 0x19B7 PUSH0 DUP6 ADD DUP3 PUSH2 0x1985 JUMP JUMPDEST POP PUSH1 0x20 DUP3 ADD MLOAD PUSH2 0x19CA PUSH1 0x20 DUP6 ADD DUP3 PUSH2 0x1994 JUMP JUMPDEST POP PUSH1 0x40 DUP3 ADD MLOAD PUSH2 0x19DD PUSH1 0x40 DUP6 ADD DUP3 PUSH2 0x1994 JUMP JUMPDEST POP PUSH1 0x60 DUP3 ADD MLOAD PUSH2 0x19F0 PUSH1 0x60 DUP6 ADD DUP3 PUSH2 0x1985 JUMP JUMPDEST POP PUSH1 0x80 DUP3 ADD MLOAD PUSH2 0x1A03 PUSH1 0x80 DUP6 ADD DUP3 PUSH2 0x1985 JUMP JUMPDEST POP PUSH1 0xA0 DUP3 ADD MLOAD PUSH2 0x1A16 PUSH1 0xA0 DUP6 ADD DUP3 PUSH2 0x1985 JUMP JUMPDEST POP PUSH1 0xC0 DUP3 ADD MLOAD PUSH2 0x1A29 PUSH1 0xC0 DUP6 ADD DUP3 PUSH2 0x1985 JUMP JUMPDEST POP POP POP POP JUMP JUMPDEST PUSH0 PUSH2 0x1A3A DUP4 DUP4 PUSH2 0x19A3 JUMP JUMPDEST PUSH1 0xE0 DUP4 ADD SWAP1 POP SWAP3 SWAP2 POP POP JUMP JUMPDEST PUSH0 PUSH1 0x20 DUP3 ADD SWAP1 POP SWAP2 SWAP1 POP JUMP JUMPDEST PUSH0 PUSH2 0x1A5C DUP3 PUSH2 0x195C JUMP JUMPDEST PUSH2 0x1A66 DUP2 DUP6 PUSH2 0x1966 JUMP JUMPDEST SWAP4 POP PUSH2 0x1A71 DUP4 PUSH2 0x1976 JUMP JUMPDEST DUP1 PUSH0 JUMPDEST DUP4 DUP2 LT ISZERO PUSH2 0x1AA1 JUMPI DUP2 MLOAD PUSH2 0x1A88 DUP9 DUP3 PUSH2 0x1A2F JUMP JUMPDEST SWAP8 POP PUSH2 0x1A93 DUP4 PUSH2 0x1A46 JUMP JUMPDEST SWAP3 POP POP PUSH1 0x1 DUP2 ADD SWAP1 POP PUSH2 0x1A74 JUMP JUMPDEST POP DUP6 SWAP4 POP POP POP POP SWAP3 SWAP2 POP POP JUMP JUMPDEST PUSH0 PUSH1 0x20 DUP3 ADD SWAP1 POP DUP2 DUP2 SUB PUSH0 DUP4 ADD MSTORE PUSH2 0x1AC6 DUP2 DUP5 PUSH2 0x1A52 JUMP JUMPDEST SWAP1 POP SWAP3 SWAP2 POP POP JUMP JUMPDEST PUSH2 0x1AD7 DUP2 PUSH2 0x181F JUMP JUMPDEST DUP3 MSTORE POP POP JUMP JUMPDEST PUSH0 PUSH1 0x20 DUP3 ADD SWAP1 POP PUSH2 0x1AF0 PUSH0 DUP4 ADD DUP5 PUSH2 0x1ACE JUMP JUMPDEST SWAP3 SWAP2 POP POP JUMP JUMPDEST PUSH0 DUP1 PUSH0 DUP1 PUSH0 DUP1 PUSH0 PUSH1 0xE0 DUP9 DUP11 SUB SLT ISZERO PUSH2 0x1B11 JUMPI PUSH2 0x1B10 PUSH2 0x16AD JUMP JUMPDEST JUMPDEST PUSH0 PUSH2 0x1B1E DUP11 DUP3 DUP12 ADD PUSH2 0x1755 JUMP JUMPDEST SWAP8 POP POP PUSH1 0x20 PUSH2 0x1B2F DUP11 DUP3 DUP12 ADD PUSH2 0x1755 JUMP JUMPDEST SWAP7 POP POP PUSH1 0x40 PUSH2 0x1B40 DUP11 DUP3 DUP12 ADD PUSH2 0x1755 JUMP JUMPDEST SWAP6 POP POP PUSH1 0x60 PUSH2 0x1B51 DUP11 DUP3 DUP12 ADD PUSH2 0x16D0 JUMP JUMPDEST SWAP5 POP POP PUSH1 0x80 PUSH2 0x1B62 DUP11 DUP3 DUP12 ADD PUSH2 0x16D0 JUMP JUMPDEST SWAP4 POP POP PUSH1 0xA0 PUSH2 0x1B73 DUP11 DUP3 DUP12 ADD PUSH2 0x16D0 JUMP JUMPDEST SWAP3 POP POP PUSH1 0xC0 PUSH2 0x1B84 DUP11 DUP3 DUP12 ADD PUSH2 0x1840 JUMP JUMPDEST SWAP2 POP POP SWAP3 SWAP6 SWAP9 SWAP2 SWAP5 SWAP8 POP SWAP3 SWAP6 POP JUMP JUMPDEST PUSH0 PUSH1 0x80 DUP3 ADD SWAP1 POP PUSH2 0x1BA6 PUSH0 DUP4 ADD DUP8 PUSH2 0x17F7 JUMP JUMPDEST PUSH2 0x1BB3 PUSH1 0x20 DUP4 ADD DUP7 PUSH2 0x17F7 JUMP JUMPDEST PUSH2 0x1BC0 PUSH1 0x40 DUP4 ADD DUP6 PUSH2 0x17F7 JUMP JUMPDEST PUSH2 0x1BCD PUSH1 0x60 DUP4 ADD DUP5 PUSH2 0x1ACE JUMP JUMPDEST SWAP6 SWAP5 POP POP POP POP POP JUMP JUMPDEST PUSH0 DUP3 DUP3 MSTORE PUSH1 0x20 DUP3 ADD SWAP1 POP SWAP3 SWAP2 POP POP JUMP JUMPDEST PUSH32 0x4E6F7420636F6E74726F6C6C6572206F6620636F6D6D6F646974790000000000 PUSH0 DUP3 ADD MSTORE POP JUMP JUMPDEST PUSH0 PUSH2 0x1C1A PUSH1 0x1B DUP4 PUSH2 0x1BD6 JUMP JUMPDEST SWAP2 POP PUSH2 0x1C25 DUP3 PUSH2 0x1BE6 JUMP JUMPDEST PUSH1 0x20 DUP3 ADD SWAP1 POP SWAP2 SWAP1 POP JUMP JUMPDEST PUSH0 PUSH1 0x20 DUP3 ADD SWAP1 POP DUP2 DUP2 SUB PUSH0 DUP4 ADD MSTORE PUSH2 0x1C47 DUP2 PUSH2 0x1C0E JUMP JUMPDEST SWAP1 POP SWAP2 SWAP1 POP JUMP JUMPDEST PUSH32 0x4E6F207072696365000000000000000000000000000000000000000000000000 PUSH0 DUP3 ADD MSTORE POP JUMP JUMPDEST PUSH0 PUSH2 0x1C82 PUSH1 0x8 DUP4 PUSH2 0x1BD6 JUMP JUMPDEST SWAP2 POP PUSH2 0x1C8D DUP3 PUSH2 0x1C4E JUMP JUMPDEST PUSH1 0x20 DUP3 ADD SWAP1 POP SWAP2 SWAP1 POP JUMP JUMPDEST PUSH0 PUSH1 0x20 DUP3 ADD SWAP1 POP DUP2 DUP2 SUB PUSH0 DUP4 ADD MSTORE PUSH2 0x1CAF DUP2 PUSH2 0x1C76 JUMP JUMPDEST SWAP1 POP SWAP2 SWAP1 POP JUMP JUMPDEST PUSH32 0x4E487B7100000000000000000000000000000000000000000000000000000000 PUSH0 MSTORE PUSH1 0x11 PUSH1 0x4 MSTORE PUSH1 0x24 PUSH0 REVERT JUMPDEST PUSH0 PUSH2 0x1CED DUP3 PUSH2 0x16B1 JUMP JUMPDEST SWAP2 POP PUSH2 0x1CF8 DUP4 PUSH2 0x16B1 JUMP JUMPDEST SWAP3 POP DUP3 DUP3 ADD SWAP1 POP DUP1 DUP3 GT ISZERO PUSH2 0x1D10 JUMPI PUSH2 0x1D0F PUSH2 0x1CB6 JUMP JUMPDEST JUMPDEST SWAP3 SWAP2 POP POP JUMP JUMPDEST PUSH32 0x546F6B656E4964206E6F7420656E6F7567682F436C6F73650000000000000000 PUSH0 DUP3 ADD MSTORE POP JUMP JUMPDEST PUSH0 PUSH2 0x1D4A PUSH1 0x18 DUP4 PUSH2 0x1BD6 JUMP JUMPDEST SWAP2 POP PUSH2 0x1D55 DUP3 PUSH2 0x1D16 JUMP JUMPDEST PUSH1 0x20 DUP3 ADD SWAP1 POP SWAP2 SWAP1 POP JUMP JUMPDEST PUSH0 PUSH1 0x20 DUP3 ADD SWAP1 POP DUP2 DUP2 SUB PUSH0 DUP4 ADD MSTORE PUSH2 0x1D77 DUP2 PUSH2 0x1D3E JUMP JUMPDEST SWAP1 POP SWAP2 SWAP1 POP JUMP JUMPDEST PUSH0 PUSH2 0x1D88 DUP3 PUSH2 0x16B1 JUMP JUMPDEST SWAP2 POP PUSH32 0xFFFFFFFFFFFFFFFFFFFFFFFFFFFFFFFFFFFFFFFFFFFFFFFFFFFFFFFFFFFFFFFF DUP3 SUB PUSH2 0x1DBA JUMPI PUSH2 0x1DB9 PUSH2 0x1CB6 JUMP JUMPDEST JUMPDEST PUSH1 0x1 DUP3 ADD SWAP1 POP SWAP2 SWAP1 POP JUMP JUMPDEST PUSH0 PUSH2 0x1DCF DUP3 PUSH2 0x16B1 JUMP JUMPDEST SWAP2 POP PUSH2 0x1DDA DUP4 PUSH2 0x16B1 JUMP JUMPDEST SWAP3 POP DUP3 DUP3 MUL PUSH2 0x1DE8 DUP2 PUSH2 0x16B1 JUMP JUMPDEST SWAP2 POP DUP3 DUP3 DIV DUP5 EQ DUP4 ISZERO OR PUSH2 0x1DFF JUMPI PUSH2 0x1DFE PUSH2 0x1CB6 JUMP JUMPDEST JUMPDEST POP SWAP3 SWAP2 POP POP JUMP JUMPDEST PUSH0 PUSH1 0x60 DUP3 ADD SWAP1 POP PUSH2 0x1E19 PUSH0 DUP4 ADD DUP7 PUSH2 0x18CB JUMP JUMPDEST PUSH2 0x1E26 PUSH1 0x20 DUP4 ADD DUP6 PUSH2 0x18CB JUMP JUMPDEST PUSH2 0x1E33 PUSH1 0x40 DUP4 ADD DUP5 PUSH2 0x17F7 JUMP JUMPDEST SWAP5 SWAP4 POP POP POP POP JUMP JUMPDEST PUSH0 DUP2 MLOAD SWAP1 POP PUSH2 0x1E49 DUP2 PUSH2 0x182A JUMP JUMPDEST SWAP3 SWAP2 POP POP JUMP JUMPDEST PUSH0 PUSH1 0x20 DUP3 DUP5 SUB SLT ISZERO PUSH2 0x1E64 JUMPI PUSH2 0x1E63 PUSH2 0x16AD JUMP JUMPDEST JUMPDEST PUSH0 PUSH2 0x1E71 DUP5 DUP3 DUP6 ADD PUSH2 0x1E3B JUMP JUMPDEST SWAP2 POP POP SWAP3 SWAP2 POP POP JUMP JUMPDEST PUSH32 0x4E487B7100000000000000000000000000000000000000000000000000000000 PUSH0 MSTORE PUSH1 0x41 PUSH1 0x4 MSTORE PUSH1 0x24 PUSH0 REVERT JUMPDEST PUSH32 0x4E487B7100000000000000000000000000000000000000000000000000000000 PUSH0 MSTORE PUSH1 0x32 PUSH1 0x4 MSTORE PUSH1 0x24 PUSH0 REVERT JUMPDEST PUSH0 PUSH2 0x1EDE DUP3 PUSH2 0x16B1 JUMP JUMPDEST SWAP2 POP PUSH2 0x1EE9 DUP4 PUSH2 0x16B1 JUMP JUMPDEST SWAP3 POP DUP3 DUP3 SUB SWAP1 POP DUP2 DUP2 GT ISZERO PUSH2 0x1F01 JUMPI PUSH2 0x1F00 PUSH2 0x1CB6 JUMP JUMPDEST JUMPDEST SWAP3 SWAP2 POP POP JUMP JUMPDEST PUSH0 DUP2 MLOAD SWAP1 POP PUSH2 0x1F15 DUP2 PUSH2 0x173F JUMP JUMPDEST SWAP3 SWAP2 POP POP JUMP JUMPDEST PUSH0 PUSH1 0x20 DUP3 DUP5 SUB SLT ISZERO PUSH2 0x1F30 JUMPI PUSH2 0x1F2F PUSH2 0x16AD JUMP JUMPDEST JUMPDEST PUSH0 PUSH2 0x1F3D DUP5 DUP3 DUP6 ADD PUSH2 0x1F07 JUMP JUMPDEST SWAP2 POP POP SWAP3 SWAP2 POP POP JUMP JUMPDEST PUSH32 0x52616E646F6D207472656173757279206163636F756E74206E6F7420616C6C6F PUSH0 DUP3 ADD MSTORE PUSH32 0x77656420756E6C657373204E465420636F6E74726163742773206F776E657220 PUSH1 0x20 DUP3 ADD MSTORE POP JUMP JUMPDEST PUSH0 PUSH2 0x1FA0 PUSH1 0x40 DUP4 PUSH2 0x1BD6 JUMP JUMPDEST SWAP2 POP PUSH2 0x1FAB DUP3 PUSH2 0x1F46 JUMP JUMPDEST PUSH1 0x40 DUP3 ADD SWAP1 POP SWAP2 SWAP1 POP JUMP JUMPDEST PUSH0 PUSH1 0x20 DUP3 ADD SWAP1 POP DUP2 DUP2 SUB PUSH0 DUP4 ADD MSTORE PUSH2 0x1FCD DUP2 PUSH2 0x1F94 JUMP JUMPDEST SWAP1 POP SWAP2 SWAP1 POP JUMP JUMPDEST PUSH32 0x506F74656E7469616C204D696E7420416363657373204C65616B000000000000 PUSH0 DUP3 ADD MSTORE POP JUMP JUMPDEST PUSH0 PUSH2 0x2008 PUSH1 0x1A DUP4 PUSH2 0x1BD6 JUMP JUMPDEST SWAP2 POP PUSH2 0x2013 DUP3 PUSH2 0x1FD4 JUMP JUMPDEST PUSH1 0x20 DUP3 ADD SWAP1 POP SWAP2 SWAP1 POP JUMP JUMPDEST PUSH0 PUSH1 0x20 DUP3 ADD SWAP1 POP DUP2 DUP2 SUB PUSH0 DUP4 ADD MSTORE PUSH2 0x2035 DUP2 PUSH2 0x1FFC JUMP JUMPDEST SWAP1 POP SWAP2 SWAP1 POP JUMP JUMPDEST PUSH0 PUSH1 0x40 DUP3 ADD SWAP1 POP PUSH2 0x204F PUSH0 DUP4 ADD DUP6 PUSH2 0x18CB JUMP JUMPDEST PUSH2 0x205C PUSH1 0x20 DUP4 ADD DUP5 PUSH2 0x17F7 JUMP JUMPDEST SWAP4 SWAP3 POP POP POP JUMP INVALID LOG2 PUSH5 0x6970667358 0x22 SLT KECCAK256 0x2E PUSH19 0x4BC41306D6C4332CB208E486A6A271CC5D475E 0xDA CREATE DUP5 RETURN PUSH26 0x62AB33AC216A64736F6C63430008150033000000000000000000 "
		},
		"gasEstimates": {
			"creation": {
				"codeDepositCost": "1669000",
				"executionCost": "23854",
				"totalCost": "1692854"
			},
			"external": {
				"NextCommodityId()": "2470",
				"closeCommodity(uint256)": "71102",
				"controllers(uint256)": "2892",
				"controllersReverse(address,uint256)": "infinite",
				"nftMintOrTransfer(address)": "2900",
				"nonPriceInfos(uint256)": "infinite",
				"queryCommidity(uint256,uint256)": "infinite",
				"querySelectedCommidity(address)": "infinite",
				"quoteNFTs(uint256)": "2850",
				"quoteNFTsReverse(address,uint256)": "infinite",
				"quotePrices(uint256)": "infinite",
				"quoteTokens(uint256)": "2850",
				"registCommodity(address,address,address,uint256,uint256,uint256,bool)": "infinite",
				"safeBuyToken(uint256,uint256)": "infinite",
				"setNonPriceInfo(uint256,uint256,uint256,uint256,bool)": "infinite",
				"updateToken(uint256,address,uint256)": "infinite"
			},
			"internal": {
				"_buyToken(address,uint256,uint256,address,uint256)": "infinite",
				"_setNonPriceInfo(uint256,uint256,uint256,uint256,bool)": "infinite",
				"_updateToken(uint256,address,uint256)": "infinite"
			}
		},
		"methodIdentifiers": {
			"NextCommodityId()": "74aa640b",
			"closeCommodity(uint256)": "07431ea8",
			"controllers(uint256)": "e94b0dd2",
			"controllersReverse(address,uint256)": "d3077e50",
			"nftMintOrTransfer(address)": "9d5260c5",
			"nonPriceInfos(uint256)": "ba0419ee",
			"queryCommidity(uint256,uint256)": "6826f296",
			"querySelectedCommidity(address)": "55759204",
			"quoteNFTs(uint256)": "6b4c2031",
			"quoteNFTsReverse(address,uint256)": "28c689f4",
			"quotePrices(uint256)": "f0640ac0",
			"quoteTokens(uint256)": "2c9115c7",
			"registCommodity(address,address,address,uint256,uint256,uint256,bool)": "a102d7da",
			"safeBuyToken(uint256,uint256)": "3e56e6c3",
			"setNonPriceInfo(uint256,uint256,uint256,uint256,bool)": "2bcbc54d",
			"updateToken(uint256,address,uint256)": "17e08046"
		}
	},
	"abi": [
		{
			"anonymous": false,
			"inputs": [
				{
					"indexed": true,
					"internalType": "address",
					"name": "buyer",
					"type": "address"
				},
				{
					"indexed": true,
					"internalType": "address",
					"name": "quoteNFT",
					"type": "address"
				},
				{
					"indexed": true,
					"internalType": "uint256",
					"name": "tokenId",
					"type": "uint256"
				},
				{
					"indexed": false,
					"internalType": "address",
					"name": "quoteToken",
					"type": "address"
				},
				{
					"indexed": false,
					"internalType": "uint256",
					"name": "quotePrice",
					"type": "uint256"
				}
			],
			"name": "Buy",
			"type": "event"
		},
		{
			"anonymous": false,
			"inputs": [
				{
					"indexed": true,
					"internalType": "uint256",
					"name": "commodityId",
					"type": "uint256"
				},
				{
					"indexed": true,
					"internalType": "address",
					"name": "quoteNFT",
					"type": "address"
				},
				{
					"indexed": false,
					"internalType": "address",
					"name": "controller",
					"type": "address"
				}
			],
			"name": "CommodityRegisted",
			"type": "event"
		},
		{
			"anonymous": false,
			"inputs": [
				{
					"indexed": true,
					"internalType": "uint256",
					"name": "commodityId",
					"type": "uint256"
				},
				{
					"indexed": true,
					"internalType": "address",
					"name": "quoteToken",
					"type": "address"
				},
				{
					"indexed": false,
					"internalType": "uint256",
					"name": "quotePrice",
					"type": "uint256"
				}
			],
			"name": "PriceUpdate",
			"type": "event"
		},
		{
			"inputs": [],
			"name": "NextCommodityId",
			"outputs": [
				{
					"internalType": "uint256",
					"name": "",
					"type": "uint256"
				}
			],
			"stateMutability": "view",
			"type": "function"
		},
		{
			"inputs": [
				{
					"internalType": "uint256",
					"name": "_commodityId",
					"type": "uint256"
				}
			],
			"name": "closeCommodity",
			"outputs": [],
			"stateMutability": "nonpayable",
			"type": "function"
		},
		{
			"inputs": [
				{
					"internalType": "uint256",
					"name": "",
					"type": "uint256"
				}
			],
			"name": "controllers",
			"outputs": [
				{
					"internalType": "address",
					"name": "",
					"type": "address"
				}
			],
			"stateMutability": "view",
			"type": "function"
		},
		{
			"inputs": [
				{
					"internalType": "address",
					"name": "",
					"type": "address"
				},
				{
					"internalType": "uint256",
					"name": "",
					"type": "uint256"
				}
			],
			"name": "controllersReverse",
			"outputs": [
				{
					"internalType": "uint256",
					"name": "",
					"type": "uint256"
				}
			],
			"stateMutability": "view",
			"type": "function"
		},
		{
			"inputs": [
				{
					"internalType": "address",
					"name": "",
					"type": "address"
				}
			],
			"name": "nftMintOrTransfer",
			"outputs": [
				{
					"internalType": "bool",
					"name": "",
					"type": "bool"
				}
			],
			"stateMutability": "view",
			"type": "function"
		},
		{
			"inputs": [
				{
					"internalType": "uint256",
					"name": "",
					"type": "uint256"
				}
			],
			"name": "nonPriceInfos",
			"outputs": [
				{
					"internalType": "uint256",
					"name": "_start",
					"type": "uint256"
				},
				{
					"internalType": "uint256",
					"name": "_end",
					"type": "uint256"
				},
				{
					"internalType": "uint256",
					"name": "_current",
					"type": "uint256"
				},
				{
					"internalType": "bool",
					"name": "_nftMintOrTransfer",
					"type": "bool"
				}
			],
			"stateMutability": "view",
			"type": "function"
		},
		{
			"inputs": [
				{
					"internalType": "uint256",
					"name": "startCommodityId",
					"type": "uint256"
				},
				{
					"internalType": "uint256",
					"name": "endCommodityId",
					"type": "uint256"
				}
			],
			"name": "queryCommidity",
			"outputs": [
				{
					"components": [
						{
							"internalType": "uint256",
							"name": "commodityId",
							"type": "uint256"
						},
						{
							"internalType": "address",
							"name": "nftAddress",
							"type": "address"
						},
						{
							"internalType": "address",
							"name": "quoteToken",
							"type": "address"
						},
						{
							"internalType": "uint256",
							"name": "quotePrice",
							"type": "uint256"
						},
						{
							"internalType": "uint256",
							"name": "_start",
							"type": "uint256"
						},
						{
							"internalType": "uint256",
							"name": "_end",
							"type": "uint256"
						},
						{
							"internalType": "uint256",
							"name": "_current",
							"type": "uint256"
						}
					],
					"internalType": "struct VendingMachine.commodityQueryInfo[]",
					"name": "",
					"type": "tuple[]"
				}
			],
			"stateMutability": "view",
			"type": "function"
		},
		{
			"inputs": [
				{
					"internalType": "address",
					"name": "controller",
					"type": "address"
				}
			],
			"name": "querySelectedCommidity",
			"outputs": [
				{
					"components": [
						{
							"internalType": "uint256",
							"name": "commodityId",
							"type": "uint256"
						},
						{
							"internalType": "address",
							"name": "nftAddress",
							"type": "address"
						},
						{
							"internalType": "address",
							"name": "quoteToken",
							"type": "address"
						},
						{
							"internalType": "uint256",
							"name": "quotePrice",
							"type": "uint256"
						},
						{
							"internalType": "uint256",
							"name": "_start",
							"type": "uint256"
						},
						{
							"internalType": "uint256",
							"name": "_end",
							"type": "uint256"
						},
						{
							"internalType": "uint256",
							"name": "_current",
							"type": "uint256"
						}
					],
					"internalType": "struct VendingMachine.commodityQueryInfo[]",
					"name": "",
					"type": "tuple[]"
				}
			],
			"stateMutability": "view",
			"type": "function"
		},
		{
			"inputs": [
				{
					"internalType": "uint256",
					"name": "",
					"type": "uint256"
				}
			],
			"name": "quoteNFTs",
			"outputs": [
				{
					"internalType": "address",
					"name": "",
					"type": "address"
				}
			],
			"stateMutability": "view",
			"type": "function"
		},
		{
			"inputs": [
				{
					"internalType": "address",
					"name": "",
					"type": "address"
				},
				{
					"internalType": "uint256",
					"name": "",
					"type": "uint256"
				}
			],
			"name": "quoteNFTsReverse",
			"outputs": [
				{
					"internalType": "uint256",
					"name": "",
					"type": "uint256"
				}
			],
			"stateMutability": "view",
			"type": "function"
		},
		{
			"inputs": [
				{
					"internalType": "uint256",
					"name": "",
					"type": "uint256"
				}
			],
			"name": "quotePrices",
			"outputs": [
				{
					"internalType": "uint256",
					"name": "",
					"type": "uint256"
				}
			],
			"stateMutability": "view",
			"type": "function"
		},
		{
			"inputs": [
				{
					"internalType": "uint256",
					"name": "",
					"type": "uint256"
				}
			],
			"name": "quoteTokens",
			"outputs": [
				{
					"internalType": "address",
					"name": "",
					"type": "address"
				}
			],
			"stateMutability": "view",
			"type": "function"
		},
		{
			"inputs": [
				{
					"internalType": "address",
					"name": "_treasury",
					"type": "address"
				},
				{
					"internalType": "address",
					"name": "_quoteNFT",
					"type": "address"
				},
				{
					"internalType": "address",
					"name": "_quoteToken",
					"type": "address"
				},
				{
					"internalType": "uint256",
					"name": "_quotePrice",
					"type": "uint256"
				},
				{
					"internalType": "uint256",
					"name": "_start",
					"type": "uint256"
				},
				{
					"internalType": "uint256",
					"name": "_end",
					"type": "uint256"
				},
				{
					"internalType": "bool",
					"name": "_mintOrTransfer",
					"type": "bool"
				}
			],
			"name": "registCommodity",
			"outputs": [],
			"stateMutability": "nonpayable",
			"type": "function"
		},
		{
			"inputs": [
				{
					"internalType": "uint256",
					"name": "_commodityId",
					"type": "uint256"
				},
				{
					"internalType": "uint256",
					"name": "_quantity",
					"type": "uint256"
				}
			],
			"name": "safeBuyToken",
			"outputs": [],
			"stateMutability": "nonpayable",
			"type": "function"
		},
		{
			"inputs": [
				{
					"internalType": "uint256",
					"name": "_commodityId",
					"type": "uint256"
				},
				{
					"internalType": "uint256",
					"name": "_start",
					"type": "uint256"
				},
				{
					"internalType": "uint256",
					"name": "_end",
					"type": "uint256"
				},
				{
					"internalType": "uint256",
					"name": "_current",
					"type": "uint256"
				},
				{
					"internalType": "bool",
					"name": "_nftMintOrTransfer",
					"type": "bool"
				}
			],
			"name": "setNonPriceInfo",
			"outputs": [],
			"stateMutability": "nonpayable",
			"type": "function"
		},
		{
			"inputs": [
				{
					"internalType": "uint256",
					"name": "_commodityId",
					"type": "uint256"
				},
				{
					"internalType": "address",
					"name": "_token",
					"type": "address"
				},
				{
					"internalType": "uint256",
					"name": "_price",
					"type": "uint256"
				}
			],
			"name": "updateToken",
			"outputs": [],
			"stateMutability": "nonpayable",
			"type": "function"
		}
	]
}